{"abi":[{"type":"constructor","inputs":[{"name":"_addressProvider","type":"address","internalType":"address"}],"stateMutability":"nonpayable"},{"type":"function","name":"getPositionIds","inputs":[{"name":"vault","type":"address","internalType":"address"},{"name":"owner","type":"address","internalType":"address"}],"outputs":[{"name":"","type":"uint256[]","internalType":"uint256[]"}],"stateMutability":"view"},{"type":"function","name":"getUserPosition","inputs":[{"name":"vault","type":"address","internalType":"address"},{"name":"owner","type":"address","internalType":"address"}],"outputs":[{"name":"","type":"tuple[]","internalType":"struct VaultPositionViewer.PositionInfo[]","components":[{"name":"vault","type":"address","internalType":"address"},{"name":"id","type":"uint256","internalType":"uint256"},{"name":"token0","type":"address","internalType":"address"},{"name":"token1","type":"address","internalType":"address"},{"name":"amount0","type":"uint256","internalType":"uint256"},{"name":"amount1","type":"uint256","internalType":"uint256"},{"name":"amount0Debt","type":"uint256","internalType":"uint256"},{"name":"amount1Debt","type":"uint256","internalType":"uint256"},{"name":"debtRatio","type":"uint256","internalType":"uint256"},{"name":"price0","type":"uint256","internalType":"uint256"},{"name":"price1","type":"uint256","internalType":"uint256"},{"name":"positionAddress","type":"address","internalType":"address"},{"name":"positionNftId","type":"uint256","internalType":"uint256"},{"name":"liquidity","type":"uint128","internalType":"uint128"},{"name":"tickUpper","type":"int24","internalType":"int24"},{"name":"tickLower","type":"int24","internalType":"int24"},{"name":"currentTick","type":"int24","internalType":"int24"},{"name":"ul","type":"int24","internalType":"int24"},{"name":"ll","type":"int24","internalType":"int24"},{"name":"inRange","type":"bool","internalType":"bool"},{"name":"rewards","type":"address[]","internalType":"address[]"},{"name":"rewardsAmounts","type":"uint256[]","internalType":"uint256[]"}]}],"stateMutability":"view"},{"type":"function","name":"getUserPositions","inputs":[{"name":"vaults","type":"address[]","internalType":"address[]"},{"name":"owner","type":"address","internalType":"address"}],"outputs":[{"name":"","type":"tuple[][]","internalType":"struct VaultPositionViewer.PositionInfo[][]","components":[{"name":"vault","type":"address","internalType":"address"},{"name":"id","type":"uint256","internalType":"uint256"},{"name":"token0","type":"address","internalType":"address"},{"name":"token1","type":"address","internalType":"address"},{"name":"amount0","type":"uint256","internalType":"uint256"},{"name":"amount1","type":"uint256","internalType":"uint256"},{"name":"amount0Debt","type":"uint256","internalType":"uint256"},{"name":"amount1Debt","type":"uint256","internalType":"uint256"},{"name":"debtRatio","type":"uint256","internalType":"uint256"},{"name":"price0","type":"uint256","internalType":"uint256"},{"name":"price1","type":"uint256","internalType":"uint256"},{"name":"positionAddress","type":"address","internalType":"address"},{"name":"positionNftId","type":"uint256","internalType":"uint256"},{"name":"liquidity","type":"uint128","internalType":"uint128"},{"name":"tickUpper","type":"int24","internalType":"int24"},{"name":"tickLower","type":"int24","internalType":"int24"},{"name":"currentTick","type":"int24","internalType":"int24"},{"name":"ul","type":"int24","internalType":"int24"},{"name":"ll","type":"int24","internalType":"int24"},{"name":"inRange","type":"bool","internalType":"bool"},{"name":"rewards","type":"address[]","internalType":"address[]"},{"name":"rewardsAmounts","type":"uint256[]","internalType":"uint256[]"}]}],"stateMutability":"view"}],"bytecode":{"object":"0x60806040523480156200001157600080fd5b506040516200205b3803806200205b8339818101604052810190620000379190620000e8565b806000806101000a81548173ffffffffffffffffffffffffffffffffffffffff021916908373ffffffffffffffffffffffffffffffffffffffff160217905550506200011a565b600080fd5b600073ffffffffffffffffffffffffffffffffffffffff82169050919050565b6000620000b08262000083565b9050919050565b620000c281620000a3565b8114620000ce57600080fd5b50565b600081519050620000e281620000b7565b92915050565b6000602082840312156200010157620001006200007e565b5b60006200011184828501620000d1565b91505092915050565b611f31806200012a6000396000f3fe608060405234801561001057600080fd5b50600436106100415760003560e01c80631251873e1461004657806392a576e614610076578063ba3cea78146100a6575b600080fd5b610060600480360381019061005b9190610fcf565b6100d6565b60405161006d91906110d7565b60405180910390f35b610090600480360381019061008b9190610fcf565b61015f565b60405161009d9190611527565b60405180910390f35b6100c060048036038101906100bb91906116a2565b610d7a565b6040516100cd9190611846565b60405180910390f35b60608273ffffffffffffffffffffffffffffffffffffffff166328fe7031836040518263ffffffff1660e01b81526004016101119190611877565b600060405180830381865afa15801561012e573d6000803e3d6000fd5b505050506040513d6000823e3d601f19601f820116820180604052508101906101579190611981565b905092915050565b6060600061016d84846100d6565b90506000815167ffffffffffffffff81111561018c5761018b61155f565b5b6040519080825280602002602001820160405280156101c557816020015b6101b2610e3b565b8152602001906001900390816101aa5790505b50905060005b8251811015610d6e57858282815181106101e8576101e76119ca565b5b60200260200101516000019073ffffffffffffffffffffffffffffffffffffffff16908173ffffffffffffffffffffffffffffffffffffffff1681525050828181518110610239576102386119ca565b5b6020026020010151828281518110610254576102536119ca565b5b602002602001015160200181815250508573ffffffffffffffffffffffffffffffffffffffff16630dfe16816040518163ffffffff1660e01b8152600401602060405180830381865afa1580156102af573d6000803e3d6000fd5b505050506040513d601f19601f820116820180604052508101906102d39190611a0e565b8282815181106102e6576102e56119ca565b5b60200260200101516040019073ffffffffffffffffffffffffffffffffffffffff16908173ffffffffffffffffffffffffffffffffffffffff16815250508573ffffffffffffffffffffffffffffffffffffffff1663d21220a76040518163ffffffff1660e01b8152600401602060405180830381865afa15801561036f573d6000803e3d6000fd5b505050506040513d601f19601f820116820180604052508101906103939190611a0e565b8282815181106103a6576103a56119ca565b5b60200260200101516060019073ffffffffffffffffffffffffffffffffffffffff16908173ffffffffffffffffffffffffffffffffffffffff16815250508573ffffffffffffffffffffffffffffffffffffffff1663d26265e0848381518110610413576104126119ca565b5b60200260200101516040518263ffffffff1660e01b81526004016104379190611a4a565b6040805180830381865afa158015610453573d6000803e3d6000fd5b505050506040513d601f19601f820116820180604052508101906104779190611a65565b83838151811061048a576104896119ca565b5b60200260200101516080018484815181106104a8576104a76119ca565b5b602002602001015160a0018281525082815250505060008282815181106104d2576104d16119ca565b5b6020026020010151608001511180610508575060008282815181106104fa576104f96119ca565b5b602002602001015160a00151115b1561069f578573ffffffffffffffffffffffffffffffffffffffff1663bd83eb4c84838151811061053c5761053b6119ca565b5b60200260200101516040518263ffffffff1660e01b81526004016105609190611a4a565b6040805180830381865afa15801561057c573d6000803e3d6000fd5b505050506040513d601f19601f820116820180604052508101906105a09190611a65565b8383815181106105b3576105b26119ca565b5b602002602001015160c0018484815181106105d1576105d06119ca565b5b602002602001015160e001828152508281525050508573ffffffffffffffffffffffffffffffffffffffff16632c35f3fb848381518110610615576106146119ca565b5b60200260200101516040518263ffffffff1660e01b81526004016106399190611a4a565b602060405180830381865afa158015610656573d6000803e3d6000fd5b505050506040513d601f19601f8201168201806040525081019061067a9190611aa5565b82828151811061068d5761068c6119ca565b5b60200260200101516101000181815250505b8573ffffffffffffffffffffffffffffffffffffffff1663d02641a08383815181106106ce576106cd6119ca565b5b6020026020010151604001516040518263ffffffff1660e01b81526004016106f69190611877565b602060405180830381865afa158015610713573d6000803e3d6000fd5b505050506040513d601f19601f820116820180604052508101906107379190611aa5565b82828151811061074a576107496119ca565b5b60200260200101516101200181815250508573ffffffffffffffffffffffffffffffffffffffff1663d02641a083838151811061078a576107896119ca565b5b6020026020010151606001516040518263ffffffff1660e01b81526004016107b29190611877565b602060405180830381865afa1580156107cf573d6000803e3d6000fd5b505050506040513d601f19601f820116820180604052508101906107f39190611aa5565b828281518110610806576108056119ca565b5b602002602001015161014001818152505060008673ffffffffffffffffffffffffffffffffffffffff1663c41882b6858481518110610848576108476119ca565b5b60200260200101516040518263ffffffff1660e01b815260040161086c9190611a4a565b61016060405180830381865afa15801561088a573d6000803e3d6000fd5b505050506040513d601f19601f820116820180604052508101906108ae9190611c0f565b905080606001518383815181106108c8576108c76119ca565b5b6020026020010151610160019073ffffffffffffffffffffffffffffffffffffffff16908173ffffffffffffffffffffffffffffffffffffffff1681525050806080015183838151811061091f5761091e6119ca565b5b60200260200101516101800181815250508060e00151838381518110610948576109476119ca565b5b60200260200101516101c0019060020b908160020b8152505080610100015183838151811061097a576109796119ca565b5b60200260200101516101e0019060020b908160020b815250508061012001518383815181106109ac576109ab6119ca565b5b6020026020010151610220019060020b908160020b815250508061014001518383815181106109de576109dd6119ca565b5b6020026020010151610240019060020b908160020b815250506000838381518110610a0c57610a0b6119ca565b5b602002602001015160800151118015610a4357506000838381518110610a3557610a346119ca565b5b602002602001015160a00151115b838381518110610a5657610a556119ca565b5b6020026020010151610260019015159081151581525050806060015173ffffffffffffffffffffffffffffffffffffffff16636c003a9b6040518163ffffffff1660e01b8152600401600060405180830381865afa158015610abc573d6000803e3d6000fd5b505050506040513d6000823e3d601f19601f82011682018060405250810190610ae59190611cd4565b848481518110610af857610af76119ca565b5b602002602001015161028001858581518110610b1757610b166119ca565b5b60200260200101516102a00182905282905250508673ffffffffffffffffffffffffffffffffffffffff166353aad1d96040518163ffffffff1660e01b8152600401602060405180830381865afa158015610b76573d6000803e3d6000fd5b505050506040513d601f19601f82011682018060405250810190610b9a9190611d4c565b838381518110610bad57610bac6119ca565b5b6020026020010151610200019060020b908160020b8152505060008054906101000a900473ffffffffffffffffffffffffffffffffffffffff1673ffffffffffffffffffffffffffffffffffffffff1663b93f9b0a61012d6040518263ffffffff1660e01b8152600401610c219190611a4a565b602060405180830381865afa158015610c3e573d6000803e3d6000fd5b505050506040513d601f19601f82011682018060405250810190610c629190611a0e565b73ffffffffffffffffffffffffffffffffffffffff166399fbab8882608001516040518263ffffffff1660e01b8152600401610c9e9190611a4a565b61014060405180830381865afa158015610cbc573d6000803e3d6000fd5b505050506040513d601f19601f82011682018060405250810190610ce09190611da5565b9091929394959697985090919293949596975090919293949596509091929394955090919293945090919250909150905050838381518110610d2557610d246119ca565b5b60200260200101516101a001816fffffffffffffffffffffffffffffffff166fffffffffffffffffffffffffffffffff1681525050508080610d6690611eb3565b9150506101cb565b50809250505092915050565b60606000835167ffffffffffffffff811115610d9957610d9861155f565b5b604051908082528060200260200182016040528015610dcc57816020015b6060815260200190600190039081610db75790505b50905060005b8451811015610e3057610dff858281518110610df157610df06119ca565b5b60200260200101518561015f565b828281518110610e1257610e116119ca565b5b60200260200101819052508080610e2890611eb3565b915050610dd2565b508091505092915050565b604051806102c00160405280600073ffffffffffffffffffffffffffffffffffffffff16815260200160008152602001600073ffffffffffffffffffffffffffffffffffffffff168152602001600073ffffffffffffffffffffffffffffffffffffffff16815260200160008152602001600081526020016000815260200160008152602001600081526020016000815260200160008152602001600073ffffffffffffffffffffffffffffffffffffffff1681526020016000815260200160006fffffffffffffffffffffffffffffffff168152602001600060020b8152602001600060020b8152602001600060020b8152602001600060020b8152602001600060020b815260200160001515815260200160608152602001606081525090565b6000604051905090565b600080fd5b600080fd5b600073ffffffffffffffffffffffffffffffffffffffff82169050919050565b6000610f9c82610f71565b9050919050565b610fac81610f91565b8114610fb757600080fd5b50565b600081359050610fc981610fa3565b92915050565b60008060408385031215610fe657610fe5610f67565b5b6000610ff485828601610fba565b925050602061100585828601610fba565b9150509250929050565b600081519050919050565b600082825260208201905092915050565b6000819050602082019050919050565b6000819050919050565b61104e8161103b565b82525050565b60006110608383611045565b60208301905092915050565b6000602082019050919050565b60006110848261100f565b61108e818561101a565b93506110998361102b565b8060005b838110156110ca5781516110b18882611054565b97506110bc8361106c565b92505060018101905061109d565b5085935050505092915050565b600060208201905081810360008301526110f18184611079565b905092915050565b600081519050919050565b600082825260208201905092915050565b6000819050602082019050919050565b61112e81610f91565b82525050565b60006fffffffffffffffffffffffffffffffff82169050919050565b61115981611134565b82525050565b60008160020b9050919050565b6111758161115f565b82525050565b60008115159050919050565b6111908161117b565b82525050565b600081519050919050565b600082825260208201905092915050565b6000819050602082019050919050565b60006111ce8383611125565b60208301905092915050565b6000602082019050919050565b60006111f282611196565b6111fc81856111a1565b9350611207836111b2565b8060005b8381101561123857815161121f88826111c2565b975061122a836111da565b92505060018101905061120b565b5085935050505092915050565b600082825260208201905092915050565b60006112618261100f565b61126b8185611245565b93506112768361102b565b8060005b838110156112a757815161128e8882611054565b97506112998361106c565b92505060018101905061127a565b5085935050505092915050565b60006102c0830160008301516112cd6000860182611125565b5060208301516112e06020860182611045565b5060408301516112f36040860182611125565b5060608301516113066060860182611125565b5060808301516113196080860182611045565b5060a083015161132c60a0860182611045565b5060c083015161133f60c0860182611045565b5060e083015161135260e0860182611045565b50610100830151611367610100860182611045565b5061012083015161137c610120860182611045565b50610140830151611391610140860182611045565b506101608301516113a6610160860182611125565b506101808301516113bb610180860182611045565b506101a08301516113d06101a0860182611150565b506101c08301516113e56101c086018261116c565b506101e08301516113fa6101e086018261116c565b5061020083015161140f61020086018261116c565b5061022083015161142461022086018261116c565b5061024083015161143961024086018261116c565b5061026083015161144e610260860182611187565b5061028083015184820361028086015261146882826111e7565b9150506102a08301518482036102a08601526114848282611256565b9150508091505092915050565b600061149d83836112b4565b905092915050565b6000602082019050919050565b60006114bd826110f9565b6114c78185611104565b9350836020820285016114d985611115565b8060005b8581101561151557848403895281516114f68582611491565b9450611501836114a5565b925060208a019950506001810190506114dd565b50829750879550505050505092915050565b6000602082019050818103600083015261154181846114b2565b905092915050565b600080fd5b6000601f19601f8301169050919050565b7f4e487b7100000000000000000000000000000000000000000000000000000000600052604160045260246000fd5b6115978261154e565b810181811067ffffffffffffffff821117156115b6576115b561155f565b5b80604052505050565b60006115c9610f5d565b90506115d5828261158e565b919050565b600067ffffffffffffffff8211156115f5576115f461155f565b5b602082029050602081019050919050565b600080fd5b600061161e611619846115da565b6115bf565b9050808382526020820190506020840283018581111561164157611640611606565b5b835b8181101561166a57806116568882610fba565b845260208401935050602081019050611643565b5050509392505050565b600082601f83011261168957611688611549565b5b813561169984826020860161160b565b91505092915050565b600080604083850312156116b9576116b8610f67565b5b600083013567ffffffffffffffff8111156116d7576116d6610f6c565b5b6116e385828601611674565b92505060206116f485828601610fba565b9150509250929050565b600081519050919050565b600082825260208201905092915050565b6000819050602082019050919050565b600082825260208201905092915050565b6000611746826110f9565b611750818561172a565b93508360208202850161176285611115565b8060005b8581101561179e578484038952815161177f8582611491565b945061178a836114a5565b925060208a01995050600181019050611766565b50829750879550505050505092915050565b60006117bc838361173b565b905092915050565b6000602082019050919050565b60006117dc826116fe565b6117e68185611709565b9350836020820285016117f88561171a565b8060005b85811015611834578484038952815161181585826117b0565b9450611820836117c4565b925060208a019950506001810190506117fc565b50829750879550505050505092915050565b6000602082019050818103600083015261186081846117d1565b905092915050565b61187181610f91565b82525050565b600060208201905061188c6000830184611868565b92915050565b600067ffffffffffffffff8211156118ad576118ac61155f565b5b602082029050602081019050919050565b6118c78161103b565b81146118d257600080fd5b50565b6000815190506118e4816118be565b92915050565b60006118fd6118f884611892565b6115bf565b905080838252602082019050602084028301858111156119205761191f611606565b5b835b81811015611949578061193588826118d5565b845260208401935050602081019050611922565b5050509392505050565b600082601f83011261196857611967611549565b5b81516119788482602086016118ea565b91505092915050565b60006020828403121561199757611996610f67565b5b600082015167ffffffffffffffff8111156119b5576119b4610f6c565b5b6119c184828501611953565b91505092915050565b7f4e487b7100000000000000000000000000000000000000000000000000000000600052603260045260246000fd5b600081519050611a0881610fa3565b92915050565b600060208284031215611a2457611a23610f67565b5b6000611a32848285016119f9565b91505092915050565b611a448161103b565b82525050565b6000602082019050611a5f6000830184611a3b565b92915050565b60008060408385031215611a7c57611a7b610f67565b5b6000611a8a858286016118d5565b9250506020611a9b858286016118d5565b9150509250929050565b600060208284031215611abb57611aba610f67565b5b6000611ac9848285016118d5565b91505092915050565b600080fd5b611ae08161115f565b8114611aeb57600080fd5b50565b600081519050611afd81611ad7565b92915050565b60006101608284031215611b1a57611b19611ad2565b5b611b256101606115bf565b90506000611b35848285016119f9565b6000830152506020611b49848285016118d5565b6020830152506040611b5d848285016118d5565b6040830152506060611b71848285016119f9565b6060830152506080611b85848285016118d5565b60808301525060a0611b99848285016118d5565b60a08301525060c0611bad848285016118d5565b60c08301525060e0611bc184828501611aee565b60e083015250610100611bd684828501611aee565b61010083015250610120611bec84828501611aee565b61012083015250610140611c0284828501611aee565b6101408301525092915050565b60006101608284031215611c2657611c25610f67565b5b6000611c3484828501611b03565b91505092915050565b6000611c50611c4b846115da565b6115bf565b90508083825260208201905060208402830185811115611c7357611c72611606565b5b835b81811015611c9c5780611c8888826119f9565b845260208401935050602081019050611c75565b5050509392505050565b600082601f830112611cbb57611cba611549565b5b8151611ccb848260208601611c3d565b91505092915050565b60008060408385031215611ceb57611cea610f67565b5b600083015167ffffffffffffffff811115611d0957611d08610f6c565b5b611d1585828601611ca6565b925050602083015167ffffffffffffffff811115611d3657611d35610f6c565b5b611d4285828601611953565b9150509250929050565b600060208284031215611d6257611d61610f67565b5b6000611d7084828501611aee565b91505092915050565b611d8281611134565b8114611d8d57600080fd5b50565b600081519050611d9f81611d79565b92915050565b6000806000806000806000806000806101408b8d031215611dc957611dc8610f67565b5b6000611dd78d828e016119f9565b9a50506020611de88d828e016119f9565b9950506040611df98d828e01611aee565b9850506060611e0a8d828e01611aee565b9750506080611e1b8d828e01611aee565b96505060a0611e2c8d828e01611d90565b95505060c0611e3d8d828e016118d5565b94505060e0611e4e8d828e016118d5565b935050610100611e608d828e01611d90565b925050610120611e728d828e01611d90565b9150509295989b9194979a5092959850565b7f4e487b7100000000000000000000000000000000000000000000000000000000600052601160045260246000fd5b6000611ebe8261103b565b91507fffffffffffffffffffffffffffffffffffffffffffffffffffffffffffffffff8203611ef057611eef611e84565b5b60018201905091905056fea264697066735822122062a0a31bec828a27c8251e875369eb67d95869f6a2d33564db3e25684c1cba5164736f6c63430008120033","linkReferences":{}},"methodIdentifiers":{"getPositionIds(address,address)":"1251873e","getUserPosition(address,address)":"92a576e6","getUserPositions(address[],address)":"ba3cea78"},"id":51}