{"abi":[{"type":"receive","stateMutability":"payable"},{"type":"function","name":"WETH9","inputs":[],"outputs":[{"name":"","type":"address","internalType":"address"}],"stateMutability":"view"},{"type":"function","name":"activateReserve","inputs":[{"name":"reserveId","type":"uint256","internalType":"uint256"}],"outputs":[],"stateMutability":"nonpayable"},{"type":"function","name":"addressRegistry","inputs":[],"outputs":[{"name":"","type":"address","internalType":"address"}],"stateMutability":"view"},{"type":"function","name":"borrow","inputs":[{"name":"onBehalfOf","type":"address","internalType":"address"},{"name":"debtId","type":"uint256","internalType":"uint256"},{"name":"amount","type":"uint256","internalType":"uint256"}],"outputs":[],"stateMutability":"nonpayable"},{"type":"function","name":"borrowingRateOfReserve","inputs":[{"name":"reserveId","type":"uint256","internalType":"uint256"}],"outputs":[{"name":"","type":"uint256","internalType":"uint256"}],"stateMutability":"view"},{"type":"function","name":"borrowingWhiteList","inputs":[{"name":"","type":"address","internalType":"address"}],"outputs":[{"name":"","type":"bool","internalType":"bool"}],"stateMutability":"view"},{"type":"function","name":"credits","inputs":[{"name":"","type":"uint256","internalType":"uint256"},{"name":"","type":"address","internalType":"address"}],"outputs":[{"name":"","type":"uint256","internalType":"uint256"}],"stateMutability":"view"},{"type":"function","name":"deActivateReserve","inputs":[{"name":"reserveId","type":"uint256","internalType":"uint256"}],"outputs":[],"stateMutability":"nonpayable"},{"type":"function","name":"debtPositions","inputs":[{"name":"","type":"uint256","internalType":"uint256"}],"outputs":[{"name":"reserveId","type":"uint256","internalType":"uint256"},{"name":"owner","type":"address","internalType":"address"},{"name":"borrowed","type":"uint256","internalType":"uint256"},{"name":"borrowedIndex","type":"uint256","internalType":"uint256"}],"stateMutability":"view"},{"type":"function","name":"deposit","inputs":[{"name":"reserveId","type":"uint256","internalType":"uint256"},{"name":"amount","type":"uint256","internalType":"uint256"},{"name":"onBehalfOf","type":"address","internalType":"address"},{"name":"referralCode","type":"uint16","internalType":"uint16"}],"outputs":[{"name":"eTokenAmount","type":"uint256","internalType":"uint256"}],"stateMutability":"payable"},{"type":"function","name":"depositAndStake","inputs":[{"name":"reserveId","type":"uint256","internalType":"uint256"},{"name":"amount","type":"uint256","internalType":"uint256"},{"name":"onBehalfOf","type":"address","internalType":"address"},{"name":"referralCode","type":"uint16","internalType":"uint16"}],"outputs":[{"name":"eTokenAmount","type":"uint256","internalType":"uint256"}],"stateMutability":"payable"},{"type":"function","name":"disableBorrowing","inputs":[{"name":"reserveId","type":"uint256","internalType":"uint256"}],"outputs":[],"stateMutability":"nonpayable"},{"type":"function","name":"disableVaultToBorrow","inputs":[{"name":"vaultId","type":"uint256","internalType":"uint256"}],"outputs":[],"stateMutability":"nonpayable"},{"type":"function","name":"emergencyPauseAll","inputs":[],"outputs":[],"stateMutability":"nonpayable"},{"type":"function","name":"enableBorrowing","inputs":[{"name":"reserveId","type":"uint256","internalType":"uint256"}],"outputs":[],"stateMutability":"nonpayable"},{"type":"function","name":"enableVaultToBorrow","inputs":[{"name":"vaultId","type":"uint256","internalType":"uint256"}],"outputs":[],"stateMutability":"nonpayable"},{"type":"function","name":"exchangeRateOfReserve","inputs":[{"name":"reserveId","type":"uint256","internalType":"uint256"}],"outputs":[{"name":"","type":"uint256","internalType":"uint256"}],"stateMutability":"view"},{"type":"function","name":"freezeReserve","inputs":[{"name":"reserveId","type":"uint256","internalType":"uint256"}],"outputs":[],"stateMutability":"nonpayable"},{"type":"function","name":"getCurrentDebt","inputs":[{"name":"debtId","type":"uint256","internalType":"uint256"}],"outputs":[{"name":"currentDebt","type":"uint256","internalType":"uint256"},{"name":"latestBorrowingIndex","type":"uint256","internalType":"uint256"}],"stateMutability":"view"},{"type":"function","name":"getETokenAddress","inputs":[{"name":"reserveId","type":"uint256","internalType":"uint256"}],"outputs":[{"name":"","type":"address","internalType":"address"}],"stateMutability":"view"},{"type":"function","name":"getPositionStatus","inputs":[{"name":"reserveIdArr","type":"uint256[]","internalType":"uint256[]"},{"name":"user","type":"address","internalType":"address"}],"outputs":[{"name":"statusArr","type":"tuple[]","internalType":"struct ILendingPool.PositionStatus[]","components":[{"name":"reserveId","type":"uint256","internalType":"uint256"},{"name":"user","type":"address","internalType":"address"},{"name":"eTokenStaked","type":"uint256","internalType":"uint256"},{"name":"eTokenUnStaked","type":"uint256","internalType":"uint256"},{"name":"liquidity","type":"uint256","internalType":"uint256"}]}],"stateMutability":"view"},{"type":"function","name":"getReserveIdOfDebt","inputs":[{"name":"debtId","type":"uint256","internalType":"uint256"}],"outputs":[{"name":"","type":"uint256","internalType":"uint256"}],"stateMutability":"view"},{"type":"function","name":"getReserveStatus","inputs":[{"name":"reserveIdArr","type":"uint256[]","internalType":"uint256[]"}],"outputs":[{"name":"statusArr","type":"tuple[]","internalType":"struct ILendingPool.ReserveStatus[]","components":[{"name":"reserveId","type":"uint256","internalType":"uint256"},{"name":"underlyingTokenAddress","type":"address","internalType":"address"},{"name":"eTokenAddress","type":"address","internalType":"address"},{"name":"stakingAddress","type":"address","internalType":"address"},{"name":"totalLiquidity","type":"uint256","internalType":"uint256"},{"name":"totalBorrows","type":"uint256","internalType":"uint256"},{"name":"exchangeRate","type":"uint256","internalType":"uint256"},{"name":"borrowingRate","type":"uint256","internalType":"uint256"}]}],"stateMutability":"view"},{"type":"function","name":"getStakingAddress","inputs":[{"name":"reserveId","type":"uint256","internalType":"uint256"}],"outputs":[{"name":"","type":"address","internalType":"address"}],"stateMutability":"view"},{"type":"function","name":"getUnderlyingTokenAddress","inputs":[{"name":"reserveId","type":"uint256","internalType":"uint256"}],"outputs":[{"name":"","type":"address","internalType":"address"}],"stateMutability":"view"},{"type":"function","name":"initReserve","inputs":[{"name":"asset","type":"address","internalType":"address"}],"outputs":[],"stateMutability":"nonpayable"},{"type":"function","name":"initialize","inputs":[{"name":"_addressRegistry","type":"address","internalType":"address"},{"name":"_WETH9","type":"address","internalType":"address"}],"outputs":[],"stateMutability":"nonpayable"},{"type":"function","name":"newDebtPosition","inputs":[{"name":"reserveId","type":"uint256","internalType":"uint256"}],"outputs":[{"name":"debtId","type":"uint256","internalType":"uint256"}],"stateMutability":"nonpayable"},{"type":"function","name":"nextDebtPositionId","inputs":[],"outputs":[{"name":"","type":"uint256","internalType":"uint256"}],"stateMutability":"view"},{"type":"function","name":"nextReserveId","inputs":[],"outputs":[{"name":"","type":"uint256","internalType":"uint256"}],"stateMutability":"view"},{"type":"function","name":"owner","inputs":[],"outputs":[{"name":"","type":"address","internalType":"address"}],"stateMutability":"view"},{"type":"function","name":"paused","inputs":[],"outputs":[{"name":"","type":"bool","internalType":"bool"}],"stateMutability":"view"},{"type":"function","name":"redeem","inputs":[{"name":"reserveId","type":"uint256","internalType":"uint256"},{"name":"eTokenAmount","type":"uint256","internalType":"uint256"},{"name":"to","type":"address","internalType":"address"},{"name":"receiveNativeETH","type":"bool","internalType":"bool"}],"outputs":[{"name":"","type":"uint256","internalType":"uint256"}],"stateMutability":"payable"},{"type":"function","name":"renounceOwnership","inputs":[],"outputs":[],"stateMutability":"nonpayable"},{"type":"function","name":"repay","inputs":[{"name":"onBehalfOf","type":"address","internalType":"address"},{"name":"debtId","type":"uint256","internalType":"uint256"},{"name":"amount","type":"uint256","internalType":"uint256"}],"outputs":[{"name":"","type":"uint256","internalType":"uint256"}],"stateMutability":"nonpayable"},{"type":"function","name":"reserves","inputs":[{"name":"","type":"uint256","internalType":"uint256"}],"outputs":[{"name":"borrowingIndex","type":"uint256","internalType":"uint256"},{"name":"currentBorrowingRate","type":"uint256","internalType":"uint256"},{"name":"totalBorrows","type":"uint256","internalType":"uint256"},{"name":"underlyingTokenAddress","type":"address","internalType":"address"},{"name":"eTokenAddress","type":"address","internalType":"address"},{"name":"stakingAddress","type":"address","internalType":"address"},{"name":"reserveCapacity","type":"uint256","internalType":"uint256"},{"name":"borrowingRateConfig","type":"tuple","internalType":"struct DataTypes.InterestRateConfig","components":[{"name":"utilizationA","type":"uint128","internalType":"uint128"},{"name":"borrowingRateA","type":"uint128","internalType":"uint128"},{"name":"utilizationB","type":"uint128","internalType":"uint128"},{"name":"borrowingRateB","type":"uint128","internalType":"uint128"},{"name":"maxBorrowingRate","type":"uint128","internalType":"uint128"}]},{"name":"id","type":"uint256","internalType":"uint256"},{"name":"lastUpdateTimestamp","type":"uint128","internalType":"uint128"},{"name":"reserveFeeRate","type":"uint16","internalType":"uint16"},{"name":"flags","type":"tuple","internalType":"struct DataTypes.Flags","components":[{"name":"isActive","type":"bool","internalType":"bool"},{"name":"frozen","type":"bool","internalType":"bool"},{"name":"borrowingEnabled","type":"bool","internalType":"bool"}]}],"stateMutability":"view"},{"type":"function","name":"setBorrowingRateConfig","inputs":[{"name":"reserveId","type":"uint256","internalType":"uint256"},{"name":"utilizationA","type":"uint16","internalType":"uint16"},{"name":"borrowingRateA","type":"uint16","internalType":"uint16"},{"name":"utilizationB","type":"uint16","internalType":"uint16"},{"name":"borrowingRateB","type":"uint16","internalType":"uint16"},{"name":"maxBorrowingRate","type":"uint16","internalType":"uint16"}],"outputs":[],"stateMutability":"nonpayable"},{"type":"function","name":"setCreditsOfVault","inputs":[{"name":"vaultId","type":"uint256","internalType":"uint256"},{"name":"reserveId","type":"uint256","internalType":"uint256"},{"name":"credit","type":"uint256","internalType":"uint256"}],"outputs":[],"stateMutability":"nonpayable"},{"type":"function","name":"setReserveCapacity","inputs":[{"name":"reserveId","type":"uint256","internalType":"uint256"},{"name":"cap","type":"uint256","internalType":"uint256"}],"outputs":[],"stateMutability":"nonpayable"},{"type":"function","name":"setReserveFeeRate","inputs":[{"name":"reserveId","type":"uint256","internalType":"uint256"},{"name":"_rate","type":"uint16","internalType":"uint16"}],"outputs":[],"stateMutability":"nonpayable"},{"type":"function","name":"totalBorrowsOfReserve","inputs":[{"name":"reserveId","type":"uint256","internalType":"uint256"}],"outputs":[{"name":"totalBorrows","type":"uint256","internalType":"uint256"}],"stateMutability":"view"},{"type":"function","name":"totalLiquidityOfReserve","inputs":[{"name":"reserveId","type":"uint256","internalType":"uint256"}],"outputs":[{"name":"totalLiquidity","type":"uint256","internalType":"uint256"}],"stateMutability":"view"},{"type":"function","name":"transferOwnership","inputs":[{"name":"newOwner","type":"address","internalType":"address"}],"outputs":[],"stateMutability":"nonpayable"},{"type":"function","name":"unFreezeReserve","inputs":[{"name":"reserveId","type":"uint256","internalType":"uint256"}],"outputs":[],"stateMutability":"nonpayable"},{"type":"function","name":"unPauseAll","inputs":[],"outputs":[],"stateMutability":"nonpayable"},{"type":"function","name":"unStakeAndWithdraw","inputs":[{"name":"reserveId","type":"uint256","internalType":"uint256"},{"name":"eTokenAmount","type":"uint256","internalType":"uint256"},{"name":"to","type":"address","internalType":"address"},{"name":"receiveNativeETH","type":"bool","internalType":"bool"}],"outputs":[{"name":"","type":"uint256","internalType":"uint256"}],"stateMutability":"payable"},{"type":"function","name":"utilizationRateOfReserve","inputs":[{"name":"reserveId","type":"uint256","internalType":"uint256"}],"outputs":[{"name":"","type":"uint256","internalType":"uint256"}],"stateMutability":"view"},{"type":"event","name":"Borrow","inputs":[{"name":"reserveId","type":"uint256","indexed":true,"internalType":"uint256"},{"name":"contractAddress","type":"address","indexed":true,"internalType":"address"},{"name":"onBehalfOf","type":"address","indexed":true,"internalType":"address"},{"name":"amount","type":"uint256","indexed":false,"internalType":"uint256"}],"anonymous":false},{"type":"event","name":"Deposited","inputs":[{"name":"reserveId","type":"uint256","indexed":true,"internalType":"uint256"},{"name":"user","type":"address","indexed":false,"internalType":"address"},{"name":"onBehalfOf","type":"address","indexed":true,"internalType":"address"},{"name":"reserveAmount","type":"uint256","indexed":false,"internalType":"uint256"},{"name":"eTokenAmount","type":"uint256","indexed":false,"internalType":"uint256"},{"name":"referral","type":"uint16","indexed":true,"internalType":"uint16"}],"anonymous":false},{"type":"event","name":"DisableVaultToBorrow","inputs":[{"name":"vaultId","type":"uint256","indexed":true,"internalType":"uint256"},{"name":"vaultAddress","type":"address","indexed":true,"internalType":"address"}],"anonymous":false},{"type":"event","name":"EnableVaultToBorrow","inputs":[{"name":"vaultId","type":"uint256","indexed":true,"internalType":"uint256"},{"name":"vaultAddress","type":"address","indexed":true,"internalType":"address"}],"anonymous":false},{"type":"event","name":"InitReserve","inputs":[{"name":"reserve","type":"address","indexed":true,"internalType":"address"},{"name":"eTokenAddress","type":"address","indexed":true,"internalType":"address"},{"name":"stakingAddress","type":"address","indexed":false,"internalType":"address"},{"name":"id","type":"uint256","indexed":false,"internalType":"uint256"}],"anonymous":false},{"type":"event","name":"Initialized","inputs":[{"name":"version","type":"uint8","indexed":false,"internalType":"uint8"}],"anonymous":false},{"type":"event","name":"OwnershipTransferred","inputs":[{"name":"previousOwner","type":"address","indexed":true,"internalType":"address"},{"name":"newOwner","type":"address","indexed":true,"internalType":"address"}],"anonymous":false},{"type":"event","name":"Paused","inputs":[],"anonymous":false},{"type":"event","name":"Redeemed","inputs":[{"name":"reserveId","type":"uint256","indexed":true,"internalType":"uint256"},{"name":"user","type":"address","indexed":true,"internalType":"address"},{"name":"to","type":"address","indexed":true,"internalType":"address"},{"name":"eTokenAmount","type":"uint256","indexed":false,"internalType":"uint256"},{"name":"underlyingTokenAmount","type":"uint256","indexed":false,"internalType":"uint256"}],"anonymous":false},{"type":"event","name":"Repay","inputs":[{"name":"reserveId","type":"uint256","indexed":true,"internalType":"uint256"},{"name":"onBehalfOf","type":"address","indexed":true,"internalType":"address"},{"name":"contractAddress","type":"address","indexed":true,"internalType":"address"},{"name":"amount","type":"uint256","indexed":false,"internalType":"uint256"}],"anonymous":false},{"type":"event","name":"ReserveActivated","inputs":[{"name":"reserveId","type":"uint256","indexed":true,"internalType":"uint256"}],"anonymous":false},{"type":"event","name":"ReserveBorrowDisabled","inputs":[{"name":"reserveId","type":"uint256","indexed":true,"internalType":"uint256"}],"anonymous":false},{"type":"event","name":"ReserveBorrowEnabled","inputs":[{"name":"reserveId","type":"uint256","indexed":true,"internalType":"uint256"}],"anonymous":false},{"type":"event","name":"ReserveDeActivated","inputs":[{"name":"reserveId","type":"uint256","indexed":true,"internalType":"uint256"}],"anonymous":false},{"type":"event","name":"ReserveFrozen","inputs":[{"name":"reserveId","type":"uint256","indexed":true,"internalType":"uint256"}],"anonymous":false},{"type":"event","name":"ReserveUnFreeze","inputs":[{"name":"reserveId","type":"uint256","indexed":true,"internalType":"uint256"}],"anonymous":false},{"type":"event","name":"SetCreditsOfVault","inputs":[{"name":"vaultId","type":"uint256","indexed":true,"internalType":"uint256"},{"name":"vaultAddress","type":"address","indexed":true,"internalType":"address"},{"name":"reserveId","type":"uint256","indexed":true,"internalType":"uint256"},{"name":"credit","type":"uint256","indexed":false,"internalType":"uint256"}],"anonymous":false},{"type":"event","name":"SetInterestRateConfig","inputs":[{"name":"reserveId","type":"uint256","indexed":true,"internalType":"uint256"},{"name":"utilizationA","type":"uint16","indexed":false,"internalType":"uint16"},{"name":"borrowingRateA","type":"uint16","indexed":false,"internalType":"uint16"},{"name":"utilizationB","type":"uint16","indexed":false,"internalType":"uint16"},{"name":"borrowingRateB","type":"uint16","indexed":false,"internalType":"uint16"},{"name":"maxBorrowingRate","type":"uint16","indexed":false,"internalType":"uint16"}],"anonymous":false},{"type":"event","name":"SetReserveCapacity","inputs":[{"name":"reserveId","type":"uint256","indexed":true,"internalType":"uint256"},{"name":"cap","type":"uint256","indexed":false,"internalType":"uint256"}],"anonymous":false},{"type":"event","name":"SetReserveFeeRate","inputs":[{"name":"reserveId","type":"uint256","indexed":true,"internalType":"uint256"},{"name":"feeRate","type":"uint256","indexed":false,"internalType":"uint256"}],"anonymous":false},{"type":"event","name":"UnPaused","inputs":[],"anonymous":false}],"bytecode":{"object":"0x60806040526000609f60006101000a81548160ff0219169083151502179055503480156200002c57600080fd5b50619004806200003d6000396000f3fe60806040526004361061028b5760003560e01c8063675a6d441161015a578063be774df8116100c1578063e1b1acb71161007a578063e1b1acb714610b2c578063ef28eee114610b6c578063f2fde38b14610ba9578063f3ad65f414610bd2578063f6955a6114610bfd578063f7ca8d7514610c265761035a565b8063be774df8146109f3578063c1bce0b714610a30578063d215413814610a59578063d9b84ab114610a89578063dd57691114610ab2578063df8afadc14610aef5761035a565b80638cd2e0c7116101135780638cd2e0c7146108bf5780638da5cb5b146108fc578063a48b369e14610927578063a80bf1e014610950578063b069e0651461098d578063ba4b7c94146109ca5761035a565b8063675a6d44146107945780636cb9f701146107d1578063715018a61461080e5780637551c86c146108255780637deacfba1461084e5780638334278d146108775761035a565b806347e561b8116101fe578063594d81e5116101b7578063594d81e5146106595780635c6b6782146106895780635c975abb146106c65780635d798bfe146106f157806361c7f38d1461071a5780636387310d146107575761035a565b806347e561b81461054b578063485cc955146105745780634aa4a4fc1461059d578063507668cd146105c857806350a8376e146105f3578063540188961461061c5761035a565b806313c8e60d1161025057806313c8e60d146104305780631de8a7c21461046e5780631f6796261461049e57806320d8890b146104ce578063431f53a9146104f757806346dbf589146105205761035a565b8062d3e4221461035f5780630775ef0f1461038857806307c97ffb1461039f57806308e250a8146103b657806311d584e4146103f35761035a565b3661035a57606560009054906101000a900473ffffffffffffffffffffffffffffffffffffffff1673ffffffffffffffffffffffffffffffffffffffff163373ffffffffffffffffffffffffffffffffffffffff16146040518060400160405280600281526020017f313700000000000000000000000000000000000000000000000000000000000081525090610358576040517f08c379a000000000000000000000000000000000000000000000000000000000815260040161034f9190617447565b60405180910390fd5b005b600080fd5b34801561036b57600080fd5b50610386600480360381019061038191906174b3565b610c4f565b005b34801561039457600080fd5b5061039d610d3c565b005b3480156103ab57600080fd5b506103b4610d8d565b005b3480156103c257600080fd5b506103dd60048036038101906103d8919061753e565b610dde565b6040516103ea9190617586565b60405180910390f35b3480156103ff57600080fd5b5061041a600480360381019061041591906174b3565b610dfe565b60405161042791906175b0565b60405180910390f35b34801561043c57600080fd5b50610457600480360381019061045291906174b3565b610e2a565b6040516104659291906175cb565b60405180910390f35b6104886004803603810190610483919061762e565b610ea0565b60405161049591906175b0565b60405180910390f35b6104b860048036038101906104b391906176c1565b610fc1565b6040516104c591906175b0565b60405180910390f35b3480156104da57600080fd5b506104f560048036038101906104f091906174b3565b61124b565b005b34801561050357600080fd5b5061051e600480360381019061051991906174b3565b611389565b005b34801561052c57600080fd5b50610535611476565b60405161054291906175b0565b60405180910390f35b34801561055757600080fd5b50610572600480360381019061056d91906174b3565b61147c565b005b34801561058057600080fd5b5061059b60048036038101906105969190617728565b611569565b005b3480156105a957600080fd5b506105b261185d565b6040516105bf9190617777565b60405180910390f35b3480156105d457600080fd5b506105dd611883565b6040516105ea91906175b0565b60405180910390f35b3480156105ff57600080fd5b5061061a60048036038101906106159190617792565b611889565b005b34801561062857600080fd5b50610643600480360381019061063e91906174b3565b611988565b6040516106509190617777565b60405180910390f35b610673600480360381019061066e919061762e565b6119cd565b60405161068091906175b0565b60405180910390f35b34801561069557600080fd5b506106b060048036038101906106ab91906174b3565b611c8d565b6040516106bd9190617777565b60405180910390f35b3480156106d257600080fd5b506106db611cd2565b6040516106e89190617586565b60405180910390f35b3480156106fd57600080fd5b50610718600480360381019061071391906174b3565b611ce5565b005b34801561072657600080fd5b50610741600480360381019061073c91906174b3565b611dd2565b60405161074e91906175b0565b60405180910390f35b34801561076357600080fd5b5061077e6004803603810190610779919061781f565b611dfb565b60405161078b91906175b0565b60405180910390f35b3480156107a057600080fd5b506107bb60048036038101906107b691906174b3565b611e20565b6040516107c891906175b0565b60405180910390f35b3480156107dd57600080fd5b506107f860048036038101906107f391906174b3565b612086565b60405161080591906175b0565b60405180910390f35b34801561081a57600080fd5b506108236120af565b005b34801561083157600080fd5b5061084c6004803603810190610847919061753e565b6120c3565b005b34801561085a57600080fd5b506108756004803603810190610870919061785f565b6124a3565b005b34801561088357600080fd5b5061089e600480360381019061089991906174b3565b6125ec565b6040516108b69c9b9a999897969594939291906179b4565b60405180910390f35b3480156108cb57600080fd5b506108e660048036038101906108e19190617a6e565b6128ad565b6040516108f391906175b0565b60405180910390f35b34801561090857600080fd5b50610911612d5d565b60405161091e9190617777565b60405180910390f35b34801561093357600080fd5b5061094e60048036038101906109499190617ac1565b612d87565b005b34801561095c57600080fd5b50610977600480360381019061097291906174b3565b612e75565b60405161098491906175b0565b60405180910390f35b34801561099957600080fd5b506109b460048036038101906109af9190617b66565b612e95565b6040516109c19190617cfb565b60405180910390f35b3480156109d657600080fd5b506109f160048036038101906109ec9190617d1d565b6132c2565b005b3480156109ff57600080fd5b50610a1a6004803603810190610a159190617d5d565b61340f565b604051610a279190617efc565b60405180910390f35b348015610a3c57600080fd5b50610a576004803603810190610a529190617a6e565b61384b565b005b610a736004803603810190610a6e91906176c1565b613f09565b604051610a8091906175b0565b60405180910390f35b348015610a9557600080fd5b50610ab06004803603810190610aab91906174b3565b6141a7565b005b348015610abe57600080fd5b50610ad96004803603810190610ad491906174b3565b6142e5565b604051610ae69190617777565b60405180910390f35b348015610afb57600080fd5b50610b166004803603810190610b1191906174b3565b61432a565b604051610b2391906175b0565b60405180910390f35b348015610b3857600080fd5b50610b536004803603810190610b4e91906174b3565b6143c4565b604051610b639493929190617f1e565b60405180910390f35b348015610b7857600080fd5b50610b936004803603810190610b8e91906174b3565b614414565b604051610ba091906175b0565b60405180910390f35b348015610bb557600080fd5b50610bd06004803603810190610bcb919061753e565b614441565b005b348015610bde57600080fd5b50610be76144c4565b604051610bf49190617777565b60405180910390f35b348015610c0957600080fd5b50610c246004803603810190610c1f91906174b3565b6144ea565b005b348015610c3257600080fd5b50610c4d6004803603810190610c4891906174b3565b6145d7565b005b610c576146c4565b609f60009054906101000a900460ff16156040518060400160405280600281526020017f383300000000000000000000000000000000000000000000000000000000000081525090610cdf576040517f08c379a0000000000000000000000000000000000000000000000000000000008152600401610cd69190617447565b60405180910390fd5b506000609860008381526020019081526020016000209050610d0b60018261474290919063ffffffff16565b817f635c7b10ea9d592b3b5eef7ce7bda26b5e37eafc305f2c496ecbe4131c481fef60405160405180910390a25050565b610d446146c4565b6001609f60006101000a81548160ff0219169083151502179055507f9e87fac88ff661f02d44f95383c817fece4bce600a3dab7a54406878b965e75260405160405180910390a1565b610d956146c4565b6000609f60006101000a81548160ff0219169083151502179055507f472cf038e2a5f33dbaa68760dbf94ab4e159535e6580c0ac63f8202c7c6c0bb260405160405180910390a1565b609b6020528060005260406000206000915054906101000a900460ff1681565b600080609860008481526020019081526020016000209050610e1f81614765565b508092505050919050565b6000806000609d60008581526020019081526020016000209050600060986000836000015481526020019081526020016000209050610e6881614795565b9250610e978260030154610e8985856002015461485490919063ffffffff16565b61486a90919063ffffffff16565b93505050915091565b6000609f60009054906101000a900460ff16156040518060400160405280600281526020017f383300000000000000000000000000000000000000000000000000000000000081525090610f2a576040517f08c379a0000000000000000000000000000000000000000000000000000000008152600401610f219190617447565b60405180910390fd5b50610f33614880565b610f3e8585856148cf565b90506000341115610f5257610f51614ac6565b5b8161ffff168373ffffffffffffffffffffffffffffffffffffffff16867f80dbbde6b5d5b7762317d49e776cfe47269b6e392cfdc76540b0cde8c82a23ce610f98614adc565b8886604051610fa993929190617f63565b60405180910390a4610fb9614ae4565b949350505050565b6000609f60009054906101000a900460ff16156040518060400160405280600281526020017f38330000000000000000000000000000000000000000000000000000000000008152509061104b576040517f08c379a00000000000000000000000000000000000000000000000000000000081526004016110429190617447565b60405180910390fd5b50611054614880565b60003414611097576040517f08c379a000000000000000000000000000000000000000000000000000000000815260040161108e90617fe6565b60405180910390fd5b60006098600087815260200190815260200160002060050160009054906101000a900473ffffffffffffffffffffffffffffffffffffffff169050600073ffffffffffffffffffffffffffffffffffffffff168173ffffffffffffffffffffffffffffffffffffffff1603611141576040517f08c379a000000000000000000000000000000000000000000000000000000000815260040161113890618052565b60405180910390fd5b8073ffffffffffffffffffffffffffffffffffffffff16631b503fa586611166614adc565b306040518463ffffffff1660e01b815260040161118593929190618072565b600060405180830381600087803b15801561119f57600080fd5b505af11580156111b3573d6000803e3d6000fd5b5050505060006111c587878787614aee565b90508473ffffffffffffffffffffffffffffffffffffffff166111e6614adc565b73ffffffffffffffffffffffffffffffffffffffff16887f9d01c305bd637e3fd85d7abaf4588efdd37000da477a303eaaa4fbc4510213d9898560405161122e9291906175cb565b60405180910390a48092505050611243614ae4565b949350505050565b6112536146c4565b609f60009054906101000a900460ff16156040518060400160405280600281526020017f3833000000000000000000000000000000000000000000000000000000000000815250906112db576040517f08c379a00000000000000000000000000000000000000000000000000000000081526004016112d29190617447565b60405180910390fd5b5060006112e782614e13565b90506001609b60008373ffffffffffffffffffffffffffffffffffffffff1673ffffffffffffffffffffffffffffffffffffffff16815260200190815260200160002060006101000a81548160ff0219169083151502179055508073ffffffffffffffffffffffffffffffffffffffff16827ffe277e53c522ef42faa4acffda2b15adc567ae3db5cfaa1580ad4bae98a8571060405160405180910390a35050565b6113916146c4565b609f60009054906101000a900460ff16156040518060400160405280600281526020017f383300000000000000000000000000000000000000000000000000000000000081525090611419576040517f08c379a00000000000000000000000000000000000000000000000000000000081526004016114109190617447565b60405180910390fd5b50600060986000838152602001908152602001600020905061144560008261474290919063ffffffff16565b817f788b0dab7a1553313c9f8535ce266dec3d9da7b00ec6ad6ff4b846ff7502831360405160405180910390a25050565b60995481565b6114846146c4565b609f60009054906101000a900460ff16156040518060400160405280600281526020017f38330000000000000000000000000000000000000000000000000000000000008152509061150c576040517f08c379a00000000000000000000000000000000000000000000000000000000081526004016115039190617447565b60405180910390fd5b506000609860008381526020019081526020016000209050611538600082614fa690919063ffffffff16565b817f0fbb913ef5f2d83a0b9bd5ac6a95f55a727e475b96826f6d862e1b89284f3d5760405160405180910390a25050565b60008060019054906101000a900460ff1615905080801561159a5750600160008054906101000a900460ff1660ff16105b806115c757506115a930614fc9565b1580156115c65750600160008054906101000a900460ff1660ff16145b5b611606576040517f08c379a00000000000000000000000000000000000000000000000000000000081526004016115fd9061811b565b60405180910390fd5b60016000806101000a81548160ff021916908360ff1602179055508015611643576001600060016101000a81548160ff0219169083151502179055505b600073ffffffffffffffffffffffffffffffffffffffff168373ffffffffffffffffffffffffffffffffffffffff1614156040518060400160405280600281526020017f3133000000000000000000000000000000000000000000000000000000000000815250906116eb576040517f08c379a00000000000000000000000000000000000000000000000000000000081526004016116e29190617447565b60405180910390fd5b50600073ffffffffffffffffffffffffffffffffffffffff168273ffffffffffffffffffffffffffffffffffffffff1614156040518060400160405280600281526020017f313300000000000000000000000000000000000000000000000000000000000081525090611794576040517f08c379a000000000000000000000000000000000000000000000000000000000815260040161178b9190617447565b60405180910390fd5b5082609c60006101000a81548173ffffffffffffffffffffffffffffffffffffffff021916908373ffffffffffffffffffffffffffffffffffffffff1602179055506117de614fec565b6117e6615045565b6117ef8261509e565b60016099819055506001609e8190555080156118585760008060016101000a81548160ff0219169083151502179055507f7f26b83ff96e1f2b6a682f133852f6798a09c465da95921460cefb3847402498600160405161184f919061818d565b60405180910390a15b505050565b606560009054906101000a900473ffffffffffffffffffffffffffffffffffffffff1681565b609e5481565b6118916146c4565b609f60009054906101000a900460ff16156040518060400160405280600281526020017f383300000000000000000000000000000000000000000000000000000000000081525090611919576040517f08c379a00000000000000000000000000000000000000000000000000000000081526004016119109190617447565b60405180910390fd5b50600060986000888152602001908152602001600020905061193f8187878787876150e2565b867f8d7fb8c3fec5de198dd056d48befc27d7e77613c2458feb3faf5236b7f35373b87878787876040516119779594939291906181a8565b60405180910390a250505050505050565b6000806098600084815260200190815260200160002090508060040160009054906101000a900473ffffffffffffffffffffffffffffffffffffffff16915050919050565b6000609f60009054906101000a900460ff16156040518060400160405280600281526020017f383300000000000000000000000000000000000000000000000000000000000081525090611a57576040517f08c379a0000000000000000000000000000000000000000000000000000000008152600401611a4e9190617447565b60405180910390fd5b50611a60614880565b611a6b8585306148cf565b905060006098600087815260200190815260200160002060050160009054906101000a900473ffffffffffffffffffffffffffffffffffffffff169050600073ffffffffffffffffffffffffffffffffffffffff168173ffffffffffffffffffffffffffffffffffffffff1603611b17576040517f08c379a0000000000000000000000000000000000000000000000000000000008152600401611b0e90618052565b60405180910390fd5b611b2086611988565b73ffffffffffffffffffffffffffffffffffffffff1663095ea7b382846040518363ffffffff1660e01b8152600401611b5a9291906181fb565b6020604051808303816000875af1158015611b79573d6000803e3d6000fd5b505050506040513d601f19601f82011682018060405250810190611b9d9190618239565b508073ffffffffffffffffffffffffffffffffffffffff16637acb775783866040518363ffffffff1660e01b8152600401611bd9929190618266565b600060405180830381600087803b158015611bf357600080fd5b505af1158015611c07573d6000803e3d6000fd5b505050506000341115611c1d57611c1c614ac6565b5b8261ffff168473ffffffffffffffffffffffffffffffffffffffff16877f80dbbde6b5d5b7762317d49e776cfe47269b6e392cfdc76540b0cde8c82a23ce611c63614adc565b8987604051611c7493929190617f63565b60405180910390a450611c85614ae4565b949350505050565b6000806098600084815260200190815260200160002090508060050160009054906101000a900473ffffffffffffffffffffffffffffffffffffffff16915050919050565b609f60009054906101000a900460ff1681565b611ced6146c4565b609f60009054906101000a900460ff16156040518060400160405280600281526020017f383300000000000000000000000000000000000000000000000000000000000081525090611d75576040517f08c379a0000000000000000000000000000000000000000000000000000000008152600401611d6c9190617447565b60405180910390fd5b506000609860008381526020019081526020016000209050611da1600182614fa690919063ffffffff16565b817fc9868113c8abd230a76c0aa1e2fd01a28c8ceda3e56eb014ffa55f0eea5bb88360405160405180910390a25050565b600080609860008481526020019081526020016000209050611df38161531a565b915050919050565b609a602052816000526040600020602052806000526040600020600091509150505481565b6000609f60009054906101000a900460ff16156040518060400160405280600281526020017f383300000000000000000000000000000000000000000000000000000000000081525090611eaa576040517f08c379a0000000000000000000000000000000000000000000000000000000008152600401611ea19190617447565b60405180910390fd5b50611eb3614880565b6000611ebe83615338565b9050611ec9816153d5565b156040518060400160405280600181526020017f320000000000000000000000000000000000000000000000000000000000000081525090611f41576040517f08c379a0000000000000000000000000000000000000000000000000000000008152600401611f389190617447565b60405180910390fd5b50611f4b816153f3565b6040518060400160405280600181526020017f360000000000000000000000000000000000000000000000000000000000000081525090611fc2576040517f08c379a0000000000000000000000000000000000000000000000000000000008152600401611fb99190617447565b60405180910390fd5b50609e5491506001609e54611fd791906182be565b609e819055506000609d60008481526020019081526020016000209050611ffc614adc565b8160010160006101000a81548173ffffffffffffffffffffffffffffffffffffffff021916908373ffffffffffffffffffffffffffffffffffffffff160217905550612058612049615411565b8361555e90919063ffffffff16565b61206182615585565b838160000181905550816000015481600301819055505050612081614ae4565b919050565b6000806098600084815260200190815260200160002090506120a7816155a5565b915050919050565b6120b76146c4565b6120c160006155f7565b565b6120cb6146c4565b609f60009054906101000a900460ff16156040518060400160405280600281526020017f383300000000000000000000000000000000000000000000000000000000000081525090612153576040517f08c379a000000000000000000000000000000000000000000000000000000000815260040161214a9190617447565b60405180910390fd5b506000609954905060016099600082825461216e91906182be565b9250508190555060008273ffffffffffffffffffffffffffffffffffffffff166306fdde036040518163ffffffff1660e01b8152600401600060405180830381865afa1580156121c2573d6000803e3d6000fd5b505050506040513d6000823e3d601f19601f820116820180604052508101906121eb9190618413565b6040516020016121fb919061850a565b604051602081830303815290604052905060008373ffffffffffffffffffffffffffffffffffffffff166395d89b416040518163ffffffff1660e01b8152600401600060405180830381865afa158015612259573d6000803e3d6000fd5b505050506040513d6000823e3d601f19601f820116820180604052508101906122829190618413565b6040516020016122929190618578565b604051602081830303815290604052905060008473ffffffffffffffffffffffffffffffffffffffff1663313ce5676040518163ffffffff1660e01b8152600401602060405180830381865afa1580156122f0573d6000803e3d6000fd5b505050506040513d601f19601f8201168201806040525081019061231491906185c6565b9050600073__$5ad69d1d0893b90321b9dea32fba5e4dc0$__631a2d2ec98585858a8a6040518663ffffffff1660e01b815260040161235795949392919061866a565b602060405180830381865af4158015612374573d6000803e3d6000fd5b505050506040513d601f19601f8201168201806040525081019061239891906186e0565b905060006098600087815260200190815260200160002090506123c56001826156bd90919063ffffffff16565b6123d9600182614fa690919063ffffffff16565b6124068188847fffffffffffffffffffffffffffffffffffffffffffffffffffffffffffffffff8a6156e0565b61240f86615804565b8173ffffffffffffffffffffffffffffffffffffffff168773ffffffffffffffffffffffffffffffffffffffff167f857d20297bde4478f678d3aafbfdf7fbfc90a4200b62eb053a32b2c50335676f8360050160009054906101000a900473ffffffffffffffffffffffffffffffffffffffff16896040516124929291906181fb565b60405180910390a350505050505050565b6124ab6146c4565b609f60009054906101000a900460ff16156040518060400160405280600281526020017f383300000000000000000000000000000000000000000000000000000000000081525090612533576040517f08c379a000000000000000000000000000000000000000000000000000000000815260040161252a9190617447565b60405180910390fd5b50600061253f84614e13565b905081609a600085815260200190815260200160002060008373ffffffffffffffffffffffffffffffffffffffff1673ffffffffffffffffffffffffffffffffffffffff16815260200190815260200160002081905550828173ffffffffffffffffffffffffffffffffffffffff16857f305a3970f39fcb6fbf030acd1e8769621d41445041f23a45a1e7e92606bf8726856040516125de91906175b0565b60405180910390a450505050565b60986020528060005260406000206000915090508060000154908060010154908060020154908060030160009054906101000a900473ffffffffffffffffffffffffffffffffffffffff16908060040160009054906101000a900473ffffffffffffffffffffffffffffffffffffffff16908060050160009054906101000a900473ffffffffffffffffffffffffffffffffffffffff1690806006015490806007016040518060a00160405290816000820160009054906101000a90046fffffffffffffffffffffffffffffffff166fffffffffffffffffffffffffffffffff166fffffffffffffffffffffffffffffffff1681526020016000820160109054906101000a90046fffffffffffffffffffffffffffffffff166fffffffffffffffffffffffffffffffff166fffffffffffffffffffffffffffffffff1681526020016001820160009054906101000a90046fffffffffffffffffffffffffffffffff166fffffffffffffffffffffffffffffffff166fffffffffffffffffffffffffffffffff1681526020016001820160109054906101000a90046fffffffffffffffffffffffffffffffff166fffffffffffffffffffffffffffffffff166fffffffffffffffffffffffffffffffff1681526020016002820160009054906101000a90046fffffffffffffffffffffffffffffffff166fffffffffffffffffffffffffffffffff166fffffffffffffffffffffffffffffffff16815250509080600a01549080600b0160009054906101000a90046fffffffffffffffffffffffffffffffff169080600b0160109054906101000a900461ffff169080600c016040518060600160405290816000820160009054906101000a900460ff161515151581526020016000820160019054906101000a900460ff161515151581526020016000820160029054906101000a900460ff16151515158152505090508c565b6000609f60009054906101000a900460ff16156040518060400160405280600281526020017f383300000000000000000000000000000000000000000000000000000000000081525090612937576040517f08c379a000000000000000000000000000000000000000000000000000000000815260040161292e9190617447565b60405180910390fd5b50612940614880565b609b600061294c614adc565b73ffffffffffffffffffffffffffffffffffffffff1673ffffffffffffffffffffffffffffffffffffffff16815260200190815260200160002060009054906101000a900460ff166040518060400160405280600181526020017f380000000000000000000000000000000000000000000000000000000000000081525090612a0b576040517f08c379a0000000000000000000000000000000000000000000000000000000008152600401612a029190617447565b60405180910390fd5b506000609d600085815260200190815260200160002090508060010160009054906101000a900473ffffffffffffffffffffffffffffffffffffffff1673ffffffffffffffffffffffffffffffffffffffff16612a66614adc565b73ffffffffffffffffffffffffffffffffffffffff16146040518060400160405280600181526020017f370000000000000000000000000000000000000000000000000000000000000081525090612af4576040517f08c379a0000000000000000000000000000000000000000000000000000000008152600401612aeb9190617447565b60405180910390fd5b506000612b048260000154615338565b9050612b20612b11615411565b8261555e90919063ffffffff16565b612b2e828260000154615a26565b6000609a6000846000015481526020019081526020016000206000612b51614adc565b73ffffffffffffffffffffffffffffffffffffffff1673ffffffffffffffffffffffffffffffffffffffff168152602001908152602001600020549050612ba18582615a6890919063ffffffff16565b609a6000856000015481526020019081526020016000206000612bc2614adc565b73ffffffffffffffffffffffffffffffffffffffff1673ffffffffffffffffffffffffffffffffffffffff168152602001908152602001600020819055508260020154851115612c1457826002015494505b612c2b858360020154615a7e90919063ffffffff16565b8260020181905550612c4a858460020154615a7e90919063ffffffff16565b8360020181905550612cce612c5d614adc565b8360040160009054906101000a900473ffffffffffffffffffffffffffffffffffffffff16878560030160009054906101000a900473ffffffffffffffffffffffffffffffffffffffff1673ffffffffffffffffffffffffffffffffffffffff16615a94909392919063ffffffff16565b612cd782615585565b612cdf614adc565b73ffffffffffffffffffffffffffffffffffffffff168773ffffffffffffffffffffffffffffffffffffffff1684600001547fb42c5f4d7454a3dbf5af30732b0d66efa11d73c66cef1f5732fa84b7e63cf99a88604051612d4091906175b0565b60405180910390a4849350505050612d56614ae4565b9392505050565b6000603360009054906101000a900473ffffffffffffffffffffffffffffffffffffffff16905090565b612d8f6146c4565b609f60009054906101000a900460ff16156040518060400160405280600281526020017f383300000000000000000000000000000000000000000000000000000000000081525090612e17576040517f08c379a0000000000000000000000000000000000000000000000000000000008152600401612e0e9190617447565b60405180910390fd5b506000609860008481526020019081526020016000209050818160060181905550827f77cbf520bf76909cd6ef3585f7c156e64ee930bec5553ab83b550ca4255f6c9683604051612e6891906175b0565b60405180910390a2505050565b6000609d6000838152602001908152602001600020600001549050919050565b60608383905067ffffffffffffffff811115612eb457612eb36182f7565b5b604051908082528060200260200182016040528015612eed57816020015b612eda6172eb565b815260200190600190039081612ed25790505b50905060005b848490508110156132ba57848482818110612f1157612f1061870d565b5b90506020020135828281518110612f2b57612f2a61870d565b5b6020026020010151600001818152505082828281518110612f4f57612f4e61870d565b5b60200260200101516020019073ffffffffffffffffffffffffffffffffffffffff16908173ffffffffffffffffffffffffffffffffffffffff168152505060986000868684818110612fa457612fa361870d565b5b90506020020135815260200190815260200160002060050160009054906101000a900473ffffffffffffffffffffffffffffffffffffffff1673ffffffffffffffffffffffffffffffffffffffff166370a08231846040518263ffffffff1660e01b81526004016130159190617777565b602060405180830381865afa158015613032573d6000803e3d6000fd5b505050506040513d601f19601f820116820180604052508101906130569190618751565b8282815181106130695761306861870d565b5b60200260200101516040018181525050609860008686848181106130905761308f61870d565b5b90506020020135815260200190815260200160002060040160009054906101000a900473ffffffffffffffffffffffffffffffffffffffff1673ffffffffffffffffffffffffffffffffffffffff166370a08231846040518263ffffffff1660e01b81526004016131019190617777565b602060405180830381865afa15801561311e573d6000803e3d6000fd5b505050506040513d601f19601f820116820180604052508101906131429190618751565b8282815181106131555761315461870d565b5b60200260200101516060018181525050613284670de0b6b3a76400006132766098600089898781811061318b5761318a61870d565b5b90506020020135815260200190815260200160002073__$d3b4366daeb9cadc7528af6145b50b2183$__63ffe2cb5490916040518263ffffffff1660e01b81526004016131d89190618785565b602060405180830381865af41580156131f5573d6000803e3d6000fd5b505050506040513d601f19601f820116820180604052508101906132199190618751565b61326886868151811061322f5761322e61870d565b5b60200260200101516060015187878151811061324e5761324d61870d565b5b602002602001015160400151615a6890919063ffffffff16565b61485490919063ffffffff16565b61486a90919063ffffffff16565b8282815181106132975761329661870d565b5b6020026020010151608001818152505080806132b2906187a0565b915050612ef3565b509392505050565b6132ca6146c4565b609f60009054906101000a900460ff16156040518060400160405280600281526020017f383300000000000000000000000000000000000000000000000000000000000081525090613352576040517f08c379a00000000000000000000000000000000000000000000000000000000081526004016133499190617447565b60405180910390fd5b506127108161ffff16111561339c576040517f08c379a000000000000000000000000000000000000000000000000000000000815260040161339390618834565b60405180910390fd5b60006098600084815260200190815260200160002090508181600b0160106101000a81548161ffff021916908361ffff160217905550827f71f9db22de8627a552422f0f25a439a72bc30a663520df9ed740b99bcf2f5df2836040516134029190618885565b60405180910390a2505050565b60608282905067ffffffffffffffff81111561342e5761342d6182f7565b5b60405190808252806020026020018201604052801561346757816020015b613454617330565b81526020019060019003908161344c5790505b50905060005b838390508110156138445783838281811061348b5761348a61870d565b5b905060200201358282815181106134a5576134a461870d565b5b60200260200101516000018181525050609860008585848181106134cc576134cb61870d565b5b90506020020135815260200190815260200160002060030160009054906101000a900473ffffffffffffffffffffffffffffffffffffffff168282815181106135185761351761870d565b5b60200260200101516020019073ffffffffffffffffffffffffffffffffffffffff16908173ffffffffffffffffffffffffffffffffffffffff16815250506098600085858481811061356d5761356c61870d565b5b90506020020135815260200190815260200160002060040160009054906101000a900473ffffffffffffffffffffffffffffffffffffffff168282815181106135b9576135b861870d565b5b60200260200101516040019073ffffffffffffffffffffffffffffffffffffffff16908173ffffffffffffffffffffffffffffffffffffffff16815250506098600085858481811061360e5761360d61870d565b5b90506020020135815260200190815260200160002060050160009054906101000a900473ffffffffffffffffffffffffffffffffffffffff1682828151811061365a5761365961870d565b5b60200260200101516060019073ffffffffffffffffffffffffffffffffffffffff16908173ffffffffffffffffffffffffffffffffffffffff16815250506136cc609860008686858181106136b2576136b161870d565b5b905060200201358152602001908152602001600020614765565b8383815181106136df576136de61870d565b5b60200260200101516080018484815181106136fd576136fc61870d565b5b602002602001015160a00182815250828152505050609860008585848181106137295761372861870d565b5b90506020020135815260200190815260200160002073__$d3b4366daeb9cadc7528af6145b50b2183$__63ffe2cb5490916040518263ffffffff1660e01b81526004016137769190618785565b602060405180830381865af4158015613793573d6000803e3d6000fd5b505050506040513d601f19601f820116820180604052508101906137b79190618751565b8282815181106137ca576137c961870d565b5b602002602001015160c001818152505061380e609860008686858181106137f4576137f361870d565b5b90506020020135815260200190815260200160002061531a565b8282815181106138215761382061870d565b5b602002602001015160e0018181525050808061383c906187a0565b91505061346d565b5092915050565b609f60009054906101000a900460ff16156040518060400160405280600281526020017f3833000000000000000000000000000000000000000000000000000000000000815250906138d3576040517f08c379a00000000000000000000000000000000000000000000000000000000081526004016138ca9190617447565b60405180910390fd5b506138dc614880565b609b60006138e8614adc565b73ffffffffffffffffffffffffffffffffffffffff1673ffffffffffffffffffffffffffffffffffffffff16815260200190815260200160002060009054906101000a900460ff166040518060400160405280600181526020017f3800000000000000000000000000000000000000000000000000000000000000815250906139a7576040517f08c379a000000000000000000000000000000000000000000000000000000000815260040161399e9190617447565b60405180910390fd5b506000609d600084815260200190815260200160002090508060010160009054906101000a900473ffffffffffffffffffffffffffffffffffffffff1673ffffffffffffffffffffffffffffffffffffffff16613a02614adc565b73ffffffffffffffffffffffffffffffffffffffff16146040518060400160405280600181526020017f370000000000000000000000000000000000000000000000000000000000000081525090613a90576040517f08c379a0000000000000000000000000000000000000000000000000000000008152600401613a879190617447565b60405180910390fd5b506000613aa08260000154615338565b9050613aab816153d5565b156040518060400160405280600181526020017f320000000000000000000000000000000000000000000000000000000000000081525090613b23576040517f08c379a0000000000000000000000000000000000000000000000000000000008152600401613b1a9190617447565b60405180910390fd5b50613b2d816153f3565b6040518060400160405280600181526020017f360000000000000000000000000000000000000000000000000000000000000081525090613ba4576040517f08c379a0000000000000000000000000000000000000000000000000000000008152600401613b9b9190617447565b60405180910390fd5b50613bbf613bb0615411565b8261555e90919063ffffffff16565b613bcd828260000154615a26565b6000609a6000846000015481526020019081526020016000206000613bf0614adc565b73ffffffffffffffffffffffffffffffffffffffff1673ffffffffffffffffffffffffffffffffffffffff168152602001908152602001600020549050808411156040518060400160405280600281526020017f313100000000000000000000000000000000000000000000000000000000000081525090613ca8576040517f08c379a0000000000000000000000000000000000000000000000000000000008152600401613c9f9190617447565b60405180910390fd5b50613cbc8482615a7e90919063ffffffff16565b609a6000856000015481526020019081526020016000206000613cdd614adc565b73ffffffffffffffffffffffffffffffffffffffff1673ffffffffffffffffffffffffffffffffffffffff16815260200190815260200160002081905550613d2482615b1d565b8411156040518060400160405280600281526020017f383000000000000000000000000000000000000000000000000000000000000081525090613d9e576040517f08c379a0000000000000000000000000000000000000000000000000000000008152600401613d959190617447565b60405180910390fd5b5083826002016000828254613db391906182be565b9250508190555083836002016000828254613dce91906182be565b925050819055508160040160009054906101000a900473ffffffffffffffffffffffffffffffffffffffff1673ffffffffffffffffffffffffffffffffffffffff16634efecaa5613e1d614adc565b866040518363ffffffff1660e01b8152600401613e3b9291906181fb565b6020604051808303816000875af1158015613e5a573d6000803e3d6000fd5b505050506040513d601f19601f82011682018060405250810190613e7e9190618751565b50613e8882615585565b8573ffffffffffffffffffffffffffffffffffffffff16613ea7614adc565b73ffffffffffffffffffffffffffffffffffffffff1684600001547ff9a33434428db5f0416c03e38307599ad0b9b9965d6c070eb08e87cc1f0ca50e87604051613ef191906175b0565b60405180910390a4505050613f04614ae4565b505050565b6000609f60009054906101000a900460ff16156040518060400160405280600281526020017f383300000000000000000000000000000000000000000000000000000000000081525090613f93576040517f08c379a0000000000000000000000000000000000000000000000000000000008152600401613f8a9190617447565b60405180910390fd5b50613f9c614880565b60003414613fdf576040517f08c379a0000000000000000000000000000000000000000000000000000000008152600401613fd690617fe6565b60405180910390fd5b6000613fea86615338565b90507fffffffffffffffffffffffffffffffffffffffffffffffffffffffffffffffff85036140bb578060040160009054906101000a900473ffffffffffffffffffffffffffffffffffffffff1673ffffffffffffffffffffffffffffffffffffffff166370a0823161405b614adc565b6040518263ffffffff1660e01b81526004016140779190617777565b602060405180830381865afa158015614094573d6000803e3d6000fd5b505050506040513d601f19601f820116820180604052508101906140b89190618751565b94505b6141136140c6614adc565b30878460040160009054906101000a900473ffffffffffffffffffffffffffffffffffffffff1673ffffffffffffffffffffffffffffffffffffffff16615a94909392919063ffffffff16565b600061412187878787614aee565b90508473ffffffffffffffffffffffffffffffffffffffff16614142614adc565b73ffffffffffffffffffffffffffffffffffffffff16887f9d01c305bd637e3fd85d7abaf4588efdd37000da477a303eaaa4fbc4510213d9898560405161418a9291906175cb565b60405180910390a4809250505061419f614ae4565b949350505050565b6141af6146c4565b609f60009054906101000a900460ff16156040518060400160405280600281526020017f383300000000000000000000000000000000000000000000000000000000000081525090614237576040517f08c379a000000000000000000000000000000000000000000000000000000000815260040161422e9190617447565b60405180910390fd5b50600061424382614e13565b90506000609b60008373ffffffffffffffffffffffffffffffffffffffff1673ffffffffffffffffffffffffffffffffffffffff16815260200190815260200160002060006101000a81548160ff0219169083151502179055508073ffffffffffffffffffffffffffffffffffffffff16827f266d20f5da30c718389bad72969f180f75a167591179550c0eb3010856cdca0960405160405180910390a35050565b6000806098600084815260200190815260200160002090508060030160009054906101000a900473ffffffffffffffffffffffffffffffffffffffff16915050919050565b6000806098600084815260200190815260200160002090508073__$d3b4366daeb9cadc7528af6145b50b2183$__63ffe2cb5490916040518263ffffffff1660e01b815260040161437b9190618785565b602060405180830381865af4158015614398573d6000803e3d6000fd5b505050506040513d601f19601f820116820180604052508101906143bc9190618751565b915050919050565b609d6020528060005260406000206000915090508060000154908060010160009054906101000a900473ffffffffffffffffffffffffffffffffffffffff16908060020154908060030154905084565b60008060986000848152602001908152602001600020905061443581614765565b90508092505050919050565b6144496146c4565b600073ffffffffffffffffffffffffffffffffffffffff168173ffffffffffffffffffffffffffffffffffffffff16036144b8576040517f08c379a00000000000000000000000000000000000000000000000000000000081526004016144af90618912565b60405180910390fd5b6144c1816155f7565b50565b609c60009054906101000a900473ffffffffffffffffffffffffffffffffffffffff1681565b6144f26146c4565b609f60009054906101000a900460ff16156040518060400160405280600281526020017f38330000000000000000000000000000000000000000000000000000000000008152509061457a576040517f08c379a00000000000000000000000000000000000000000000000000000000081526004016145719190617447565b60405180910390fd5b5060006098600083815260200190815260200160002090506145a66001826156bd90919063ffffffff16565b817f1603fabc6ecfe8a2406f0d0a45592fff62c0c6875901cf35d8a091c74cc08b9a60405160405180910390a25050565b6145df6146c4565b609f60009054906101000a900460ff16156040518060400160405280600281526020017f383300000000000000000000000000000000000000000000000000000000000081525090614667576040517f08c379a000000000000000000000000000000000000000000000000000000000815260040161465e9190617447565b60405180910390fd5b5060006098600083815260200190815260200160002090506146936000826156bd90919063ffffffff16565b817f01f85e57711e3e9559c6c7c4330875034dc7687a1c1699a6ddf9562aeddd00d660405160405180910390a25050565b6146cc614adc565b73ffffffffffffffffffffffffffffffffffffffff166146ea612d5d565b73ffffffffffffffffffffffffffffffffffffffff1614614740576040517f08c379a00000000000000000000000000000000000000000000000000000000081526004016147379061897e565b60405180910390fd5b565b8082600c0160000160016101000a81548160ff0219169083151502179055505050565b60008061477183615be8565b905061478e8161478085615b1d565b615a6890919063ffffffff16565b9150915091565b6000426fffffffffffffffffffffffffffffffff1682600b0160009054906101000a90046fffffffffffffffffffffffffffffffff166fffffffffffffffffffffffffffffffff16036147ee578160000154905061484f565b61484c670de0b6b3a764000061483e61482b856001015486600b0160009054906101000a90046fffffffffffffffffffffffffffffffff16615c26565b856000015461485490919063ffffffff16565b61486a90919063ffffffff16565b90505b919050565b60008183614862919061899e565b905092915050565b600081836148789190618a0f565b905092915050565b6002606654036148c5576040517f08c379a00000000000000000000000000000000000000000000000000000000081526004016148bc90618a8c565b60405180910390fd5b6002606681905550565b6000806148db85615338565b90506148e6816153d5565b156040518060400160405280600181526020017f32000000000000000000000000000000000000000000000000000000000000008152509061495e576040517f08c379a00000000000000000000000000000000000000000000000000000000081526004016149559190617447565b60405180910390fd5b5061497961496a615411565b8261555e90919063ffffffff16565b61498c8482615c3b90919063ffffffff16565b600061499782615ce0565b90506149f48260030160009054906101000a900473ffffffffffffffffffffffffffffffffffffffff166149c9614adc565b8460040160009054906101000a900473ffffffffffffffffffffffffffffffffffffffff1688615de3565b614a21670de0b6b3a7640000614a13838861485490919063ffffffff16565b61486a90919063ffffffff16565b92508160040160009054906101000a900473ffffffffffffffffffffffffffffffffffffffff1673ffffffffffffffffffffffffffffffffffffffff166340c10f1985856040518363ffffffff1660e01b8152600401614a829291906181fb565b600060405180830381600087803b158015614a9c57600080fd5b505af1158015614ab0573d6000803e3d6000fd5b50505050614abd82615585565b50509392505050565b6000471115614ada57614ad93347616003565b5b565b600033905090565b6001606681905550565b600080614afa86615338565b9050614b16614b07615411565b8261555e90919063ffffffff16565b6000614bbe670de0b6b3a7640000614bb0888573__$d3b4366daeb9cadc7528af6145b50b2183$__63ffe2cb5490916040518263ffffffff1660e01b8152600401614b619190618785565b602060405180830381865af4158015614b7e573d6000803e3d6000fd5b505050506040513d601f19601f82011682018060405250810190614ba29190618751565b61485490919063ffffffff16565b61486a90919063ffffffff16565b9050614bc982615b1d565b8111156040518060400160405280600181526020017f330000000000000000000000000000000000000000000000000000000000000081525090614c43576040517f08c379a0000000000000000000000000000000000000000000000000000000008152600401614c3a9190617447565b60405180910390fd5b50606560009054906101000a900473ffffffffffffffffffffffffffffffffffffffff1673ffffffffffffffffffffffffffffffffffffffff168260030160009054906101000a900473ffffffffffffffffffffffffffffffffffffffff1673ffffffffffffffffffffffffffffffffffffffff16148015614cc25750835b15614d69578160040160009054906101000a900473ffffffffffffffffffffffffffffffffffffffff1673ffffffffffffffffffffffffffffffffffffffff1663f5298aca3088846040518463ffffffff1660e01b8152600401614d2893929190617f63565b600060405180830381600087803b158015614d4257600080fd5b505af1158015614d56573d6000803e3d6000fd5b50505050614d648186616103565b614dfd565b8160040160009054906101000a900473ffffffffffffffffffffffffffffffffffffffff1673ffffffffffffffffffffffffffffffffffffffff1663f5298aca8688846040518463ffffffff1660e01b8152600401614dca93929190617f63565b600060405180830381600087803b158015614de457600080fd5b505af1158015614df8573d6000803e3d6000fd5b505050505b614e0682615585565b8092505050949350505050565b600080609c60009054906101000a900473ffffffffffffffffffffffffffffffffffffffff1673ffffffffffffffffffffffffffffffffffffffff1663b93f9b0a600a6040518263ffffffff1660e01b8152600401614e7291906175b0565b602060405180830381865afa158015614e8f573d6000803e3d6000fd5b505050506040513d601f19601f82011682018060405250810190614eb391906186e0565b90508073ffffffffffffffffffffffffffffffffffffffff16638c64ea4a846040518263ffffffff1660e01b8152600401614eee91906175b0565b602060405180830381865afa158015614f0b573d6000803e3d6000fd5b505050506040513d601f19601f82011682018060405250810190614f2f91906186e0565b9150600073ffffffffffffffffffffffffffffffffffffffff168273ffffffffffffffffffffffffffffffffffffffff1603614fa0576040517f08c379a0000000000000000000000000000000000000000000000000000000008152600401614f9790618af8565b60405180910390fd5b50919050565b8082600c0160000160026101000a81548160ff0219169083151502179055505050565b6000808273ffffffffffffffffffffffffffffffffffffffff163b119050919050565b600060019054906101000a900460ff1661503b576040517f08c379a000000000000000000000000000000000000000000000000000000000815260040161503290618b8a565b60405180910390fd5b6150436162c5565b565b600060019054906101000a900460ff16615094576040517f08c379a000000000000000000000000000000000000000000000000000000000815260040161508b90618b8a565b60405180910390fd5b61509c616326565b565b80606560006101000a81548173ffffffffffffffffffffffffffffffffffffffff021916908373ffffffffffffffffffffffffffffffffffffffff16021790555050565b6151156127106151078761ffff16670de0b6b3a764000061485490919063ffffffff16565b61486a90919063ffffffff16565b8660070160000160006101000a8154816fffffffffffffffffffffffffffffffff02191690836fffffffffffffffffffffffffffffffff1602179055506151856127106151778661ffff16670de0b6b3a764000061485490919063ffffffff16565b61486a90919063ffffffff16565b8660070160000160106101000a8154816fffffffffffffffffffffffffffffffff02191690836fffffffffffffffffffffffffffffffff1602179055506151f56127106151e78561ffff16670de0b6b3a764000061485490919063ffffffff16565b61486a90919063ffffffff16565b8660070160010160006101000a8154816fffffffffffffffffffffffffffffffff02191690836fffffffffffffffffffffffffffffffff1602179055506152656127106152578461ffff16670de0b6b3a764000061485490919063ffffffff16565b61486a90919063ffffffff16565b8660070160010160106101000a8154816fffffffffffffffffffffffffffffffff02191690836fffffffffffffffffffffffffffffffff1602179055506152d56127106152c78361ffff16670de0b6b3a764000061485490919063ffffffff16565b61486a90919063ffffffff16565b8660070160020160006101000a8154816fffffffffffffffffffffffffffffffff02191690836fffffffffffffffffffffffffffffffff160217905550505050505050565b60006153318260070161532c846155a5565b61637f565b9050919050565b600060986000838152602001908152602001600020905061535881616931565b6040518060400160405280600181526020017f3100000000000000000000000000000000000000000000000000000000000000815250906153cf576040517f08c379a00000000000000000000000000000000000000000000000000000000081526004016153c69190617447565b60405180910390fd5b50919050565b600081600c0160000160019054906101000a900460ff169050919050565b600081600c0160000160029054906101000a900460ff169050919050565b6000609c60009054906101000a900473ffffffffffffffffffffffffffffffffffffffff1673ffffffffffffffffffffffffffffffffffffffff1663b93f9b0a600b6040518263ffffffff1660e01b815260040161546f91906175b0565b602060405180830381865afa15801561548c573d6000803e3d6000fd5b505050506040513d601f19601f820116820180604052508101906154b091906186e0565b9050600073ffffffffffffffffffffffffffffffffffffffff168173ffffffffffffffffffffffffffffffffffffffff1614156040518060400160405280600281526020017f32330000000000000000000000000000000000000000000000000000000000008152509061555a576040517f08c379a00000000000000000000000000000000000000000000000000000000081526004016155519190617447565b60405180910390fd5b5090565b6000826002015490506155708361694f565b6155808382856002015485616a89565b505050565b61559a81600701615595836155a5565b61637f565b816001018190555050565b60008060006155b384614765565b9150915060008211156155f0576155ed826155df670de0b6b3a76400008461485490919063ffffffff16565b61486a90919063ffffffff16565b92505b5050919050565b6000603360009054906101000a900473ffffffffffffffffffffffffffffffffffffffff16905081603360006101000a81548173ffffffffffffffffffffffffffffffffffffffff021916908373ffffffffffffffffffffffffffffffffffffffff1602179055508173ffffffffffffffffffffffffffffffffffffffff168173ffffffffffffffffffffffffffffffffffffffff167f8be0079c531659141344cd1fd0a4f28419497f9722a3daafe3b4186f6b6457e060405160405180910390a35050565b8082600c0160000160006101000a81548160ff0219169083151502179055505050565b838560030160006101000a81548173ffffffffffffffffffffffffffffffffffffffff021916908373ffffffffffffffffffffffffffffffffffffffff160217905550828560040160006101000a81548173ffffffffffffffffffffffffffffffffffffffff021916908373ffffffffffffffffffffffffffffffffffffffff1602179055508185600601819055508085600a01819055504285600b0160006101000a8154816fffffffffffffffffffffffffffffffff02191690836fffffffffffffffffffffffffffffffff160217905550670de0b6b3a764000085600001819055506105dc85600b0160106101000a81548161ffff021916908361ffff1602179055506157fd85611f406107d0612328611388613a986150e2565b5050505050565b60006098600083815260200190815260200160002060040160009054906101000a900473ffffffffffffffffffffffffffffffffffffffff169050600073ffffffffffffffffffffffffffffffffffffffff168173ffffffffffffffffffffffffffffffffffffffff16036158ae576040517f08c379a00000000000000000000000000000000000000000000000000000000081526004016158a590618052565b60405180910390fd5b73__$2100268f8e5a57a998323adb6c3c9a2fae$__634c96a389826040518263ffffffff1660e01b81526004016158e59190618baa565b602060405180830381865af4158015615902573d6000803e3d6000fd5b505050506040513d601f19601f8201168201806040525081019061592691906186e0565b6098600084815260200190815260200160002060050160006101000a81548173ffffffffffffffffffffffffffffffffffffffff021916908373ffffffffffffffffffffffffffffffffffffffff1602179055506098600083815260200190815260200160002060050160009054906101000a900473ffffffffffffffffffffffffffffffffffffffff1673ffffffffffffffffffffffffffffffffffffffff1663f2fde38b6159d4612d5d565b6040518263ffffffff1660e01b81526004016159f09190617777565b600060405180830381600087803b158015615a0a57600080fd5b505af1158015615a1e573d6000803e3d6000fd5b505050505050565b615a538260030154615a4583856002015461485490919063ffffffff16565b61486a90919063ffffffff16565b82600201819055508082600301819055505050565b60008183615a7691906182be565b905092915050565b60008183615a8c9190618bc5565b905092915050565b615b17846323b872dd60e01b858585604051602401615ab593929190618bf9565b604051602081830303815290604052907bffffffffffffffffffffffffffffffffffffffffffffffffffffffff19166020820180517bffffffffffffffffffffffffffffffffffffffffffffffffffffffff8381831617835250505050616bd8565b50505050565b60008160030160009054906101000a900473ffffffffffffffffffffffffffffffffffffffff1673ffffffffffffffffffffffffffffffffffffffff166370a082318360040160009054906101000a900473ffffffffffffffffffffffffffffffffffffffff166040518263ffffffff1660e01b8152600401615ba09190617777565b602060405180830381865afa158015615bbd573d6000803e3d6000fd5b505050506040513d601f19601f82011682018060405250810190615be19190618751565b9050919050565b6000615c1f8260000154615c118460020154615c0386614795565b61485490919063ffffffff16565b61486a90919063ffffffff16565b9050919050565b6000615c33838342616ca0565b905092915050565b6000615c4683614765565b5090508260060154615c618383615a6890919063ffffffff16565b11156040518060400160405280600281526020017f313000000000000000000000000000000000000000000000000000000000000081525090615cda576040517f08c379a0000000000000000000000000000000000000000000000000000000008152600401615cd19190617447565b60405180910390fd5b50505050565b600080615cec83614765565b50905060008360040160009054906101000a900473ffffffffffffffffffffffffffffffffffffffff1673ffffffffffffffffffffffffffffffffffffffff166318160ddd6040518163ffffffff1660e01b8152600401602060405180830381865afa158015615d60573d6000803e3d6000fd5b505050506040513d601f19601f82011682018060405250810190615d849190618751565b90506000811480615d955750600082145b15615dac57670de0b6b3a764000092505050615dde565b615dd982615dcb670de0b6b3a76400008461485490919063ffffffff16565b61486a90919063ffffffff16565b925050505b919050565b606560009054906101000a900473ffffffffffffffffffffffffffffffffffffffff1673ffffffffffffffffffffffffffffffffffffffff168473ffffffffffffffffffffffffffffffffffffffff16148015615e405750804710155b15615fac57606560009054906101000a900473ffffffffffffffffffffffffffffffffffffffff1673ffffffffffffffffffffffffffffffffffffffff1663d0e30db0826040518263ffffffff1660e01b81526004016000604051808303818588803b158015615eaf57600080fd5b505af1158015615ec3573d6000803e3d6000fd5b5050505050606560009054906101000a900473ffffffffffffffffffffffffffffffffffffffff1673ffffffffffffffffffffffffffffffffffffffff1663a9059cbb83836040518363ffffffff1660e01b8152600401615f259291906181fb565b6020604051808303816000875af1158015615f44573d6000803e3d6000fd5b505050506040513d601f19601f82011682018060405250810190615f689190618239565b615fa7576040517f08c379a0000000000000000000000000000000000000000000000000000000008152600401615f9e90618c7c565b60405180910390fd5b615ffd565b3073ffffffffffffffffffffffffffffffffffffffff168373ffffffffffffffffffffffffffffffffffffffff1603615fef57615fea848383616e71565b615ffc565b615ffb84848484616fc6565b5b5b50505050565b60008273ffffffffffffffffffffffffffffffffffffffff1682600067ffffffffffffffff811115616038576160376182f7565b5b6040519080825280601f01601f19166020018201604052801561606a5781602001600182028036833780820191505090505b506040516160789190618ce3565b60006040518083038185875af1925050503d80600081146160b5576040519150601f19603f3d011682016040523d82523d6000602084013e6160ba565b606091505b50509050806160fe576040517f08c379a00000000000000000000000000000000000000000000000000000000081526004016160f590618d46565b60405180910390fd5b505050565b6000606560009054906101000a900473ffffffffffffffffffffffffffffffffffffffff1673ffffffffffffffffffffffffffffffffffffffff166370a08231306040518263ffffffff1660e01b81526004016161609190617777565b602060405180830381865afa15801561617d573d6000803e3d6000fd5b505050506040513d601f19601f820116820180604052508101906161a19190618751565b9050828110156040518060400160405280600281526020017f31380000000000000000000000000000000000000000000000000000000000008152509061621e576040517f08c379a00000000000000000000000000000000000000000000000000000000081526004016162159190617447565b60405180910390fd5b5060008111156162c057606560009054906101000a900473ffffffffffffffffffffffffffffffffffffffff1673ffffffffffffffffffffffffffffffffffffffff16632e1a7d4d826040518263ffffffff1660e01b815260040161628391906175b0565b600060405180830381600087803b15801561629d57600080fd5b505af11580156162b1573d6000803e3d6000fd5b505050506162bf8282616003565b5b505050565b600060019054906101000a900460ff16616314576040517f08c379a000000000000000000000000000000000000000000000000000000000815260040161630b90618b8a565b60405180910390fd5b61632461631f614adc565b6155f7565b565b600060019054906101000a900460ff16616375576040517f08c379a000000000000000000000000000000000000000000000000000000000815260040161636c90618b8a565b60405180910390fd5b6001606681905550565b60008260000160009054906101000a90046fffffffffffffffffffffffffffffffff166fffffffffffffffffffffffffffffffff1682116164be5760008360000160009054906101000a90046fffffffffffffffffffffffffffffffff166fffffffffffffffffffffffffffffffff160361642e578260000160109054906101000a90046fffffffffffffffffffffffffffffffff166fffffffffffffffffffffffffffffffff16905061692b565b6164b78360000160009054906101000a90046fffffffffffffffffffffffffffffffff166fffffffffffffffffffffffffffffffff166164a98560000160109054906101000a90046fffffffffffffffffffffffffffffffff166fffffffffffffffffffffffffffffffff168561485490919063ffffffff16565b61486a90919063ffffffff16565b905061692a565b8260010160009054906101000a90046fffffffffffffffffffffffffffffffff166fffffffffffffffffffffffffffffffff16821161673c578260000160009054906101000a90046fffffffffffffffffffffffffffffffff166fffffffffffffffffffffffffffffffff168360010160009054906101000a90046fffffffffffffffffffffffffffffffff166fffffffffffffffffffffffffffffffff160361659c578260010160109054906101000a90046fffffffffffffffffffffffffffffffff166fffffffffffffffffffffffffffffffff16905061692b565b6167358360000160109054906101000a90046fffffffffffffffffffffffffffffffff166fffffffffffffffffffffffffffffffff1661672761664c8660000160009054906101000a90046fffffffffffffffffffffffffffffffff166fffffffffffffffffffffffffffffffff168760010160009054906101000a90046fffffffffffffffffffffffffffffffff166fffffffffffffffffffffffffffffffff16615a7e90919063ffffffff16565b6167196166948860000160009054906101000a90046fffffffffffffffffffffffffffffffff166fffffffffffffffffffffffffffffffff1688615a7e90919063ffffffff16565b61670b8960000160109054906101000a90046fffffffffffffffffffffffffffffffff166fffffffffffffffffffffffffffffffff168a60010160109054906101000a90046fffffffffffffffffffffffffffffffff166fffffffffffffffffffffffffffffffff16615a7e90919063ffffffff16565b61485490919063ffffffff16565b61486a90919063ffffffff16565b615a6890919063ffffffff16565b9050616929565b670de0b6b3a76400008360010160009054906101000a90046fffffffffffffffffffffffffffffffff166fffffffffffffffffffffffffffffffff16106167b7578260020160009054906101000a90046fffffffffffffffffffffffffffffffff166fffffffffffffffffffffffffffffffff16905061692b565b6169268360010160109054906101000a90046fffffffffffffffffffffffffffffffff166fffffffffffffffffffffffffffffffff1661691861683d8660010160009054906101000a90046fffffffffffffffffffffffffffffffff166fffffffffffffffffffffffffffffffff16670de0b6b3a7640000615a7e90919063ffffffff16565b61690a6168858860010160009054906101000a90046fffffffffffffffffffffffffffffffff166fffffffffffffffffffffffffffffffff1688615a7e90919063ffffffff16565b6168fc8960010160109054906101000a90046fffffffffffffffffffffffffffffffff166fffffffffffffffffffffffffffffffff168a60020160009054906101000a90046fffffffffffffffffffffffffffffffff166fffffffffffffffffffffffffffffffff16615a7e90919063ffffffff16565b61485490919063ffffffff16565b61486a90919063ffffffff16565b615a6890919063ffffffff16565b90505b5b5b92915050565b600081600c0160000160009054906101000a900460ff169050919050565b600081600001549050600082600201549050600083600201541115616a845761697783614795565b91506169a6836000015461699885600201548561485490919063ffffffff16565b61486a90919063ffffffff16565b90506fffffffffffffffffffffffffffffffff80168211156040518060400160405280600281526020017f383200000000000000000000000000000000000000000000000000000000000081525090616a35576040517f08c379a0000000000000000000000000000000000000000000000000000000008152600401616a2c9190617447565b60405180910390fd5b508183600001819055508083600201819055504283600b0160006101000a8154816fffffffffffffffffffffffffffffffff02191690836fffffffffffffffffffffffffffffffff1602179055505b505050565b600084600b0160109054906101000a900461ffff1661ffff16905060008103616ab25750616bd2565b6000616ac78585615a7e90919063ffffffff16565b90506000616af2612710616ae4858561485490919063ffffffff16565b61486a90919063ffffffff16565b90506000616aff88615ce0565b90506000616b30670de0b6b3a7640000616b22848661485490919063ffffffff16565b61486a90919063ffffffff16565b905060008114616bcc578860040160009054906101000a900473ffffffffffffffffffffffffffffffffffffffff1673ffffffffffffffffffffffffffffffffffffffff1663086f6b5687836040518363ffffffff1660e01b8152600401616b999291906181fb565b600060405180830381600087803b158015616bb357600080fd5b505af1158015616bc7573d6000803e3d6000fd5b505050505b50505050505b50505050565b6000616c3a826040518060400160405280602081526020017f5361666545524332303a206c6f772d6c6576656c2063616c6c206661696c65648152508573ffffffffffffffffffffffffffffffffffffffff1661711e9092919063ffffffff16565b9050600081511480616c5c575080806020019051810190616c5b9190618239565b5b616c9b576040517f08c379a0000000000000000000000000000000000000000000000000000000008152600401616c9290618dd8565b60405180910390fd5b505050565b600080616cc8846fffffffffffffffffffffffffffffffff1684615a7e90919063ffffffff16565b905060008103616ce357670de0b6b3a7640000915050616e6a565b6000600182616cf29190618bc5565b9050600060028311616d05576000616d13565b600283616d129190618bc5565b5b90506000616d2e6301e133808961486a90919063ffffffff16565b90506000616d5f670de0b6b3a7640000616d51848561485490919063ffffffff16565b61486a90919063ffffffff16565b90506000616d90670de0b6b3a7640000616d82858561485490919063ffffffff16565b61486a90919063ffffffff16565b905060006002616dbb84616dad898b61485490919063ffffffff16565b61485490919063ffffffff16565b616dc59190618a0f565b905060006006616e0284616df489616de68c8e61485490919063ffffffff16565b61485490919063ffffffff16565b61485490919063ffffffff16565b616e0c9190618a0f565b9050616e5f81616e5184616e43616e2c8d8b61485490919063ffffffff16565b670de0b6b3a7640000615a6890919063ffffffff16565b615a6890919063ffffffff16565b615a6890919063ffffffff16565b985050505050505050505b9392505050565b6000808473ffffffffffffffffffffffffffffffffffffffff1663a9059cbb60e01b8585604051602401616ea69291906181fb565b604051602081830303815290604052907bffffffffffffffffffffffffffffffffffffffffffffffffffffffff19166020820180517bffffffffffffffffffffffffffffffffffffffffffffffffffffffff8381831617835250505050604051616f109190618ce3565b6000604051808303816000865af19150503d8060008114616f4d576040519150601f19603f3d011682016040523d82523d6000602084013e616f52565b606091505b5091509150818015616f805750600081511480616f7f575080806020019051810190616f7e9190618239565b5b5b616fbf576040517f08c379a0000000000000000000000000000000000000000000000000000000008152600401616fb690618e44565b60405180910390fd5b5050505050565b6000808573ffffffffffffffffffffffffffffffffffffffff166323b872dd60e01b868686604051602401616ffd93929190618bf9565b604051602081830303815290604052907bffffffffffffffffffffffffffffffffffffffffffffffffffffffff19166020820180517bffffffffffffffffffffffffffffffffffffffffffffffffffffffff83818316178352505050506040516170679190618ce3565b6000604051808303816000865af19150503d80600081146170a4576040519150601f19603f3d011682016040523d82523d6000602084013e6170a9565b606091505b50915091508180156170d757506000815114806170d65750808060200190518101906170d59190618239565b5b5b617116576040517f08c379a000000000000000000000000000000000000000000000000000000000815260040161710d90618eb0565b60405180910390fd5b505050505050565b606061712d8484600085617136565b90509392505050565b60608247101561717b576040517f08c379a000000000000000000000000000000000000000000000000000000000815260040161717290618f42565b60405180910390fd5b6000808673ffffffffffffffffffffffffffffffffffffffff1685876040516171a49190618ce3565b60006040518083038185875af1925050503d80600081146171e1576040519150601f19603f3d011682016040523d82523d6000602084013e6171e6565b606091505b50915091506171f787838387617203565b92505050949350505050565b6060831561726557600083510361725d5761721d85617278565b61725c576040517f08c379a000000000000000000000000000000000000000000000000000000000815260040161725390618fae565b60405180910390fd5b5b829050617270565b61726f838361729b565b5b949350505050565b6000808273ffffffffffffffffffffffffffffffffffffffff163b119050919050565b6000825111156172ae5781518083602001fd5b806040517f08c379a00000000000000000000000000000000000000000000000000000000081526004016172e29190617447565b60405180910390fd5b6040518060a0016040528060008152602001600073ffffffffffffffffffffffffffffffffffffffff1681526020016000815260200160008152602001600081525090565b60405180610100016040528060008152602001600073ffffffffffffffffffffffffffffffffffffffff168152602001600073ffffffffffffffffffffffffffffffffffffffff168152602001600073ffffffffffffffffffffffffffffffffffffffff168152602001600081526020016000815260200160008152602001600081525090565b600081519050919050565b600082825260208201905092915050565b60005b838110156173f15780820151818401526020810190506173d6565b60008484015250505050565b6000601f19601f8301169050919050565b6000617419826173b7565b61742381856173c2565b93506174338185602086016173d3565b61743c816173fd565b840191505092915050565b60006020820190508181036000830152617461818461740e565b905092915050565b6000604051905090565b600080fd5b600080fd5b6000819050919050565b6174908161747d565b811461749b57600080fd5b50565b6000813590506174ad81617487565b92915050565b6000602082840312156174c9576174c8617473565b5b60006174d78482850161749e565b91505092915050565b600073ffffffffffffffffffffffffffffffffffffffff82169050919050565b600061750b826174e0565b9050919050565b61751b81617500565b811461752657600080fd5b50565b60008135905061753881617512565b92915050565b60006020828403121561755457617553617473565b5b600061756284828501617529565b91505092915050565b60008115159050919050565b6175808161756b565b82525050565b600060208201905061759b6000830184617577565b92915050565b6175aa8161747d565b82525050565b60006020820190506175c560008301846175a1565b92915050565b60006040820190506175e060008301856175a1565b6175ed60208301846175a1565b9392505050565b600061ffff82169050919050565b61760b816175f4565b811461761657600080fd5b50565b60008135905061762881617602565b92915050565b6000806000806080858703121561764857617647617473565b5b60006176568782880161749e565b94505060206176678782880161749e565b935050604061767887828801617529565b925050606061768987828801617619565b91505092959194509250565b61769e8161756b565b81146176a957600080fd5b50565b6000813590506176bb81617695565b92915050565b600080600080608085870312156176db576176da617473565b5b60006176e98782880161749e565b94505060206176fa8782880161749e565b935050604061770b87828801617529565b925050606061771c878288016176ac565b91505092959194509250565b6000806040838503121561773f5761773e617473565b5b600061774d85828601617529565b925050602061775e85828601617529565b9150509250929050565b61777181617500565b82525050565b600060208201905061778c6000830184617768565b92915050565b60008060008060008060c087890312156177af576177ae617473565b5b60006177bd89828a0161749e565b96505060206177ce89828a01617619565b95505060406177df89828a01617619565b94505060606177f089828a01617619565b935050608061780189828a01617619565b92505060a061781289828a01617619565b9150509295509295509295565b6000806040838503121561783657617835617473565b5b60006178448582860161749e565b925050602061785585828601617529565b9150509250929050565b60008060006060848603121561787857617877617473565b5b60006178868682870161749e565b93505060206178978682870161749e565b92505060406178a88682870161749e565b9150509250925092565b60006fffffffffffffffffffffffffffffffff82169050919050565b6178d7816178b2565b82525050565b60a0820160008201516178f360008501826178ce565b50602082015161790660208501826178ce565b50604082015161791960408501826178ce565b50606082015161792c60608501826178ce565b50608082015161793f60808501826178ce565b50505050565b61794e816178b2565b82525050565b61795d816175f4565b82525050565b61796c8161756b565b82525050565b6060820160008201516179886000850182617963565b50602082015161799b6020850182617963565b5060408201516179ae6040850182617963565b50505050565b6000610240820190506179ca600083018f6175a1565b6179d7602083018e6175a1565b6179e4604083018d6175a1565b6179f1606083018c617768565b6179fe608083018b617768565b617a0b60a083018a617768565b617a1860c08301896175a1565b617a2560e08301886178dd565b617a336101808301876175a1565b617a416101a0830186617945565b617a4f6101c0830185617954565b617a5d6101e0830184617972565b9d9c50505050505050505050505050565b600080600060608486031215617a8757617a86617473565b5b6000617a9586828701617529565b9350506020617aa68682870161749e565b9250506040617ab78682870161749e565b9150509250925092565b60008060408385031215617ad857617ad7617473565b5b6000617ae68582860161749e565b9250506020617af78582860161749e565b9150509250929050565b600080fd5b600080fd5b600080fd5b60008083601f840112617b2657617b25617b01565b5b8235905067ffffffffffffffff811115617b4357617b42617b06565b5b602083019150836020820283011115617b5f57617b5e617b0b565b5b9250929050565b600080600060408486031215617b7f57617b7e617473565b5b600084013567ffffffffffffffff811115617b9d57617b9c617478565b5b617ba986828701617b10565b93509350506020617bbc86828701617529565b9150509250925092565b600081519050919050565b600082825260208201905092915050565b6000819050602082019050919050565b617bfb8161747d565b82525050565b617c0a81617500565b82525050565b60a082016000820151617c266000850182617bf2565b506020820151617c396020850182617c01565b506040820151617c4c6040850182617bf2565b506060820151617c5f6060850182617bf2565b506080820151617c726080850182617bf2565b50505050565b6000617c848383617c10565b60a08301905092915050565b6000602082019050919050565b6000617ca882617bc6565b617cb28185617bd1565b9350617cbd83617be2565b8060005b83811015617cee578151617cd58882617c78565b9750617ce083617c90565b925050600181019050617cc1565b5085935050505092915050565b60006020820190508181036000830152617d158184617c9d565b905092915050565b60008060408385031215617d3457617d33617473565b5b6000617d428582860161749e565b9250506020617d5385828601617619565b9150509250929050565b60008060208385031215617d7457617d73617473565b5b600083013567ffffffffffffffff811115617d9257617d91617478565b5b617d9e85828601617b10565b92509250509250929050565b600081519050919050565b600082825260208201905092915050565b6000819050602082019050919050565b61010082016000820151617ded6000850182617bf2565b506020820151617e006020850182617c01565b506040820151617e136040850182617c01565b506060820151617e266060850182617c01565b506080820151617e396080850182617bf2565b5060a0820151617e4c60a0850182617bf2565b5060c0820151617e5f60c0850182617bf2565b5060e0820151617e7260e0850182617bf2565b50505050565b6000617e848383617dd6565b6101008301905092915050565b6000602082019050919050565b6000617ea982617daa565b617eb38185617db5565b9350617ebe83617dc6565b8060005b83811015617eef578151617ed68882617e78565b9750617ee183617e91565b925050600181019050617ec2565b5085935050505092915050565b60006020820190508181036000830152617f168184617e9e565b905092915050565b6000608082019050617f3360008301876175a1565b617f406020830186617768565b617f4d60408301856175a1565b617f5a60608301846175a1565b95945050505050565b6000606082019050617f786000830186617768565b617f8560208301856175a1565b617f9260408301846175a1565b949350505050565b7f61766f6964207573696e67206e61746976652065746865720000000000000000600082015250565b6000617fd06018836173c2565b9150617fdb82617f9a565b602082019050919050565b60006020820190508181036000830152617fff81617fc3565b9050919050565b7f416464726573733d300000000000000000000000000000000000000000000000600082015250565b600061803c6009836173c2565b915061804782618006565b602082019050919050565b6000602082019050818103600083015261806b8161802f565b9050919050565b600060608201905061808760008301866175a1565b6180946020830185617768565b6180a16040830184617768565b949350505050565b7f496e697469616c697a61626c653a20636f6e747261637420697320616c72656160008201527f647920696e697469616c697a6564000000000000000000000000000000000000602082015250565b6000618105602e836173c2565b9150618110826180a9565b604082019050919050565b60006020820190508181036000830152618134816180f8565b9050919050565b6000819050919050565b600060ff82169050919050565b6000819050919050565b600061817761817261816d8461813b565b618152565b618145565b9050919050565b6181878161815c565b82525050565b60006020820190506181a2600083018461817e565b92915050565b600060a0820190506181bd6000830188617954565b6181ca6020830187617954565b6181d76040830186617954565b6181e46060830185617954565b6181f16080830184617954565b9695505050505050565b60006040820190506182106000830185617768565b61821d60208301846175a1565b9392505050565b60008151905061823381617695565b92915050565b60006020828403121561824f5761824e617473565b5b600061825d84828501618224565b91505092915050565b600060408201905061827b60008301856175a1565b6182886020830184617768565b9392505050565b7f4e487b7100000000000000000000000000000000000000000000000000000000600052601160045260246000fd5b60006182c98261747d565b91506182d48361747d565b92508282019050808211156182ec576182eb61828f565b5b92915050565b600080fd5b7f4e487b7100000000000000000000000000000000000000000000000000000000600052604160045260246000fd5b61832f826173fd565b810181811067ffffffffffffffff8211171561834e5761834d6182f7565b5b80604052505050565b6000618361617469565b905061836d8282618326565b919050565b600067ffffffffffffffff82111561838d5761838c6182f7565b5b618396826173fd565b9050602081019050919050565b60006183b66183b184618372565b618357565b9050828152602081018484840111156183d2576183d16182f2565b5b6183dd8482856173d3565b509392505050565b600082601f8301126183fa576183f9617b01565b5b815161840a8482602086016183a3565b91505092915050565b60006020828403121561842957618428617473565b5b600082015167ffffffffffffffff81111561844757618446617478565b5b618453848285016183e5565b91505092915050565b600081905092915050565b6000618472826173b7565b61847c818561845c565b935061848c8185602086016173d3565b80840191505092915050565b7f284d6967687479466920496e7465726573742042656172696e6720546f6b656e60008201527f2900000000000000000000000000000000000000000000000000000000000000602082015250565b60006184f460218361845c565b91506184ff82618498565b602182019050919050565b60006185168284618467565b9150618521826184e7565b915081905092915050565b7f6d00000000000000000000000000000000000000000000000000000000000000600082015250565b600061856260018361845c565b915061856d8261852c565b600182019050919050565b600061858382618555565b915061858f8284618467565b915081905092915050565b6185a381618145565b81146185ae57600080fd5b50565b6000815190506185c08161859a565b92915050565b6000602082840312156185dc576185db617473565b5b60006185ea848285016185b1565b91505092915050565b600082825260208201905092915050565b600061860f826173b7565b61861981856185f3565b93506186298185602086016173d3565b618632816173fd565b840191505092915050565b61864681618145565b82525050565b61865581617500565b82525050565b6186648161747d565b82525050565b600060a08201905081810360008301526186848188618604565b905081810360208301526186988187618604565b90506186a7604083018661863d565b6186b4606083018561864c565b6186c1608083018461865b565b9695505050505050565b6000815190506186da81617512565b92915050565b6000602082840312156186f6576186f5617473565b5b6000618704848285016186cb565b91505092915050565b7f4e487b7100000000000000000000000000000000000000000000000000000000600052603260045260246000fd5b60008151905061874b81617487565b92915050565b60006020828403121561876757618766617473565b5b60006187758482850161873c565b91505092915050565b8082525050565b600060208201905061879a600083018461877e565b92915050565b60006187ab8261747d565b91507fffffffffffffffffffffffffffffffffffffffffffffffffffffffffffffffff82036187dd576187dc61828f565b5b600182019050919050565b7f696e76616c69642070657263656e740000000000000000000000000000000000600082015250565b600061881e600f836173c2565b9150618829826187e8565b602082019050919050565b6000602082019050818103600083015261884d81618811565b9050919050565b600061886f61886a618865846175f4565b618152565b61747d565b9050919050565b61887f81618854565b82525050565b600060208201905061889a6000830184618876565b92915050565b7f4f776e61626c653a206e6577206f776e657220697320746865207a65726f206160008201527f6464726573730000000000000000000000000000000000000000000000000000602082015250565b60006188fc6026836173c2565b9150618907826188a0565b604082019050919050565b6000602082019050818103600083015261892b816188ef565b9050919050565b7f4f776e61626c653a2063616c6c6572206973206e6f7420746865206f776e6572600082015250565b60006189686020836173c2565b915061897382618932565b602082019050919050565b600060208201905081810360008301526189978161895b565b9050919050565b60006189a98261747d565b91506189b48361747d565b92508282026189c28161747d565b915082820484148315176189d9576189d861828f565b5b5092915050565b7f4e487b7100000000000000000000000000000000000000000000000000000000600052601260045260246000fd5b6000618a1a8261747d565b9150618a258361747d565b925082618a3557618a346189e0565b5b828204905092915050565b7f5265656e7472616e637947756172643a207265656e7472616e742063616c6c00600082015250565b6000618a76601f836173c2565b9150618a8182618a40565b602082019050919050565b60006020820190508181036000830152618aa581618a69565b9050919050565b7f496e76616c6964205661756c7449640000000000000000000000000000000000600082015250565b6000618ae2600f836173c2565b9150618aed82618aac565b602082019050919050565b60006020820190508181036000830152618b1181618ad5565b9050919050565b7f496e697469616c697a61626c653a20636f6e7472616374206973206e6f74206960008201527f6e697469616c697a696e67000000000000000000000000000000000000000000602082015250565b6000618b74602b836173c2565b9150618b7f82618b18565b604082019050919050565b60006020820190508181036000830152618ba381618b67565b9050919050565b6000602082019050618bbf600083018461864c565b92915050565b6000618bd08261747d565b9150618bdb8361747d565b9250828203905081811115618bf357618bf261828f565b5b92915050565b6000606082019050618c0e6000830186617768565b618c1b6020830185617768565b618c2860408301846175a1565b949350505050565b7f7472616e73666572206661696c65640000000000000000000000000000000000600082015250565b6000618c66600f836173c2565b9150618c7182618c30565b602082019050919050565b60006020820190508181036000830152618c9581618c59565b9050919050565b600081519050919050565b600081905092915050565b6000618cbd82618c9c565b618cc78185618ca7565b9350618cd78185602086016173d3565b80840191505092915050565b6000618cef8284618cb2565b915081905092915050565b7f5354450000000000000000000000000000000000000000000000000000000000600082015250565b6000618d306003836173c2565b9150618d3b82618cfa565b602082019050919050565b60006020820190508181036000830152618d5f81618d23565b9050919050565b7f5361666545524332303a204552433230206f7065726174696f6e20646964206e60008201527f6f74207375636365656400000000000000000000000000000000000000000000602082015250565b6000618dc2602a836173c2565b9150618dcd82618d66565b604082019050919050565b60006020820190508181036000830152618df181618db5565b9050919050565b7f5354000000000000000000000000000000000000000000000000000000000000600082015250565b6000618e2e6002836173c2565b9150618e3982618df8565b602082019050919050565b60006020820190508181036000830152618e5d81618e21565b9050919050565b7f5354460000000000000000000000000000000000000000000000000000000000600082015250565b6000618e9a6003836173c2565b9150618ea582618e64565b602082019050919050565b60006020820190508181036000830152618ec981618e8d565b9050919050565b7f416464726573733a20696e73756666696369656e742062616c616e636520666f60008201527f722063616c6c0000000000000000000000000000000000000000000000000000602082015250565b6000618f2c6026836173c2565b9150618f3782618ed0565b604082019050919050565b60006020820190508181036000830152618f5b81618f1f565b9050919050565b7f416464726573733a2063616c6c20746f206e6f6e2d636f6e7472616374000000600082015250565b6000618f98601d836173c2565b9150618fa382618f62565b602082019050919050565b60006020820190508181036000830152618fc781618f8b565b905091905056fea26469706673582212202766a94c11de4e721d66f7db127e702b4399bbe873c9cd9a5bba69103f6741e164736f6c63430008120033","linkReferences":{"contracts/libraries/logic/ETokenDeployer.sol":{"ETokenDeployer":[{"start":9047,"length":20}]},"contracts/libraries/logic/ReserveLogic.sol":{"ReserveLogic":[{"start":12767,"length":20},{"start":14205,"length":20},{"start":17282,"length":20},{"start":19304,"length":20}]},"contracts/libraries/logic/StakingRewardsDeployer.sol":{"StakingRewardsDeployer":[{"start":22765,"length":20}]}}},"methodIdentifiers":{"WETH9()":"4aa4a4fc","activateReserve(uint256)":"f6955a61","addressRegistry()":"f3ad65f4","borrow(address,uint256,uint256)":"c1bce0b7","borrowingRateOfReserve(uint256)":"61c7f38d","borrowingWhiteList(address)":"08e250a8","credits(uint256,address)":"6387310d","deActivateReserve(uint256)":"f7ca8d75","debtPositions(uint256)":"e1b1acb7","deposit(uint256,uint256,address,uint16)":"1de8a7c2","depositAndStake(uint256,uint256,address,uint16)":"594d81e5","disableBorrowing(uint256)":"47e561b8","disableVaultToBorrow(uint256)":"d9b84ab1","emergencyPauseAll()":"0775ef0f","enableBorrowing(uint256)":"5d798bfe","enableVaultToBorrow(uint256)":"20d8890b","exchangeRateOfReserve(uint256)":"df8afadc","freezeReserve(uint256)":"00d3e422","getCurrentDebt(uint256)":"13c8e60d","getETokenAddress(uint256)":"54018896","getPositionStatus(uint256[],address)":"b069e065","getReserveIdOfDebt(uint256)":"a80bf1e0","getReserveStatus(uint256[])":"be774df8","getStakingAddress(uint256)":"5c6b6782","getUnderlyingTokenAddress(uint256)":"dd576911","initReserve(address)":"7551c86c","initialize(address,address)":"485cc955","newDebtPosition(uint256)":"675a6d44","nextDebtPositionId()":"507668cd","nextReserveId()":"46dbf589","owner()":"8da5cb5b","paused()":"5c975abb","redeem(uint256,uint256,address,bool)":"d2154138","renounceOwnership()":"715018a6","repay(address,uint256,uint256)":"8cd2e0c7","reserves(uint256)":"8334278d","setBorrowingRateConfig(uint256,uint16,uint16,uint16,uint16,uint16)":"50a8376e","setCreditsOfVault(uint256,uint256,uint256)":"7deacfba","setReserveCapacity(uint256,uint256)":"a48b369e","setReserveFeeRate(uint256,uint16)":"ba4b7c94","totalBorrowsOfReserve(uint256)":"ef28eee1","totalLiquidityOfReserve(uint256)":"11d584e4","transferOwnership(address)":"f2fde38b","unFreezeReserve(uint256)":"431f53a9","unPauseAll()":"07c97ffb","unStakeAndWithdraw(uint256,uint256,address,bool)":"1f679626","utilizationRateOfReserve(uint256)":"6cb9f701"},"id":27}