{"abi":[{"type":"receive","stateMutability":"payable"},{"type":"function","name":"WETH9","inputs":[],"outputs":[{"name":"","type":"address","internalType":"address"}],"stateMutability":"view"},{"type":"function","name":"addressProvider","inputs":[],"outputs":[{"name":"","type":"address","internalType":"address"}],"stateMutability":"view"},{"type":"function","name":"claimRewards","inputs":[],"outputs":[],"stateMutability":"nonpayable"},{"type":"function","name":"claimableRewards","inputs":[],"outputs":[{"name":"","type":"address[]","internalType":"address[]"},{"name":"","type":"uint256[]","internalType":"uint256[]"}],"stateMutability":"view"},{"type":"function","name":"closePosition","inputs":[],"outputs":[{"name":"liquidity","type":"uint128","internalType":"uint128"},{"name":"token0Reduced","type":"uint256","internalType":"uint256"},{"name":"token1Reduced","type":"uint256","internalType":"uint256"},{"name":"token0Balance","type":"uint256","internalType":"uint256"},{"name":"token1Balance","type":"uint256","internalType":"uint256"}],"stateMutability":"nonpayable"},{"type":"function","name":"getShadowNonfungiblePositionManager","inputs":[],"outputs":[{"name":"","type":"address","internalType":"address"}],"stateMutability":"view"},{"type":"function","name":"getSwapRouter","inputs":[],"outputs":[{"name":"","type":"address","internalType":"address"}],"stateMutability":"view"},{"type":"function","name":"getX33Adapter","inputs":[],"outputs":[{"name":"","type":"address","internalType":"address"}],"stateMutability":"view"},{"type":"function","name":"initialize","inputs":[{"name":"_positionId","type":"uint256","internalType":"uint256"}],"outputs":[],"stateMutability":"nonpayable"},{"type":"function","name":"liquidatePosition","inputs":[{"name":"caller","type":"address","internalType":"address"}],"outputs":[{"name":"liquidity","type":"uint128","internalType":"uint128"},{"name":"token0Reduced","type":"uint256","internalType":"uint256"},{"name":"token1Reduced","type":"uint256","internalType":"uint256"},{"name":"token0Fees","type":"uint256","internalType":"uint256"},{"name":"token1Fees","type":"uint256","internalType":"uint256"},{"name":"token0Left","type":"uint256","internalType":"uint256"},{"name":"token1Left","type":"uint256","internalType":"uint256"}],"stateMutability":"nonpayable"},{"type":"function","name":"openPosition","inputs":[{"name":"params","type":"tuple","internalType":"struct IShadowRangePositionImpl.OpenPositionParams","components":[{"name":"amount0Desired","type":"uint256","internalType":"uint256"},{"name":"amount1Desired","type":"uint256","internalType":"uint256"},{"name":"tickLower","type":"int24","internalType":"int24"},{"name":"tickUpper","type":"int24","internalType":"int24"},{"name":"positionOwner","type":"address","internalType":"address"}]}],"outputs":[{"name":"tokenId","type":"uint256","internalType":"uint256"},{"name":"liquidity","type":"uint128","internalType":"uint128"},{"name":"amount0","type":"uint256","internalType":"uint256"},{"name":"amount1","type":"uint256","internalType":"uint256"}],"stateMutability":"nonpayable"},{"type":"function","name":"positionId","inputs":[],"outputs":[{"name":"","type":"uint256","internalType":"uint256"}],"stateMutability":"view"},{"type":"function","name":"positionOwner","inputs":[],"outputs":[{"name":"","type":"address","internalType":"address"}],"stateMutability":"view"},{"type":"function","name":"reducePosition","inputs":[{"name":"reducePercentage","type":"uint128","internalType":"uint128"},{"name":"amount0ToSwap","type":"uint256","internalType":"uint256"},{"name":"amount1ToSwap","type":"uint256","internalType":"uint256"}],"outputs":[{"name":"reduceLiquidity","type":"uint128","internalType":"uint128"},{"name":"token0Reduced","type":"uint256","internalType":"uint256"},{"name":"token1Reduced","type":"uint256","internalType":"uint256"}],"stateMutability":"nonpayable"},{"type":"function","name":"shadowPositionId","inputs":[],"outputs":[{"name":"","type":"uint256","internalType":"uint256"}],"stateMutability":"view"},{"type":"function","name":"shadowV3Pool","inputs":[],"outputs":[{"name":"","type":"address","internalType":"address"}],"stateMutability":"view"},{"type":"function","name":"tickSpacing","inputs":[],"outputs":[{"name":"","type":"int24","internalType":"int24"}],"stateMutability":"view"},{"type":"function","name":"token0","inputs":[],"outputs":[{"name":"","type":"address","internalType":"address"}],"stateMutability":"view"},{"type":"function","name":"token1","inputs":[],"outputs":[{"name":"","type":"address","internalType":"address"}],"stateMutability":"view"},{"type":"function","name":"vault","inputs":[],"outputs":[{"name":"","type":"address","internalType":"address"}],"stateMutability":"view"},{"type":"function","name":"version","inputs":[],"outputs":[{"name":"","type":"uint256","internalType":"uint256"}],"stateMutability":"pure"},{"type":"function","name":"x33","inputs":[],"outputs":[{"name":"","type":"address","internalType":"address"}],"stateMutability":"view"},{"type":"function","name":"xShadow","inputs":[],"outputs":[{"name":"","type":"address","internalType":"address"}],"stateMutability":"view"}],"bytecode":{"object":"0x608060405234801561001057600080fd5b5061657280620000216000396000f3fe6080604052600436106101445760003560e01c80636c003a9b116100b6578063c5f720e41161006f578063c5f720e414610523578063cb2af14b1461054e578063d0c93a7c14610579578063d21220a7146105a4578063fbfa77cf146105cf578063fe4b84df146105fa57610211565b80636c003a9b146103f057806371640de31461041c578063725c9c49146104475780637498a0f014610472578063a2e08361146104b5578063c393d0e3146104f457610211565b8063372500ab11610108578063372500ab146102ed5780634256f5e7146103045780634aa4a4fc1461032f57806354fd4d501461035a57806357b037d11461038557806358ffed9f146103c557610211565b80630dfe168114610216578063150254db146102415780631b54bf721461026c578063209eb076146102975780632954018c146102c257610211565b366102115760008054906101000a900473ffffffffffffffffffffffffffffffffffffffff1673ffffffffffffffffffffffffffffffffffffffff163373ffffffffffffffffffffffffffffffffffffffff16146040518060400160405280600281526020017f31370000000000000000000000000000000000000000000000000000000000008152509061020f576040517f08c379a000000000000000000000000000000000000000000000000000000000815260040161020691906151f0565b60405180910390fd5b005b600080fd5b34801561022257600080fd5b5061022b610623565b6040516102389190615253565b60405180910390f35b34801561024d57600080fd5b50610256610649565b6040516102639190615253565b60405180910390f35b34801561027857600080fd5b5061028161066f565b60405161028e9190615287565b60405180910390f35b3480156102a357600080fd5b506102ac610675565b6040516102b99190615253565b60405180910390f35b3480156102ce57600080fd5b506102d7610691565b6040516102e49190615253565b60405180910390f35b3480156102f957600080fd5b506103026106b7565b005b34801561031057600080fd5b50610319610759565b6040516103269190615253565b60405180910390f35b34801561033b57600080fd5b5061034461077f565b6040516103519190615253565b60405180910390f35b34801561036657600080fd5b5061036f6107a3565b60405161037c9190615287565b60405180910390f35b34801561039157600080fd5b506103ac60048036038101906103a79190615453565b6107ac565b6040516103bc94939291906154ab565b60405180910390f35b3480156103d157600080fd5b506103da611100565b6040516103e79190615253565b60405180910390f35b3480156103fc57600080fd5b506104056111a5565b60405161041392919061566c565b60405180910390f35b34801561042857600080fd5b506104316114ba565b60405161043e9190615287565b60405180910390f35b34801561045357600080fd5b5061045c6114c0565b6040516104699190615253565b60405180910390f35b34801561047e57600080fd5b50610499600480360381019061049491906156a3565b611565565b6040516104ac97969594939291906156d0565b60405180910390f35b3480156104c157600080fd5b506104dc60048036038101906104d7919061576b565b612017565b6040516104eb939291906157be565b60405180910390f35b34801561050057600080fd5b50610509612792565b60405161051a9594939291906157f5565b60405180910390f35b34801561052f57600080fd5b50610538612ebb565b6040516105459190615253565b60405180910390f35b34801561055a57600080fd5b50610563612ee1565b6040516105709190615253565b60405180910390f35b34801561058557600080fd5b5061058e612f07565b60405161059b9190615857565b60405180910390f35b3480156105b057600080fd5b506105b9612f1a565b6040516105c69190615253565b60405180910390f35b3480156105db57600080fd5b506105e4612f40565b6040516105f19190615253565b60405180910390f35b34801561060657600080fd5b50610621600480360381019061061c9190615872565b612f66565b005b600460009054906101000a900473ffffffffffffffffffffffffffffffffffffffff1681565b600360009054906101000a900473ffffffffffffffffffffffffffffffffffffffff1681565b60075481565b6000739710e10a8f6fba8c391606fee18614885684548d905090565b600a60009054906101000a900473ffffffffffffffffffffffffffffffffffffffff1681565b600160009054906101000a900473ffffffffffffffffffffffffffffffffffffffff1673ffffffffffffffffffffffffffffffffffffffff163373ffffffffffffffffffffffffffffffffffffffff1614610747576040517f08c379a000000000000000000000000000000000000000000000000000000000815260040161073e90615911565b60405180910390fd5b61074f6136b9565b610757613bd9565b565b600860009054906101000a900473ffffffffffffffffffffffffffffffffffffffff1681565b60008054906101000a900473ffffffffffffffffffffffffffffffffffffffff1681565b60006001905090565b600080600080600160009054906101000a900473ffffffffffffffffffffffffffffffffffffffff1673ffffffffffffffffffffffffffffffffffffffff163373ffffffffffffffffffffffffffffffffffffffff1614610842576040517f08c379a000000000000000000000000000000000000000000000000000000000815260040161083990615911565b60405180910390fd5b6000600460009054906101000a900473ffffffffffffffffffffffffffffffffffffffff1673ffffffffffffffffffffffffffffffffffffffff166370a08231306040518263ffffffff1660e01b815260040161089f9190615253565b602060405180830381865afa1580156108bc573d6000803e3d6000fd5b505050506040513d601f19601f820116820180604052508101906108e09190615946565b905080866000015111156109f9576109f7600560009054906101000a900473ffffffffffffffffffffffffffffffffffffffff16600460009054906101000a900473ffffffffffffffffffffffffffffffffffffffff168860200151600560009054906101000a900473ffffffffffffffffffffffffffffffffffffffff1673ffffffffffffffffffffffffffffffffffffffff166370a08231306040518263ffffffff1660e01b81526004016109979190615253565b602060405180830381865afa1580156109b4573d6000803e3d6000fd5b505050506040513d601f19601f820116820180604052508101906109d89190615946565b6109e291906159a2565b848a600001516109f291906159a2565b6143f8565b505b6000600560009054906101000a900473ffffffffffffffffffffffffffffffffffffffff1673ffffffffffffffffffffffffffffffffffffffff166370a08231306040518263ffffffff1660e01b8152600401610a569190615253565b602060405180830381865afa158015610a73573d6000803e3d6000fd5b505050506040513d601f19601f82011682018060405250810190610a979190615946565b90508087602001511115610bb057610bae600460009054906101000a900473ffffffffffffffffffffffffffffffffffffffff16600560009054906101000a900473ffffffffffffffffffffffffffffffffffffffff168960000151600460009054906101000a900473ffffffffffffffffffffffffffffffffffffffff1673ffffffffffffffffffffffffffffffffffffffff166370a08231306040518263ffffffff1660e01b8152600401610b4e9190615253565b602060405180830381865afa158015610b6b573d6000803e3d6000fd5b505050506040513d601f19601f82011682018060405250810190610b8f9190615946565b610b9991906159a2565b848b60200151610ba991906159a2565b6143f8565b505b6000610bba611100565b9050600460009054906101000a900473ffffffffffffffffffffffffffffffffffffffff1673ffffffffffffffffffffffffffffffffffffffff1663095ea7b3828a600001516040518363ffffffff1660e01b8152600401610c1d9291906159d6565b6020604051808303816000875af1158015610c3c573d6000803e3d6000fd5b505050506040513d601f19601f82011682018060405250810190610c609190615a37565b50600560009054906101000a900473ffffffffffffffffffffffffffffffffffffffff1673ffffffffffffffffffffffffffffffffffffffff1663095ea7b3828a602001516040518363ffffffff1660e01b8152600401610cc29291906159d6565b6020604051808303816000875af1158015610ce1573d6000803e3d6000fd5b505050506040513d601f19601f82011682018060405250810190610d059190615a37565b508073ffffffffffffffffffffffffffffffffffffffff16636d70c415604051806101600160405280600460009054906101000a900473ffffffffffffffffffffffffffffffffffffffff1673ffffffffffffffffffffffffffffffffffffffff168152602001600560009054906101000a900473ffffffffffffffffffffffffffffffffffffffff1673ffffffffffffffffffffffffffffffffffffffff168152602001600360149054906101000a900460020b60020b81526020018b6040015160020b81526020018b6060015160020b81526020018b6000015181526020018b60200151815260200160008152602001600081526020013073ffffffffffffffffffffffffffffffffffffffff168152602001428152506040518263ffffffff1660e01b8152600401610e3a9190615b54565b6080604051808303816000875af1158015610e59573d6000803e3d6000fd5b505050506040513d601f19601f82011682018060405250810190610e7d9190615b85565b809750819850829950839a5050505050866007819055508760800151600660006101000a81548173ffffffffffffffffffffffffffffffffffffffff021916908373ffffffffffffffffffffffffffffffffffffffff160217905550610f066000600660009054906101000a900473ffffffffffffffffffffffffffffffffffffffff166146b3565b600460009054906101000a900473ffffffffffffffffffffffffffffffffffffffff1673ffffffffffffffffffffffffffffffffffffffff166370a08231306040518263ffffffff1660e01b8152600401610f619190615253565b602060405180830381865afa158015610f7e573d6000803e3d6000fd5b505050506040513d601f19601f82011682018060405250810190610fa29190615946565b9250600560009054906101000a900473ffffffffffffffffffffffffffffffffffffffff1673ffffffffffffffffffffffffffffffffffffffff166370a08231306040518263ffffffff1660e01b8152600401610fff9190615253565b602060405180830381865afa15801561101c573d6000803e3d6000fd5b505050506040513d601f19601f820116820180604052508101906110409190615946565b9150600083111561109c5761109b600460009054906101000a900473ffffffffffffffffffffffffffffffffffffffff1630600660009054906101000a900473ffffffffffffffffffffffffffffffffffffffff1686614872565b5b60008211156110f6576110f5600560009054906101000a900473ffffffffffffffffffffffffffffffffffffffff1630600660009054906101000a900473ffffffffffffffffffffffffffffffffffffffff1685614872565b5b5050509193509193565b6000600a60009054906101000a900473ffffffffffffffffffffffffffffffffffffffff1673ffffffffffffffffffffffffffffffffffffffff1663b93f9b0a61012d6040518263ffffffff1660e01b815260040161115f9190615287565b602060405180830381865afa15801561117c573d6000803e3d6000fd5b505050506040513d601f19601f820116820180604052508101906111a09190615c01565b905090565b6060806000600160009054906101000a900473ffffffffffffffffffffffffffffffffffffffff1673ffffffffffffffffffffffffffffffffffffffff16639a64b6326040518163ffffffff1660e01b8152600401602060405180830381865afa158015611217573d6000803e3d6000fd5b505050506040513d601f19601f8201168201806040525081019061123b9190615c01565b9050600073ffffffffffffffffffffffffffffffffffffffff168173ffffffffffffffffffffffffffffffffffffffff161461141c5760008173ffffffffffffffffffffffffffffffffffffffff1663c4f59f9b6040518163ffffffff1660e01b8152600401600060405180830381865afa1580156112be573d6000803e3d6000fd5b505050506040513d6000823e3d601f19601f820116820180604052508101906112e79190615cfb565b90506000815167ffffffffffffffff811115611306576113056152bb565b5b6040519080825280602002602001820160405280156113345781602001602082028036833780820191505090505b50905060005b825181101561140d578373ffffffffffffffffffffffffffffffffffffffff16633e491d4784838151811061137257611371615d44565b5b60200260200101516007546040518363ffffffff1660e01b815260040161139a9291906159d6565b602060405180830381865afa1580156113b7573d6000803e3d6000fd5b505050506040513d601f19601f820116820180604052508101906113db9190615946565b8282815181106113ee576113ed615d44565b5b602002602001018181525050808061140590615d73565b91505061133a565b508181945094505050506114b6565b600067ffffffffffffffff811115611437576114366152bb565b5b6040519080825280602002602001820160405280156114655781602001602082028036833780820191505090505b50600067ffffffffffffffff811115611481576114806152bb565b5b6040519080825280602002602001820160405280156114af5781602001602082028036833780820191505090505b5092509250505b9091565b60025481565b6000600a60009054906101000a900473ffffffffffffffffffffffffffffffffffffffff1673ffffffffffffffffffffffffffffffffffffffff1663b93f9b0a61012c6040518263ffffffff1660e01b815260040161151f9190615287565b602060405180830381865afa15801561153c573d6000803e3d6000fd5b505050506040513d601f19601f820116820180604052508101906115609190615c01565b905090565b6000806000806000806000600160009054906101000a900473ffffffffffffffffffffffffffffffffffffffff1673ffffffffffffffffffffffffffffffffffffffff163373ffffffffffffffffffffffffffffffffffffffff1614611600576040517f08c379a00000000000000000000000000000000000000000000000000000000081526004016115f790615911565b60405180910390fd5b6116086136b9565b611610613bd9565b611618611100565b73ffffffffffffffffffffffffffffffffffffffff166399fbab886007546040518263ffffffff1660e01b81526004016116529190615287565b61014060405180830381865afa158015611670573d6000803e3d6000fd5b505050506040513d601f19601f820116820180604052508101906116949190615dd0565b9091929394959697985090919293949596975090919293949596509091929394955090919293945090919250909150905050809750506116d387614a8c565b8096508197505050600080600160009054906101000a900473ffffffffffffffffffffffffffffffffffffffff1673ffffffffffffffffffffffffffffffffffffffff1663bd83eb4c6002546040518263ffffffff1660e01b815260040161173b9190615287565b6040805180830381865afa158015611757573d6000803e3d6000fd5b505050506040513d601f19601f8201168201806040525081019061177b9190615eaf565b9150915060006040518060600160405280600160009054906101000a900473ffffffffffffffffffffffffffffffffffffffff1673ffffffffffffffffffffffffffffffffffffffff1663a36a36306040518163ffffffff1660e01b8152600401602060405180830381865afa1580156117f9573d6000803e3d6000fd5b505050506040513d601f19601f8201168201806040525081019061181d9190615946565b8152602001600160009054906101000a900473ffffffffffffffffffffffffffffffffffffffff1673ffffffffffffffffffffffffffffffffffffffff1663baff16b46040518163ffffffff1660e01b8152600401602060405180830381865afa15801561188f573d6000803e3d6000fd5b505050506040513d601f19601f820116820180604052508101906118b39190615946565b8152602001600160009054906101000a900473ffffffffffffffffffffffffffffffffffffffff1673ffffffffffffffffffffffffffffffffffffffff1663f73ce2b16040518163ffffffff1660e01b8152600401602060405180830381865afa158015611925573d6000803e3d6000fd5b505050506040513d601f19601f820116820180604052508101906119499190615c01565b73ffffffffffffffffffffffffffffffffffffffff1681525090506000891115611a325761271081600001518a6119809190615eef565b61198a9190615f60565b96506119be600460009054906101000a900473ffffffffffffffffffffffffffffffffffffffff163083604001518a614872565b60006127108260200151896119d39190615eef565b6119dd9190615f60565b90506000811115611a1757611a16600460009054906101000a900473ffffffffffffffffffffffffffffffffffffffff16308e84614872565b5b80888b611a2491906159a2565b611a2e91906159a2565b9950505b6000881115611b0057612710816000015189611a4e9190615eef565b611a589190615f60565b9550611a8c600560009054906101000a900473ffffffffffffffffffffffffffffffffffffffff1630836040015189614872565b6000612710826020015188611aa19190615eef565b611aab9190615f60565b90506000811115611ae557611ae4600560009054906101000a900473ffffffffffffffffffffffffffffffffffffffff16308e84614872565b5b80878a611af291906159a2565b611afc91906159a2565b9850505b6000831115611c435788831115611b7f5760008289611b1f91906159a2565b9050611b7c600560009054906101000a900473ffffffffffffffffffffffffffffffffffffffff16600460009054906101000a900473ffffffffffffffffffffffffffffffffffffffff16838d88611b7791906159a2565b6143f8565b50505b600460009054906101000a900473ffffffffffffffffffffffffffffffffffffffff1673ffffffffffffffffffffffffffffffffffffffff1663095ea7b3600160009054906101000a900473ffffffffffffffffffffffffffffffffffffffff16856040518363ffffffff1660e01b8152600401611bfe9291906159d6565b6020604051808303816000875af1158015611c1d573d6000803e3d6000fd5b505050506040513d601f19601f82011682018060405250810190611c419190615a37565b505b6000821115611d865787821115611cc2576000838a611c6291906159a2565b9050611cbf600460009054906101000a900473ffffffffffffffffffffffffffffffffffffffff16600560009054906101000a900473ffffffffffffffffffffffffffffffffffffffff16838c87611cba91906159a2565b6143f8565b50505b600560009054906101000a900473ffffffffffffffffffffffffffffffffffffffff1673ffffffffffffffffffffffffffffffffffffffff1663095ea7b3600160009054906101000a900473ffffffffffffffffffffffffffffffffffffffff16846040518363ffffffff1660e01b8152600401611d419291906159d6565b6020604051808303816000875af1158015611d60573d6000803e3d6000fd5b505050506040513d601f19601f82011682018060405250810190611d849190615a37565b505b600160009054906101000a900473ffffffffffffffffffffffffffffffffffffffff1673ffffffffffffffffffffffffffffffffffffffff1663959a883560025485856040518463ffffffff1660e01b8152600401611de793929190615f91565b600060405180830381600087803b158015611e0157600080fd5b505af1158015611e15573d6000803e3d6000fd5b50505050600460009054906101000a900473ffffffffffffffffffffffffffffffffffffffff1673ffffffffffffffffffffffffffffffffffffffff166370a08231306040518263ffffffff1660e01b8152600401611e749190615253565b602060405180830381865afa158015611e91573d6000803e3d6000fd5b505050506040513d601f19601f82011682018060405250810190611eb59190615946565b9450600560009054906101000a900473ffffffffffffffffffffffffffffffffffffffff1673ffffffffffffffffffffffffffffffffffffffff166370a08231306040518263ffffffff1660e01b8152600401611f129190615253565b602060405180830381865afa158015611f2f573d6000803e3d6000fd5b505050506040513d601f19601f82011682018060405250810190611f539190615946565b93506000851115611faf57611fae600460009054906101000a900473ffffffffffffffffffffffffffffffffffffffff1630600660009054906101000a900473ffffffffffffffffffffffffffffffffffffffff1688614872565b5b600084111561200957612008600560009054906101000a900473ffffffffffffffffffffffffffffffffffffffff1630600660009054906101000a900473ffffffffffffffffffffffffffffffffffffffff1687614872565b5b505050919395979092949650565b6000806000600160009054906101000a900473ffffffffffffffffffffffffffffffffffffffff1673ffffffffffffffffffffffffffffffffffffffff163373ffffffffffffffffffffffffffffffffffffffff16146120ac576040517f08c379a00000000000000000000000000000000000000000000000000000000081526004016120a390615911565b60405180910390fd5b6120b46136b9565b60006120be611100565b73ffffffffffffffffffffffffffffffffffffffff166399fbab886007546040518263ffffffff1660e01b81526004016120f89190615287565b61014060405180830381865afa158015612116573d6000803e3d6000fd5b505050506040513d601f19601f8201168201806040525081019061213a9190615dd0565b505050509550505050505061271087826121549190615fc8565b61215e9190616005565b935061216984614a8c565b809350819450505060008611156121cd576121cb600460009054906101000a900473ffffffffffffffffffffffffffffffffffffffff16600560009054906101000a900473ffffffffffffffffffffffffffffffffffffffff168860006143f8565b505b600085111561222957612227600560009054906101000a900473ffffffffffffffffffffffffffffffffffffffff16600460009054906101000a900473ffffffffffffffffffffffffffffffffffffffff168760006143f8565b505b6000600460009054906101000a900473ffffffffffffffffffffffffffffffffffffffff1673ffffffffffffffffffffffffffffffffffffffff166370a08231306040518263ffffffff1660e01b81526004016122869190615253565b602060405180830381865afa1580156122a3573d6000803e3d6000fd5b505050506040513d601f19601f820116820180604052508101906122c79190615946565b90506000600560009054906101000a900473ffffffffffffffffffffffffffffffffffffffff1673ffffffffffffffffffffffffffffffffffffffff166370a08231306040518263ffffffff1660e01b81526004016123269190615253565b602060405180830381865afa158015612343573d6000803e3d6000fd5b505050506040513d601f19601f820116820180604052508101906123679190615946565b9050600082111561243657600460009054906101000a900473ffffffffffffffffffffffffffffffffffffffff1673ffffffffffffffffffffffffffffffffffffffff1663095ea7b3600160009054906101000a900473ffffffffffffffffffffffffffffffffffffffff16846040518363ffffffff1660e01b81526004016123f19291906159d6565b6020604051808303816000875af1158015612410573d6000803e3d6000fd5b505050506040513d601f19601f820116820180604052508101906124349190615a37565b505b600081111561250357600560009054906101000a900473ffffffffffffffffffffffffffffffffffffffff1673ffffffffffffffffffffffffffffffffffffffff1663095ea7b3600160009054906101000a900473ffffffffffffffffffffffffffffffffffffffff16836040518363ffffffff1660e01b81526004016124be9291906159d6565b6020604051808303816000875af11580156124dd573d6000803e3d6000fd5b505050506040513d601f19601f820116820180604052508101906125019190615a37565b505b600160009054906101000a900473ffffffffffffffffffffffffffffffffffffffff1673ffffffffffffffffffffffffffffffffffffffff1663959a883560025484846040518463ffffffff1660e01b815260040161256493929190615f91565b600060405180830381600087803b15801561257e57600080fd5b505af1158015612592573d6000803e3d6000fd5b50505050600460009054906101000a900473ffffffffffffffffffffffffffffffffffffffff1673ffffffffffffffffffffffffffffffffffffffff166370a08231306040518263ffffffff1660e01b81526004016125f19190615253565b602060405180830381865afa15801561260e573d6000803e3d6000fd5b505050506040513d601f19601f820116820180604052508101906126329190615946565b9150600560009054906101000a900473ffffffffffffffffffffffffffffffffffffffff1673ffffffffffffffffffffffffffffffffffffffff166370a08231306040518263ffffffff1660e01b815260040161268f9190615253565b602060405180830381865afa1580156126ac573d6000803e3d6000fd5b505050506040513d601f19601f820116820180604052508101906126d09190615946565b9050600082111561272c5761272b600460009054906101000a900473ffffffffffffffffffffffffffffffffffffffff1630600660009054906101000a900473ffffffffffffffffffffffffffffffffffffffff1685614872565b5b600081111561278657612785600560009054906101000a900473ffffffffffffffffffffffffffffffffffffffff1630600660009054906101000a900473ffffffffffffffffffffffffffffffffffffffff1684614872565b5b50505093509350939050565b6000806000806000600160009054906101000a900473ffffffffffffffffffffffffffffffffffffffff1673ffffffffffffffffffffffffffffffffffffffff163373ffffffffffffffffffffffffffffffffffffffff161461282a576040517f08c379a000000000000000000000000000000000000000000000000000000000815260040161282190615911565b60405180910390fd5b6128326136b9565b61283a613bd9565b612842611100565b73ffffffffffffffffffffffffffffffffffffffff166399fbab886007546040518263ffffffff1660e01b815260040161287c9190615287565b61014060405180830381865afa15801561289a573d6000803e3d6000fd5b505050506040513d601f19601f820116820180604052508101906128be9190615dd0565b9091929394959697985090919293949596975090919293949596509091929394955090919293945090919250909150905050809550506128fd85614a8c565b8094508195505050600080600160009054906101000a900473ffffffffffffffffffffffffffffffffffffffff1673ffffffffffffffffffffffffffffffffffffffff1663bd83eb4c6002546040518263ffffffff1660e01b81526004016129659190615287565b6040805180830381865afa158015612981573d6000803e3d6000fd5b505050506040513d601f19601f820116820180604052508101906129a59190615eaf565b915091506000821115612aec5785821115612a2857600081866129c891906159a2565b9050612a25600560009054906101000a900473ffffffffffffffffffffffffffffffffffffffff16600460009054906101000a900473ffffffffffffffffffffffffffffffffffffffff16838a87612a2091906159a2565b6143f8565b50505b600460009054906101000a900473ffffffffffffffffffffffffffffffffffffffff1673ffffffffffffffffffffffffffffffffffffffff1663095ea7b3600160009054906101000a900473ffffffffffffffffffffffffffffffffffffffff16846040518363ffffffff1660e01b8152600401612aa79291906159d6565b6020604051808303816000875af1158015612ac6573d6000803e3d6000fd5b505050506040513d601f19601f82011682018060405250810190612aea9190615a37565b505b6000811115612c2f5784811115612b6b5760008287612b0b91906159a2565b9050612b68600460009054906101000a900473ffffffffffffffffffffffffffffffffffffffff16600560009054906101000a900473ffffffffffffffffffffffffffffffffffffffff16838986612b6391906159a2565b6143f8565b50505b600560009054906101000a900473ffffffffffffffffffffffffffffffffffffffff1673ffffffffffffffffffffffffffffffffffffffff1663095ea7b3600160009054906101000a900473ffffffffffffffffffffffffffffffffffffffff16836040518363ffffffff1660e01b8152600401612bea9291906159d6565b6020604051808303816000875af1158015612c09573d6000803e3d6000fd5b505050506040513d601f19601f82011682018060405250810190612c2d9190615a37565b505b600160009054906101000a900473ffffffffffffffffffffffffffffffffffffffff1673ffffffffffffffffffffffffffffffffffffffff1663959a883560025484846040518463ffffffff1660e01b8152600401612c9093929190615f91565b600060405180830381600087803b158015612caa57600080fd5b505af1158015612cbe573d6000803e3d6000fd5b50505050600460009054906101000a900473ffffffffffffffffffffffffffffffffffffffff1673ffffffffffffffffffffffffffffffffffffffff166370a08231306040518263ffffffff1660e01b8152600401612d1d9190615253565b602060405180830381865afa158015612d3a573d6000803e3d6000fd5b505050506040513d601f19601f82011682018060405250810190612d5e9190615946565b9350600560009054906101000a900473ffffffffffffffffffffffffffffffffffffffff1673ffffffffffffffffffffffffffffffffffffffff166370a08231306040518263ffffffff1660e01b8152600401612dbb9190615253565b602060405180830381865afa158015612dd8573d6000803e3d6000fd5b505050506040513d601f19601f82011682018060405250810190612dfc9190615946565b92506000841115612e5857612e57600460009054906101000a900473ffffffffffffffffffffffffffffffffffffffff1630600660009054906101000a900473ffffffffffffffffffffffffffffffffffffffff1687614872565b5b6000831115612eb257612eb1600560009054906101000a900473ffffffffffffffffffffffffffffffffffffffff1630600660009054906101000a900473ffffffffffffffffffffffffffffffffffffffff1686614872565b5b50509091929394565b600960009054906101000a900473ffffffffffffffffffffffffffffffffffffffff1681565b600660009054906101000a900473ffffffffffffffffffffffffffffffffffffffff1681565b600360149054906101000a900460020b81565b600560009054906101000a900473ffffffffffffffffffffffffffffffffffffffff1681565b600160009054906101000a900473ffffffffffffffffffffffffffffffffffffffff1681565b600073ffffffffffffffffffffffffffffffffffffffff16600160009054906101000a900473ffffffffffffffffffffffffffffffffffffffff1673ffffffffffffffffffffffffffffffffffffffff1614612ff7576040517f08c379a0000000000000000000000000000000000000000000000000000000008152600401612fee90616082565b60405180910390fd5b735050bc082ff4a74fb6b0b04385defddb114b2424600860006101000a81548173ffffffffffffffffffffffffffffffffffffffff021916908373ffffffffffffffffffffffffffffffffffffffff160217905550733333111a391cc08fa51353e9195526a70b333333600960006101000a81548173ffffffffffffffffffffffffffffffffffffffff021916908373ffffffffffffffffffffffffffffffffffffffff16021790555033600160006101000a81548173ffffffffffffffffffffffffffffffffffffffff021916908373ffffffffffffffffffffffffffffffffffffffff160217905550806002819055503373ffffffffffffffffffffffffffffffffffffffff16630dfe16816040518163ffffffff1660e01b8152600401602060405180830381865afa158015613134573d6000803e3d6000fd5b505050506040513d601f19601f820116820180604052508101906131589190615c01565b600460006101000a81548173ffffffffffffffffffffffffffffffffffffffff021916908373ffffffffffffffffffffffffffffffffffffffff1602179055503373ffffffffffffffffffffffffffffffffffffffff1663d21220a76040518163ffffffff1660e01b8152600401602060405180830381865afa1580156131e3573d6000803e3d6000fd5b505050506040513d601f19601f820116820180604052508101906132079190615c01565b600560006101000a81548173ffffffffffffffffffffffffffffffffffffffff021916908373ffffffffffffffffffffffffffffffffffffffff160217905550600460009054906101000a900473ffffffffffffffffffffffffffffffffffffffff1673ffffffffffffffffffffffffffffffffffffffff1663095ea7b3600160009054906101000a900473ffffffffffffffffffffffffffffffffffffffff167fffffffffffffffffffffffffffffffffffffffffffffffffffffffffffffffff6040518363ffffffff1660e01b81526004016132e69291906159d6565b6020604051808303816000875af1158015613305573d6000803e3d6000fd5b505050506040513d601f19601f820116820180604052508101906133299190615a37565b50600560009054906101000a900473ffffffffffffffffffffffffffffffffffffffff1673ffffffffffffffffffffffffffffffffffffffff1663095ea7b3600160009054906101000a900473ffffffffffffffffffffffffffffffffffffffff167fffffffffffffffffffffffffffffffffffffffffffffffffffffffffffffffff6040518363ffffffff1660e01b81526004016133c99291906159d6565b6020604051808303816000875af11580156133e8573d6000803e3d6000fd5b505050506040513d601f19601f8201168201806040525081019061340c9190615a37565b50600160009054906101000a900473ffffffffffffffffffffffffffffffffffffffff1673ffffffffffffffffffffffffffffffffffffffff1663150254db6040518163ffffffff1660e01b8152600401602060405180830381865afa15801561347a573d6000803e3d6000fd5b505050506040513d601f19601f8201168201806040525081019061349e9190615c01565b600360006101000a81548173ffffffffffffffffffffffffffffffffffffffff021916908373ffffffffffffffffffffffffffffffffffffffff160217905550600360009054906101000a900473ffffffffffffffffffffffffffffffffffffffff1673ffffffffffffffffffffffffffffffffffffffff1663d0c93a7c6040518163ffffffff1660e01b8152600401602060405180830381865afa15801561354b573d6000803e3d6000fd5b505050506040513d601f19601f8201168201806040525081019061356f91906160a2565b600360146101000a81548162ffffff021916908360020b62ffffff1602179055506136073373ffffffffffffffffffffffffffffffffffffffff16634aa4a4fc6040518163ffffffff1660e01b8152600401602060405180830381865afa1580156135de573d6000803e3d6000fd5b505050506040513d601f19601f820116820180604052508101906136029190615c01565b614d70565b3373ffffffffffffffffffffffffffffffffffffffff16632954018c6040518163ffffffff1660e01b8152600401602060405180830381865afa158015613652573d6000803e3d6000fd5b505050506040513d601f19601f820116820180604052508101906136769190615c01565b600a60006101000a81548173ffffffffffffffffffffffffffffffffffffffff021916908373ffffffffffffffffffffffffffffffffffffffff16021790555050565b6136c1611100565b73ffffffffffffffffffffffffffffffffffffffff1663fc6f7865604051806080016040528060075481526020013073ffffffffffffffffffffffffffffffffffffffff1681526020016fffffffffffffffffffffffffffffffff801681526020016fffffffffffffffffffffffffffffffff80168152506040518263ffffffff1660e01b81526004016137559190616133565b60408051808303816000875af1158015613773573d6000803e3d6000fd5b505050506040513d601f19601f820116820180604052508101906137979190615eaf565b50506000600460009054906101000a900473ffffffffffffffffffffffffffffffffffffffff1673ffffffffffffffffffffffffffffffffffffffff166370a08231306040518263ffffffff1660e01b81526004016137f69190615253565b602060405180830381865afa158015613813573d6000803e3d6000fd5b505050506040513d601f19601f820116820180604052508101906138379190615946565b90506000600560009054906101000a900473ffffffffffffffffffffffffffffffffffffffff1673ffffffffffffffffffffffffffffffffffffffff166370a08231306040518263ffffffff1660e01b81526004016138969190615253565b602060405180830381865afa1580156138b3573d6000803e3d6000fd5b505050506040513d601f19601f820116820180604052508101906138d79190615946565b90506000821115613a5757600460009054906101000a900473ffffffffffffffffffffffffffffffffffffffff1673ffffffffffffffffffffffffffffffffffffffff1663095ea7b3600160009054906101000a900473ffffffffffffffffffffffffffffffffffffffff16846040518363ffffffff1660e01b81526004016139619291906159d6565b6020604051808303816000875af1158015613980573d6000803e3d6000fd5b505050506040513d601f19601f820116820180604052508101906139a49190615a37565b50600160009054906101000a900473ffffffffffffffffffffffffffffffffffffffff1673ffffffffffffffffffffffffffffffffffffffff16634d9ebc74600460009054906101000a900473ffffffffffffffffffffffffffffffffffffffff16846040518363ffffffff1660e01b8152600401613a249291906159d6565b600060405180830381600087803b158015613a3e57600080fd5b505af1158015613a52573d6000803e3d6000fd5b505050505b6000811115613bd557600560009054906101000a900473ffffffffffffffffffffffffffffffffffffffff1673ffffffffffffffffffffffffffffffffffffffff1663095ea7b3600160009054906101000a900473ffffffffffffffffffffffffffffffffffffffff16836040518363ffffffff1660e01b8152600401613adf9291906159d6565b6020604051808303816000875af1158015613afe573d6000803e3d6000fd5b505050506040513d601f19601f82011682018060405250810190613b229190615a37565b50600160009054906101000a900473ffffffffffffffffffffffffffffffffffffffff1673ffffffffffffffffffffffffffffffffffffffff16634d9ebc74600560009054906101000a900473ffffffffffffffffffffffffffffffffffffffff16836040518363ffffffff1660e01b8152600401613ba29291906159d6565b600060405180830381600087803b158015613bbc57600080fd5b505af1158015613bd0573d6000803e3d6000fd5b505050505b5050565b6000600160009054906101000a900473ffffffffffffffffffffffffffffffffffffffff1673ffffffffffffffffffffffffffffffffffffffff16639a64b6326040518163ffffffff1660e01b8152600401602060405180830381865afa158015613c48573d6000803e3d6000fd5b505050506040513d601f19601f82011682018060405250810190613c6c9190615c01565b9050600073ffffffffffffffffffffffffffffffffffffffff168173ffffffffffffffffffffffffffffffffffffffff16146143f55760008173ffffffffffffffffffffffffffffffffffffffff1663c4f59f9b6040518163ffffffff1660e01b8152600401600060405180830381865afa158015613cef573d6000803e3d6000fd5b505050506040513d6000823e3d601f19601f82011682018060405250810190613d189190615cfb565b90508173ffffffffffffffffffffffffffffffffffffffff1663f5f8d365600754836040518363ffffffff1660e01b8152600401613d5792919061614e565b600060405180830381600087803b158015613d7157600080fd5b505af1158015613d85573d6000803e3d6000fd5b5050505060005b81518110156143f2576000828281518110613daa57613da9615d44565b5b602002602001015173ffffffffffffffffffffffffffffffffffffffff166370a08231306040518263ffffffff1660e01b8152600401613dea9190615253565b602060405180830381865afa158015613e07573d6000803e3d6000fd5b505050506040513d601f19601f82011682018060405250810190613e2b9190615946565b905060008111156143de57600860009054906101000a900473ffffffffffffffffffffffffffffffffffffffff1673ffffffffffffffffffffffffffffffffffffffff16838381518110613e8257613e81615d44565b5b602002602001015173ffffffffffffffffffffffffffffffffffffffff160361427857600960009054906101000a900473ffffffffffffffffffffffffffffffffffffffff1673ffffffffffffffffffffffffffffffffffffffff16638380edb76040518163ffffffff1660e01b8152600401602060405180830381865afa158015613f12573d6000803e3d6000fd5b505050506040513d601f19601f82011682018060405250810190613f369190615a37565b15614273576000613f45610675565b9050838381518110613f5a57613f59615d44565b5b602002602001015173ffffffffffffffffffffffffffffffffffffffff1663095ea7b382846040518363ffffffff1660e01b8152600401613f9c9291906159d6565b6020604051808303816000875af1158015613fbb573d6000803e3d6000fd5b505050506040513d601f19601f82011682018060405250810190613fdf9190615a37565b508073ffffffffffffffffffffffffffffffffffffffff16636e553f6583306040518363ffffffff1660e01b815260040161401b92919061617e565b6020604051808303816000875af115801561403a573d6000803e3d6000fd5b505050506040513d601f19601f8201168201806040525081019061405e9190615946565b50600960009054906101000a900473ffffffffffffffffffffffffffffffffffffffff1673ffffffffffffffffffffffffffffffffffffffff166370a08231306040518263ffffffff1660e01b81526004016140ba9190615253565b602060405180830381865afa1580156140d7573d6000803e3d6000fd5b505050506040513d601f19601f820116820180604052508101906140fb9190615946565b9150600960009054906101000a900473ffffffffffffffffffffffffffffffffffffffff1673ffffffffffffffffffffffffffffffffffffffff1663095ea7b3600160009054906101000a900473ffffffffffffffffffffffffffffffffffffffff16846040518363ffffffff1660e01b815260040161417c9291906159d6565b6020604051808303816000875af115801561419b573d6000803e3d6000fd5b505050506040513d601f19601f820116820180604052508101906141bf9190615a37565b50600160009054906101000a900473ffffffffffffffffffffffffffffffffffffffff1673ffffffffffffffffffffffffffffffffffffffff16634d9ebc74600960009054906101000a900473ffffffffffffffffffffffffffffffffffffffff16846040518363ffffffff1660e01b815260040161423f9291906159d6565b600060405180830381600087803b15801561425957600080fd5b505af115801561426d573d6000803e3d6000fd5b50505050505b6143dd565b82828151811061428b5761428a615d44565b5b602002602001015173ffffffffffffffffffffffffffffffffffffffff1663095ea7b3600160009054906101000a900473ffffffffffffffffffffffffffffffffffffffff16836040518363ffffffff1660e01b81526004016142ef9291906159d6565b6020604051808303816000875af115801561430e573d6000803e3d6000fd5b505050506040513d601f19601f820116820180604052508101906143329190615a37565b50600160009054906101000a900473ffffffffffffffffffffffffffffffffffffffff1673ffffffffffffffffffffffffffffffffffffffff16634d9ebc7484848151811061438457614383615d44565b5b6020026020010151836040518363ffffffff1660e01b81526004016143aa9291906159d6565b600060405180830381600087803b1580156143c457600080fd5b505af11580156143d8573d6000803e3d6000fd5b505050505b5b5080806143ea90615d73565b915050613d8c565b50505b50565b600080600160009054906101000a900473ffffffffffffffffffffffffffffffffffffffff1673ffffffffffffffffffffffffffffffffffffffff16632954018c6040518163ffffffff1660e01b8152600401602060405180830381865afa158015614468573d6000803e3d6000fd5b505050506040513d601f19601f8201168201806040525081019061448c9190615c01565b73ffffffffffffffffffffffffffffffffffffffff1663b93f9b0a61012c6040518263ffffffff1660e01b81526004016144c69190615287565b602060405180830381865afa1580156144e3573d6000803e3d6000fd5b505050506040513d601f19601f820116820180604052508101906145079190615c01565b90508573ffffffffffffffffffffffffffffffffffffffff1663095ea7b382866040518363ffffffff1660e01b81526004016145449291906159d6565b6020604051808303816000875af1158015614563573d6000803e3d6000fd5b505050506040513d601f19601f820116820180604052508101906145879190615a37565b508073ffffffffffffffffffffffffffffffffffffffff1663a026383e6040518061010001604052808973ffffffffffffffffffffffffffffffffffffffff1681526020018873ffffffffffffffffffffffffffffffffffffffff168152602001600360149054906101000a900460020b60020b81526020013073ffffffffffffffffffffffffffffffffffffffff168152602001428152602001878152602001868152602001600073ffffffffffffffffffffffffffffffffffffffff168152506040518263ffffffff1660e01b81526004016146659190616258565b6020604051808303816000875af1158015614684573d6000803e3d6000fd5b505050506040513d601f19601f820116820180604052508101906146a89190615946565b915050949350505050565b60008060009054906101000a900473ffffffffffffffffffffffffffffffffffffffff1673ffffffffffffffffffffffffffffffffffffffff166370a08231306040518263ffffffff1660e01b815260040161470f9190615253565b602060405180830381865afa15801561472c573d6000803e3d6000fd5b505050506040513d601f19601f820116820180604052508101906147509190615946565b9050828110156040518060400160405280600281526020017f3138000000000000000000000000000000000000000000000000000000000000815250906147cd576040517f08c379a00000000000000000000000000000000000000000000000000000000081526004016147c491906151f0565b60405180910390fd5b50600081111561486d5760008054906101000a900473ffffffffffffffffffffffffffffffffffffffff1673ffffffffffffffffffffffffffffffffffffffff16632e1a7d4d826040518263ffffffff1660e01b81526004016148309190615287565b600060405180830381600087803b15801561484a57600080fd5b505af115801561485e573d6000803e3d6000fd5b5050505061486c8282614db3565b5b505050565b60008054906101000a900473ffffffffffffffffffffffffffffffffffffffff1673ffffffffffffffffffffffffffffffffffffffff168473ffffffffffffffffffffffffffffffffffffffff161480156148cd5750804710155b15614a355760008054906101000a900473ffffffffffffffffffffffffffffffffffffffff1673ffffffffffffffffffffffffffffffffffffffff1663d0e30db0826040518263ffffffff1660e01b81526004016000604051808303818588803b15801561493a57600080fd5b505af115801561494e573d6000803e3d6000fd5b505050505060008054906101000a900473ffffffffffffffffffffffffffffffffffffffff1673ffffffffffffffffffffffffffffffffffffffff1663a9059cbb83836040518363ffffffff1660e01b81526004016149ae9291906159d6565b6020604051808303816000875af11580156149cd573d6000803e3d6000fd5b505050506040513d601f19601f820116820180604052508101906149f19190615a37565b614a30576040517f08c379a0000000000000000000000000000000000000000000000000000000008152600401614a27906162c0565b60405180910390fd5b614a86565b3073ffffffffffffffffffffffffffffffffffffffff168373ffffffffffffffffffffffffffffffffffffffff1603614a7857614a73848383614eb3565b614a85565b614a8484848484615008565b5b5b50505050565b600080614a97611100565b73ffffffffffffffffffffffffffffffffffffffff16630c49ccbe6040518060a001604052806007548152602001866fffffffffffffffffffffffffffffffff1681526020016000815260200160008152602001428152506040518263ffffffff1660e01b8152600401614b0b9190616348565b60408051808303816000875af1158015614b29573d6000803e3d6000fd5b505050506040513d601f19601f82011682018060405250810190614b4d9190615eaf565b5050614b57611100565b73ffffffffffffffffffffffffffffffffffffffff1663fc6f7865604051806080016040528060075481526020013073ffffffffffffffffffffffffffffffffffffffff1681526020016fffffffffffffffffffffffffffffffff801681526020016fffffffffffffffffffffffffffffffff80168152506040518263ffffffff1660e01b8152600401614beb9190616133565b60408051808303816000875af1158015614c09573d6000803e3d6000fd5b505050506040513d601f19601f82011682018060405250810190614c2d9190615eaf565b5050600460009054906101000a900473ffffffffffffffffffffffffffffffffffffffff1673ffffffffffffffffffffffffffffffffffffffff166370a08231306040518263ffffffff1660e01b8152600401614c8a9190615253565b602060405180830381865afa158015614ca7573d6000803e3d6000fd5b505050506040513d601f19601f82011682018060405250810190614ccb9190615946565b9150600560009054906101000a900473ffffffffffffffffffffffffffffffffffffffff1673ffffffffffffffffffffffffffffffffffffffff166370a08231306040518263ffffffff1660e01b8152600401614d289190615253565b602060405180830381865afa158015614d45573d6000803e3d6000fd5b505050506040513d601f19601f82011682018060405250810190614d699190615946565b9050915091565b806000806101000a81548173ffffffffffffffffffffffffffffffffffffffff021916908373ffffffffffffffffffffffffffffffffffffffff16021790555050565b60008273ffffffffffffffffffffffffffffffffffffffff1682600067ffffffffffffffff811115614de857614de76152bb565b5b6040519080825280601f01601f191660200182016040528015614e1a5781602001600182028036833780820191505090505b50604051614e2891906163aa565b60006040518083038185875af1925050503d8060008114614e65576040519150601f19603f3d011682016040523d82523d6000602084013e614e6a565b606091505b5050905080614eae576040517f08c379a0000000000000000000000000000000000000000000000000000000008152600401614ea59061640d565b60405180910390fd5b505050565b6000808473ffffffffffffffffffffffffffffffffffffffff1663a9059cbb60e01b8585604051602401614ee89291906159d6565b604051602081830303815290604052907bffffffffffffffffffffffffffffffffffffffffffffffffffffffff19166020820180517bffffffffffffffffffffffffffffffffffffffffffffffffffffffff8381831617835250505050604051614f5291906163aa565b6000604051808303816000865af19150503d8060008114614f8f576040519150601f19603f3d011682016040523d82523d6000602084013e614f94565b606091505b5091509150818015614fc25750600081511480614fc1575080806020019051810190614fc09190615a37565b5b5b615001576040517f08c379a0000000000000000000000000000000000000000000000000000000008152600401614ff890616479565b60405180910390fd5b5050505050565b6000808573ffffffffffffffffffffffffffffffffffffffff166323b872dd60e01b86868660405160240161503f93929190616499565b604051602081830303815290604052907bffffffffffffffffffffffffffffffffffffffffffffffffffffffff19166020820180517bffffffffffffffffffffffffffffffffffffffffffffffffffffffff83818316178352505050506040516150a991906163aa565b6000604051808303816000865af19150503d80600081146150e6576040519150601f19603f3d011682016040523d82523d6000602084013e6150eb565b606091505b509150915081801561511957506000815114806151185750808060200190518101906151179190615a37565b5b5b615158576040517f08c379a000000000000000000000000000000000000000000000000000000000815260040161514f9061651c565b60405180910390fd5b505050505050565b600081519050919050565b600082825260208201905092915050565b60005b8381101561519a57808201518184015260208101905061517f565b60008484015250505050565b6000601f19601f8301169050919050565b60006151c282615160565b6151cc818561516b565b93506151dc81856020860161517c565b6151e5816151a6565b840191505092915050565b6000602082019050818103600083015261520a81846151b7565b905092915050565b600073ffffffffffffffffffffffffffffffffffffffff82169050919050565b600061523d82615212565b9050919050565b61524d81615232565b82525050565b60006020820190506152686000830184615244565b92915050565b6000819050919050565b6152818161526e565b82525050565b600060208201905061529c6000830184615278565b92915050565b6000604051905090565b600080fd5b600080fd5b600080fd5b7f4e487b7100000000000000000000000000000000000000000000000000000000600052604160045260246000fd5b6152f3826151a6565b810181811067ffffffffffffffff82111715615312576153116152bb565b5b80604052505050565b60006153256152a2565b905061533182826152ea565b919050565b61533f8161526e565b811461534a57600080fd5b50565b60008135905061535c81615336565b92915050565b60008160020b9050919050565b61537881615362565b811461538357600080fd5b50565b6000813590506153958161536f565b92915050565b6153a481615232565b81146153af57600080fd5b50565b6000813590506153c18161539b565b92915050565b600060a082840312156153dd576153dc6152b6565b5b6153e760a061531b565b905060006153f78482850161534d565b600083015250602061540b8482850161534d565b602083015250604061541f84828501615386565b604083015250606061543384828501615386565b6060830152506080615447848285016153b2565b60808301525092915050565b600060a08284031215615469576154686152ac565b5b6000615477848285016153c7565b91505092915050565b60006fffffffffffffffffffffffffffffffff82169050919050565b6154a581615480565b82525050565b60006080820190506154c06000830187615278565b6154cd602083018661549c565b6154da6040830185615278565b6154e76060830184615278565b95945050505050565b600081519050919050565b600082825260208201905092915050565b6000819050602082019050919050565b61552581615232565b82525050565b6000615537838361551c565b60208301905092915050565b6000602082019050919050565b600061555b826154f0565b61556581856154fb565b93506155708361550c565b8060005b838110156155a1578151615588888261552b565b975061559383615543565b925050600181019050615574565b5085935050505092915050565b600081519050919050565b600082825260208201905092915050565b6000819050602082019050919050565b6155e38161526e565b82525050565b60006155f583836155da565b60208301905092915050565b6000602082019050919050565b6000615619826155ae565b61562381856155b9565b935061562e836155ca565b8060005b8381101561565f57815161564688826155e9565b975061565183615601565b925050600181019050615632565b5085935050505092915050565b600060408201905081810360008301526156868185615550565b9050818103602083015261569a818461560e565b90509392505050565b6000602082840312156156b9576156b86152ac565b5b60006156c7848285016153b2565b91505092915050565b600060e0820190506156e5600083018a61549c565b6156f26020830189615278565b6156ff6040830188615278565b61570c6060830187615278565b6157196080830186615278565b61572660a0830185615278565b61573360c0830184615278565b98975050505050505050565b61574881615480565b811461575357600080fd5b50565b6000813590506157658161573f565b92915050565b600080600060608486031215615784576157836152ac565b5b600061579286828701615756565b93505060206157a38682870161534d565b92505060406157b48682870161534d565b9150509250925092565b60006060820190506157d3600083018661549c565b6157e06020830185615278565b6157ed6040830184615278565b949350505050565b600060a08201905061580a600083018861549c565b6158176020830187615278565b6158246040830186615278565b6158316060830185615278565b61583e6080830184615278565b9695505050505050565b61585181615362565b82525050565b600060208201905061586c6000830184615848565b92915050565b600060208284031215615888576158876152ac565b5b60006158968482850161534d565b91505092915050565b7f4f6e6c79207661756c742063616e2063616c6c20746869732066756e6374696f60008201527f6e00000000000000000000000000000000000000000000000000000000000000602082015250565b60006158fb60218361516b565b91506159068261589f565b604082019050919050565b6000602082019050818103600083015261592a816158ee565b9050919050565b60008151905061594081615336565b92915050565b60006020828403121561595c5761595b6152ac565b5b600061596a84828501615931565b91505092915050565b7f4e487b7100000000000000000000000000000000000000000000000000000000600052601160045260246000fd5b60006159ad8261526e565b91506159b88361526e565b92508282039050818111156159d0576159cf615973565b5b92915050565b60006040820190506159eb6000830185615244565b6159f86020830184615278565b9392505050565b60008115159050919050565b615a14816159ff565b8114615a1f57600080fd5b50565b600081519050615a3181615a0b565b92915050565b600060208284031215615a4d57615a4c6152ac565b5b6000615a5b84828501615a22565b91505092915050565b615a6d81615362565b82525050565b61016082016000820151615a8a600085018261551c565b506020820151615a9d602085018261551c565b506040820151615ab06040850182615a64565b506060820151615ac36060850182615a64565b506080820151615ad66080850182615a64565b5060a0820151615ae960a08501826155da565b5060c0820151615afc60c08501826155da565b5060e0820151615b0f60e08501826155da565b50610100820151615b246101008501826155da565b50610120820151615b3961012085018261551c565b50610140820151615b4e6101408501826155da565b50505050565b600061016082019050615b6a6000830184615a73565b92915050565b600081519050615b7f8161573f565b92915050565b60008060008060808587031215615b9f57615b9e6152ac565b5b6000615bad87828801615931565b9450506020615bbe87828801615b70565b9350506040615bcf87828801615931565b9250506060615be087828801615931565b91505092959194509250565b600081519050615bfb8161539b565b92915050565b600060208284031215615c1757615c166152ac565b5b6000615c2584828501615bec565b91505092915050565b600080fd5b600067ffffffffffffffff821115615c4e57615c4d6152bb565b5b602082029050602081019050919050565b600080fd5b6000615c77615c7284615c33565b61531b565b90508083825260208201905060208402830185811115615c9a57615c99615c5f565b5b835b81811015615cc35780615caf8882615bec565b845260208401935050602081019050615c9c565b5050509392505050565b600082601f830112615ce257615ce1615c2e565b5b8151615cf2848260208601615c64565b91505092915050565b600060208284031215615d1157615d106152ac565b5b600082015167ffffffffffffffff811115615d2f57615d2e6152b1565b5b615d3b84828501615ccd565b91505092915050565b7f4e487b7100000000000000000000000000000000000000000000000000000000600052603260045260246000fd5b6000615d7e8261526e565b91507fffffffffffffffffffffffffffffffffffffffffffffffffffffffffffffffff8203615db057615daf615973565b5b600182019050919050565b600081519050615dca8161536f565b92915050565b6000806000806000806000806000806101408b8d031215615df457615df36152ac565b5b6000615e028d828e01615bec565b9a50506020615e138d828e01615bec565b9950506040615e248d828e01615dbb565b9850506060615e358d828e01615dbb565b9750506080615e468d828e01615dbb565b96505060a0615e578d828e01615b70565b95505060c0615e688d828e01615931565b94505060e0615e798d828e01615931565b935050610100615e8b8d828e01615b70565b925050610120615e9d8d828e01615b70565b9150509295989b9194979a5092959850565b60008060408385031215615ec657615ec56152ac565b5b6000615ed485828601615931565b9250506020615ee585828601615931565b9150509250929050565b6000615efa8261526e565b9150615f058361526e565b9250828202615f138161526e565b91508282048414831517615f2a57615f29615973565b5b5092915050565b7f4e487b7100000000000000000000000000000000000000000000000000000000600052601260045260246000fd5b6000615f6b8261526e565b9150615f768361526e565b925082615f8657615f85615f31565b5b828204905092915050565b6000606082019050615fa66000830186615278565b615fb36020830185615278565b615fc06040830184615278565b949350505050565b6000615fd382615480565b9150615fde83615480565b9250828202615fec81615480565b9150808214615ffe57615ffd615973565b5b5092915050565b600061601082615480565b915061601b83615480565b92508261602b5761602a615f31565b5b828204905092915050565b7f416c726561647920696e697469616c697a656400000000000000000000000000600082015250565b600061606c60138361516b565b915061607782616036565b602082019050919050565b6000602082019050818103600083015261609b8161605f565b9050919050565b6000602082840312156160b8576160b76152ac565b5b60006160c684828501615dbb565b91505092915050565b6160d881615480565b82525050565b6080820160008201516160f460008501826155da565b506020820151616107602085018261551c565b50604082015161611a60408501826160cf565b50606082015161612d60608501826160cf565b50505050565b600060808201905061614860008301846160de565b92915050565b60006040820190506161636000830185615278565b81810360208301526161758184615550565b90509392505050565b60006040820190506161936000830185615278565b6161a06020830184615244565b9392505050565b6161b081615212565b82525050565b610100820160008201516161cd600085018261551c565b5060208201516161e0602085018261551c565b5060408201516161f36040850182615a64565b506060820151616206606085018261551c565b50608082015161621960808501826155da565b5060a082015161622c60a08501826155da565b5060c082015161623f60c08501826155da565b5060e082015161625260e08501826161a7565b50505050565b60006101008201905061626e60008301846161b6565b92915050565b7f7472616e73666572206661696c65640000000000000000000000000000000000600082015250565b60006162aa600f8361516b565b91506162b582616274565b602082019050919050565b600060208201905081810360008301526162d98161629d565b9050919050565b60a0820160008201516162f660008501826155da565b50602082015161630960208501826160cf565b50604082015161631c60408501826155da565b50606082015161632f60608501826155da565b50608082015161634260808501826155da565b50505050565b600060a08201905061635d60008301846162e0565b92915050565b600081519050919050565b600081905092915050565b600061638482616363565b61638e818561636e565b935061639e81856020860161517c565b80840191505092915050565b60006163b68284616379565b915081905092915050565b7f5354450000000000000000000000000000000000000000000000000000000000600082015250565b60006163f760038361516b565b9150616402826163c1565b602082019050919050565b60006020820190508181036000830152616426816163ea565b9050919050565b7f5354000000000000000000000000000000000000000000000000000000000000600082015250565b600061646360028361516b565b915061646e8261642d565b602082019050919050565b6000602082019050818103600083015261649281616456565b9050919050565b60006060820190506164ae6000830186615244565b6164bb6020830185615244565b6164c86040830184615278565b949350505050565b7f5354460000000000000000000000000000000000000000000000000000000000600082015250565b600061650660038361516b565b9150616511826164d0565b602082019050919050565b60006020820190508181036000830152616535816164f9565b905091905056fea2646970667358221220eed0fa3a525bb3b069f3c661a029e047065e777b26cc66233937c7700482c15c64736f6c63430008120033","linkReferences":{}},"methodIdentifiers":{"WETH9()":"4aa4a4fc","addressProvider()":"2954018c","claimRewards()":"372500ab","claimableRewards()":"6c003a9b","closePosition()":"c393d0e3","getShadowNonfungiblePositionManager()":"58ffed9f","getSwapRouter()":"725c9c49","getX33Adapter()":"209eb076","initialize(uint256)":"fe4b84df","liquidatePosition(address)":"7498a0f0","openPosition((uint256,uint256,int24,int24,address))":"57b037d1","positionId()":"71640de3","positionOwner()":"cb2af14b","reducePosition(uint128,uint256,uint256)":"a2e08361","shadowPositionId()":"1b54bf72","shadowV3Pool()":"150254db","tickSpacing()":"d0c93a7c","token0()":"0dfe1681","token1()":"d21220a7","vault()":"fbfa77cf","version()":"54fd4d50","x33()":"c5f720e4","xShadow()":"4256f5e7"},"id":48}