{"abi":[{"type":"function","name":"getPythPrice","inputs":[{"name":"token","type":"address","internalType":"address"}],"outputs":[{"name":"","type":"uint256","internalType":"uint256"}],"stateMutability":"view"},{"type":"function","name":"getTokenPrice","inputs":[{"name":"token","type":"address","internalType":"address"}],"outputs":[{"name":"","type":"uint256","internalType":"uint256"}],"stateMutability":"view"},{"type":"function","name":"initialize","inputs":[{"name":"_pyth","type":"address","internalType":"address"},{"name":"_oracleManager","type":"address","internalType":"address"},{"name":"initialTokens","type":"address[]","internalType":"address[]"},{"name":"priceIds","type":"bytes32[]","internalType":"bytes32[]"}],"outputs":[],"stateMutability":"nonpayable"},{"type":"function","name":"maxPriceAge","inputs":[],"outputs":[{"name":"","type":"uint256","internalType":"uint256"}],"stateMutability":"view"},{"type":"function","name":"oracleManager","inputs":[],"outputs":[{"name":"","type":"address","internalType":"address"}],"stateMutability":"view"},{"type":"function","name":"pyth","inputs":[],"outputs":[{"name":"","type":"address","internalType":"contract IPyth"}],"stateMutability":"view"},{"type":"function","name":"pythPriceIds","inputs":[{"name":"","type":"address","internalType":"address"}],"outputs":[{"name":"","type":"bytes32","internalType":"bytes32"}],"stateMutability":"view"},{"type":"function","name":"setMaxPriceAge","inputs":[{"name":"_maxPriceAge","type":"uint256","internalType":"uint256"}],"outputs":[],"stateMutability":"nonpayable"},{"type":"function","name":"setOracleManager","inputs":[{"name":"_oracleManager","type":"address","internalType":"address"}],"outputs":[],"stateMutability":"nonpayable"},{"type":"function","name":"setPythPriceId","inputs":[{"name":"token","type":"address","internalType":"address"},{"name":"priceId","type":"bytes32","internalType":"bytes32"}],"outputs":[],"stateMutability":"nonpayable"},{"type":"event","name":"Initialized","inputs":[{"name":"version","type":"uint8","indexed":false,"internalType":"uint8"}],"anonymous":false}],"bytecode":{"object":"0x608060405234801561001057600080fd5b506114cc806100206000396000f3fe608060405234801561001057600080fd5b506004361061009e5760003560e01c80637eb5fbfd116100665780637eb5fbfd14610133578063929e2e0814610163578063cc5273821461017f578063d02641a0146101af578063f98d06f0146101df5761009e565b80631584410a146100a3578063191cc0ed146100c15780632946511c146100dd57806356447ce8146100f9578063565d878c14610115575b600080fd5b6100ab6101fd565b6040516100b891906109a5565b60405180910390f35b6100db60048036038101906100d69190610a68565b610203565b005b6100f760048036038101906100f29190610cc4565b6102db565b005b610113600480360381019061010e9190610d8f565b61057c565b005b61011d610616565b60405161012a9190610dcb565b60405180910390f35b61014d60048036038101906101489190610de6565b61063c565b60405161015a9190610e22565b60405180910390f35b61017d60048036038101906101789190610de6565b610654565b005b61019960048036038101906101949190610de6565b610797565b6040516101a691906109a5565b60405180910390f35b6101c960048036038101906101c49190610de6565b610931565b6040516101d691906109a5565b60405180910390f35b6101e7610943565b6040516101f49190610e9c565b60405180910390f35b60025481565b600160009054906101000a900473ffffffffffffffffffffffffffffffffffffffff1673ffffffffffffffffffffffffffffffffffffffff163373ffffffffffffffffffffffffffffffffffffffff1614610293576040517f08c379a000000000000000000000000000000000000000000000000000000000815260040161028a90610f3a565b60405180910390fd5b80600360008473ffffffffffffffffffffffffffffffffffffffff1673ffffffffffffffffffffffffffffffffffffffff168152602001908152602001600020819055505050565b60008060019054906101000a900460ff1615905080801561030c5750600160008054906101000a900460ff1660ff16105b80610339575061031b30610969565b1580156103385750600160008054906101000a900460ff1660ff16145b5b610378576040517f08c379a000000000000000000000000000000000000000000000000000000000815260040161036f90610fcc565b60405180910390fd5b60016000806101000a81548160ff021916908360ff16021790555080156103b5576001600060016101000a81548160ff0219169083151502179055505b84600060026101000a81548173ffffffffffffffffffffffffffffffffffffffff021916908373ffffffffffffffffffffffffffffffffffffffff16021790555083600160006101000a81548173ffffffffffffffffffffffffffffffffffffffff021916908373ffffffffffffffffffffffffffffffffffffffff160217905550815183511461047b576040517f08c379a00000000000000000000000000000000000000000000000000000000081526004016104729061105e565b60405180910390fd5b60005b83518110156105125782818151811061049a5761049961107e565b5b6020026020010151600360008684815181106104b9576104b861107e565b5b602002602001015173ffffffffffffffffffffffffffffffffffffffff1673ffffffffffffffffffffffffffffffffffffffff16815260200190815260200160002081905550808061050a906110dc565b91505061047e565b50610e1060028190555080156105755760008060016101000a81548160ff0219169083151502179055507f7f26b83ff96e1f2b6a682f133852f6798a09c465da95921460cefb3847402498600160405161056c919061116c565b60405180910390a15b5050505050565b600160009054906101000a900473ffffffffffffffffffffffffffffffffffffffff1673ffffffffffffffffffffffffffffffffffffffff163373ffffffffffffffffffffffffffffffffffffffff161461060c576040517f08c379a000000000000000000000000000000000000000000000000000000000815260040161060390610f3a565b60405180910390fd5b8060028190555050565b600160009054906101000a900473ffffffffffffffffffffffffffffffffffffffff1681565b60036020528060005260406000206000915090505481565b600160009054906101000a900473ffffffffffffffffffffffffffffffffffffffff1673ffffffffffffffffffffffffffffffffffffffff163373ffffffffffffffffffffffffffffffffffffffff16146106e4576040517f08c379a00000000000000000000000000000000000000000000000000000000081526004016106db90610f3a565b60405180910390fd5b600073ffffffffffffffffffffffffffffffffffffffff168173ffffffffffffffffffffffffffffffffffffffff1603610753576040517f08c379a000000000000000000000000000000000000000000000000000000000815260040161074a906111f9565b60405180910390fd5b80600160006101000a81548173ffffffffffffffffffffffffffffffffffffffff021916908373ffffffffffffffffffffffffffffffffffffffff16021790555050565b600080600360008473ffffffffffffffffffffffffffffffffffffffff1673ffffffffffffffffffffffffffffffffffffffff1681526020019081526020016000205490506000801b8103610821576040517f08c379a000000000000000000000000000000000000000000000000000000000815260040161081890611265565b60405180910390fd5b60008060029054906101000a900473ffffffffffffffffffffffffffffffffffffffff1673ffffffffffffffffffffffffffffffffffffffff166396834ad3836040518263ffffffff1660e01b815260040161087d9190610e22565b608060405180830381865afa15801561089a573d6000803e3d6000fd5b505050506040513d601f19601f820116820180604052508101906108be91906113c9565b90504260025482606001516108d391906113f6565b11610913576040517f08c379a000000000000000000000000000000000000000000000000000000000815260040161090a90611476565b60405180910390fd5b6000816000015167ffffffffffffffff169050809350505050919050565b600061093c82610797565b9050919050565b600060029054906101000a900473ffffffffffffffffffffffffffffffffffffffff1681565b6000808273ffffffffffffffffffffffffffffffffffffffff163b119050919050565b6000819050919050565b61099f8161098c565b82525050565b60006020820190506109ba6000830184610996565b92915050565b6000604051905090565b600080fd5b600080fd5b600073ffffffffffffffffffffffffffffffffffffffff82169050919050565b60006109ff826109d4565b9050919050565b610a0f816109f4565b8114610a1a57600080fd5b50565b600081359050610a2c81610a06565b92915050565b6000819050919050565b610a4581610a32565b8114610a5057600080fd5b50565b600081359050610a6281610a3c565b92915050565b60008060408385031215610a7f57610a7e6109ca565b5b6000610a8d85828601610a1d565b9250506020610a9e85828601610a53565b9150509250929050565b600080fd5b6000601f19601f8301169050919050565b7f4e487b7100000000000000000000000000000000000000000000000000000000600052604160045260246000fd5b610af682610aad565b810181811067ffffffffffffffff82111715610b1557610b14610abe565b5b80604052505050565b6000610b286109c0565b9050610b348282610aed565b919050565b600067ffffffffffffffff821115610b5457610b53610abe565b5b602082029050602081019050919050565b600080fd5b6000610b7d610b7884610b39565b610b1e565b90508083825260208201905060208402830185811115610ba057610b9f610b65565b5b835b81811015610bc95780610bb58882610a1d565b845260208401935050602081019050610ba2565b5050509392505050565b600082601f830112610be857610be7610aa8565b5b8135610bf8848260208601610b6a565b91505092915050565b600067ffffffffffffffff821115610c1c57610c1b610abe565b5b602082029050602081019050919050565b6000610c40610c3b84610c01565b610b1e565b90508083825260208201905060208402830185811115610c6357610c62610b65565b5b835b81811015610c8c5780610c788882610a53565b845260208401935050602081019050610c65565b5050509392505050565b600082601f830112610cab57610caa610aa8565b5b8135610cbb848260208601610c2d565b91505092915050565b60008060008060808587031215610cde57610cdd6109ca565b5b6000610cec87828801610a1d565b9450506020610cfd87828801610a1d565b935050604085013567ffffffffffffffff811115610d1e57610d1d6109cf565b5b610d2a87828801610bd3565b925050606085013567ffffffffffffffff811115610d4b57610d4a6109cf565b5b610d5787828801610c96565b91505092959194509250565b610d6c8161098c565b8114610d7757600080fd5b50565b600081359050610d8981610d63565b92915050565b600060208284031215610da557610da46109ca565b5b6000610db384828501610d7a565b91505092915050565b610dc5816109f4565b82525050565b6000602082019050610de06000830184610dbc565b92915050565b600060208284031215610dfc57610dfb6109ca565b5b6000610e0a84828501610a1d565b91505092915050565b610e1c81610a32565b82525050565b6000602082019050610e376000830184610e13565b92915050565b6000819050919050565b6000610e62610e5d610e58846109d4565b610e3d565b6109d4565b9050919050565b6000610e7482610e47565b9050919050565b6000610e8682610e69565b9050919050565b610e9681610e7b565b82525050565b6000602082019050610eb16000830184610e8d565b92915050565b600082825260208201905092915050565b7f4f6e6c79206f7261636c65206d616e616765722063616e2063616c6c2074686960008201527f732066756e6374696f6e00000000000000000000000000000000000000000000602082015250565b6000610f24602a83610eb7565b9150610f2f82610ec8565b604082019050919050565b60006020820190508181036000830152610f5381610f17565b9050919050565b7f496e697469616c697a61626c653a20636f6e747261637420697320616c72656160008201527f647920696e697469616c697a6564000000000000000000000000000000000000602082015250565b6000610fb6602e83610eb7565b9150610fc182610f5a565b604082019050919050565b60006020820190508181036000830152610fe581610fa9565b9050919050565b7f496e697469616c20746f6b656e7320616e6420707269636520696473206c656e60008201527f677468206d69736d617463680000000000000000000000000000000000000000602082015250565b6000611048602c83610eb7565b915061105382610fec565b604082019050919050565b600060208201905081810360008301526110778161103b565b9050919050565b7f4e487b7100000000000000000000000000000000000000000000000000000000600052603260045260246000fd5b7f4e487b7100000000000000000000000000000000000000000000000000000000600052601160045260246000fd5b60006110e78261098c565b91507fffffffffffffffffffffffffffffffffffffffffffffffffffffffffffffffff8203611119576111186110ad565b5b600182019050919050565b6000819050919050565b600060ff82169050919050565b600061115661115161114c84611124565b610e3d565b61112e565b9050919050565b6111668161113b565b82525050565b6000602082019050611181600083018461115d565b92915050565b7f4f7261636c65206d616e616765722063616e6e6f74206265207a65726f20616460008201527f6472657373000000000000000000000000000000000000000000000000000000602082015250565b60006111e3602583610eb7565b91506111ee82611187565b604082019050919050565b60006020820190508181036000830152611212816111d6565b9050919050565b7f50726963654964206e6f74207365740000000000000000000000000000000000600082015250565b600061124f600f83610eb7565b915061125a82611219565b602082019050919050565b6000602082019050818103600083015261127e81611242565b9050919050565b600080fd5b60008160070b9050919050565b6112a08161128a565b81146112ab57600080fd5b50565b6000815190506112bd81611297565b92915050565b600067ffffffffffffffff82169050919050565b6112e0816112c3565b81146112eb57600080fd5b50565b6000815190506112fd816112d7565b92915050565b60008160030b9050919050565b61131981611303565b811461132457600080fd5b50565b60008151905061133681611310565b92915050565b60008151905061134b81610d63565b92915050565b60006080828403121561136757611366611285565b5b6113716080610b1e565b90506000611381848285016112ae565b6000830152506020611395848285016112ee565b60208301525060406113a984828501611327565b60408301525060606113bd8482850161133c565b60608301525092915050565b6000608082840312156113df576113de6109ca565b5b60006113ed84828501611351565b91505092915050565b60006114018261098c565b915061140c8361098c565b9250828201905080821115611424576114236110ad565b5b92915050565b7f507269636520697320746f6f206f6c6400000000000000000000000000000000600082015250565b6000611460601083610eb7565b915061146b8261142a565b602082019050919050565b6000602082019050818103600083015261148f81611453565b905091905056fea264697066735822122093a6d60e6c8d7c88dbab221783f9d505a928b4419ff2692bc3b3bde8c48178a864736f6c63430008120033","linkReferences":{}},"methodIdentifiers":{"getPythPrice(address)":"cc527382","getTokenPrice(address)":"d02641a0","initialize(address,address,address[],bytes32[])":"2946511c","maxPriceAge()":"1584410a","oracleManager()":"565d878c","pyth()":"f98d06f0","pythPriceIds(address)":"7eb5fbfd","setMaxPriceAge(uint256)":"56447ce8","setOracleManager(address)":"929e2e08","setPythPriceId(address,bytes32)":"191cc0ed"},"id":4}