{"abi":[{"type":"receive","stateMutability":"payable"},{"type":"function","name":"WETH9","inputs":[],"outputs":[{"name":"","type":"address","internalType":"address"}],"stateMutability":"view"},{"type":"function","name":"acceptOwnership","inputs":[],"outputs":[],"stateMutability":"nonpayable"},{"type":"function","name":"addressProvider","inputs":[],"outputs":[{"name":"","type":"address","internalType":"address"}],"stateMutability":"view"},{"type":"function","name":"claimCallback","inputs":[{"name":"reward","type":"address","internalType":"address"},{"name":"amount","type":"uint256","internalType":"uint256"}],"outputs":[],"stateMutability":"nonpayable"},{"type":"function","name":"claimRewards","inputs":[{"name":"positionId","type":"uint256","internalType":"uint256"}],"outputs":[],"stateMutability":"nonpayable"},{"type":"function","name":"closePosition","inputs":[{"name":"positionId","type":"uint256","internalType":"uint256"}],"outputs":[{"name":"token0Balance","type":"uint256","internalType":"uint256"},{"name":"token1Balance","type":"uint256","internalType":"uint256"}],"stateMutability":"nonpayable"},{"type":"function","name":"fullfillLimitOrder","inputs":[{"name":"positionId","type":"uint256","internalType":"uint256"}],"outputs":[],"stateMutability":"nonpayable"},{"type":"function","name":"getCurrentTick","inputs":[],"outputs":[{"name":"","type":"int24","internalType":"int24"}],"stateMutability":"view"},{"type":"function","name":"getDebtRatio","inputs":[{"name":"positionId","type":"uint256","internalType":"uint256"}],"outputs":[{"name":"debtRatio","type":"uint256","internalType":"uint256"}],"stateMutability":"view"},{"type":"function","name":"getDebtRatioFromAmounts","inputs":[{"name":"amount0Principal","type":"uint256","internalType":"uint256"},{"name":"amount1Principal","type":"uint256","internalType":"uint256"},{"name":"amount0Borrow","type":"uint256","internalType":"uint256"},{"name":"amount1Borrow","type":"uint256","internalType":"uint256"}],"outputs":[{"name":"debtRatio","type":"uint256","internalType":"uint256"}],"stateMutability":"view"},{"type":"function","name":"getDebtValue","inputs":[{"name":"positionId","type":"uint256","internalType":"uint256"}],"outputs":[{"name":"value","type":"uint256","internalType":"uint256"}],"stateMutability":"view"},{"type":"function","name":"getLendingPool","inputs":[],"outputs":[{"name":"","type":"address","internalType":"address"}],"stateMutability":"view"},{"type":"function","name":"getPositionAmounts","inputs":[{"name":"positionId","type":"uint256","internalType":"uint256"}],"outputs":[{"name":"amount0","type":"uint256","internalType":"uint256"},{"name":"amount1","type":"uint256","internalType":"uint256"}],"stateMutability":"view"},{"type":"function","name":"getPositionAmountsByNftId","inputs":[{"name":"nftId","type":"uint256","internalType":"uint256"}],"outputs":[{"name":"amount0","type":"uint256","internalType":"uint256"},{"name":"amount1","type":"uint256","internalType":"uint256"}],"stateMutability":"view"},{"type":"function","name":"getPositionDebt","inputs":[{"name":"positionId","type":"uint256","internalType":"uint256"}],"outputs":[{"name":"amount0Debt","type":"uint256","internalType":"uint256"},{"name":"amount1Debt","type":"uint256","internalType":"uint256"}],"stateMutability":"view"},{"type":"function","name":"getPositionIds","inputs":[{"name":"owner","type":"address","internalType":"address"}],"outputs":[{"name":"","type":"uint256[]","internalType":"uint256[]"}],"stateMutability":"view"},{"type":"function","name":"getPositionInfos","inputs":[{"name":"positionId","type":"uint256","internalType":"uint256"}],"outputs":[{"name":"","type":"tuple","internalType":"struct IVault.PositionInfo","components":[{"name":"owner","type":"address","internalType":"address"},{"name":"vaultId","type":"uint256","internalType":"uint256"},{"name":"positionId","type":"uint256","internalType":"uint256"},{"name":"positionAddress","type":"address","internalType":"address"},{"name":"shadowPositionId","type":"uint256","internalType":"uint256"},{"name":"token0DebtId","type":"uint256","internalType":"uint256"},{"name":"token1DebtId","type":"uint256","internalType":"uint256"},{"name":"tickUpper","type":"int24","internalType":"int24"},{"name":"tickLower","type":"int24","internalType":"int24"},{"name":"ul","type":"int24","internalType":"int24"},{"name":"ll","type":"int24","internalType":"int24"}]}],"stateMutability":"view"},{"type":"function","name":"getPositionValue","inputs":[{"name":"positionId","type":"uint256","internalType":"uint256"}],"outputs":[{"name":"value","type":"uint256","internalType":"uint256"}],"stateMutability":"view"},{"type":"function","name":"getPositionValueByNftId","inputs":[{"name":"nftId","type":"uint256","internalType":"uint256"}],"outputs":[{"name":"value","type":"uint256","internalType":"uint256"}],"stateMutability":"view"},{"type":"function","name":"getTokenPrice","inputs":[{"name":"token","type":"address","internalType":"address"}],"outputs":[{"name":"","type":"uint256","internalType":"uint256"}],"stateMutability":"view"},{"type":"function","name":"initialize","inputs":[{"name":"_addressProvider","type":"address","internalType":"address"},{"name":"_vaultRegistry","type":"address","internalType":"address"},{"name":"_shadowV3PoolAddress","type":"address","internalType":"address"},{"name":"_initialPositionImplementation","type":"address","internalType":"address"}],"outputs":[],"stateMutability":"nonpayable"},{"type":"function","name":"liquidatePosition","inputs":[{"name":"positionId","type":"uint256","internalType":"uint256"}],"outputs":[],"stateMutability":"nonpayable"},{"type":"function","name":"liquidationCallerFee","inputs":[],"outputs":[{"name":"","type":"uint256","internalType":"uint256"}],"stateMutability":"view"},{"type":"function","name":"liquidationDebtRatio","inputs":[],"outputs":[{"name":"","type":"uint256","internalType":"uint256"}],"stateMutability":"view"},{"type":"function","name":"liquidationFee","inputs":[],"outputs":[{"name":"","type":"uint256","internalType":"uint256"}],"stateMutability":"view"},{"type":"function","name":"liquidationFeeRecipient","inputs":[],"outputs":[{"name":"","type":"address","internalType":"address"}],"stateMutability":"view"},{"type":"function","name":"liquidators","inputs":[{"name":"","type":"address","internalType":"address"}],"outputs":[{"name":"","type":"bool","internalType":"bool"}],"stateMutability":"view"},{"type":"function","name":"minPositionSize","inputs":[],"outputs":[{"name":"","type":"uint256","internalType":"uint256"}],"stateMutability":"view"},{"type":"function","name":"nextPositionID","inputs":[],"outputs":[{"name":"","type":"uint256","internalType":"uint256"}],"stateMutability":"view"},{"type":"function","name":"onReceiveRegisterCallback","inputs":[{"name":"_vaultId","type":"uint256","internalType":"uint256"}],"outputs":[],"stateMutability":"nonpayable"},{"type":"function","name":"openLiquidationEnabled","inputs":[],"outputs":[{"name":"","type":"bool","internalType":"bool"}],"stateMutability":"view"},{"type":"function","name":"openPosition","inputs":[{"name":"params","type":"tuple","internalType":"struct IVault.OpenPositionParams","components":[{"name":"amount0Principal","type":"uint256","internalType":"uint256"},{"name":"amount1Principal","type":"uint256","internalType":"uint256"},{"name":"amount0Borrow","type":"uint256","internalType":"uint256"},{"name":"amount1Borrow","type":"uint256","internalType":"uint256"},{"name":"amount0SwapNeededForPosition","type":"uint256","internalType":"uint256"},{"name":"amount1SwapNeededForPosition","type":"uint256","internalType":"uint256"},{"name":"amount0Desired","type":"uint256","internalType":"uint256"},{"name":"amount1Desired","type":"uint256","internalType":"uint256"},{"name":"deadline","type":"uint256","internalType":"uint256"},{"name":"tickLower","type":"int24","internalType":"int24"},{"name":"tickUpper","type":"int24","internalType":"int24"},{"name":"ul","type":"int24","internalType":"int24"},{"name":"ll","type":"int24","internalType":"int24"}]}],"outputs":[],"stateMutability":"payable"},{"type":"function","name":"owner","inputs":[],"outputs":[{"name":"","type":"address","internalType":"address"}],"stateMutability":"view"},{"type":"function","name":"pendingOwner","inputs":[],"outputs":[{"name":"","type":"address","internalType":"address"}],"stateMutability":"view"},{"type":"function","name":"performanceFee","inputs":[],"outputs":[{"name":"","type":"uint256","internalType":"uint256"}],"stateMutability":"view"},{"type":"function","name":"performanceFeeRecipient","inputs":[],"outputs":[{"name":"","type":"address","internalType":"address"}],"stateMutability":"view"},{"type":"function","name":"positionAddressToId","inputs":[{"name":"","type":"address","internalType":"address"}],"outputs":[{"name":"","type":"uint256","internalType":"uint256"}],"stateMutability":"view"},{"type":"function","name":"positionIds","inputs":[{"name":"","type":"address","internalType":"address"},{"name":"","type":"uint256","internalType":"uint256"}],"outputs":[{"name":"","type":"uint256","internalType":"uint256"}],"stateMutability":"view"},{"type":"function","name":"positionImplementation","inputs":[],"outputs":[{"name":"","type":"address","internalType":"address"}],"stateMutability":"view"},{"type":"function","name":"positionInfos","inputs":[{"name":"","type":"uint256","internalType":"uint256"}],"outputs":[{"name":"owner","type":"address","internalType":"address"},{"name":"vaultId","type":"uint256","internalType":"uint256"},{"name":"positionId","type":"uint256","internalType":"uint256"},{"name":"positionAddress","type":"address","internalType":"address"},{"name":"shadowPositionId","type":"uint256","internalType":"uint256"},{"name":"token0DebtId","type":"uint256","internalType":"uint256"},{"name":"token1DebtId","type":"uint256","internalType":"uint256"},{"name":"tickUpper","type":"int24","internalType":"int24"},{"name":"tickLower","type":"int24","internalType":"int24"},{"name":"ul","type":"int24","internalType":"int24"},{"name":"ll","type":"int24","internalType":"int24"}],"stateMutability":"view"},{"type":"function","name":"reducePosition","inputs":[{"name":"params","type":"tuple","internalType":"struct IVault.ReducePositionParams","components":[{"name":"positionId","type":"uint256","internalType":"uint256"},{"name":"reducePercentage","type":"uint128","internalType":"uint128"},{"name":"amount0ToSwap","type":"uint256","internalType":"uint256"},{"name":"amount1ToSwap","type":"uint256","internalType":"uint256"}]}],"outputs":[],"stateMutability":"nonpayable"},{"type":"function","name":"renounceOwnership","inputs":[],"outputs":[],"stateMutability":"nonpayable"},{"type":"function","name":"repayExact","inputs":[{"name":"positionId","type":"uint256","internalType":"uint256"},{"name":"amount0","type":"uint256","internalType":"uint256"},{"name":"amount1","type":"uint256","internalType":"uint256"}],"outputs":[],"stateMutability":"payable"},{"type":"function","name":"setLiquidationDebtRatio","inputs":[{"name":"_liquidationDebtRatio","type":"uint256","internalType":"uint256"}],"outputs":[],"stateMutability":"nonpayable"},{"type":"function","name":"setLiquidationFeeParams","inputs":[{"name":"_liquidationFee","type":"uint256","internalType":"uint256"},{"name":"_liquidationCallerFeeRatio","type":"uint256","internalType":"uint256"}],"outputs":[],"stateMutability":"nonpayable"},{"type":"function","name":"setLiquidator","inputs":[{"name":"_liquidator","type":"address","internalType":"address"},{"name":"_isLiquidator","type":"bool","internalType":"bool"}],"outputs":[],"stateMutability":"nonpayable"},{"type":"function","name":"setMinPositionSize","inputs":[{"name":"_minPositionSize","type":"uint256","internalType":"uint256"}],"outputs":[],"stateMutability":"nonpayable"},{"type":"function","name":"setOpenLiquidationEnabled","inputs":[{"name":"_openLiquidationEnabled","type":"bool","internalType":"bool"}],"outputs":[],"stateMutability":"nonpayable"},{"type":"function","name":"setPerformanceFee","inputs":[{"name":"_performanceFee","type":"uint256","internalType":"uint256"}],"outputs":[],"stateMutability":"nonpayable"},{"type":"function","name":"setPositionImplementation","inputs":[{"name":"_positionImplementation","type":"address","internalType":"address"}],"outputs":[],"stateMutability":"nonpayable"},{"type":"function","name":"setReserveIds","inputs":[{"name":"_token0ReserveId","type":"uint256","internalType":"uint256"},{"name":"_token1ReserveId","type":"uint256","internalType":"uint256"}],"outputs":[],"stateMutability":"nonpayable"},{"type":"function","name":"setShadowGauge","inputs":[{"name":"_shadowGauge","type":"address","internalType":"address"}],"outputs":[],"stateMutability":"nonpayable"},{"type":"function","name":"shadowGauge","inputs":[],"outputs":[{"name":"","type":"address","internalType":"address"}],"stateMutability":"view"},{"type":"function","name":"shadowV3Pool","inputs":[],"outputs":[{"name":"","type":"address","internalType":"address"}],"stateMutability":"view"},{"type":"function","name":"token0","inputs":[],"outputs":[{"name":"","type":"address","internalType":"address"}],"stateMutability":"view"},{"type":"function","name":"token0Decimals","inputs":[],"outputs":[{"name":"","type":"uint8","internalType":"uint8"}],"stateMutability":"view"},{"type":"function","name":"token0ReserveId","inputs":[],"outputs":[{"name":"","type":"uint256","internalType":"uint256"}],"stateMutability":"view"},{"type":"function","name":"token1","inputs":[],"outputs":[{"name":"","type":"address","internalType":"address"}],"stateMutability":"view"},{"type":"function","name":"token1Decimals","inputs":[],"outputs":[{"name":"","type":"uint8","internalType":"uint8"}],"stateMutability":"view"},{"type":"function","name":"token1ReserveId","inputs":[],"outputs":[{"name":"","type":"uint256","internalType":"uint256"}],"stateMutability":"view"},{"type":"function","name":"transferOwnership","inputs":[{"name":"newOwner","type":"address","internalType":"address"}],"outputs":[],"stateMutability":"nonpayable"},{"type":"function","name":"vaultId","inputs":[],"outputs":[{"name":"","type":"uint256","internalType":"uint256"}],"stateMutability":"view"},{"type":"function","name":"vaultRegistry","inputs":[],"outputs":[{"name":"","type":"address","internalType":"address"}],"stateMutability":"view"},{"type":"event","name":"Initialized","inputs":[{"name":"version","type":"uint8","indexed":false,"internalType":"uint8"}],"anonymous":false},{"type":"event","name":"OwnershipTransferStarted","inputs":[{"name":"previousOwner","type":"address","indexed":true,"internalType":"address"},{"name":"newOwner","type":"address","indexed":true,"internalType":"address"}],"anonymous":false},{"type":"event","name":"OwnershipTransferred","inputs":[{"name":"previousOwner","type":"address","indexed":true,"internalType":"address"},{"name":"newOwner","type":"address","indexed":true,"internalType":"address"}],"anonymous":false},{"type":"event","name":"PositionClosed","inputs":[{"name":"owner","type":"address","indexed":true,"internalType":"address"},{"name":"vaultId","type":"uint256","indexed":false,"internalType":"uint256"},{"name":"positionId","type":"uint256","indexed":false,"internalType":"uint256"},{"name":"positionAddress","type":"address","indexed":false,"internalType":"address"},{"name":"amount0Position","type":"uint256","indexed":false,"internalType":"uint256"},{"name":"amount1Position","type":"uint256","indexed":false,"internalType":"uint256"},{"name":"liquidity","type":"uint128","indexed":false,"internalType":"uint128"},{"name":"timestamp","type":"uint256","indexed":false,"internalType":"uint256"}],"anonymous":false},{"type":"event","name":"PositionLiquidated","inputs":[{"name":"owner","type":"address","indexed":true,"internalType":"address"},{"name":"vaultId","type":"uint256","indexed":false,"internalType":"uint256"},{"name":"positionId","type":"uint256","indexed":false,"internalType":"uint256"},{"name":"token0Reduced","type":"uint256","indexed":false,"internalType":"uint256"},{"name":"token1Reduced","type":"uint256","indexed":false,"internalType":"uint256"},{"name":"token0Fees","type":"uint256","indexed":false,"internalType":"uint256"},{"name":"token1Fees","type":"uint256","indexed":false,"internalType":"uint256"},{"name":"token0Left","type":"uint256","indexed":false,"internalType":"uint256"},{"name":"token1Left","type":"uint256","indexed":false,"internalType":"uint256"},{"name":"timestamp","type":"uint256","indexed":false,"internalType":"uint256"}],"anonymous":false},{"type":"event","name":"PositionOpened","inputs":[{"name":"owner","type":"address","indexed":true,"internalType":"address"},{"name":"vaultId","type":"uint256","indexed":false,"internalType":"uint256"},{"name":"positionId","type":"uint256","indexed":false,"internalType":"uint256"},{"name":"positionAddress","type":"address","indexed":false,"internalType":"address"},{"name":"amount0Principal","type":"uint256","indexed":false,"internalType":"uint256"},{"name":"amount1Principal","type":"uint256","indexed":false,"internalType":"uint256"},{"name":"amount0Position","type":"uint256","indexed":false,"internalType":"uint256"},{"name":"amount1Position","type":"uint256","indexed":false,"internalType":"uint256"},{"name":"liquidity","type":"uint128","indexed":false,"internalType":"uint128"},{"name":"timestamp","type":"uint256","indexed":false,"internalType":"uint256"}],"anonymous":false},{"type":"event","name":"PositionReduced","inputs":[{"name":"owner","type":"address","indexed":true,"internalType":"address"},{"name":"vaultId","type":"uint256","indexed":false,"internalType":"uint256"},{"name":"positionId","type":"uint256","indexed":false,"internalType":"uint256"},{"name":"reducedLiquidity","type":"uint128","indexed":false,"internalType":"uint128"},{"name":"timestamp","type":"uint256","indexed":false,"internalType":"uint256"}],"anonymous":false},{"type":"event","name":"RewardClaimed","inputs":[{"name":"owner","type":"address","indexed":true,"internalType":"address"},{"name":"vaultId","type":"uint256","indexed":false,"internalType":"uint256"},{"name":"positionId","type":"uint256","indexed":false,"internalType":"uint256"},{"name":"reward","type":"address","indexed":false,"internalType":"address"},{"name":"userAmount","type":"uint256","indexed":false,"internalType":"uint256"},{"name":"feeAmount","type":"uint256","indexed":false,"internalType":"uint256"}],"anonymous":false}],"bytecode":{"object":"0x608060405234801561001057600080fd5b5061875d80620000216000396000f3fe6080604052600436106200041b5760003560e01c80639e36af4a1162000223578063cdd7b38a1162000127578063ed27f7c911620000af578063f73ce2b11162000079578063f73ce2b114620010d3578063f8c8765e1462001103578063f90cdb361462001131578063fa3a7f29146200117557620004ee565b8063ed27f7c91462001019578063eed417341462001049578063ef973ed91462001077578063f2fde38b14620010a557620004ee565b8063d26265e011620000f1578063d26265e01462000f44578063d3b1b8dc1462000f89578063d97e14741462000fb9578063e30c39781462000fe957620004ee565b8063cdd7b38a1462000e72578063cdddd4e51462000ea2578063d02641a01462000ed0578063d21220a71462000f1457620004ee565b8063baff16b411620001ab578063bf78f29c1162000175578063bf78f29c1462000d8c578063c0177bd51462000dba578063c41882b61462000dfe578063c8827efc1462000e4257620004ee565b8063baff16b41462000ca3578063bb8313c21462000cd3578063bd83eb4c1462000d03578063bf0935cd1462000d4857620004ee565b8063abf0e88c11620001ed578063abf0e88c1462000bcf578063b122387b1462000bff578063b31ac6e21462000c2f578063b86a0aaa1462000c5f57620004ee565b80639e36af4a1462000ae8578063a126d6011462000b16578063a36a36301462000b5b578063a95a34891462000b8b57620004ee565b80633c45845c116200032b578063715018a611620002b357806387788782116200027d578063877887821462000a385780638da5cb5b1462000a68578063959a88351462000a985780639a64b6321462000ab857620004ee565b8063715018a6146200099f57806372e962a714620009b957806379ba509714620009d95780638113a46d14620009f357620004ee565b806353aad1d911620002f557806353aad1d914620008cf57806360dca2a914620008ff5780636e6b7f3a146200092d57806370897b23146200097157620004ee565b80633c45845c14620008155780634453a37414620008435780634aa4a4fc14620008715780634d9ebc7414620008a157620004ee565b806317893e3c11620003af5780632954018c11620003795780632954018c14620007435780632c35f3fb146200077357806333194c0a14620007b75780633b0ef4a714620007e757620004ee565b806317893e3c14620006535780631c82490514620006a15780632034d94214620006d157806328fe703114620006ff57620004ee565b80630b77884d11620003f15780630b77884d146200057f5780630dfe168114620005af578063144d3aec14620005df578063150254db146200062357620004ee565b80630261bf8b14620004f357806306972dcd14620005235780630962ef79146200055157620004ee565b36620004ee5760c960009054906101000a900473ffffffffffffffffffffffffffffffffffffffff1673ffffffffffffffffffffffffffffffffffffffff163373ffffffffffffffffffffffffffffffffffffffff16146040518060400160405280600281526020017f313700000000000000000000000000000000000000000000000000000000000081525090620004ec576040517f08c379a0000000000000000000000000000000000000000000000000000000008152600401620004e3919062005baf565b60405180910390fd5b005b600080fd5b3480156200050057600080fd5b506200050b620011a3565b6040516200051a919062005c18565b60405180910390f35b3480156200053057600080fd5b506200054f600480360381019062000549919062005c75565b6200124c565b005b3480156200055e57600080fd5b506200057d600480360381019062000577919062005c75565b62001260565b005b3480156200058c57600080fd5b506200059762001360565b604051620005a6919062005cc5565b60405180910390f35b348015620005bc57600080fd5b50620005c762001373565b604051620005d6919062005c18565b60405180910390f35b348015620005ec57600080fd5b506200060b600480360381019062000605919062005d13565b62001399565b6040516200061a919062005d6b565b60405180910390f35b3480156200063057600080fd5b506200063b620013cb565b6040516200064a919062005c18565b60405180910390f35b3480156200066057600080fd5b506200067f600480360381019062000679919062005c75565b620013f1565b604051620006989b9a9998979695949392919062005da6565b60405180910390f35b348015620006ae57600080fd5b50620006b9620014bf565b604051620006c8919062005d6b565b60405180910390f35b348015620006de57600080fd5b50620006fd6004803603810190620006f7919062005e67565b620014c5565b005b3480156200070c57600080fd5b506200072b600480360381019062000725919062005eae565b620014e1565b6040516200073a919062005fae565b60405180910390f35b3480156200075057600080fd5b506200075b6200157a565b6040516200076a919062005c18565b60405180910390f35b3480156200078057600080fd5b506200079f600480360381019062000799919062005c75565b620015a0565b604051620007ae919062005d6b565b60405180910390f35b348015620007c457600080fd5b50620007cf620015da565b604051620007de919062005d6b565b60405180910390f35b348015620007f457600080fd5b506200081360048036038101906200080d919062005c75565b620015e0565b005b3480156200082257600080fd5b506200084160048036038101906200083b919062005c75565b620016c5565b005b3480156200085057600080fd5b506200086f60048036038101906200086991906200600f565b620016d9565b005b3480156200087e57600080fd5b50620008896200173e565b60405162000898919062005c18565b60405180910390f35b348015620008ae57600080fd5b50620008cd6004803603810190620008c7919062005d13565b62001764565b005b348015620008dc57600080fd5b50620008e76200191c565b604051620008f6919062006056565b60405180910390f35b3480156200090c57600080fd5b506200092b600480360381019062000925919062006073565b62001a66565b005b3480156200093a57600080fd5b5062000959600480360381019062000953919062005c75565b62001a8d565b60405162000968919062005d6b565b60405180910390f35b3480156200097e57600080fd5b506200099d600480360381019062000997919062005c75565b62001b7e565b005b348015620009ac57600080fd5b50620009b762001b92565b005b620009d76004803603810190620009d19190620060cd565b62001baa565b005b348015620009e657600080fd5b50620009f1620024e8565b005b34801562000a0057600080fd5b5062000a1f600480360381019062000a19919062005c75565b6200257e565b60405162000a2f92919062006100565b60405180910390f35b34801562000a4557600080fd5b5062000a5062002772565b60405162000a5f919062005d6b565b60405180910390f35b34801562000a7557600080fd5b5062000a8062002778565b60405162000a8f919062005c18565b60405180910390f35b62000ab6600480360381019062000ab091906200612d565b620027a2565b005b34801562000ac557600080fd5b5062000ad062002abb565b60405162000adf919062005c18565b60405180910390f35b34801562000af557600080fd5b5062000b14600480360381019062000b0e919062005eae565b62002ae1565b005b34801562000b2357600080fd5b5062000b42600480360381019062000b3c919062005c75565b62002b2f565b60405162000b5292919062006100565b60405180910390f35b34801562000b6857600080fd5b5062000b7362002d9a565b60405162000b82919062005d6b565b60405180910390f35b34801562000b9857600080fd5b5062000bb7600480360381019062000bb1919062005eae565b62002da0565b60405162000bc6919062005d6b565b60405180910390f35b34801562000bdc57600080fd5b5062000be762002db8565b60405162000bf691906200619a565b60405180910390f35b34801562000c0c57600080fd5b5062000c1762002dcb565b60405162000c26919062005d6b565b60405180910390f35b34801562000c3c57600080fd5b5062000c4762002dd1565b60405162000c56919062005cc5565b60405180910390f35b34801562000c6c57600080fd5b5062000c8b600480360381019062000c85919062005c75565b62002de4565b60405162000c9a919062005d6b565b60405180910390f35b34801562000cb057600080fd5b5062000cbb62002ed5565b60405162000cca919062005d6b565b60405180910390f35b34801562000ce057600080fd5b5062000ceb62002edb565b60405162000cfa919062005d6b565b60405180910390f35b34801562000d1057600080fd5b5062000d2f600480360381019062000d29919062005c75565b62002ee1565b60405162000d3f92919062006100565b60405180910390f35b34801562000d5557600080fd5b5062000d74600480360381019062000d6e9190620061b7565b6200306a565b60405162000d83919062005d6b565b60405180910390f35b34801562000d9957600080fd5b5062000db8600480360381019062000db2919062005eae565b62003251565b005b34801562000dc757600080fd5b5062000de6600480360381019062000de0919062005c75565b6200329f565b60405162000df5919062005d6b565b60405180910390f35b34801562000e0b57600080fd5b5062000e2a600480360381019062000e24919062005c75565b62003390565b60405162000e39919062006342565b60405180910390f35b34801562000e4f57600080fd5b5062000e5a62003512565b60405162000e69919062005d6b565b60405180910390f35b34801562000e7f57600080fd5b5062000e8a62003518565b60405162000e99919062005c18565b60405180910390f35b34801562000eaf57600080fd5b5062000ece600480360381019062000ec8919062005c75565b6200353e565b005b34801562000edd57600080fd5b5062000efc600480360381019062000ef6919062005eae565b620039a5565b60405162000f0b919062005d6b565b60405180910390f35b34801562000f2157600080fd5b5062000f2c62003ace565b60405162000f3b919062005c18565b60405180910390f35b34801562000f5157600080fd5b5062000f70600480360381019062000f6a919062005c75565b62003af4565b60405162000f8092919062006100565b60405180910390f35b34801562000f9657600080fd5b5062000fa162003b21565b60405162000fb0919062005d6b565b60405180910390f35b34801562000fc657600080fd5b5062000fd162003b27565b60405162000fe0919062005c18565b60405180910390f35b34801562000ff657600080fd5b506200100162003b4d565b60405162001010919062005c18565b60405180910390f35b3480156200102657600080fd5b506200103162003b77565b60405162001040919062005c18565b60405180910390f35b3480156200105657600080fd5b506200107560048036038101906200106f919062005c75565b62003c20565b005b3480156200108457600080fd5b50620010a360048036038101906200109d919062005e67565b62003fec565b005b348015620010b257600080fd5b50620010d16004803603810190620010cb919062005eae565b620041a3565b005b348015620010e057600080fd5b50620010eb62004254565b604051620010fa919062005c18565b60405180910390f35b3480156200111057600080fd5b506200112f600480360381019062001129919062006360565b620042fd565b005b3480156200113e57600080fd5b506200115d600480360381019062001157919062005eae565b620048d4565b6040516200116c91906200619a565b60405180910390f35b3480156200118257600080fd5b50620011a160048036038101906200119b9190620063f4565b620048f4565b005b600060cc60009054906101000a900473ffffffffffffffffffffffffffffffffffffffff1673ffffffffffffffffffffffffffffffffffffffff1663b93f9b0a60096040518263ffffffff1660e01b815260040162001203919062005d6b565b602060405180830381865afa15801562001221573d6000803e3d6000fd5b505050506040513d601f19601f820116820180604052508101906200124791906200643d565b905090565b6200125662004d50565b8060da8190555050565b6200126a62004dd5565b60d4600082815260200190815260200160002060030160009054906101000a900473ffffffffffffffffffffffffffffffffffffffff1673ffffffffffffffffffffffffffffffffffffffff1663372500ab6040518163ffffffff1660e01b8152600401600060405180830381600087803b158015620012e957600080fd5b505af1158015620012fe573d6000803e3d6000fd5b5050505060d6546200131082620015a0565b1062001353576040517f08c379a00000000000000000000000000000000000000000000000000000000081526004016200134a90620064bf565b60405180910390fd5b6200135d62004e27565b50565b60d060159054906101000a900460ff1681565b60cf60009054906101000a900473ffffffffffffffffffffffffffffffffffffffff1681565b60d56020528160005260406000208181548110620013b657600080fd5b90600052602060002001600091509150505481565b60dc60019054906101000a900473ffffffffffffffffffffffffffffffffffffffff1681565b60d46020528060005260406000206000915090508060000160009054906101000a900473ffffffffffffffffffffffffffffffffffffffff16908060010154908060020154908060030160009054906101000a900473ffffffffffffffffffffffffffffffffffffffff16908060040154908060050154908060060154908060070160009054906101000a900460020b908060070160039054906101000a900460020b908060070160069054906101000a900460020b908060070160099054906101000a900460020b90508b565b60cb5481565b620014cf62004d50565b8160d7819055508060d8819055505050565b606060d560008373ffffffffffffffffffffffffffffffffffffffff1673ffffffffffffffffffffffffffffffffffffffff1681526020019081526020016000208054806020026020016040519081016040528092919081815260200182805480156200156e57602002820191906000526020600020905b81548152602001906001019080831162001559575b50505050509050919050565b60cc60009054906101000a900473ffffffffffffffffffffffffffffffffffffffff1681565b6000620015ad8262002de4565b612710620015bb846200329f565b620015c7919062006510565b620015d391906200658a565b9050919050565b60ca5481565b60cd60009054906101000a900473ffffffffffffffffffffffffffffffffffffffff1673ffffffffffffffffffffffffffffffffffffffff163373ffffffffffffffffffffffffffffffffffffffff161462001673576040517f08c379a00000000000000000000000000000000000000000000000000000000081526004016200166a9062006612565b60405180910390fd5b600060ca5414620016bb576040517f08c379a0000000000000000000000000000000000000000000000000000000008152600401620016b29062006684565b60405180910390fd5b8060ca8190555050565b620016cf62004d50565b8060d68190555050565b620016e362004d50565b8060db60008473ffffffffffffffffffffffffffffffffffffffff1673ffffffffffffffffffffffffffffffffffffffff16815260200190815260200160002060006101000a81548160ff0219169083151502179055505050565b60c960009054906101000a900473ffffffffffffffffffffffffffffffffffffffff1681565b600060d360003373ffffffffffffffffffffffffffffffffffffffff1673ffffffffffffffffffffffffffffffffffffffff16815260200190815260200160002054905060008103620017ee576040517f08c379a0000000000000000000000000000000000000000000000000000000008152600401620017e590620066f6565b60405180910390fd5b600061271060d9548462001803919062006510565b6200180f91906200658a565b905062001862843360d4600086815260200190815260200160002060000160009054906101000a900473ffffffffffffffffffffffffffffffffffffffff1684876200185c919062006718565b62004e30565b6200187984336200187262003b77565b8462004e30565b60d4600083815260200190815260200160002060000160009054906101000a900473ffffffffffffffffffffffffffffffffffffffff1673ffffffffffffffffffffffffffffffffffffffff167fdb214e792161902a75f3a7f79381d726652811d3f9d51af59497299a49a0308d60ca5484878588620018fa919062006718565b866040516200190e95949392919062006753565b60405180910390a250505050565b600060cc60009054906101000a900473ffffffffffffffffffffffffffffffffffffffff1673ffffffffffffffffffffffffffffffffffffffff1663b93f9b0a61012e6040518263ffffffff1660e01b81526004016200197d919062005d6b565b602060405180830381865afa1580156200199b573d6000803e3d6000fd5b505050506040513d601f19601f82011682018060405250810190620019c191906200643d565b73ffffffffffffffffffffffffffffffffffffffff1663040a5dc160dc60019054906101000a900473ffffffffffffffffffffffffffffffffffffffff166040518263ffffffff1660e01b815260040162001a1d919062005c18565b602060405180830381865afa15801562001a3b573d6000803e3d6000fd5b505050506040513d601f19601f8201168201806040525081019062001a619190620067e1565b905090565b62001a7062004d50565b8060dc60006101000a81548160ff02191690831515021790555050565b600080600062001a9d846200257e565b9150915060d060159054906101000a900460ff16600a62001abf919062006967565b62001aec60d060009054906101000a900473ffffffffffffffffffffffffffffffffffffffff16620039a5565b8262001af9919062006510565b62001b0591906200658a565b60d060149054906101000a900460ff16600a62001b23919062006967565b62001b5060cf60009054906101000a900473ffffffffffffffffffffffffffffffffffffffff16620039a5565b8462001b5d919062006510565b62001b6991906200658a565b62001b759190620069b8565b92505050919050565b62001b8862004d50565b8060d98190555050565b62001b9c62004d50565b62001ba8600062005063565b565b62001bb462004dd5565b80610100013580421062001bff576040517f08c379a000000000000000000000000000000000000000000000000000000000815260040162001bf69062006a43565b60405180910390fd5b60008062001c0c62005096565b91509150600060d460008481526020019081526020016000209050338160000160006101000a81548173ffffffffffffffffffffffffffffffffffffffff021916908373ffffffffffffffffffffffffffffffffffffffff16021790555060ca548160010181905550818160030160006101000a81548173ffffffffffffffffffffffffffffffffffffffff021916908373ffffffffffffffffffffffffffffffffffffffff16021790555082816002018190555060d560003373ffffffffffffffffffffffffffffffffffffffff1673ffffffffffffffffffffffffffffffffffffffff1681526020019081526020016000208390806001815401808255809150506001900390600052602060002001600090919091909150558260d360008473ffffffffffffffffffffffffffffffffffffffff1673ffffffffffffffffffffffffffffffffffffffff1681526020019081526020016000208190555060008560000135111562001dae5762001dad60cf60009054906101000a900473ffffffffffffffffffffffffffffffffffffffff163330886000013562004e30565b5b60008560200135111562001df15762001df060d060009054906101000a900473ffffffffffffffffffffffffffffffffffffffff163330886020013562004e30565b5b600062001dfd620011a3565b905060008660400135111562001f14578073ffffffffffffffffffffffffffffffffffffffff1663675a6d4460d1546040518263ffffffff1660e01b815260040162001e4a919062005d6b565b6020604051808303816000875af115801562001e6a573d6000803e3d6000fd5b505050506040513d601f19601f8201168201806040525081019062001e90919062006a7c565b82600501819055508073ffffffffffffffffffffffffffffffffffffffff1663c1bce0b730846005015489604001356040518463ffffffff1660e01b815260040162001edf9392919062006aae565b600060405180830381600087803b15801562001efa57600080fd5b505af115801562001f0f573d6000803e3d6000fd5b505050505b60008660600135111562002029578073ffffffffffffffffffffffffffffffffffffffff1663675a6d4460d2546040518263ffffffff1660e01b815260040162001f5f919062005d6b565b6020604051808303816000875af115801562001f7f573d6000803e3d6000fd5b505050506040513d601f19601f8201168201806040525081019062001fa5919062006a7c565b82600601819055508073ffffffffffffffffffffffffffffffffffffffff1663c1bce0b730846006015489606001356040518463ffffffff1660e01b815260040162001ff49392919062006aae565b600060405180830381600087803b1580156200200f57600080fd5b505af115801562002024573d6000803e3d6000fd5b505050505b60d6546200204a8760000135886020013589604001358a606001356200306a565b106200208d576040517f08c379a0000000000000000000000000000000000000000000000000000000008152600401620020849062006b3b565b60405180910390fd5b600086600001351180620020a5575060008660400135115b1562002115576200211460cf60009054906101000a900473ffffffffffffffffffffffffffffffffffffffff16308460030160009054906101000a900473ffffffffffffffffffffffffffffffffffffffff1689604001358a600001356200210e9190620069b8565b62004e30565b5b6000866020013511806200212d575060008660600135115b156200219d576200219c60d060009054906101000a900473ffffffffffffffffffffffffffffffffffffffff16308460030160009054906101000a900473ffffffffffffffffffffffffffffffffffffffff1689606001358a60200135620021969190620069b8565b62004e30565b5b6000806000808560030160009054906101000a900473ffffffffffffffffffffffffffffffffffffffff1673ffffffffffffffffffffffffffffffffffffffff166357b037d16040518060a001604052808d60c0013581526020018d60e0013581526020018d61012001602081019062002218919062006b74565b60020b81526020018d61014001602081019062002236919062006b74565b60020b81526020013373ffffffffffffffffffffffffffffffffffffffff168152506040518263ffffffff1660e01b815260040162002276919062006c18565b6080604051808303816000875af115801562002296573d6000803e3d6000fd5b505050506040513d601f19601f82011682018060405250810190620022bc919062006c82565b935093509350935060da54620022d28562001a8d565b1162002315576040517f08c379a00000000000000000000000000000000000000000000000000000000081526004016200230c9062006d44565b60405180910390fd5b8386600401819055508961012001602081019062002334919062006b74565b8660070160036101000a81548162ffffff021916908360020b62ffffff160217905550896101400160208101906200236d919062006b74565b8660070160006101000a81548162ffffff021916908360020b62ffffff16021790555089610160016020810190620023a6919062006b74565b8660070160066101000a81548162ffffff021916908360020b62ffffff16021790555089610180016020810190620023df919062006b74565b8660070160096101000a81548162ffffff021916908360020b62ffffff1602179055503373ffffffffffffffffffffffffffffffffffffffff167f184c0b4d148a5cf282e9e7df9f67e521bb4d931008db7914aca891b89d72685260ca548a8a8e600001358f6020013588888b42604051620024649998979695949392919062006d77565b60405180910390a26000341115620024815762002480620050f6565b5b60d6546200248f89620015a0565b10620024d2576040517f08c379a0000000000000000000000000000000000000000000000000000000008152600401620024c99062006e66565b60405180910390fd5b505050505050505050620024e562004e27565b50565b6000620024f46200510f565b90508073ffffffffffffffffffffffffffffffffffffffff166200251762003b4d565b73ffffffffffffffffffffffffffffffffffffffff161462002570576040517f08c379a0000000000000000000000000000000000000000000000000000000008152600401620025679062006efe565b60405180910390fd5b6200257b8162005063565b50565b60008060cc60009054906101000a900473ffffffffffffffffffffffffffffffffffffffff1673ffffffffffffffffffffffffffffffffffffffff1663b93f9b0a61012e6040518263ffffffff1660e01b8152600401620025e0919062005d6b565b602060405180830381865afa158015620025fe573d6000803e3d6000fd5b505050506040513d601f19601f820116820180604052508101906200262491906200643d565b73ffffffffffffffffffffffffffffffffffffffff1663e71a248360cc60009054906101000a900473ffffffffffffffffffffffffffffffffffffffff1673ffffffffffffffffffffffffffffffffffffffff1663b93f9b0a61012d6040518263ffffffff1660e01b81526004016200269e919062005d6b565b602060405180830381865afa158015620026bc573d6000803e3d6000fd5b505050506040513d601f19601f82011682018060405250810190620026e291906200643d565b8560dc60019054906101000a900473ffffffffffffffffffffffffffffffffffffffff166040518463ffffffff1660e01b8152600401620027269392919062006f8b565b6040805180830381865afa15801562002743573d6000803e3d6000fd5b505050506040513d601f19601f8201168201806040525081019062002769919062006fc8565b91509150915091565b60d95481565b6000606560009054906101000a900473ffffffffffffffffffffffffffffffffffffffff16905090565b600060d4600085815260200190815260200160002090506000620027c5620011a3565b9050600084118015620027dd57506000826005015414155b15620029335760008173ffffffffffffffffffffffffffffffffffffffff166313c8e60d84600501546040518263ffffffff1660e01b815260040162002824919062005d6b565b6040805180830381865afa15801562002841573d6000803e3d6000fd5b505050506040513d601f19601f8201168201806040525081019062002867919062006fc8565b5090508085111562002877578094505b620028a760cf60009054906101000a900473ffffffffffffffffffffffffffffffffffffffff1633308862004e30565b8173ffffffffffffffffffffffffffffffffffffffff16638cd2e0c7308560050154886040518463ffffffff1660e01b8152600401620028ea9392919062006aae565b6020604051808303816000875af11580156200290a573d6000803e3d6000fd5b505050506040513d601f19601f8201168201806040525081019062002930919062006a7c565b50505b6000831180156200294957506000826006015414155b1562002a9f5760008173ffffffffffffffffffffffffffffffffffffffff166313c8e60d84600601546040518263ffffffff1660e01b815260040162002990919062005d6b565b6040805180830381865afa158015620029ad573d6000803e3d6000fd5b505050506040513d601f19601f82011682018060405250810190620029d3919062006fc8565b50905080841115620029e3578093505b62002a1360d060009054906101000a900473ffffffffffffffffffffffffffffffffffffffff1633308762004e30565b8173ffffffffffffffffffffffffffffffffffffffff16638cd2e0c7308560060154876040518463ffffffff1660e01b815260040162002a569392919062006aae565b6020604051808303816000875af115801562002a76573d6000803e3d6000fd5b505050506040513d601f19601f8201168201806040525081019062002a9c919062006a7c565b50505b600034111562002ab45762002ab3620050f6565b5b5050505050565b60dd60009054906101000a900473ffffffffffffffffffffffffffffffffffffffff1681565b62002aeb62004d50565b8060dd60006101000a81548173ffffffffffffffffffffffffffffffffffffffff021916908373ffffffffffffffffffffffffffffffffffffffff16021790555050565b60008062002b3c62004dd5565b600060d46000858152602001908152602001600020604051806101600160405290816000820160009054906101000a900473ffffffffffffffffffffffffffffffffffffffff1673ffffffffffffffffffffffffffffffffffffffff1673ffffffffffffffffffffffffffffffffffffffff16815260200160018201548152602001600282015481526020016003820160009054906101000a900473ffffffffffffffffffffffffffffffffffffffff1673ffffffffffffffffffffffffffffffffffffffff1673ffffffffffffffffffffffffffffffffffffffff1681526020016004820154815260200160058201548152602001600682015481526020016007820160009054906101000a900460020b60020b60020b81526020016007820160039054906101000a900460020b60020b60020b81526020016007820160069054906101000a900460020b60020b60020b81526020016007820160099054906101000a900460020b60020b60020b8152505090503373ffffffffffffffffffffffffffffffffffffffff16816000015173ffffffffffffffffffffffffffffffffffffffff161462002d26576040517f08c379a000000000000000000000000000000000000000000000000000000000815260040162002d1d906200705f565b60405180910390fd5b60d65462002d3485620015a0565b1062002d77576040517f08c379a000000000000000000000000000000000000000000000000000000000815260040162002d6e9062006e66565b60405180910390fd5b62002d828462005117565b80935081945050505062002d9562004e27565b915091565b60d75481565b60d36020528060005260406000206000915090505481565b60dc60009054906101000a900460ff1681565b60d25481565b60d060149054906101000a900460ff1681565b600080600062002df48462003af4565b9150915060d060159054906101000a900460ff16600a62002e16919062006967565b62002e4360d060009054906101000a900473ffffffffffffffffffffffffffffffffffffffff16620039a5565b8262002e50919062006510565b62002e5c91906200658a565b60d060149054906101000a900460ff16600a62002e7a919062006967565b62002ea760cf60009054906101000a900473ffffffffffffffffffffffffffffffffffffffff16620039a5565b8462002eb4919062006510565b62002ec091906200658a565b62002ecc9190620069b8565b92505050919050565b60d85481565b60da5481565b600080600062002ef0620011a3565b9050600060d46000868152602001908152602001600020600501541462002fab578073ffffffffffffffffffffffffffffffffffffffff166313c8e60d60d46000878152602001908152602001600020600501546040518263ffffffff1660e01b815260040162002f62919062005d6b565b6040805180830381865afa15801562002f7f573d6000803e3d6000fd5b505050506040513d601f19601f8201168201806040525081019062002fa5919062006fc8565b50809350505b600060d46000868152602001908152602001600020600601541462003064578073ffffffffffffffffffffffffffffffffffffffff166313c8e60d60d46000878152602001908152602001600020600601546040518263ffffffff1660e01b81526004016200301b919062005d6b565b6040805180830381865afa15801562003038573d6000803e3d6000fd5b505050506040513d601f19601f820116820180604052508101906200305e919062006fc8565b50809250505b50915091565b60008060d060159054906101000a900460ff16600a6200308b919062006967565b620030b860d060009054906101000a900473ffffffffffffffffffffffffffffffffffffffff16620039a5565b86620030c5919062006510565b620030d191906200658a565b60d060149054906101000a900460ff16600a620030ef919062006967565b6200311c60cf60009054906101000a900473ffffffffffffffffffffffffffffffffffffffff16620039a5565b8862003129919062006510565b6200313591906200658a565b620031419190620069b8565b9050600060d060159054906101000a900460ff16600a62003163919062006967565b6200319060d060009054906101000a900473ffffffffffffffffffffffffffffffffffffffff16620039a5565b856200319d919062006510565b620031a991906200658a565b60d060149054906101000a900460ff16600a620031c7919062006967565b620031f460cf60009054906101000a900473ffffffffffffffffffffffffffffffffffffffff16620039a5565b8762003201919062006510565b6200320d91906200658a565b620032199190620069b8565b90508082620032299190620069b8565b6127108262003239919062006510565b6200324591906200658a565b92505050949350505050565b6200325b62004d50565b8060ce60006101000a81548173ffffffffffffffffffffffffffffffffffffffff021916908373ffffffffffffffffffffffffffffffffffffffff16021790555050565b6000806000620032af8462002ee1565b9150915060d060159054906101000a900460ff16600a620032d1919062006967565b620032fe60d060009054906101000a900473ffffffffffffffffffffffffffffffffffffffff16620039a5565b826200330b919062006510565b6200331791906200658a565b60d060149054906101000a900460ff16600a62003335919062006967565b6200336260cf60009054906101000a900473ffffffffffffffffffffffffffffffffffffffff16620039a5565b846200336f919062006510565b6200337b91906200658a565b620033879190620069b8565b92505050919050565b6200339a62005a75565b60d46000838152602001908152602001600020604051806101600160405290816000820160009054906101000a900473ffffffffffffffffffffffffffffffffffffffff1673ffffffffffffffffffffffffffffffffffffffff1673ffffffffffffffffffffffffffffffffffffffff16815260200160018201548152602001600282015481526020016003820160009054906101000a900473ffffffffffffffffffffffffffffffffffffffff1673ffffffffffffffffffffffffffffffffffffffff1673ffffffffffffffffffffffffffffffffffffffff1681526020016004820154815260200160058201548152602001600682015481526020016007820160009054906101000a900460020b60020b60020b81526020016007820160039054906101000a900460020b60020b60020b81526020016007820160069054906101000a900460020b60020b60020b81526020016007820160099054906101000a900460020b60020b60020b815250509050919050565b60d15481565b60cd60009054906101000a900473ffffffffffffffffffffffffffffffffffffffff1681565b6200354862004dd5565b600060d46000838152602001908152602001600020604051806101600160405290816000820160009054906101000a900473ffffffffffffffffffffffffffffffffffffffff1673ffffffffffffffffffffffffffffffffffffffff1673ffffffffffffffffffffffffffffffffffffffff16815260200160018201548152602001600282015481526020016003820160009054906101000a900473ffffffffffffffffffffffffffffffffffffffff1673ffffffffffffffffffffffffffffffffffffffff1673ffffffffffffffffffffffffffffffffffffffff1681526020016004820154815260200160058201548152602001600682015481526020016007820160009054906101000a900460020b60020b60020b81526020016007820160039054906101000a900460020b60020b60020b81526020016007820160069054906101000a900460020b60020b60020b81526020016007820160099054906101000a900460020b60020b60020b815250509050600073ffffffffffffffffffffffffffffffffffffffff16816000015173ffffffffffffffffffffffffffffffffffffffff160362003733576040517f08c379a00000000000000000000000000000000000000000000000000000000081526004016200372a90620070d1565b60405180910390fd5b60d6546200374183620015a0565b1162003784576040517f08c379a00000000000000000000000000000000000000000000000000000000081526004016200377b9062007143565b60405180910390fd5b60dc60009054906101000a900460ff16620038295760db60003373ffffffffffffffffffffffffffffffffffffffff1673ffffffffffffffffffffffffffffffffffffffff16815260200190815260200160002060009054906101000a900460ff1662003828576040517f08c379a00000000000000000000000000000000000000000000000000000000081526004016200381f90620071b5565b60405180910390fd5b5b600080600080600080866060015173ffffffffffffffffffffffffffffffffffffffff16637498a0f0336040518263ffffffff1660e01b815260040162003871919062005c18565b60e0604051808303816000875af115801562003891573d6000803e3d6000fd5b505050506040513d601f19601f82011682018060405250810190620038b79190620071d7565b96509650965096509650965050866000015173ffffffffffffffffffffffffffffffffffffffff167fc3e1cf5bc06ded072b3997d8e219fa6a0d859e8a2243a667ffda13c113e2769360ca548a8989898989894260405162003922999897969594939291906200728a565b60405180910390a2600080620039388a62002ee1565b915091506000821480156200394d5750600081145b6200398f576040517f08c379a0000000000000000000000000000000000000000000000000000000008152600401620039869062007379565b60405180910390fd5b505050505050505050620039a262004e27565b50565b600060cc60009054906101000a900473ffffffffffffffffffffffffffffffffffffffff1673ffffffffffffffffffffffffffffffffffffffff1663b93f9b0a60646040518263ffffffff1660e01b815260040162003a05919062005d6b565b602060405180830381865afa15801562003a23573d6000803e3d6000fd5b505050506040513d601f19601f8201168201806040525081019062003a4991906200643d565b73ffffffffffffffffffffffffffffffffffffffff1663d02641a0836040518263ffffffff1660e01b815260040162003a83919062005c18565b602060405180830381865afa15801562003aa1573d6000803e3d6000fd5b505050506040513d601f19601f8201168201806040525081019062003ac7919062006a7c565b9050919050565b60d060009054906101000a900473ffffffffffffffffffffffffffffffffffffffff1681565b60008062003b1860d46000858152602001908152602001600020600401546200257e565b91509150915091565b60d65481565b60ce60009054906101000a900473ffffffffffffffffffffffffffffffffffffffff1681565b6000609760009054906101000a900473ffffffffffffffffffffffffffffffffffffffff16905090565b600060cc60009054906101000a900473ffffffffffffffffffffffffffffffffffffffff1673ffffffffffffffffffffffffffffffffffffffff1663b93f9b0a600c6040518263ffffffff1660e01b815260040162003bd7919062005d6b565b602060405180830381865afa15801562003bf5573d6000803e3d6000fd5b505050506040513d601f19601f8201168201806040525081019062003c1b91906200643d565b905090565b62003c2a62004dd5565b600060d46000838152602001908152602001600020604051806101600160405290816000820160009054906101000a900473ffffffffffffffffffffffffffffffffffffffff1673ffffffffffffffffffffffffffffffffffffffff1673ffffffffffffffffffffffffffffffffffffffff16815260200160018201548152602001600282015481526020016003820160009054906101000a900473ffffffffffffffffffffffffffffffffffffffff1673ffffffffffffffffffffffffffffffffffffffff1673ffffffffffffffffffffffffffffffffffffffff1681526020016004820154815260200160058201548152602001600682015481526020016007820160009054906101000a900460020b60020b60020b81526020016007820160039054906101000a900460020b60020b60020b81526020016007820160069054906101000a900460020b60020b60020b81526020016007820160099054906101000a900460020b60020b60020b815250509050600060cc60009054906101000a900473ffffffffffffffffffffffffffffffffffffffff1673ffffffffffffffffffffffffffffffffffffffff1663b93f9b0a61012e6040518263ffffffff1660e01b815260040162003e00919062005d6b565b602060405180830381865afa15801562003e1e573d6000803e3d6000fd5b505050506040513d601f19601f8201168201806040525081019062003e4491906200643d565b73ffffffffffffffffffffffffffffffffffffffff1663040a5dc160dc60019054906101000a900473ffffffffffffffffffffffffffffffffffffffff166040518263ffffffff1660e01b815260040162003ea0919062005c18565b602060405180830381865afa15801562003ebe573d6000803e3d6000fd5b505050506040513d601f19601f8201168201806040525081019062003ee49190620067e1565b9050600082610140015160020b1415801562003f0a575081610140015160020b8160020b125b8062003f365750600082610120015160020b1415801562003f35575081610120015160020b8160020b135b5b1562003f4f5762003f478362005117565b505062003f8c565b6040517f08c379a000000000000000000000000000000000000000000000000000000000815260040162003f839062007411565b60405180910390fd5b60d65462003f9a84620015a0565b1062003fdd576040517f08c379a000000000000000000000000000000000000000000000000000000000815260040162003fd49062006e66565b60405180910390fd5b505062003fe962004e27565b50565b62003ff662004d50565b600062004002620011a3565b905060cf60009054906101000a900473ffffffffffffffffffffffffffffffffffffffff1673ffffffffffffffffffffffffffffffffffffffff1663095ea7b3827fffffffffffffffffffffffffffffffffffffffffffffffffffffffffffffffff6040518363ffffffff1660e01b81526004016200408392919062007433565b6020604051808303816000875af1158015620040a3573d6000803e3d6000fd5b505050506040513d601f19601f82011682018060405250810190620040c9919062007477565b5060d060009054906101000a900473ffffffffffffffffffffffffffffffffffffffff1673ffffffffffffffffffffffffffffffffffffffff1663095ea7b3827fffffffffffffffffffffffffffffffffffffffffffffffffffffffffffffffff6040518363ffffffff1660e01b81526004016200414992919062007433565b6020604051808303816000875af115801562004169573d6000803e3d6000fd5b505050506040513d601f19601f820116820180604052508101906200418f919062007477565b508260d1819055508160d281905550505050565b620041ad62004d50565b80609760006101000a81548173ffffffffffffffffffffffffffffffffffffffff021916908373ffffffffffffffffffffffffffffffffffffffff1602179055508073ffffffffffffffffffffffffffffffffffffffff166200420f62002778565b73ffffffffffffffffffffffffffffffffffffffff167f38d16b8cac22d99fc7c124b9cd0de2d3fa1faef420bfe791d8c362d765e2270060405160405180910390a350565b600060cc60009054906101000a900473ffffffffffffffffffffffffffffffffffffffff1673ffffffffffffffffffffffffffffffffffffffff1663b93f9b0a600d6040518263ffffffff1660e01b8152600401620042b4919062005d6b565b602060405180830381865afa158015620042d2573d6000803e3d6000fd5b505050506040513d601f19601f82011682018060405250810190620042f891906200643d565b905090565b60008060019054906101000a900460ff161590508080156200432f5750600160008054906101000a900460ff1660ff16105b806200436057506200434130620053f7565b1580156200435f5750600160008054906101000a900460ff1660ff16145b5b620043a2576040517f08c379a000000000000000000000000000000000000000000000000000000000815260040162004399906200751f565b60405180910390fd5b60016000806101000a81548160ff021916908360ff1602179055508015620043e0576001600060016101000a81548160ff0219169083151502179055505b6200446a8573ffffffffffffffffffffffffffffffffffffffff1663b93f9b0a60016040518263ffffffff1660e01b815260040162004420919062005d6b565b602060405180830381865afa1580156200443e573d6000803e3d6000fd5b505050506040513d601f19601f820116820180604052508101906200446491906200643d565b6200541a565b620044746200545e565b6200447e620054bc565b8273ffffffffffffffffffffffffffffffffffffffff16630dfe16816040518163ffffffff1660e01b8152600401602060405180830381865afa158015620044ca573d6000803e3d6000fd5b505050506040513d601f19601f82011682018060405250810190620044f091906200643d565b60cf60006101000a81548173ffffffffffffffffffffffffffffffffffffffff021916908373ffffffffffffffffffffffffffffffffffffffff1602179055508273ffffffffffffffffffffffffffffffffffffffff1663d21220a76040518163ffffffff1660e01b8152600401602060405180830381865afa1580156200457c573d6000803e3d6000fd5b505050506040513d601f19601f82011682018060405250810190620045a291906200643d565b60d060006101000a81548173ffffffffffffffffffffffffffffffffffffffff021916908373ffffffffffffffffffffffffffffffffffffffff16021790555060cf60009054906101000a900473ffffffffffffffffffffffffffffffffffffffff1673ffffffffffffffffffffffffffffffffffffffff1663313ce5676040518163ffffffff1660e01b8152600401602060405180830381865afa15801562004650573d6000803e3d6000fd5b505050506040513d601f19601f8201168201806040525081019062004676919062007572565b60d060146101000a81548160ff021916908360ff16021790555060d060009054906101000a900473ffffffffffffffffffffffffffffffffffffffff1673ffffffffffffffffffffffffffffffffffffffff1663313ce5676040518163ffffffff1660e01b8152600401602060405180830381865afa158015620046fe573d6000803e3d6000fd5b505050506040513d601f19601f8201168201806040525081019062004724919062007572565b60d060156101000a81548160ff021916908360ff1602179055508460cc60006101000a81548173ffffffffffffffffffffffffffffffffffffffff021916908373ffffffffffffffffffffffffffffffffffffffff1602179055508360cd60006101000a81548173ffffffffffffffffffffffffffffffffffffffff021916908373ffffffffffffffffffffffffffffffffffffffff160217905550600160cb819055508260dc60016101000a81548173ffffffffffffffffffffffffffffffffffffffff021916908373ffffffffffffffffffffffffffffffffffffffff16021790555061219860d6819055506101f460d781905550610bb860d9819055506402540be40060da819055508160ce60006101000a81548173ffffffffffffffffffffffffffffffffffffffff021916908373ffffffffffffffffffffffffffffffffffffffff1602179055508015620048cd5760008060016101000a81548160ff0219169083151502179055507f7f26b83ff96e1f2b6a682f133852f6798a09c465da95921460cefb38474024986001604051620048c49190620075e7565b60405180910390a15b5050505050565b60db6020528060005260406000206000915054906101000a900460ff1681565b620048fe62004dd5565b600060d4600083600001358152602001908152602001600020604051806101600160405290816000820160009054906101000a900473ffffffffffffffffffffffffffffffffffffffff1673ffffffffffffffffffffffffffffffffffffffff1673ffffffffffffffffffffffffffffffffffffffff16815260200160018201548152602001600282015481526020016003820160009054906101000a900473ffffffffffffffffffffffffffffffffffffffff1673ffffffffffffffffffffffffffffffffffffffff1673ffffffffffffffffffffffffffffffffffffffff1681526020016004820154815260200160058201548152602001600682015481526020016007820160009054906101000a900460020b60020b60020b81526020016007820160039054906101000a900460020b60020b60020b81526020016007820160069054906101000a900460020b60020b60020b81526020016007820160099054906101000a900460020b60020b60020b8152505090503373ffffffffffffffffffffffffffffffffffffffff16816000015173ffffffffffffffffffffffffffffffffffffffff161462004aec576040517f08c379a000000000000000000000000000000000000000000000000000000000815260040162004ae39062007654565b60405180910390fd5b600082602001602081019062004b0391906200768d565b6fffffffffffffffffffffffffffffffff1611801562004b4a575061271082602001602081019062004b3691906200768d565b6fffffffffffffffffffffffffffffffff16105b62004b8c576040517f08c379a000000000000000000000000000000000000000000000000000000000815260040162004b83906200770f565b60405180910390fd5b60d65462004b9e8360000135620015a0565b1062004be1576040517f08c379a000000000000000000000000000000000000000000000000000000000815260040162004bd890620064bf565b60405180910390fd5b6000816060015173ffffffffffffffffffffffffffffffffffffffff1663a2e0836184602001602081019062004c1891906200768d565b856040013586606001356040518463ffffffff1660e01b815260040162004c429392919062007731565b6060604051808303816000875af115801562004c62573d6000803e3d6000fd5b505050506040513d601f19601f8201168201806040525081019062004c8891906200776e565b5050905060da5462004c9e836080015162001a8d565b1162004ce1576040517f08c379a000000000000000000000000000000000000000000000000000000000815260040162004cd89062006d44565b60405180910390fd5b816000015173ffffffffffffffffffffffffffffffffffffffff167fd538132ec69e68055535d80e78ebfeb5f84d6354e347a7c5b7b7b51dc4ccff0760ca548560000135844260405162004d399493929190620077ca565b60405180910390a2505062004d4d62004e27565b50565b62004d5a6200510f565b73ffffffffffffffffffffffffffffffffffffffff1662004d7a62002778565b73ffffffffffffffffffffffffffffffffffffffff161462004dd3576040517f08c379a000000000000000000000000000000000000000000000000000000000815260040162004dca9062007867565b60405180910390fd5b565b60026001540362004e1d576040517f08c379a000000000000000000000000000000000000000000000000000000000815260040162004e1490620078d9565b60405180910390fd5b6002600181905550565b60018081905550565b60c960009054906101000a900473ffffffffffffffffffffffffffffffffffffffff1673ffffffffffffffffffffffffffffffffffffffff168473ffffffffffffffffffffffffffffffffffffffff1614801562004e8e5750804710155b15620050065760c960009054906101000a900473ffffffffffffffffffffffffffffffffffffffff1673ffffffffffffffffffffffffffffffffffffffff1663d0e30db0826040518263ffffffff1660e01b81526004016000604051808303818588803b15801562004eff57600080fd5b505af115801562004f14573d6000803e3d6000fd5b505050505060c960009054906101000a900473ffffffffffffffffffffffffffffffffffffffff1673ffffffffffffffffffffffffffffffffffffffff1663a9059cbb83836040518363ffffffff1660e01b815260040162004f7892919062007433565b6020604051808303816000875af115801562004f98573d6000803e3d6000fd5b505050506040513d601f19601f8201168201806040525081019062004fbe919062007477565b62005000576040517f08c379a000000000000000000000000000000000000000000000000000000000815260040162004ff7906200794b565b60405180910390fd5b6200505d565b3073ffffffffffffffffffffffffffffffffffffffff168373ffffffffffffffffffffffffffffffffffffffff16036200504d57620050478483836200551a565b6200505c565b6200505b848484846200567c565b5b5b50505050565b609760006101000a81549073ffffffffffffffffffffffffffffffffffffffff02191690556200509381620057e1565b50565b60008060cb54604051620050aa9062005b07565b620050b6919062005d6b565b604051809103906000f080158015620050d3573d6000803e3d6000fd5b50905060cb549150600160cb54620050ec9190620069b8565b60cb819055509091565b60004711156200510d576200510c3347620058a7565b5b565b600033905090565b600080600060d46000858152602001908152602001600020604051806101600160405290816000820160009054906101000a900473ffffffffffffffffffffffffffffffffffffffff1673ffffffffffffffffffffffffffffffffffffffff1673ffffffffffffffffffffffffffffffffffffffff16815260200160018201548152602001600282015481526020016003820160009054906101000a900473ffffffffffffffffffffffffffffffffffffffff1673ffffffffffffffffffffffffffffffffffffffff1673ffffffffffffffffffffffffffffffffffffffff1681526020016004820154815260200160058201548152602001600682015481526020016007820160009054906101000a900460020b60020b60020b81526020016007820160039054906101000a900460020b60020b60020b81526020016007820160069054906101000a900460020b60020b60020b81526020016007820160099054906101000a900460020b60020b60020b8152505090506000806000806000856060015173ffffffffffffffffffffffffffffffffffffffff1663c393d0e36040518163ffffffff1660e01b815260040160a0604051808303816000875af1158015620052e9573d6000803e3d6000fd5b505050506040513d601f19601f820116820180604052508101906200530f91906200796d565b94509450945094509450600080620053278b62002ee1565b915091506000821480156200533c5750600081145b6200537e576040517f08c379a0000000000000000000000000000000000000000000000000000000008152600401620053759062007379565b60405180910390fd5b876000015173ffffffffffffffffffffffffffffffffffffffff167fec21b4e84a20bdf294ee4e9ea2d0beb3a02904c7787ddcca9c5025f623c0cedc60ca548d8b606001518a8a8d42604051620053dc9796959493929190620079f5565b60405180910390a28383995099505050505050505050915091565b6000808273ffffffffffffffffffffffffffffffffffffffff163b119050919050565b8060c960006101000a81548173ffffffffffffffffffffffffffffffffffffffff021916908373ffffffffffffffffffffffffffffffffffffffff16021790555050565b600060019054906101000a900460ff16620054b0576040517f08c379a0000000000000000000000000000000000000000000000000000000008152600401620054a79062007ae8565b60405180910390fd5b620054ba620059b2565b565b600060019054906101000a900460ff166200550e576040517f08c379a0000000000000000000000000000000000000000000000000000000008152600401620055059062007ae8565b60405180910390fd5b6200551862005a0d565b565b6000808473ffffffffffffffffffffffffffffffffffffffff1663a9059cbb60e01b85856040516024016200555192919062007433565b604051602081830303815290604052907bffffffffffffffffffffffffffffffffffffffffffffffffffffffff19166020820180517bffffffffffffffffffffffffffffffffffffffffffffffffffffffff8381831617835250505050604051620055bd919062007b57565b6000604051808303816000865af19150503d8060008114620055fc576040519150601f19603f3d011682016040523d82523d6000602084013e62005601565b606091505b50915091508180156200563357506000815114806200563257508080602001905181019062005631919062007477565b5b5b62005675576040517f08c379a00000000000000000000000000000000000000000000000000000000081526004016200566c9062007bc0565b60405180910390fd5b5050505050565b6000808573ffffffffffffffffffffffffffffffffffffffff166323b872dd60e01b868686604051602401620056b59392919062007be2565b604051602081830303815290604052907bffffffffffffffffffffffffffffffffffffffffffffffffffffffff19166020820180517bffffffffffffffffffffffffffffffffffffffffffffffffffffffff838183161783525050505060405162005721919062007b57565b6000604051808303816000865af19150503d806000811462005760576040519150601f19603f3d011682016040523d82523d6000602084013e62005765565b606091505b50915091508180156200579757506000815114806200579657508080602001905181019062005795919062007477565b5b5b620057d9576040517f08c379a0000000000000000000000000000000000000000000000000000000008152600401620057d09062007c6f565b60405180910390fd5b505050505050565b6000606560009054906101000a900473ffffffffffffffffffffffffffffffffffffffff16905081606560006101000a81548173ffffffffffffffffffffffffffffffffffffffff021916908373ffffffffffffffffffffffffffffffffffffffff1602179055508173ffffffffffffffffffffffffffffffffffffffff168173ffffffffffffffffffffffffffffffffffffffff167f8be0079c531659141344cd1fd0a4f28419497f9722a3daafe3b4186f6b6457e060405160405180910390a35050565b60008273ffffffffffffffffffffffffffffffffffffffff1682600067ffffffffffffffff811115620058df57620058de62007c91565b5b6040519080825280601f01601f191660200182016040528015620059125781602001600182028036833780820191505090505b5060405162005922919062007b57565b60006040518083038185875af1925050503d806000811462005961576040519150601f19603f3d011682016040523d82523d6000602084013e62005966565b606091505b5050905080620059ad576040517f08c379a0000000000000000000000000000000000000000000000000000000008152600401620059a49062007d10565b60405180910390fd5b505050565b600060019054906101000a900460ff1662005a04576040517f08c379a0000000000000000000000000000000000000000000000000000000008152600401620059fb9062007ae8565b60405180910390fd5b60018081905550565b600060019054906101000a900460ff1662005a5f576040517f08c379a000000000000000000000000000000000000000000000000000000000815260040162005a569062007ae8565b60405180910390fd5b62005a7362005a6d6200510f565b62005063565b565b604051806101600160405280600073ffffffffffffffffffffffffffffffffffffffff1681526020016000815260200160008152602001600073ffffffffffffffffffffffffffffffffffffffff168152602001600081526020016000815260200160008152602001600060020b8152602001600060020b8152602001600060020b8152602001600060020b81525090565b6109f58062007d3383390190565b600081519050919050565b600082825260208201905092915050565b60005b8381101562005b5157808201518184015260208101905062005b34565b60008484015250505050565b6000601f19601f8301169050919050565b600062005b7b8262005b15565b62005b87818562005b20565b935062005b9981856020860162005b31565b62005ba48162005b5d565b840191505092915050565b6000602082019050818103600083015262005bcb818462005b6e565b905092915050565b600073ffffffffffffffffffffffffffffffffffffffff82169050919050565b600062005c008262005bd3565b9050919050565b62005c128162005bf3565b82525050565b600060208201905062005c2f600083018462005c07565b92915050565b600080fd5b6000819050919050565b62005c4f8162005c3a565b811462005c5b57600080fd5b50565b60008135905062005c6f8162005c44565b92915050565b60006020828403121562005c8e5762005c8d62005c35565b5b600062005c9e8482850162005c5e565b91505092915050565b600060ff82169050919050565b62005cbf8162005ca7565b82525050565b600060208201905062005cdc600083018462005cb4565b92915050565b62005ced8162005bf3565b811462005cf957600080fd5b50565b60008135905062005d0d8162005ce2565b92915050565b6000806040838503121562005d2d5762005d2c62005c35565b5b600062005d3d8582860162005cfc565b925050602062005d508582860162005c5e565b9150509250929050565b62005d658162005c3a565b82525050565b600060208201905062005d82600083018462005d5a565b92915050565b60008160020b9050919050565b62005da08162005d88565b82525050565b60006101608201905062005dbe600083018e62005c07565b62005dcd602083018d62005d5a565b62005ddc604083018c62005d5a565b62005deb606083018b62005c07565b62005dfa608083018a62005d5a565b62005e0960a083018962005d5a565b62005e1860c083018862005d5a565b62005e2760e083018762005d95565b62005e3761010083018662005d95565b62005e4761012083018562005d95565b62005e5761014083018462005d95565b9c9b505050505050505050505050565b6000806040838503121562005e815762005e8062005c35565b5b600062005e918582860162005c5e565b925050602062005ea48582860162005c5e565b9150509250929050565b60006020828403121562005ec75762005ec662005c35565b5b600062005ed78482850162005cfc565b91505092915050565b600081519050919050565b600082825260208201905092915050565b6000819050602082019050919050565b62005f178162005c3a565b82525050565b600062005f2b838362005f0c565b60208301905092915050565b6000602082019050919050565b600062005f518262005ee0565b62005f5d818562005eeb565b935062005f6a8362005efc565b8060005b8381101562005fa157815162005f85888262005f1d565b975062005f928362005f37565b92505060018101905062005f6e565b5085935050505092915050565b6000602082019050818103600083015262005fca818462005f44565b905092915050565b60008115159050919050565b62005fe98162005fd2565b811462005ff557600080fd5b50565b600081359050620060098162005fde565b92915050565b6000806040838503121562006029576200602862005c35565b5b6000620060398582860162005cfc565b92505060206200604c8582860162005ff8565b9150509250929050565b60006020820190506200606d600083018462005d95565b92915050565b6000602082840312156200608c576200608b62005c35565b5b60006200609c8482850162005ff8565b91505092915050565b600080fd5b60006101a08284031215620060c457620060c3620060a5565b5b81905092915050565b60006101a08284031215620060e757620060e662005c35565b5b6000620060f784828501620060aa565b91505092915050565b600060408201905062006117600083018562005d5a565b62006126602083018462005d5a565b9392505050565b60008060006060848603121562006149576200614862005c35565b5b6000620061598682870162005c5e565b93505060206200616c8682870162005c5e565b92505060406200617f8682870162005c5e565b9150509250925092565b620061948162005fd2565b82525050565b6000602082019050620061b1600083018462006189565b92915050565b60008060008060808587031215620061d457620061d362005c35565b5b6000620061e48782880162005c5e565b9450506020620061f78782880162005c5e565b93505060406200620a8782880162005c5e565b92505060606200621d8782880162005c5e565b91505092959194509250565b620062348162005bf3565b82525050565b620062458162005d88565b82525050565b6101608201600082015162006264600085018262006229565b50602082015162006279602085018262005f0c565b5060408201516200628e604085018262005f0c565b506060820151620062a3606085018262006229565b506080820151620062b8608085018262005f0c565b5060a0820151620062cd60a085018262005f0c565b5060c0820151620062e260c085018262005f0c565b5060e0820151620062f760e08501826200623a565b506101008201516200630e6101008501826200623a565b50610120820151620063256101208501826200623a565b506101408201516200633c6101408501826200623a565b50505050565b6000610160820190506200635a60008301846200624b565b92915050565b600080600080608085870312156200637d576200637c62005c35565b5b60006200638d8782880162005cfc565b9450506020620063a08782880162005cfc565b9350506040620063b38782880162005cfc565b9250506060620063c68782880162005cfc565b91505092959194509250565b600060808284031215620063eb57620063ea620060a5565b5b81905092915050565b6000608082840312156200640d576200640c62005c35565b5b60006200641d84828501620063d2565b91505092915050565b600081519050620064378162005ce2565b92915050565b60006020828403121562006456576200645562005c35565b5b6000620064668482850162006426565b91505092915050565b7f4465627420726174696f20697320746f6f206869676800000000000000000000600082015250565b6000620064a760168362005b20565b9150620064b4826200646f565b602082019050919050565b60006020820190508181036000830152620064da8162006498565b9050919050565b7f4e487b7100000000000000000000000000000000000000000000000000000000600052601160045260246000fd5b60006200651d8262005c3a565b91506200652a8362005c3a565b92508282026200653a8162005c3a565b91508282048414831517620065545762006553620064e1565b5b5092915050565b7f4e487b7100000000000000000000000000000000000000000000000000000000600052601260045260246000fd5b6000620065978262005c3a565b9150620065a48362005c3a565b925082620065b757620065b66200655b565b5b828204905092915050565b7f4953000000000000000000000000000000000000000000000000000000000000600082015250565b6000620065fa60028362005b20565b91506200660782620065c2565b602082019050919050565b600060208201905081810360008301526200662d81620065eb565b9050919050565b7f5641520000000000000000000000000000000000000000000000000000000000600082015250565b60006200666c60038362005b20565b9150620066798262006634565b602082019050919050565b600060208201905081810360008301526200669f816200665d565b9050919050565b7f4e6f74206120706f736974696f6e000000000000000000000000000000000000600082015250565b6000620066de600e8362005b20565b9150620066eb82620066a6565b602082019050919050565b600060208201905081810360008301526200671181620066cf565b9050919050565b6000620067258262005c3a565b9150620067328362005c3a565b92508282039050818111156200674d576200674c620064e1565b5b92915050565b600060a0820190506200676a600083018862005d5a565b62006779602083018762005d5a565b62006788604083018662005c07565b62006797606083018562005d5a565b620067a6608083018462005d5a565b9695505050505050565b620067bb8162005d88565b8114620067c757600080fd5b50565b600081519050620067db81620067b0565b92915050565b600060208284031215620067fa57620067f962005c35565b5b60006200680a84828501620067ca565b91505092915050565b60008160011c9050919050565b6000808291508390505b600185111562006872578086048111156200684a5762006849620064e1565b5b60018516156200685a5780820291505b80810290506200686a8562006813565b94506200682a565b94509492505050565b6000826200688d576001905062006960565b816200689d576000905062006960565b8160018114620068b65760028114620068c157620068f7565b600191505062006960565b60ff841115620068d657620068d5620064e1565b5b8360020a915084821115620068f057620068ef620064e1565b5b5062006960565b5060208310610133831016604e8410600b8410161715620069315782820a9050838111156200692b576200692a620064e1565b5b62006960565b62006940848484600162006820565b925090508184048111156200695a5762006959620064e1565b5b81810290505b9392505050565b6000620069748262005c3a565b9150620069818362005ca7565b9250620069b07fffffffffffffffffffffffffffffffffffffffffffffffffffffffffffffffff84846200687b565b905092915050565b6000620069c58262005c3a565b9150620069d28362005c3a565b9250828201905080821115620069ed57620069ec620064e1565b5b92915050565b7f4400000000000000000000000000000000000000000000000000000000000000600082015250565b600062006a2b60018362005b20565b915062006a3882620069f3565b602082019050919050565b6000602082019050818103600083015262006a5e8162006a1c565b9050919050565b60008151905062006a768162005c44565b92915050565b60006020828403121562006a955762006a9462005c35565b5b600062006aa58482850162006a65565b91505092915050565b600060608201905062006ac5600083018662005c07565b62006ad4602083018562005d5a565b62006ae3604083018462005d5a565b949350505050565b7f426f72726f772076616c756520697320746f6f20686967680000000000000000600082015250565b600062006b2360188362005b20565b915062006b308262006aeb565b602082019050919050565b6000602082019050818103600083015262006b568162006b14565b9050919050565b60008135905062006b6e81620067b0565b92915050565b60006020828403121562006b8d5762006b8c62005c35565b5b600062006b9d8482850162006b5d565b91505092915050565b60a08201600082015162006bbe600085018262005f0c565b50602082015162006bd3602085018262005f0c565b50604082015162006be860408501826200623a565b50606082015162006bfd60608501826200623a565b50608082015162006c12608085018262006229565b50505050565b600060a08201905062006c2f600083018462006ba6565b92915050565b60006fffffffffffffffffffffffffffffffff82169050919050565b62006c5c8162006c35565b811462006c6857600080fd5b50565b60008151905062006c7c8162006c51565b92915050565b6000806000806080858703121562006c9f5762006c9e62005c35565b5b600062006caf8782880162006a65565b945050602062006cc28782880162006c6b565b935050604062006cd58782880162006a65565b925050606062006ce88782880162006a65565b91505092959194509250565b7f50564c0000000000000000000000000000000000000000000000000000000000600082015250565b600062006d2c60038362005b20565b915062006d398262006cf4565b602082019050919050565b6000602082019050818103600083015262006d5f8162006d1d565b9050919050565b62006d718162006c35565b82525050565b60006101208201905062006d8f600083018c62005d5a565b62006d9e602083018b62005d5a565b62006dad604083018a62005c07565b62006dbc606083018962005d5a565b62006dcb608083018862005d5a565b62006dda60a083018762005d5a565b62006de960c083018662005d5a565b62006df860e083018562006d66565b62006e0861010083018462005d5a565b9a9950505050505050505050565b7f4452480000000000000000000000000000000000000000000000000000000000600082015250565b600062006e4e60038362005b20565b915062006e5b8262006e16565b602082019050919050565b6000602082019050818103600083015262006e818162006e3f565b9050919050565b7f4f776e61626c6532537465703a2063616c6c6572206973206e6f74207468652060008201527f6e6577206f776e65720000000000000000000000000000000000000000000000602082015250565b600062006ee660298362005b20565b915062006ef38262006e88565b604082019050919050565b6000602082019050818103600083015262006f198162006ed7565b9050919050565b6000819050919050565b600062006f4b62006f4562006f3f8462005bd3565b62006f20565b62005bd3565b9050919050565b600062006f5f8262006f2a565b9050919050565b600062006f738262006f52565b9050919050565b62006f858162006f66565b82525050565b600060608201905062006fa2600083018662006f7a565b62006fb1602083018562005d5a565b62006fc0604083018462005c07565b949350505050565b6000806040838503121562006fe25762006fe162005c35565b5b600062006ff28582860162006a65565b9250506020620070058582860162006a65565b9150509250929050565b7f4e4f000000000000000000000000000000000000000000000000000000000000600082015250565b60006200704760028362005b20565b915062007054826200700f565b602082019050919050565b600060208201905081810360008301526200707a8162007038565b9050919050565b7f506f736974696f6e20646f6573206e6f74206578697374000000000000000000600082015250565b6000620070b960178362005b20565b9150620070c68262007081565b602082019050919050565b60006020820190508181036000830152620070ec81620070aa565b9050919050565b7f4465627420726174696f20697320746f6f206c6f770000000000000000000000600082015250565b60006200712b60158362005b20565b91506200713882620070f3565b602082019050919050565b600060208201905081810360008301526200715e816200711c565b9050919050565b7f4e6f742061206c697175696461746f7200000000000000000000000000000000600082015250565b60006200719d60108362005b20565b9150620071aa8262007165565b602082019050919050565b60006020820190508181036000830152620071d0816200718e565b9050919050565b600080600080600080600060e0888a031215620071f957620071f862005c35565b5b6000620072098a828b0162006c6b565b97505060206200721c8a828b0162006a65565b96505060406200722f8a828b0162006a65565b9550506060620072428a828b0162006a65565b9450506080620072558a828b0162006a65565b93505060a0620072688a828b0162006a65565b92505060c06200727b8a828b0162006a65565b91505092959891949750929550565b600061012082019050620072a2600083018c62005d5a565b620072b1602083018b62005d5a565b620072c0604083018a62005d5a565b620072cf606083018962005d5a565b620072de608083018862005d5a565b620072ed60a083018762005d5a565b620072fc60c083018662005d5a565b6200730b60e083018562005d5a565b6200731b61010083018462005d5a565b9a9950505050505050505050565b7f5374696c6c206465627400000000000000000000000000000000000000000000600082015250565b600062007361600a8362005b20565b91506200736e8262007329565b602082019050919050565b60006020820190508181036000830152620073948162007352565b9050919050565b7f43757272656e74207469636b206973206e6f7420696e2074686520706f73697460008201527f696f6e2072616e67650000000000000000000000000000000000000000000000602082015250565b6000620073f960298362005b20565b915062007406826200739b565b604082019050919050565b600060208201905081810360008301526200742c81620073ea565b9050919050565b60006040820190506200744a600083018562005c07565b62007459602083018462005d5a565b9392505050565b600081519050620074718162005fde565b92915050565b60006020828403121562007490576200748f62005c35565b5b6000620074a08482850162007460565b91505092915050565b7f496e697469616c697a61626c653a20636f6e747261637420697320616c72656160008201527f647920696e697469616c697a6564000000000000000000000000000000000000602082015250565b600062007507602e8362005b20565b91506200751482620074a9565b604082019050919050565b600060208201905081810360008301526200753a81620074f8565b9050919050565b6200754c8162005ca7565b81146200755857600080fd5b50565b6000815190506200756c8162007541565b92915050565b6000602082840312156200758b576200758a62005c35565b5b60006200759b848285016200755b565b91505092915050565b6000819050919050565b6000620075cf620075c9620075c384620075a4565b62006f20565b62005ca7565b9050919050565b620075e181620075ae565b82525050565b6000602082019050620075fe6000830184620075d6565b92915050565b7f4e6f7420746865206f776e657200000000000000000000000000000000000000600082015250565b60006200763c600d8362005b20565b9150620076498262007604565b602082019050919050565b600060208201905081810360008301526200766f816200762d565b9050919050565b600081359050620076878162006c51565b92915050565b600060208284031215620076a657620076a562005c35565b5b6000620076b68482850162007676565b91505092915050565b7f496e76616c6964207265647563652070657263656e7461676500000000000000600082015250565b6000620076f760198362005b20565b91506200770482620076bf565b602082019050919050565b600060208201905081810360008301526200772a81620076e8565b9050919050565b600060608201905062007748600083018662006d66565b62007757602083018562005d5a565b62007766604083018462005d5a565b949350505050565b6000806000606084860312156200778a576200778962005c35565b5b60006200779a8682870162006c6b565b9350506020620077ad8682870162006a65565b9250506040620077c08682870162006a65565b9150509250925092565b6000608082019050620077e1600083018762005d5a565b620077f0602083018662005d5a565b620077ff604083018562006d66565b6200780e606083018462005d5a565b95945050505050565b7f4f776e61626c653a2063616c6c6572206973206e6f7420746865206f776e6572600082015250565b60006200784f60208362005b20565b91506200785c8262007817565b602082019050919050565b60006020820190508181036000830152620078828162007840565b9050919050565b7f5265656e7472616e637947756172643a207265656e7472616e742063616c6c00600082015250565b6000620078c1601f8362005b20565b9150620078ce8262007889565b602082019050919050565b60006020820190508181036000830152620078f481620078b2565b9050919050565b7f7472616e73666572206661696c65640000000000000000000000000000000000600082015250565b600062007933600f8362005b20565b91506200794082620078fb565b602082019050919050565b60006020820190508181036000830152620079668162007924565b9050919050565b600080600080600060a086880312156200798c576200798b62005c35565b5b60006200799c8882890162006c6b565b9550506020620079af8882890162006a65565b9450506040620079c28882890162006a65565b9350506060620079d58882890162006a65565b9250506080620079e88882890162006a65565b9150509295509295909350565b600060e08201905062007a0c600083018a62005d5a565b62007a1b602083018962005d5a565b62007a2a604083018862005c07565b62007a39606083018762005d5a565b62007a48608083018662005d5a565b62007a5760a083018562006d66565b62007a6660c083018462005d5a565b98975050505050505050565b7f496e697469616c697a61626c653a20636f6e7472616374206973206e6f74206960008201527f6e697469616c697a696e67000000000000000000000000000000000000000000602082015250565b600062007ad0602b8362005b20565b915062007add8262007a72565b604082019050919050565b6000602082019050818103600083015262007b038162007ac1565b9050919050565b600081519050919050565b600081905092915050565b600062007b2d8262007b0a565b62007b39818562007b15565b935062007b4b81856020860162005b31565b80840191505092915050565b600062007b65828462007b20565b915081905092915050565b7f5354000000000000000000000000000000000000000000000000000000000000600082015250565b600062007ba860028362005b20565b915062007bb58262007b70565b602082019050919050565b6000602082019050818103600083015262007bdb8162007b99565b9050919050565b600060608201905062007bf9600083018662005c07565b62007c08602083018562005c07565b62007c17604083018462005d5a565b949350505050565b7f5354460000000000000000000000000000000000000000000000000000000000600082015250565b600062007c5760038362005b20565b915062007c648262007c1f565b602082019050919050565b6000602082019050818103600083015262007c8a8162007c48565b9050919050565b7f4e487b7100000000000000000000000000000000000000000000000000000000600052604160045260246000fd5b7f5354450000000000000000000000000000000000000000000000000000000000600082015250565b600062007cf860038362005b20565b915062007d058262007cc0565b602082019050919050565b6000602082019050818103600083015262007d2b8162007ce9565b905091905056fe60806040523480156200001157600080fd5b50604051620009f5380380620009f58339818101604052810190620000379190620002e9565b60017fb53127684a568b3173ae13b9f8a6016e243e63b6e8ee1178d6a717850b5d610460001c6200006991906200034a565b60001b7fb53127684a568b3173ae13b9f8a6016e243e63b6e8ee1178d6a717850b5d610360001b14620000a157620000a062000385565b5b620000b2336200024960201b60201c565b6000620000c46200027860201b60201c565b73ffffffffffffffffffffffffffffffffffffffff1663d97e14746040518163ffffffff1660e01b8152600401602060405180830381865afa1580156200010f573d6000803e3d6000fd5b505050506040513d601f19601f8201168201806040525081019062000135919062000419565b905060008173ffffffffffffffffffffffffffffffffffffffff16836040516024016200016391906200045c565b6040516020818303038152906040527ffe4b84df000000000000000000000000000000000000000000000000000000007bffffffffffffffffffffffffffffffffffffffffffffffffffffffff19166020820180517bffffffffffffffffffffffffffffffffffffffffffffffffffffffff8381831617835250505050604051620001ef9190620004f2565b600060405180830381855af49150503d80600081146200022c576040519150601f19603f3d011682016040523d82523d6000602084013e62000231565b606091505b50509050806200024057600080fd5b5050506200050b565b60007fb53127684a568b3173ae13b9f8a6016e243e63b6e8ee1178d6a717850b5d610360001b90508181555050565b6000807fb53127684a568b3173ae13b9f8a6016e243e63b6e8ee1178d6a717850b5d610360001b9050805491505090565b600080fd5b6000819050919050565b620002c381620002ae565b8114620002cf57600080fd5b50565b600081519050620002e381620002b8565b92915050565b600060208284031215620003025762000301620002a9565b5b60006200031284828501620002d2565b91505092915050565b7f4e487b7100000000000000000000000000000000000000000000000000000000600052601160045260246000fd5b60006200035782620002ae565b91506200036483620002ae565b92508282039050818111156200037f576200037e6200031b565b5b92915050565b7f4e487b7100000000000000000000000000000000000000000000000000000000600052600160045260246000fd5b600073ffffffffffffffffffffffffffffffffffffffff82169050919050565b6000620003e182620003b4565b9050919050565b620003f381620003d4565b8114620003ff57600080fd5b50565b6000815190506200041381620003e8565b92915050565b600060208284031215620004325762000431620002a9565b5b6000620004428482850162000402565b91505092915050565b6200045681620002ae565b82525050565b60006020820190506200047360008301846200044b565b92915050565b600081519050919050565b600081905092915050565b60005b83811015620004af57808201518184015260208101905062000492565b60008484015250505050565b6000620004c88262000479565b620004d4818562000484565b9350620004e68185602086016200048f565b80840191505092915050565b6000620005008284620004bb565b915081905092915050565b6104da806200051b6000396000f3fe60806040526004361061002d5760003560e01c8063a6f9dae114610046578063b4a99a4e1461006f5761003c565b3661003c5761003a61009a565b005b61004461009a565b005b34801561005257600080fd5b5061006d6004803603810190610068919061033f565b610173565b005b34801561007b57600080fd5b5061008461026d565b604051610091919061037b565b60405180910390f35b60006100a461027c565b73ffffffffffffffffffffffffffffffffffffffff1663d97e14746040518163ffffffff1660e01b8152600401602060405180830381865afa1580156100ee573d6000803e3d6000fd5b505050506040513d601f19601f8201168201806040525081019061011291906103ab565b9050600073ffffffffffffffffffffffffffffffffffffffff168173ffffffffffffffffffffffffffffffffffffffff160361014d57600080fd5b3660008037600080366000845af43d6000803e806000811461016e573d6000f35b3d6000fd5b61017b61027c565b73ffffffffffffffffffffffffffffffffffffffff163373ffffffffffffffffffffffffffffffffffffffff16146101b257600080fd5b600073ffffffffffffffffffffffffffffffffffffffff168173ffffffffffffffffffffffffffffffffffffffff1603610221576040517f08c379a00000000000000000000000000000000000000000000000000000000081526004016102189061045b565b60405180910390fd5b7fb532073b38c83145e3e5135377a08bf9aab55bc0fd7c1179cd4fb995d2a5159c61024a61027c565b8260405161025992919061047b565b60405180910390a161026a816102ad565b50565b600061027761027c565b905090565b6000807fb53127684a568b3173ae13b9f8a6016e243e63b6e8ee1178d6a717850b5d610360001b9050805491505090565b60007fb53127684a568b3173ae13b9f8a6016e243e63b6e8ee1178d6a717850b5d610360001b90508181555050565b600080fd5b600073ffffffffffffffffffffffffffffffffffffffff82169050919050565b600061030c826102e1565b9050919050565b61031c81610301565b811461032757600080fd5b50565b60008135905061033981610313565b92915050565b600060208284031215610355576103546102dc565b5b60006103638482850161032a565b91505092915050565b61037581610301565b82525050565b6000602082019050610390600083018461036c565b92915050565b6000815190506103a581610313565b92915050565b6000602082840312156103c1576103c06102dc565b5b60006103cf84828501610396565b91505092915050565b600082825260208201905092915050565b7f50726f78793a206e6577204f776e657220697320746865207a65726f2061646460008201527f7265737300000000000000000000000000000000000000000000000000000000602082015250565b60006104456024836103d8565b9150610450826103e9565b604082019050919050565b6000602082019050818103600083015261047481610438565b9050919050565b6000604082019050610490600083018561036c565b61049d602083018461036c565b939250505056fea26469706673582212207b78d0f8856b344f96c90b67d0e95fa12b15beaed497961ab74bb1e5848a440f64736f6c63430008120033a2646970667358221220b660e358085f7df665f00a41db5ea922fbc49ec43e2b196e8d0ad25f78e4aad564736f6c63430008120033","linkReferences":{}},"methodIdentifiers":{"WETH9()":"4aa4a4fc","acceptOwnership()":"79ba5097","addressProvider()":"2954018c","claimCallback(address,uint256)":"4d9ebc74","claimRewards(uint256)":"0962ef79","closePosition(uint256)":"a126d601","fullfillLimitOrder(uint256)":"eed41734","getCurrentTick()":"53aad1d9","getDebtRatio(uint256)":"2c35f3fb","getDebtRatioFromAmounts(uint256,uint256,uint256,uint256)":"bf0935cd","getDebtValue(uint256)":"c0177bd5","getLendingPool()":"0261bf8b","getPositionAmounts(uint256)":"d26265e0","getPositionAmountsByNftId(uint256)":"8113a46d","getPositionDebt(uint256)":"bd83eb4c","getPositionIds(address)":"28fe7031","getPositionInfos(uint256)":"c41882b6","getPositionValue(uint256)":"b86a0aaa","getPositionValueByNftId(uint256)":"6e6b7f3a","getTokenPrice(address)":"d02641a0","initialize(address,address,address,address)":"f8c8765e","liquidatePosition(uint256)":"cdddd4e5","liquidationCallerFee()":"baff16b4","liquidationDebtRatio()":"d3b1b8dc","liquidationFee()":"a36a3630","liquidationFeeRecipient()":"f73ce2b1","liquidators(address)":"f90cdb36","minPositionSize()":"bb8313c2","nextPositionID()":"1c824905","onReceiveRegisterCallback(uint256)":"3b0ef4a7","openLiquidationEnabled()":"abf0e88c","openPosition((uint256,uint256,uint256,uint256,uint256,uint256,uint256,uint256,uint256,int24,int24,int24,int24))":"72e962a7","owner()":"8da5cb5b","pendingOwner()":"e30c3978","performanceFee()":"87788782","performanceFeeRecipient()":"ed27f7c9","positionAddressToId(address)":"a95a3489","positionIds(address,uint256)":"144d3aec","positionImplementation()":"d97e1474","positionInfos(uint256)":"17893e3c","reducePosition((uint256,uint128,uint256,uint256))":"fa3a7f29","renounceOwnership()":"715018a6","repayExact(uint256,uint256,uint256)":"959a8835","setLiquidationDebtRatio(uint256)":"3c45845c","setLiquidationFeeParams(uint256,uint256)":"2034d942","setLiquidator(address,bool)":"4453a374","setMinPositionSize(uint256)":"06972dcd","setOpenLiquidationEnabled(bool)":"60dca2a9","setPerformanceFee(uint256)":"70897b23","setPositionImplementation(address)":"bf78f29c","setReserveIds(uint256,uint256)":"ef973ed9","setShadowGauge(address)":"9e36af4a","shadowGauge()":"9a64b632","shadowV3Pool()":"150254db","token0()":"0dfe1681","token0Decimals()":"b31ac6e2","token0ReserveId()":"c8827efc","token1()":"d21220a7","token1Decimals()":"0b77884d","token1ReserveId()":"b122387b","transferOwnership(address)":"f2fde38b","vaultId()":"33194c0a","vaultRegistry()":"cdd7b38a"},"id":49}