{"abi":[{"type":"constructor","inputs":[{"name":"_lendingPool","type":"address","internalType":"address"}],"stateMutability":"nonpayable"},{"type":"function","name":"borrow","inputs":[{"name":"amount","type":"uint256","internalType":"uint256"},{"name":"reserveId","type":"uint256","internalType":"uint256"}],"outputs":[{"name":"debtId","type":"uint256","internalType":"uint256"}],"stateMutability":"nonpayable"},{"type":"function","name":"onReceiveRegisterCallback","inputs":[{"name":"vaultId","type":"uint256","internalType":"uint256"}],"outputs":[],"stateMutability":"nonpayable"},{"type":"function","name":"repay","inputs":[{"name":"debtId","type":"uint256","internalType":"uint256"},{"name":"token","type":"address","internalType":"address"},{"name":"amount","type":"uint256","internalType":"uint256"}],"outputs":[],"stateMutability":"nonpayable"}],"bytecode":{"object":"0x608060405234801561001057600080fd5b506040516107ca3803806107ca833981810160405281019061003291906100db565b806000806101000a81548173ffffffffffffffffffffffffffffffffffffffff021916908373ffffffffffffffffffffffffffffffffffffffff16021790555050610108565b600080fd5b600073ffffffffffffffffffffffffffffffffffffffff82169050919050565b60006100a88261007d565b9050919050565b6100b88161009d565b81146100c357600080fd5b50565b6000815190506100d5816100af565b92915050565b6000602082840312156100f1576100f0610078565b5b60006100ff848285016100c6565b91505092915050565b6106b3806101176000396000f3fe608060405234801561001057600080fd5b50600436106100415760003560e01c80630ecbcdab146100465780631f3a1272146100765780633b0ef4a714610092575b600080fd5b610060600480360381019061005b91906103e8565b6100ae565b60405161006d9190610437565b60405180910390f35b610090600480360381019061008b91906104b0565b6101e4565b005b6100ac60048036038101906100a79190610503565b6103aa565b005b60008060009054906101000a900473ffffffffffffffffffffffffffffffffffffffff1673ffffffffffffffffffffffffffffffffffffffff1663675a6d44836040518263ffffffff1660e01b815260040161010a9190610437565b6020604051808303816000875af1158015610129573d6000803e3d6000fd5b505050506040513d601f19601f8201168201806040525081019061014d9190610545565b905060008054906101000a900473ffffffffffffffffffffffffffffffffffffffff1673ffffffffffffffffffffffffffffffffffffffff1663c1bce0b73083866040518463ffffffff1660e01b81526004016101ac93929190610581565b600060405180830381600087803b1580156101c657600080fd5b505af11580156101da573d6000803e3d6000fd5b5050505092915050565b8173ffffffffffffffffffffffffffffffffffffffff166323b872dd3330846040518463ffffffff1660e01b8152600401610221939291906105b8565b6020604051808303816000875af1158015610240573d6000803e3d6000fd5b505050506040513d601f19601f820116820180604052508101906102649190610627565b508173ffffffffffffffffffffffffffffffffffffffff1663095ea7b360008054906101000a900473ffffffffffffffffffffffffffffffffffffffff16836040518363ffffffff1660e01b81526004016102c0929190610654565b6020604051808303816000875af11580156102df573d6000803e3d6000fd5b505050506040513d601f19601f820116820180604052508101906103039190610627565b5060008054906101000a900473ffffffffffffffffffffffffffffffffffffffff1673ffffffffffffffffffffffffffffffffffffffff16638cd2e0c73085846040518463ffffffff1660e01b815260040161036193929190610581565b6020604051808303816000875af1158015610380573d6000803e3d6000fd5b505050506040513d601f19601f820116820180604052508101906103a49190610545565b50505050565b50565b600080fd5b6000819050919050565b6103c5816103b2565b81146103d057600080fd5b50565b6000813590506103e2816103bc565b92915050565b600080604083850312156103ff576103fe6103ad565b5b600061040d858286016103d3565b925050602061041e858286016103d3565b9150509250929050565b610431816103b2565b82525050565b600060208201905061044c6000830184610428565b92915050565b600073ffffffffffffffffffffffffffffffffffffffff82169050919050565b600061047d82610452565b9050919050565b61048d81610472565b811461049857600080fd5b50565b6000813590506104aa81610484565b92915050565b6000806000606084860312156104c9576104c86103ad565b5b60006104d7868287016103d3565b93505060206104e88682870161049b565b92505060406104f9868287016103d3565b9150509250925092565b600060208284031215610519576105186103ad565b5b6000610527848285016103d3565b91505092915050565b60008151905061053f816103bc565b92915050565b60006020828403121561055b5761055a6103ad565b5b600061056984828501610530565b91505092915050565b61057b81610472565b82525050565b60006060820190506105966000830186610572565b6105a36020830185610428565b6105b06040830184610428565b949350505050565b60006060820190506105cd6000830186610572565b6105da6020830185610572565b6105e76040830184610428565b949350505050565b60008115159050919050565b610604816105ef565b811461060f57600080fd5b50565b600081519050610621816105fb565b92915050565b60006020828403121561063d5761063c6103ad565b5b600061064b84828501610612565b91505092915050565b60006040820190506106696000830185610572565b6106766020830184610428565b939250505056fea2646970667358221220660547f1f28bc07c3c30dde2957987ddc2d86bfb7dd9ffb6fe143b0f69ab421964736f6c63430008120033","linkReferences":{}},"methodIdentifiers":{"borrow(uint256,uint256)":"0ecbcdab","onReceiveRegisterCallback(uint256)":"3b0ef4a7","repay(uint256,address,uint256)":"1f3a1272"},"id":45}