{"abi":[{"type":"function","name":"getCurrentTick","inputs":[{"name":"v3Pool","type":"address","internalType":"address"}],"outputs":[{"name":"","type":"int24","internalType":"int24"}],"stateMutability":"view"},{"type":"function","name":"principal","inputs":[{"name":"positionManager","type":"address","internalType":"contract IShadowNonfungiblePositionManager"},{"name":"tokenId","type":"uint256","internalType":"uint256"},{"name":"pool","type":"address","internalType":"address"}],"outputs":[{"name":"amount0","type":"uint256","internalType":"uint256"},{"name":"amount1","type":"uint256","internalType":"uint256"}],"stateMutability":"view"},{"type":"error","name":"R","inputs":[]},{"type":"error","name":"T","inputs":[]}],"bytecode":{"object":"0x608060405234801561001057600080fd5b50611338806100206000396000f3fe608060405234801561001057600080fd5b50600436106100365760003560e01c8063040a5dc11461003b578063e71a24831461006b575b600080fd5b61005560048036038101906100509190610db7565b61009c565b6040516100629190610e00565b60405180910390f35b61008560048036038101906100809190610e8f565b610127565b604051610093929190610ef1565b60405180910390f35b6000808273ffffffffffffffffffffffffffffffffffffffff16633850c7bd6040518163ffffffff1660e01b815260040160e060405180830381865afa1580156100ea573d6000803e3d6000fd5b505050506040513d601f19601f8201168201806040525081019061010e919061101d565b505050505050905061011f81610262565b915050919050565b600080600083905060008173ffffffffffffffffffffffffffffffffffffffff16633850c7bd6040518163ffffffff1660e01b815260040160e060405180830381865afa15801561017c573d6000803e3d6000fd5b505050506040513d601f19601f820116820180604052508101906101a0919061101d565b505050505050905060008060008973ffffffffffffffffffffffffffffffffffffffff166399fbab888a6040518263ffffffff1660e01b81526004016101e691906110bf565b61014060405180830381865afa158015610204573d6000803e3d6000fd5b505050506040513d601f19601f82011682018060405250810190610228919061114c565b505050509550955095505050506102518461024285610622565b61024b85610622565b84610a2e565b965096505050505050935093915050565b60006401000276a373ffffffffffffffffffffffffffffffffffffffff168273ffffffffffffffffffffffffffffffffffffffff16101580156102e4575073fffd8963efd1fc6a506488495d951d5263988d2673ffffffffffffffffffffffffffffffffffffffff168273ffffffffffffffffffffffffffffffffffffffff16105b61031a576040517f4980e1be00000000000000000000000000000000000000000000000000000000815260040160405180910390fd5b600060208373ffffffffffffffffffffffffffffffffffffffff16901b9050600081905060006fffffffffffffffffffffffffffffffff821160071b808217915082811c92505067ffffffffffffffff821160061b808217915082811c92505063ffffffff821160051b808217915082811c92505061ffff821160041b808217915082811c92505060ff821160031b808217915082811c925050600f821160021b808217915082811c9250506003821160011b808217915082811c92505060018211808217915050608081106103f857607f810383901c9150610402565b80607f0383901b91505b6000604060808303901b9050828302607f1c92508260801c80603f1b8217915083811c935050828302607f1c92508260801c80603e1b8217915083811c935050828302607f1c92508260801c80603d1b8217915083811c935050828302607f1c92508260801c80603c1b8217915083811c935050828302607f1c92508260801c80603b1b8217915083811c935050828302607f1c92508260801c80603a1b8217915083811c935050828302607f1c92508260801c8060391b8217915083811c935050828302607f1c92508260801c8060381b8217915083811c935050828302607f1c92508260801c8060371b8217915083811c935050828302607f1c92508260801c8060361b8217915083811c935050828302607f1c92508260801c8060351b8217915083811c935050828302607f1c92508260801c8060341b8217915083811c935050828302607f1c92508260801c8060331b8217915083811c935050828302607f1c92508260801c8060321b82179150506000693627a301d71055774c8582029050600060806f028f6481ab7f045a5af012a19d003aaa8303901d9050600060806fdb2df09e81959a81455e260799a0632f8401901d90508060020b8260020b14610612578873ffffffffffffffffffffffffffffffffffffffff166105e982610622565b73ffffffffffffffffffffffffffffffffffffffff16111561060b578161060d565b805b610614565b815b975050505050505050919050565b60008060008360020b12610639578260020b610641565b8260020b6000035b90507ffffffffffffffffffffffffffffffffffffffffffffffffffffffffffff2761860000360020b8111156106a3576040517f2bc80f3a00000000000000000000000000000000000000000000000000000000815260040160405180910390fd5b60008060018316036106c6577001000000000000000000000000000000006106d8565b6ffffcb933bd6fad37aa2d162d1a5940015b70ffffffffffffffffffffffffffffffffff169050600060028316146107125760806ffff97272373d413259a46990580e213a8202901c90505b600060048316146107375760806ffff2e50f5f656932ef12357cf3c7fdcc8202901c90505b6000600883161461075c5760806fffe5caca7e10e4e61c3624eaa0941cd08202901c90505b600060108316146107815760806fffcb9843d60f6159c9db58835c9266448202901c90505b600060208316146107a65760806fff973b41fa98c081472e6896dfb254c08202901c90505b600060408316146107cb5760806fff2ea16466c96a3843ec78b326b528618202901c90505b600060808316146107f05760806ffe5dee046a99a2a811c461f1969c30538202901c90505b60006101008316146108165760806ffcbe86c7900a88aedcffc83b479aa3a48202901c90505b600061020083161461083c5760806ff987a7253ac413176f2b074cf7815e548202901c90505b60006104008316146108625760806ff3392b0822b70005940c7a398e4b70f38202901c90505b60006108008316146108885760806fe7159475a2c29b7443b29c7fa6e889d98202901c90505b60006110008316146108ae5760806fd097f3bdfd2022b8845ad8f792aa58258202901c90505b60006120008316146108d45760806fa9f746462d870fdf8a65dc1f90e061e58202901c90505b60006140008316146108fa5760806f70d869a156d2a1b890bb3df62baf32f78202901c90505b60006180008316146109205760806f31be135f97d08fd981231505542fcfa68202901c90505b6000620100008316146109475760806f09aa508b5b7a84e1c677de54f3e99bc98202901c90505b60006202000083161461096d5760806e5d6af8dedb81196699c329225ee6048202901c90505b6000620400008316146109925760806d2216e584f5fa1ea926041bedfe988202901c90505b6000620800008316146109b55760806b048a170391f7dc42444e8fa28202901c90505b60008460020b13156109f557807fffffffffffffffffffffffffffffffffffffffffffffffffffffffffffffffff816109f1576109f061122b565b5b0490505b60006401000000008281610a0c57610a0b61122b565b5b0614610a19576001610a1c565b60005b60ff16602082901c0192505050919050565b6000808373ffffffffffffffffffffffffffffffffffffffff168573ffffffffffffffffffffffffffffffffffffffff161115610a7057838580955081965050505b8473ffffffffffffffffffffffffffffffffffffffff168673ffffffffffffffffffffffffffffffffffffffff1611610ab557610aae858585610b20565b9150610b17565b8373ffffffffffffffffffffffffffffffffffffffff168673ffffffffffffffffffffffffffffffffffffffff161015610b0857610af4868585610b20565b9150610b01858785610be6565b9050610b16565b610b13858585610be6565b90505b5b94509492505050565b60008273ffffffffffffffffffffffffffffffffffffffff168473ffffffffffffffffffffffffffffffffffffffff161115610b6157828480945081955050505b8373ffffffffffffffffffffffffffffffffffffffff16610bd3606060ff16846fffffffffffffffffffffffffffffffff16901b8686610ba19190611289565b73ffffffffffffffffffffffffffffffffffffffff168673ffffffffffffffffffffffffffffffffffffffff16610c7b565b610bdd91906112d1565b90509392505050565b60008273ffffffffffffffffffffffffffffffffffffffff168473ffffffffffffffffffffffffffffffffffffffff161115610c2757828480945081955050505b610c72826fffffffffffffffffffffffffffffffff168585610c499190611289565b73ffffffffffffffffffffffffffffffffffffffff166c01000000000000000000000000610c7b565b90509392505050565b6000806000801985870985870292508281108382030391505060008103610cb55760008411610ca957600080fd5b83820492505050610d4d565b808411610cc157600080fd5b600084868809905082811182039150808303925060008586600003169050808604955080840493506001818260000304019050808302841793506000600287600302189050808702600203810290508087026002038102905080870260020381029050808702600203810290508087026002038102905080870260020381029050808502955050505050505b9392505050565b600080fd5b600073ffffffffffffffffffffffffffffffffffffffff82169050919050565b6000610d8482610d59565b9050919050565b610d9481610d79565b8114610d9f57600080fd5b50565b600081359050610db181610d8b565b92915050565b600060208284031215610dcd57610dcc610d54565b5b6000610ddb84828501610da2565b91505092915050565b60008160020b9050919050565b610dfa81610de4565b82525050565b6000602082019050610e156000830184610df1565b92915050565b6000610e2682610d79565b9050919050565b610e3681610e1b565b8114610e4157600080fd5b50565b600081359050610e5381610e2d565b92915050565b6000819050919050565b610e6c81610e59565b8114610e7757600080fd5b50565b600081359050610e8981610e63565b92915050565b600080600060608486031215610ea857610ea7610d54565b5b6000610eb686828701610e44565b9350506020610ec786828701610e7a565b9250506040610ed886828701610da2565b9150509250925092565b610eeb81610e59565b82525050565b6000604082019050610f066000830185610ee2565b610f136020830184610ee2565b9392505050565b610f2381610d59565b8114610f2e57600080fd5b50565b600081519050610f4081610f1a565b92915050565b610f4f81610de4565b8114610f5a57600080fd5b50565b600081519050610f6c81610f46565b92915050565b600061ffff82169050919050565b610f8981610f72565b8114610f9457600080fd5b50565b600081519050610fa681610f80565b92915050565b600060ff82169050919050565b610fc281610fac565b8114610fcd57600080fd5b50565b600081519050610fdf81610fb9565b92915050565b60008115159050919050565b610ffa81610fe5565b811461100557600080fd5b50565b60008151905061101781610ff1565b92915050565b600080600080600080600060e0888a03121561103c5761103b610d54565b5b600061104a8a828b01610f31565b975050602061105b8a828b01610f5d565b965050604061106c8a828b01610f97565b955050606061107d8a828b01610f97565b945050608061108e8a828b01610f97565b93505060a061109f8a828b01610fd0565b92505060c06110b08a828b01611008565b91505092959891949750929550565b60006020820190506110d46000830184610ee2565b92915050565b6000815190506110e981610d8b565b92915050565b60006fffffffffffffffffffffffffffffffff82169050919050565b611114816110ef565b811461111f57600080fd5b50565b6000815190506111318161110b565b92915050565b60008151905061114681610e63565b92915050565b6000806000806000806000806000806101408b8d0312156111705761116f610d54565b5b600061117e8d828e016110da565b9a5050602061118f8d828e016110da565b99505060406111a08d828e01610f5d565b98505060606111b18d828e01610f5d565b97505060806111c28d828e01610f5d565b96505060a06111d38d828e01611122565b95505060c06111e48d828e01611137565b94505060e06111f58d828e01611137565b9350506101006112078d828e01611122565b9250506101206112198d828e01611122565b9150509295989b9194979a5092959850565b7f4e487b7100000000000000000000000000000000000000000000000000000000600052601260045260246000fd5b7f4e487b7100000000000000000000000000000000000000000000000000000000600052601160045260246000fd5b600061129482610d59565b915061129f83610d59565b9250828203905073ffffffffffffffffffffffffffffffffffffffff8111156112cb576112ca61125a565b5b92915050565b60006112dc82610e59565b91506112e783610e59565b9250826112f7576112f661122b565b5b82820490509291505056fea26469706673582212206e66b728cb06ce8b5f3f76d053f79b643eda4f737b1b00e386af980d7740896464736f6c63430008120033","linkReferences":{}},"methodIdentifiers":{"getCurrentTick(address)":"040a5dc1","principal(address,uint256,address)":"e71a2483"},"id":47}