{"abi":[{"type":"constructor","inputs":[{"name":"_weth9","type":"address","internalType":"address"}],"stateMutability":"nonpayable"},{"type":"function","name":"getAddress","inputs":[{"name":"id","type":"uint256","internalType":"uint256"}],"outputs":[{"name":"","type":"address","internalType":"address"}],"stateMutability":"view"},{"type":"function","name":"owner","inputs":[],"outputs":[{"name":"","type":"address","internalType":"address"}],"stateMutability":"view"},{"type":"function","name":"renounceOwnership","inputs":[],"outputs":[],"stateMutability":"nonpayable"},{"type":"function","name":"setAddress","inputs":[{"name":"id","type":"uint256","internalType":"uint256"},{"name":"_addr","type":"address","internalType":"address"}],"outputs":[],"stateMutability":"nonpayable"},{"type":"function","name":"transferOwnership","inputs":[{"name":"newOwner","type":"address","internalType":"address"}],"outputs":[],"stateMutability":"nonpayable"},{"type":"event","name":"OwnershipTransferred","inputs":[{"name":"previousOwner","type":"address","indexed":true,"internalType":"address"},{"name":"newOwner","type":"address","indexed":true,"internalType":"address"}],"anonymous":false},{"type":"event","name":"SetAddress","inputs":[{"name":"setter","type":"address","indexed":true,"internalType":"address"},{"name":"id","type":"uint256","indexed":true,"internalType":"uint256"},{"name":"newAddress","type":"address","indexed":false,"internalType":"address"}],"anonymous":false}],"bytecode":{"object":"0x60806040523480156200001157600080fd5b5060405162000aa338038062000aa3833981810160405281019062000037919062000327565b620000576200004b6200007160201b60201c565b6200007960201b60201c565b6200006a6001826200013d60201b60201c565b506200040a565b600033905090565b60008060009054906101000a900473ffffffffffffffffffffffffffffffffffffffff169050816000806101000a81548173ffffffffffffffffffffffffffffffffffffffff021916908373ffffffffffffffffffffffffffffffffffffffff1602179055508173ffffffffffffffffffffffffffffffffffffffff168173ffffffffffffffffffffffffffffffffffffffff167f8be0079c531659141344cd1fd0a4f28419497f9722a3daafe3b4186f6b6457e060405160405180910390a35050565b6200014d6200020360201b60201c565b806001600084815260200190815260200160002060006101000a81548173ffffffffffffffffffffffffffffffffffffffff021916908373ffffffffffffffffffffffffffffffffffffffff16021790555081620001b06200007160201b60201c565b73ffffffffffffffffffffffffffffffffffffffff167f453811a02dd40261e64dc61727fa8822ec9b04f1889fdd90ef99eadeca21b63f83604051620001f791906200036a565b60405180910390a35050565b620002136200007160201b60201c565b73ffffffffffffffffffffffffffffffffffffffff16620002396200029460201b60201c565b73ffffffffffffffffffffffffffffffffffffffff161462000292576040517f08c379a00000000000000000000000000000000000000000000000000000000081526004016200028990620003e8565b60405180910390fd5b565b60008060009054906101000a900473ffffffffffffffffffffffffffffffffffffffff16905090565b600080fd5b600073ffffffffffffffffffffffffffffffffffffffff82169050919050565b6000620002ef82620002c2565b9050919050565b6200030181620002e2565b81146200030d57600080fd5b50565b6000815190506200032181620002f6565b92915050565b60006020828403121562000340576200033f620002bd565b5b6000620003508482850162000310565b91505092915050565b6200036481620002e2565b82525050565b600060208201905062000381600083018462000359565b92915050565b600082825260208201905092915050565b7f4f776e61626c653a2063616c6c6572206973206e6f7420746865206f776e6572600082015250565b6000620003d060208362000387565b9150620003dd8262000398565b602082019050919050565b600060208201905081810360008301526200040381620003c1565b9050919050565b610689806200041a6000396000f3fe608060405234801561001057600080fd5b50600436106100575760003560e01c8063715018a61461005c5780638da5cb5b14610066578063ac4ce2c614610084578063b93f9b0a146100a0578063f2fde38b146100d0575b600080fd5b6100646100ec565b005b61006e610100565b60405161007b9190610428565b60405180910390f35b61009e600480360381019061009991906104aa565b610129565b005b6100ba60048036038101906100b591906104ea565b6101dd565b6040516100c79190610428565b60405180910390f35b6100ea60048036038101906100e59190610517565b61021a565b005b6100f461029d565b6100fe600061031b565b565b60008060009054906101000a900473ffffffffffffffffffffffffffffffffffffffff16905090565b61013161029d565b806001600084815260200190815260200160002060006101000a81548173ffffffffffffffffffffffffffffffffffffffff021916908373ffffffffffffffffffffffffffffffffffffffff1602179055508161018c6103df565b73ffffffffffffffffffffffffffffffffffffffff167f453811a02dd40261e64dc61727fa8822ec9b04f1889fdd90ef99eadeca21b63f836040516101d19190610428565b60405180910390a35050565b60006001600083815260200190815260200160002060009054906101000a900473ffffffffffffffffffffffffffffffffffffffff169050919050565b61022261029d565b600073ffffffffffffffffffffffffffffffffffffffff168173ffffffffffffffffffffffffffffffffffffffff1603610291576040517f08c379a0000000000000000000000000000000000000000000000000000000008152600401610288906105c7565b60405180910390fd5b61029a8161031b565b50565b6102a56103df565b73ffffffffffffffffffffffffffffffffffffffff166102c3610100565b73ffffffffffffffffffffffffffffffffffffffff1614610319576040517f08c379a000000000000000000000000000000000000000000000000000000000815260040161031090610633565b60405180910390fd5b565b60008060009054906101000a900473ffffffffffffffffffffffffffffffffffffffff169050816000806101000a81548173ffffffffffffffffffffffffffffffffffffffff021916908373ffffffffffffffffffffffffffffffffffffffff1602179055508173ffffffffffffffffffffffffffffffffffffffff168173ffffffffffffffffffffffffffffffffffffffff167f8be0079c531659141344cd1fd0a4f28419497f9722a3daafe3b4186f6b6457e060405160405180910390a35050565b600033905090565b600073ffffffffffffffffffffffffffffffffffffffff82169050919050565b6000610412826103e7565b9050919050565b61042281610407565b82525050565b600060208201905061043d6000830184610419565b92915050565b600080fd5b6000819050919050565b61045b81610448565b811461046657600080fd5b50565b60008135905061047881610452565b92915050565b61048781610407565b811461049257600080fd5b50565b6000813590506104a48161047e565b92915050565b600080604083850312156104c1576104c0610443565b5b60006104cf85828601610469565b92505060206104e085828601610495565b9150509250929050565b600060208284031215610500576104ff610443565b5b600061050e84828501610469565b91505092915050565b60006020828403121561052d5761052c610443565b5b600061053b84828501610495565b91505092915050565b600082825260208201905092915050565b7f4f776e61626c653a206e6577206f776e657220697320746865207a65726f206160008201527f6464726573730000000000000000000000000000000000000000000000000000602082015250565b60006105b1602683610544565b91506105bc82610555565b604082019050919050565b600060208201905081810360008301526105e0816105a4565b9050919050565b7f4f776e61626c653a2063616c6c6572206973206e6f7420746865206f776e6572600082015250565b600061061d602083610544565b9150610628826105e7565b602082019050919050565b6000602082019050818103600083015261064c81610610565b905091905056fea26469706673582212203cd0c9c84188ef3150a5f1a2b86231ed2dc4cb00dcc49414731b6f810ee3609d64736f6c63430008120033","linkReferences":{}},"methodIdentifiers":{"getAddress(uint256)":"b93f9b0a","owner()":"8da5cb5b","renounceOwnership()":"715018a6","setAddress(uint256,address)":"ac4ce2c6","transferOwnership(address)":"f2fde38b"},"id":0}