{"abi":[{"type":"constructor","inputs":[{"name":"_positionId","type":"uint256","internalType":"uint256"}],"stateMutability":"nonpayable"},{"type":"fallback","stateMutability":"payable"},{"type":"receive","stateMutability":"payable"},{"type":"function","name":"Owner","inputs":[],"outputs":[{"name":"","type":"address","internalType":"address"}],"stateMutability":"view"},{"type":"function","name":"changeOwner","inputs":[{"name":"newOwner","type":"address","internalType":"address"}],"outputs":[],"stateMutability":"nonpayable"},{"type":"event","name":"OwnerChanged","inputs":[{"name":"previousOwner","type":"address","indexed":false,"internalType":"address"},{"name":"newOwner","type":"address","indexed":false,"internalType":"address"}],"anonymous":false}],"bytecode":{"object":"0x60806040523480156200001157600080fd5b50604051620009f5380380620009f58339818101604052810190620000379190620002e9565b60017fb53127684a568b3173ae13b9f8a6016e243e63b6e8ee1178d6a717850b5d610460001c6200006991906200034a565b60001b7fb53127684a568b3173ae13b9f8a6016e243e63b6e8ee1178d6a717850b5d610360001b14620000a157620000a062000385565b5b620000b2336200024960201b60201c565b6000620000c46200027860201b60201c565b73ffffffffffffffffffffffffffffffffffffffff1663d97e14746040518163ffffffff1660e01b8152600401602060405180830381865afa1580156200010f573d6000803e3d6000fd5b505050506040513d601f19601f8201168201806040525081019062000135919062000419565b905060008173ffffffffffffffffffffffffffffffffffffffff16836040516024016200016391906200045c565b6040516020818303038152906040527ffe4b84df000000000000000000000000000000000000000000000000000000007bffffffffffffffffffffffffffffffffffffffffffffffffffffffff19166020820180517bffffffffffffffffffffffffffffffffffffffffffffffffffffffff8381831617835250505050604051620001ef9190620004f2565b600060405180830381855af49150503d80600081146200022c576040519150601f19603f3d011682016040523d82523d6000602084013e62000231565b606091505b50509050806200024057600080fd5b5050506200050b565b60007fb53127684a568b3173ae13b9f8a6016e243e63b6e8ee1178d6a717850b5d610360001b90508181555050565b6000807fb53127684a568b3173ae13b9f8a6016e243e63b6e8ee1178d6a717850b5d610360001b9050805491505090565b600080fd5b6000819050919050565b620002c381620002ae565b8114620002cf57600080fd5b50565b600081519050620002e381620002b8565b92915050565b600060208284031215620003025762000301620002a9565b5b60006200031284828501620002d2565b91505092915050565b7f4e487b7100000000000000000000000000000000000000000000000000000000600052601160045260246000fd5b60006200035782620002ae565b91506200036483620002ae565b92508282039050818111156200037f576200037e6200031b565b5b92915050565b7f4e487b7100000000000000000000000000000000000000000000000000000000600052600160045260246000fd5b600073ffffffffffffffffffffffffffffffffffffffff82169050919050565b6000620003e182620003b4565b9050919050565b620003f381620003d4565b8114620003ff57600080fd5b50565b6000815190506200041381620003e8565b92915050565b600060208284031215620004325762000431620002a9565b5b6000620004428482850162000402565b91505092915050565b6200045681620002ae565b82525050565b60006020820190506200047360008301846200044b565b92915050565b600081519050919050565b600081905092915050565b60005b83811015620004af57808201518184015260208101905062000492565b60008484015250505050565b6000620004c88262000479565b620004d4818562000484565b9350620004e68185602086016200048f565b80840191505092915050565b6000620005008284620004bb565b915081905092915050565b6104da806200051b6000396000f3fe60806040526004361061002d5760003560e01c8063a6f9dae114610046578063b4a99a4e1461006f5761003c565b3661003c5761003a61009a565b005b61004461009a565b005b34801561005257600080fd5b5061006d6004803603810190610068919061033f565b610173565b005b34801561007b57600080fd5b5061008461026d565b604051610091919061037b565b60405180910390f35b60006100a461027c565b73ffffffffffffffffffffffffffffffffffffffff1663d97e14746040518163ffffffff1660e01b8152600401602060405180830381865afa1580156100ee573d6000803e3d6000fd5b505050506040513d601f19601f8201168201806040525081019061011291906103ab565b9050600073ffffffffffffffffffffffffffffffffffffffff168173ffffffffffffffffffffffffffffffffffffffff160361014d57600080fd5b3660008037600080366000845af43d6000803e806000811461016e573d6000f35b3d6000fd5b61017b61027c565b73ffffffffffffffffffffffffffffffffffffffff163373ffffffffffffffffffffffffffffffffffffffff16146101b257600080fd5b600073ffffffffffffffffffffffffffffffffffffffff168173ffffffffffffffffffffffffffffffffffffffff1603610221576040517f08c379a00000000000000000000000000000000000000000000000000000000081526004016102189061045b565b60405180910390fd5b7fb532073b38c83145e3e5135377a08bf9aab55bc0fd7c1179cd4fb995d2a5159c61024a61027c565b8260405161025992919061047b565b60405180910390a161026a816102ad565b50565b600061027761027c565b905090565b6000807fb53127684a568b3173ae13b9f8a6016e243e63b6e8ee1178d6a717850b5d610360001b9050805491505090565b60007fb53127684a568b3173ae13b9f8a6016e243e63b6e8ee1178d6a717850b5d610360001b90508181555050565b600080fd5b600073ffffffffffffffffffffffffffffffffffffffff82169050919050565b600061030c826102e1565b9050919050565b61031c81610301565b811461032757600080fd5b50565b60008135905061033981610313565b92915050565b600060208284031215610355576103546102dc565b5b60006103638482850161032a565b91505092915050565b61037581610301565b82525050565b6000602082019050610390600083018461036c565b92915050565b6000815190506103a581610313565b92915050565b6000602082840312156103c1576103c06102dc565b5b60006103cf84828501610396565b91505092915050565b600082825260208201905092915050565b7f50726f78793a206e6577204f776e657220697320746865207a65726f2061646460008201527f7265737300000000000000000000000000000000000000000000000000000000602082015250565b60006104456024836103d8565b9150610450826103e9565b604082019050919050565b6000602082019050818103600083015261047481610438565b9050919050565b6000604082019050610490600083018561036c565b61049d602083018461036c565b939250505056fea26469706673582212207b78d0f8856b344f96c90b67d0e95fa12b15beaed497961ab74bb1e5848a440f64736f6c63430008120033","linkReferences":{}},"methodIdentifiers":{"Owner()":"b4a99a4e","changeOwner(address)":"a6f9dae1"},"id":1}