{"abi":[{"type":"constructor","inputs":[{"name":"_addressRegistry","type":"address","internalType":"address"}],"stateMutability":"nonpayable"},{"type":"function","name":"addressRegistry","inputs":[],"outputs":[{"name":"","type":"address","internalType":"address"}],"stateMutability":"view"},{"type":"function","name":"isRegistered","inputs":[{"name":"","type":"address","internalType":"address"}],"outputs":[{"name":"","type":"bool","internalType":"bool"}],"stateMutability":"view"},{"type":"function","name":"newVault","inputs":[{"name":"_newVault","type":"address","internalType":"address"}],"outputs":[{"name":"vaultId","type":"uint256","internalType":"uint256"}],"stateMutability":"nonpayable"},{"type":"function","name":"nextVaultID","inputs":[],"outputs":[{"name":"","type":"uint256","internalType":"uint256"}],"stateMutability":"view"},{"type":"function","name":"owner","inputs":[],"outputs":[{"name":"","type":"address","internalType":"address"}],"stateMutability":"view"},{"type":"function","name":"renounceOwnership","inputs":[],"outputs":[],"stateMutability":"nonpayable"},{"type":"function","name":"transferOwnership","inputs":[{"name":"newOwner","type":"address","internalType":"address"}],"outputs":[],"stateMutability":"nonpayable"},{"type":"function","name":"vaults","inputs":[{"name":"","type":"uint256","internalType":"uint256"}],"outputs":[{"name":"","type":"address","internalType":"address"}],"stateMutability":"view"},{"type":"event","name":"NewVault","inputs":[{"name":"vaultAddress","type":"address","indexed":false,"internalType":"address"},{"name":"vaultId","type":"uint256","indexed":true,"internalType":"uint256"}],"anonymous":false},{"type":"event","name":"OwnershipTransferred","inputs":[{"name":"previousOwner","type":"address","indexed":true,"internalType":"address"},{"name":"newOwner","type":"address","indexed":true,"internalType":"address"}],"anonymous":false}],"bytecode":{"object":"0x60a06040523480156200001157600080fd5b5060405162000d4038038062000d4083398181016040528101906200003791906200027c565b620000576200004b6200014660201b60201c565b6200014e60201b60201c565b600073ffffffffffffffffffffffffffffffffffffffff168173ffffffffffffffffffffffffffffffffffffffff1614156040518060400160405280600281526020017f31330000000000000000000000000000000000000000000000000000000000008152509062000102576040517f08c379a0000000000000000000000000000000000000000000000000000000008152600401620000f9919062000348565b60405180910390fd5b508073ffffffffffffffffffffffffffffffffffffffff1660808173ffffffffffffffffffffffffffffffffffffffff16815250506001600381905550506200036c565b600033905090565b60008060009054906101000a900473ffffffffffffffffffffffffffffffffffffffff169050816000806101000a81548173ffffffffffffffffffffffffffffffffffffffff021916908373ffffffffffffffffffffffffffffffffffffffff1602179055508173ffffffffffffffffffffffffffffffffffffffff168173ffffffffffffffffffffffffffffffffffffffff167f8be0079c531659141344cd1fd0a4f28419497f9722a3daafe3b4186f6b6457e060405160405180910390a35050565b600080fd5b600073ffffffffffffffffffffffffffffffffffffffff82169050919050565b6000620002448262000217565b9050919050565b620002568162000237565b81146200026257600080fd5b50565b60008151905062000276816200024b565b92915050565b60006020828403121562000295576200029462000212565b5b6000620002a58482850162000265565b91505092915050565b600081519050919050565b600082825260208201905092915050565b60005b83811015620002ea578082015181840152602081019050620002cd565b60008484015250505050565b6000601f19601f8301169050919050565b60006200031482620002ae565b620003208185620002b9565b935062000332818560208601620002ca565b6200033d81620002f6565b840191505092915050565b6000602082019050818103600083015262000364818462000307565b905092915050565b6080516109b86200038860003960006104bb01526109b86000f3fe608060405234801561001057600080fd5b50600436106100885760003560e01c80638da5cb5b1161005b5780638da5cb5b14610115578063c3c5a54714610133578063f2fde38b14610163578063f3ad65f41461017f57610088565b80630a036a0a1461008d5780631cd5b926146100bd578063715018a6146100db5780638c64ea4a146100e5575b600080fd5b6100a760048036038101906100a2919061068a565b61019d565b6040516100b491906106d0565b60405180910390f35b6100c56103a0565b6040516100d291906106d0565b60405180910390f35b6100e36103a6565b005b6100ff60048036038101906100fa9190610717565b6103ba565b60405161010c9190610753565b60405180910390f35b61011d6103ed565b60405161012a9190610753565b60405180910390f35b61014d6004803603810190610148919061068a565b610416565b60405161015a9190610789565b60405180910390f35b61017d6004803603810190610178919061068a565b610436565b005b6101876104b9565b6040516101949190610753565b60405180910390f35b60006101a76104dd565b600260008373ffffffffffffffffffffffffffffffffffffffff1673ffffffffffffffffffffffffffffffffffffffff16815260200190815260200160002060009054906101000a900460ff1615610234576040517f08c379a000000000000000000000000000000000000000000000000000000000815260040161022b90610801565b60405180910390fd5b600354905060016003546102489190610850565b6003819055508173ffffffffffffffffffffffffffffffffffffffff16633b0ef4a7826040518263ffffffff1660e01b815260040161028791906106d0565b600060405180830381600087803b1580156102a157600080fd5b505af11580156102b5573d6000803e3d6000fd5b50505050816001600083815260200190815260200160002060006101000a81548173ffffffffffffffffffffffffffffffffffffffff021916908373ffffffffffffffffffffffffffffffffffffffff1602179055506001600260008473ffffffffffffffffffffffffffffffffffffffff1673ffffffffffffffffffffffffffffffffffffffff16815260200190815260200160002060006101000a81548160ff021916908315150217905550807fd121adb44c5268742cd3af919e1df1437aa697b3306c1e6e133e9c97cc65bfc8836040516103939190610753565b60405180910390a2919050565b60035481565b6103ae6104dd565b6103b8600061055b565b565b60016020528060005260406000206000915054906101000a900473ffffffffffffffffffffffffffffffffffffffff1681565b60008060009054906101000a900473ffffffffffffffffffffffffffffffffffffffff16905090565b60026020528060005260406000206000915054906101000a900460ff1681565b61043e6104dd565b600073ffffffffffffffffffffffffffffffffffffffff168173ffffffffffffffffffffffffffffffffffffffff16036104ad576040517f08c379a00000000000000000000000000000000000000000000000000000000081526004016104a4906108f6565b60405180910390fd5b6104b68161055b565b50565b7f000000000000000000000000000000000000000000000000000000000000000081565b6104e561061f565b73ffffffffffffffffffffffffffffffffffffffff166105036103ed565b73ffffffffffffffffffffffffffffffffffffffff1614610559576040517f08c379a000000000000000000000000000000000000000000000000000000000815260040161055090610962565b60405180910390fd5b565b60008060009054906101000a900473ffffffffffffffffffffffffffffffffffffffff169050816000806101000a81548173ffffffffffffffffffffffffffffffffffffffff021916908373ffffffffffffffffffffffffffffffffffffffff1602179055508173ffffffffffffffffffffffffffffffffffffffff168173ffffffffffffffffffffffffffffffffffffffff167f8be0079c531659141344cd1fd0a4f28419497f9722a3daafe3b4186f6b6457e060405160405180910390a35050565b600033905090565b600080fd5b600073ffffffffffffffffffffffffffffffffffffffff82169050919050565b60006106578261062c565b9050919050565b6106678161064c565b811461067257600080fd5b50565b6000813590506106848161065e565b92915050565b6000602082840312156106a05761069f610627565b5b60006106ae84828501610675565b91505092915050565b6000819050919050565b6106ca816106b7565b82525050565b60006020820190506106e560008301846106c1565b92915050565b6106f4816106b7565b81146106ff57600080fd5b50565b600081359050610711816106eb565b92915050565b60006020828403121561072d5761072c610627565b5b600061073b84828501610702565b91505092915050565b61074d8161064c565b82525050565b60006020820190506107686000830184610744565b92915050565b60008115159050919050565b6107838161076e565b82525050565b600060208201905061079e600083018461077a565b92915050565b600082825260208201905092915050565b7f5661756c7420616c726561647920726567697374657265640000000000000000600082015250565b60006107eb6018836107a4565b91506107f6826107b5565b602082019050919050565b6000602082019050818103600083015261081a816107de565b9050919050565b7f4e487b7100000000000000000000000000000000000000000000000000000000600052601160045260246000fd5b600061085b826106b7565b9150610866836106b7565b925082820190508082111561087e5761087d610821565b5b92915050565b7f4f776e61626c653a206e6577206f776e657220697320746865207a65726f206160008201527f6464726573730000000000000000000000000000000000000000000000000000602082015250565b60006108e06026836107a4565b91506108eb82610884565b604082019050919050565b6000602082019050818103600083015261090f816108d3565b9050919050565b7f4f776e61626c653a2063616c6c6572206973206e6f7420746865206f776e6572600082015250565b600061094c6020836107a4565b915061095782610916565b602082019050919050565b6000602082019050818103600083015261097b8161093f565b905091905056fea2646970667358221220ffadbe6aa60be21ad8a17c5d8bca1429bd5501fd9d6777d7188999cb9b5810b964736f6c63430008120033","linkReferences":{}},"methodIdentifiers":{"addressRegistry()":"f3ad65f4","isRegistered(address)":"c3c5a547","newVault(address)":"0a036a0a","nextVaultID()":"1cd5b926","owner()":"8da5cb5b","renounceOwnership()":"715018a6","transferOwnership(address)":"f2fde38b","vaults(uint256)":"8c64ea4a"},"id":5}