{"abi":[{"type":"constructor","inputs":[{"name":"name_","type":"string","internalType":"string"},{"name":"symbol_","type":"string","internalType":"string"},{"name":"decimals_","type":"uint8","internalType":"uint8"},{"name":"underlyingAsset_","type":"address","internalType":"address"}],"stateMutability":"nonpayable"},{"type":"function","name":"allowance","inputs":[{"name":"owner","type":"address","internalType":"address"},{"name":"spender","type":"address","internalType":"address"}],"outputs":[{"name":"","type":"uint256","internalType":"uint256"}],"stateMutability":"view"},{"type":"function","name":"approve","inputs":[{"name":"spender","type":"address","internalType":"address"},{"name":"amount","type":"uint256","internalType":"uint256"}],"outputs":[{"name":"","type":"bool","internalType":"bool"}],"stateMutability":"nonpayable"},{"type":"function","name":"balanceOf","inputs":[{"name":"account","type":"address","internalType":"address"}],"outputs":[{"name":"","type":"uint256","internalType":"uint256"}],"stateMutability":"view"},{"type":"function","name":"burn","inputs":[{"name":"receiverOfUnderlying","type":"address","internalType":"address"},{"name":"eTokenAmount","type":"uint256","internalType":"uint256"},{"name":"underlyingTokenAmount","type":"uint256","internalType":"uint256"}],"outputs":[],"stateMutability":"nonpayable"},{"type":"function","name":"decimals","inputs":[],"outputs":[{"name":"","type":"uint8","internalType":"uint8"}],"stateMutability":"view"},{"type":"function","name":"decreaseAllowance","inputs":[{"name":"spender","type":"address","internalType":"address"},{"name":"subtractedValue","type":"uint256","internalType":"uint256"}],"outputs":[{"name":"","type":"bool","internalType":"bool"}],"stateMutability":"nonpayable"},{"type":"function","name":"increaseAllowance","inputs":[{"name":"spender","type":"address","internalType":"address"},{"name":"addedValue","type":"uint256","internalType":"uint256"}],"outputs":[{"name":"","type":"bool","internalType":"bool"}],"stateMutability":"nonpayable"},{"type":"function","name":"lendingPool","inputs":[],"outputs":[{"name":"","type":"address","internalType":"address"}],"stateMutability":"view"},{"type":"function","name":"mint","inputs":[{"name":"user","type":"address","internalType":"address"},{"name":"amount","type":"uint256","internalType":"uint256"}],"outputs":[],"stateMutability":"nonpayable"},{"type":"function","name":"mintToTreasury","inputs":[{"name":"treasury","type":"address","internalType":"address"},{"name":"amount","type":"uint256","internalType":"uint256"}],"outputs":[],"stateMutability":"nonpayable"},{"type":"function","name":"name","inputs":[],"outputs":[{"name":"","type":"string","internalType":"string"}],"stateMutability":"view"},{"type":"function","name":"symbol","inputs":[],"outputs":[{"name":"","type":"string","internalType":"string"}],"stateMutability":"view"},{"type":"function","name":"totalSupply","inputs":[],"outputs":[{"name":"","type":"uint256","internalType":"uint256"}],"stateMutability":"view"},{"type":"function","name":"transfer","inputs":[{"name":"to","type":"address","internalType":"address"},{"name":"amount","type":"uint256","internalType":"uint256"}],"outputs":[{"name":"","type":"bool","internalType":"bool"}],"stateMutability":"nonpayable"},{"type":"function","name":"transferFrom","inputs":[{"name":"from","type":"address","internalType":"address"},{"name":"to","type":"address","internalType":"address"},{"name":"amount","type":"uint256","internalType":"uint256"}],"outputs":[{"name":"","type":"bool","internalType":"bool"}],"stateMutability":"nonpayable"},{"type":"function","name":"transferUnderlyingTo","inputs":[{"name":"target","type":"address","internalType":"address"},{"name":"amount","type":"uint256","internalType":"uint256"}],"outputs":[{"name":"","type":"uint256","internalType":"uint256"}],"stateMutability":"nonpayable"},{"type":"function","name":"underlyingAsset","inputs":[],"outputs":[{"name":"","type":"address","internalType":"address"}],"stateMutability":"view"},{"type":"event","name":"Approval","inputs":[{"name":"owner","type":"address","indexed":true,"internalType":"address"},{"name":"spender","type":"address","indexed":true,"internalType":"address"},{"name":"value","type":"uint256","indexed":false,"internalType":"uint256"}],"anonymous":false},{"type":"event","name":"Burn","inputs":[{"name":"from","type":"address","indexed":true,"internalType":"address"},{"name":"target","type":"address","indexed":true,"internalType":"address"},{"name":"eTokenAmount","type":"uint256","indexed":false,"internalType":"uint256"},{"name":"underlyingTokenAmount","type":"uint256","indexed":false,"internalType":"uint256"}],"anonymous":false},{"type":"event","name":"Mint","inputs":[{"name":"to","type":"address","indexed":true,"internalType":"address"},{"name":"value","type":"uint256","indexed":false,"internalType":"uint256"}],"anonymous":false},{"type":"event","name":"MintToTreasury","inputs":[{"name":"treasury","type":"address","indexed":true,"internalType":"address"},{"name":"value","type":"uint256","indexed":false,"internalType":"uint256"}],"anonymous":false},{"type":"event","name":"Transfer","inputs":[{"name":"from","type":"address","indexed":true,"internalType":"address"},{"name":"to","type":"address","indexed":true,"internalType":"address"},{"name":"value","type":"uint256","indexed":false,"internalType":"uint256"}],"anonymous":false}],"bytecode":{"object":"0x60c06040523480156200001157600080fd5b5060405162002ddb38038062002ddb8339818101604052810190620000379190620003d6565b838360016000819055508160049081620000529190620006d1565b508060059081620000649190620006d1565b50505081600660006101000a81548160ff021916908360ff160217905550600073ffffffffffffffffffffffffffffffffffffffff168173ffffffffffffffffffffffffffffffffffffffff1614156040518060400160405280600281526020017f3133000000000000000000000000000000000000000000000000000000000000815250906200012d576040517f08c379a00000000000000000000000000000000000000000000000000000000081526004016200012491906200080a565b60405180910390fd5b508073ffffffffffffffffffffffffffffffffffffffff1660a08173ffffffffffffffffffffffffffffffffffffffff16815250503373ffffffffffffffffffffffffffffffffffffffff1660808173ffffffffffffffffffffffffffffffffffffffff1681525050505050506200082e565b6000604051905090565b600080fd5b600080fd5b600080fd5b600080fd5b6000601f19601f8301169050919050565b7f4e487b7100000000000000000000000000000000000000000000000000000000600052604160045260246000fd5b6200020982620001be565b810181811067ffffffffffffffff821117156200022b576200022a620001cf565b5b80604052505050565b600062000240620001a0565b90506200024e8282620001fe565b919050565b600067ffffffffffffffff821115620002715762000270620001cf565b5b6200027c82620001be565b9050602081019050919050565b60005b83811015620002a95780820151818401526020810190506200028c565b60008484015250505050565b6000620002cc620002c68462000253565b62000234565b905082815260208101848484011115620002eb57620002ea620001b9565b5b620002f884828562000289565b509392505050565b600082601f830112620003185762000317620001b4565b5b81516200032a848260208601620002b5565b91505092915050565b600060ff82169050919050565b6200034b8162000333565b81146200035757600080fd5b50565b6000815190506200036b8162000340565b92915050565b600073ffffffffffffffffffffffffffffffffffffffff82169050919050565b60006200039e8262000371565b9050919050565b620003b08162000391565b8114620003bc57600080fd5b50565b600081519050620003d081620003a5565b92915050565b60008060008060808587031215620003f357620003f2620001aa565b5b600085015167ffffffffffffffff811115620004145762000413620001af565b5b620004228782880162000300565b945050602085015167ffffffffffffffff811115620004465762000445620001af565b5b620004548782880162000300565b935050604062000467878288016200035a565b92505060606200047a87828801620003bf565b91505092959194509250565b600081519050919050565b7f4e487b7100000000000000000000000000000000000000000000000000000000600052602260045260246000fd5b60006002820490506001821680620004d957607f821691505b602082108103620004ef57620004ee62000491565b5b50919050565b60008190508160005260206000209050919050565b60006020601f8301049050919050565b600082821b905092915050565b600060088302620005597fffffffffffffffffffffffffffffffffffffffffffffffffffffffffffffffff826200051a565b6200056586836200051a565b95508019841693508086168417925050509392505050565b6000819050919050565b6000819050919050565b6000620005b2620005ac620005a6846200057d565b62000587565b6200057d565b9050919050565b6000819050919050565b620005ce8362000591565b620005e6620005dd82620005b9565b84845462000527565b825550505050565b600090565b620005fd620005ee565b6200060a818484620005c3565b505050565b5b81811015620006325762000626600082620005f3565b60018101905062000610565b5050565b601f82111562000681576200064b81620004f5565b62000656846200050a565b8101602085101562000666578190505b6200067e62000675856200050a565b8301826200060f565b50505b505050565b600082821c905092915050565b6000620006a66000198460080262000686565b1980831691505092915050565b6000620006c1838362000693565b9150826002028217905092915050565b620006dc8262000486565b67ffffffffffffffff811115620006f857620006f7620001cf565b5b620007048254620004c0565b6200071182828562000636565b600060209050601f83116001811462000749576000841562000734578287015190505b620007408582620006b3565b865550620007b0565b601f1984166200075986620004f5565b60005b8281101562000783578489015182556001820191506020850194506020810190506200075c565b86831015620007a357848901516200079f601f89168262000693565b8355505b6001600288020188555050505b505050505050565b600082825260208201905092915050565b6000620007d68262000486565b620007e28185620007b8565b9350620007f481856020860162000289565b620007ff81620001be565b840191505092915050565b60006020820190508181036000830152620008268184620007c9565b905092915050565b60805160a05161255d6200087e60003960008181610881015281816109210152610bfa01526000818161042c01528181610678015281816107ad01528181610a4e0152610b1c015261255d6000f3fe608060405234801561001057600080fd5b506004361061010b5760003560e01c80634efecaa5116100a2578063a457c2d711610071578063a457c2d7146102ce578063a59a9973146102fe578063a9059cbb1461031c578063dd62ed3e1461034c578063f5298aca1461037c5761010b565b80634efecaa51461023257806370a08231146102625780637158da7c1461029257806395d89b41146102b05761010b565b806323b872dd116100de57806323b872dd14610198578063313ce567146101c857806339509351146101e657806340c10f19146102165761010b565b806306fdde0314610110578063086f6b561461012e578063095ea7b31461014a57806318160ddd1461017a575b600080fd5b610118610398565b60405161012591906118bc565b60405180910390f35b61014860048036038101906101439190611977565b61042a565b005b610164600480360381019061015f9190611977565b6105cc565b60405161017191906119d2565b60405180910390f35b6101826105ef565b60405161018f91906119fc565b60405180910390f35b6101b260048036038101906101ad9190611a17565b6105f9565b6040516101bf91906119d2565b60405180910390f35b6101d0610628565b6040516101dd9190611a86565b60405180910390f35b61020060048036038101906101fb9190611977565b61063f565b60405161020d91906119d2565b60405180910390f35b610230600480360381019061022b9190611977565b610676565b005b61024c60048036038101906102479190611977565b6107a9565b60405161025991906119fc565b60405180910390f35b61027c60048036038101906102779190611aa1565b6108d6565b60405161028991906119fc565b60405180910390f35b61029a61091f565b6040516102a79190611add565b60405180910390f35b6102b8610943565b6040516102c591906118bc565b60405180910390f35b6102e860048036038101906102e39190611977565b6109d5565b6040516102f591906119d2565b60405180910390f35b610306610a4c565b6040516103139190611add565b60405180910390f35b61033660048036038101906103319190611977565b610a70565b60405161034391906119d2565b60405180910390f35b61036660048036038101906103619190611af8565b610a93565b60405161037391906119fc565b60405180910390f35b61039660048036038101906103919190611b38565b610b1a565b005b6060600480546103a790611bba565b80601f01602080910402602001604051908101604052809291908181526020018280546103d390611bba565b80156104205780601f106103f557610100808354040283529160200191610420565b820191906000526020600020905b81548152906001019060200180831161040357829003601f168201915b5050505050905090565b7f000000000000000000000000000000000000000000000000000000000000000073ffffffffffffffffffffffffffffffffffffffff163373ffffffffffffffffffffffffffffffffffffffff16146040518060400160405280600281526020017f3831000000000000000000000000000000000000000000000000000000000000815250906104f0576040517f08c379a00000000000000000000000000000000000000000000000000000000081526004016104e791906118bc565b60405180910390fd5b506104f9610cb2565b600073ffffffffffffffffffffffffffffffffffffffff168273ffffffffffffffffffffffffffffffffffffffff1603610568576040517f08c379a000000000000000000000000000000000000000000000000000000000815260040161055f90611c37565b60405180910390fd5b6105728282610d01565b8173ffffffffffffffffffffffffffffffffffffffff167fea17b8bbfde795b86df1e092d5facbe8dc767e92b40fb3250a403cf3b41340fc826040516105b891906119fc565b60405180910390a26105c8610e58565b5050565b6000806105d7610e62565b90506105e4818585610e6a565b600191505092915050565b6000600354905090565b600080610604610e62565b9050610611858285611033565b61061c8585856110bf565b60019150509392505050565b6000600660009054906101000a900460ff16905090565b60008061064a610e62565b905061066b81858561065c8589610a93565b6106669190611c86565b610e6a565b600191505092915050565b7f000000000000000000000000000000000000000000000000000000000000000073ffffffffffffffffffffffffffffffffffffffff163373ffffffffffffffffffffffffffffffffffffffff16146040518060400160405280600281526020017f38310000000000000000000000000000000000000000000000000000000000008152509061073c576040517f08c379a000000000000000000000000000000000000000000000000000000000815260040161073391906118bc565b60405180910390fd5b50610745610cb2565b61074f8282610d01565b8173ffffffffffffffffffffffffffffffffffffffff167f0f6798a560793a54c3bcfe86a93cde1e73087d944c0ea20544137d41213968858260405161079591906119fc565b60405180910390a26107a5610e58565b5050565b60007f000000000000000000000000000000000000000000000000000000000000000073ffffffffffffffffffffffffffffffffffffffff163373ffffffffffffffffffffffffffffffffffffffff16146040518060400160405280600281526020017f383100000000000000000000000000000000000000000000000000000000000081525090610871576040517f08c379a000000000000000000000000000000000000000000000000000000000815260040161086891906118bc565b60405180910390fd5b5061087a610cb2565b6108c583837f000000000000000000000000000000000000000000000000000000000000000073ffffffffffffffffffffffffffffffffffffffff166113389092919063ffffffff16565b8190506108d0610e58565b92915050565b6000600160008373ffffffffffffffffffffffffffffffffffffffff1673ffffffffffffffffffffffffffffffffffffffff168152602001908152602001600020549050919050565b7f000000000000000000000000000000000000000000000000000000000000000081565b60606005805461095290611bba565b80601f016020809104026020016040519081016040528092919081815260200182805461097e90611bba565b80156109cb5780601f106109a0576101008083540402835291602001916109cb565b820191906000526020600020905b8154815290600101906020018083116109ae57829003601f168201915b5050505050905090565b6000806109e0610e62565b905060006109ee8286610a93565b905083811015610a33576040517f08c379a0000000000000000000000000000000000000000000000000000000008152600401610a2a90611d2c565b60405180910390fd5b610a408286868403610e6a565b60019250505092915050565b7f000000000000000000000000000000000000000000000000000000000000000081565b600080610a7b610e62565b9050610a888185856110bf565b600191505092915050565b6000600260008473ffffffffffffffffffffffffffffffffffffffff1673ffffffffffffffffffffffffffffffffffffffff16815260200190815260200160002060008373ffffffffffffffffffffffffffffffffffffffff1673ffffffffffffffffffffffffffffffffffffffff16815260200190815260200160002054905092915050565b7f000000000000000000000000000000000000000000000000000000000000000073ffffffffffffffffffffffffffffffffffffffff163373ffffffffffffffffffffffffffffffffffffffff16146040518060400160405280600281526020017f383100000000000000000000000000000000000000000000000000000000000081525090610be0576040517f08c379a0000000000000000000000000000000000000000000000000000000008152600401610bd791906118bc565b60405180910390fd5b50610be9610cb2565b610bf333836113be565b610c3e83827f000000000000000000000000000000000000000000000000000000000000000073ffffffffffffffffffffffffffffffffffffffff166113389092919063ffffffff16565b8273ffffffffffffffffffffffffffffffffffffffff163373ffffffffffffffffffffffffffffffffffffffff167f5d624aa9c148153ab3446c1b154f660ee7701e549fe9b62dab7171b1c80e6fa28484604051610c9d929190611d4c565b60405180910390a3610cad610e58565b505050565b600260005403610cf7576040517f08c379a0000000000000000000000000000000000000000000000000000000008152600401610cee90611dc1565b60405180910390fd5b6002600081905550565b600073ffffffffffffffffffffffffffffffffffffffff168273ffffffffffffffffffffffffffffffffffffffff1603610d70576040517f08c379a0000000000000000000000000000000000000000000000000000000008152600401610d6790611e2d565b60405180910390fd5b610d7c6000838361158d565b8060036000828254610d8e9190611c86565b9250508190555080600160008473ffffffffffffffffffffffffffffffffffffffff1673ffffffffffffffffffffffffffffffffffffffff168152602001908152602001600020600082825401925050819055508173ffffffffffffffffffffffffffffffffffffffff16600073ffffffffffffffffffffffffffffffffffffffff167fddf252ad1be2c89b69c2b068fc378daa952ba7f163c4a11628f55a4df523b3ef83604051610e4091906119fc565b60405180910390a3610e5460008383611592565b5050565b6001600081905550565b600033905090565b600073ffffffffffffffffffffffffffffffffffffffff168373ffffffffffffffffffffffffffffffffffffffff1603610ed9576040517f08c379a0000000000000000000000000000000000000000000000000000000008152600401610ed090611ebf565b60405180910390fd5b600073ffffffffffffffffffffffffffffffffffffffff168273ffffffffffffffffffffffffffffffffffffffff1603610f48576040517f08c379a0000000000000000000000000000000000000000000000000000000008152600401610f3f90611f51565b60405180910390fd5b80600260008573ffffffffffffffffffffffffffffffffffffffff1673ffffffffffffffffffffffffffffffffffffffff16815260200190815260200160002060008473ffffffffffffffffffffffffffffffffffffffff1673ffffffffffffffffffffffffffffffffffffffff168152602001908152602001600020819055508173ffffffffffffffffffffffffffffffffffffffff168373ffffffffffffffffffffffffffffffffffffffff167f8c5be1e5ebec7d5bd14f71427d1e84f3dd0314c0f7b2291e5b200ac8c7c3b9258360405161102691906119fc565b60405180910390a3505050565b600061103f8484610a93565b90507fffffffffffffffffffffffffffffffffffffffffffffffffffffffffffffffff81146110b957818110156110ab576040517f08c379a00000000000000000000000000000000000000000000000000000000081526004016110a290611fbd565b60405180910390fd5b6110b88484848403610e6a565b5b50505050565b600073ffffffffffffffffffffffffffffffffffffffff168373ffffffffffffffffffffffffffffffffffffffff160361112e576040517f08c379a00000000000000000000000000000000000000000000000000000000081526004016111259061204f565b60405180910390fd5b600073ffffffffffffffffffffffffffffffffffffffff168273ffffffffffffffffffffffffffffffffffffffff160361119d576040517f08c379a0000000000000000000000000000000000000000000000000000000008152600401611194906120e1565b60405180910390fd5b6111a883838361158d565b6000600160008573ffffffffffffffffffffffffffffffffffffffff1673ffffffffffffffffffffffffffffffffffffffff1681526020019081526020016000205490508181101561122f576040517f08c379a000000000000000000000000000000000000000000000000000000000815260040161122690612173565b60405180910390fd5b818103600160008673ffffffffffffffffffffffffffffffffffffffff1673ffffffffffffffffffffffffffffffffffffffff1681526020019081526020016000208190555081600160008573ffffffffffffffffffffffffffffffffffffffff1673ffffffffffffffffffffffffffffffffffffffff168152602001908152602001600020600082825401925050819055508273ffffffffffffffffffffffffffffffffffffffff168473ffffffffffffffffffffffffffffffffffffffff167fddf252ad1be2c89b69c2b068fc378daa952ba7f163c4a11628f55a4df523b3ef8460405161131f91906119fc565b60405180910390a3611332848484611592565b50505050565b6113b98363a9059cbb60e01b8484604051602401611357929190612193565b604051602081830303815290604052907bffffffffffffffffffffffffffffffffffffffffffffffffffffffff19166020820180517bffffffffffffffffffffffffffffffffffffffffffffffffffffffff8381831617835250505050611597565b505050565b600073ffffffffffffffffffffffffffffffffffffffff168273ffffffffffffffffffffffffffffffffffffffff160361142d576040517f08c379a00000000000000000000000000000000000000000000000000000000081526004016114249061222e565b60405180910390fd5b6114398260008361158d565b6000600160008473ffffffffffffffffffffffffffffffffffffffff1673ffffffffffffffffffffffffffffffffffffffff168152602001908152602001600020549050818110156114c0576040517f08c379a00000000000000000000000000000000000000000000000000000000081526004016114b7906122c0565b60405180910390fd5b818103600160008573ffffffffffffffffffffffffffffffffffffffff1673ffffffffffffffffffffffffffffffffffffffff1681526020019081526020016000208190555081600360008282540392505081905550600073ffffffffffffffffffffffffffffffffffffffff168373ffffffffffffffffffffffffffffffffffffffff167fddf252ad1be2c89b69c2b068fc378daa952ba7f163c4a11628f55a4df523b3ef8460405161157491906119fc565b60405180910390a361158883600084611592565b505050565b505050565b505050565b60006115f9826040518060400160405280602081526020017f5361666545524332303a206c6f772d6c6576656c2063616c6c206661696c65648152508573ffffffffffffffffffffffffffffffffffffffff1661165f9092919063ffffffff16565b905060008151148061161b57508080602001905181019061161a919061230c565b5b61165a576040517f08c379a0000000000000000000000000000000000000000000000000000000008152600401611651906123ab565b60405180910390fd5b505050565b606061166e8484600085611677565b90509392505050565b6060824710156116bc576040517f08c379a00000000000000000000000000000000000000000000000000000000081526004016116b39061243d565b60405180910390fd5b6000808673ffffffffffffffffffffffffffffffffffffffff1685876040516116e591906124a4565b60006040518083038185875af1925050503d8060008114611722576040519150601f19603f3d011682016040523d82523d6000602084013e611727565b606091505b509150915061173887838387611744565b92505050949350505050565b606083156117a657600083510361179e5761175e856117b9565b61179d576040517f08c379a000000000000000000000000000000000000000000000000000000000815260040161179490612507565b60405180910390fd5b5b8290506117b1565b6117b083836117dc565b5b949350505050565b6000808273ffffffffffffffffffffffffffffffffffffffff163b119050919050565b6000825111156117ef5781518083602001fd5b806040517f08c379a000000000000000000000000000000000000000000000000000000000815260040161182391906118bc565b60405180910390fd5b600081519050919050565b600082825260208201905092915050565b60005b8381101561186657808201518184015260208101905061184b565b60008484015250505050565b6000601f19601f8301169050919050565b600061188e8261182c565b6118988185611837565b93506118a8818560208601611848565b6118b181611872565b840191505092915050565b600060208201905081810360008301526118d68184611883565b905092915050565b600080fd5b600073ffffffffffffffffffffffffffffffffffffffff82169050919050565b600061190e826118e3565b9050919050565b61191e81611903565b811461192957600080fd5b50565b60008135905061193b81611915565b92915050565b6000819050919050565b61195481611941565b811461195f57600080fd5b50565b6000813590506119718161194b565b92915050565b6000806040838503121561198e5761198d6118de565b5b600061199c8582860161192c565b92505060206119ad85828601611962565b9150509250929050565b60008115159050919050565b6119cc816119b7565b82525050565b60006020820190506119e760008301846119c3565b92915050565b6119f681611941565b82525050565b6000602082019050611a1160008301846119ed565b92915050565b600080600060608486031215611a3057611a2f6118de565b5b6000611a3e8682870161192c565b9350506020611a4f8682870161192c565b9250506040611a6086828701611962565b9150509250925092565b600060ff82169050919050565b611a8081611a6a565b82525050565b6000602082019050611a9b6000830184611a77565b92915050565b600060208284031215611ab757611ab66118de565b5b6000611ac58482850161192c565b91505092915050565b611ad781611903565b82525050565b6000602082019050611af26000830184611ace565b92915050565b60008060408385031215611b0f57611b0e6118de565b5b6000611b1d8582860161192c565b9250506020611b2e8582860161192c565b9150509250929050565b600080600060608486031215611b5157611b506118de565b5b6000611b5f8682870161192c565b9350506020611b7086828701611962565b9250506040611b8186828701611962565b9150509250925092565b7f4e487b7100000000000000000000000000000000000000000000000000000000600052602260045260246000fd5b60006002820490506001821680611bd257607f821691505b602082108103611be557611be4611b8b565b5b50919050565b7f7a65726f20616464726573730000000000000000000000000000000000000000600082015250565b6000611c21600c83611837565b9150611c2c82611beb565b602082019050919050565b60006020820190508181036000830152611c5081611c14565b9050919050565b7f4e487b7100000000000000000000000000000000000000000000000000000000600052601160045260246000fd5b6000611c9182611941565b9150611c9c83611941565b9250828201905080821115611cb457611cb3611c57565b5b92915050565b7f45524332303a2064656372656173656420616c6c6f77616e63652062656c6f7760008201527f207a65726f000000000000000000000000000000000000000000000000000000602082015250565b6000611d16602583611837565b9150611d2182611cba565b604082019050919050565b60006020820190508181036000830152611d4581611d09565b9050919050565b6000604082019050611d6160008301856119ed565b611d6e60208301846119ed565b9392505050565b7f5265656e7472616e637947756172643a207265656e7472616e742063616c6c00600082015250565b6000611dab601f83611837565b9150611db682611d75565b602082019050919050565b60006020820190508181036000830152611dda81611d9e565b9050919050565b7f45524332303a206d696e7420746f20746865207a65726f206164647265737300600082015250565b6000611e17601f83611837565b9150611e2282611de1565b602082019050919050565b60006020820190508181036000830152611e4681611e0a565b9050919050565b7f45524332303a20617070726f76652066726f6d20746865207a65726f2061646460008201527f7265737300000000000000000000000000000000000000000000000000000000602082015250565b6000611ea9602483611837565b9150611eb482611e4d565b604082019050919050565b60006020820190508181036000830152611ed881611e9c565b9050919050565b7f45524332303a20617070726f766520746f20746865207a65726f20616464726560008201527f7373000000000000000000000000000000000000000000000000000000000000602082015250565b6000611f3b602283611837565b9150611f4682611edf565b604082019050919050565b60006020820190508181036000830152611f6a81611f2e565b9050919050565b7f45524332303a20696e73756666696369656e7420616c6c6f77616e6365000000600082015250565b6000611fa7601d83611837565b9150611fb282611f71565b602082019050919050565b60006020820190508181036000830152611fd681611f9a565b9050919050565b7f45524332303a207472616e736665722066726f6d20746865207a65726f20616460008201527f6472657373000000000000000000000000000000000000000000000000000000602082015250565b6000612039602583611837565b915061204482611fdd565b604082019050919050565b600060208201905081810360008301526120688161202c565b9050919050565b7f45524332303a207472616e7366657220746f20746865207a65726f206164647260008201527f6573730000000000000000000000000000000000000000000000000000000000602082015250565b60006120cb602383611837565b91506120d68261206f565b604082019050919050565b600060208201905081810360008301526120fa816120be565b9050919050565b7f45524332303a207472616e7366657220616d6f756e742065786365656473206260008201527f616c616e63650000000000000000000000000000000000000000000000000000602082015250565b600061215d602683611837565b915061216882612101565b604082019050919050565b6000602082019050818103600083015261218c81612150565b9050919050565b60006040820190506121a86000830185611ace565b6121b560208301846119ed565b9392505050565b7f45524332303a206275726e2066726f6d20746865207a65726f2061646472657360008201527f7300000000000000000000000000000000000000000000000000000000000000602082015250565b6000612218602183611837565b9150612223826121bc565b604082019050919050565b600060208201905081810360008301526122478161220b565b9050919050565b7f45524332303a206275726e20616d6f756e7420657863656564732062616c616e60008201527f6365000000000000000000000000000000000000000000000000000000000000602082015250565b60006122aa602283611837565b91506122b58261224e565b604082019050919050565b600060208201905081810360008301526122d98161229d565b9050919050565b6122e9816119b7565b81146122f457600080fd5b50565b600081519050612306816122e0565b92915050565b600060208284031215612322576123216118de565b5b6000612330848285016122f7565b91505092915050565b7f5361666545524332303a204552433230206f7065726174696f6e20646964206e60008201527f6f74207375636365656400000000000000000000000000000000000000000000602082015250565b6000612395602a83611837565b91506123a082612339565b604082019050919050565b600060208201905081810360008301526123c481612388565b9050919050565b7f416464726573733a20696e73756666696369656e742062616c616e636520666f60008201527f722063616c6c0000000000000000000000000000000000000000000000000000602082015250565b6000612427602683611837565b9150612432826123cb565b604082019050919050565b600060208201905081810360008301526124568161241a565b9050919050565b600081519050919050565b600081905092915050565b600061247e8261245d565b6124888185612468565b9350612498818560208601611848565b80840191505092915050565b60006124b08284612473565b915081905092915050565b7f416464726573733a2063616c6c20746f206e6f6e2d636f6e7472616374000000600082015250565b60006124f1601d83611837565b91506124fc826124bb565b602082019050919050565b60006020820190508181036000830152612520816124e4565b905091905056fea2646970667358221220d3954e031848cbf89697ef6612e099e4c22df58fa1d1ec1a31dc6952fba3cd3264736f6c63430008120033","linkReferences":{}},"methodIdentifiers":{"allowance(address,address)":"dd62ed3e","approve(address,uint256)":"095ea7b3","balanceOf(address)":"70a08231","burn(address,uint256,uint256)":"f5298aca","decimals()":"313ce567","decreaseAllowance(address,uint256)":"a457c2d7","increaseAllowance(address,uint256)":"39509351","lendingPool()":"a59a9973","mint(address,uint256)":"40c10f19","mintToTreasury(address,uint256)":"086f6b56","name()":"06fdde03","symbol()":"95d89b41","totalSupply()":"18160ddd","transfer(address,uint256)":"a9059cbb","transferFrom(address,address,uint256)":"23b872dd","transferUnderlyingTo(address,uint256)":"4efecaa5","underlyingAsset()":"7158da7c"},"id":26}