{"abi":[{"type":"function","name":"getCurrentTick","inputs":[{"name":"v3Pool","type":"address","internalType":"address"}],"outputs":[{"name":"","type":"int24","internalType":"int24"}],"stateMutability":"view"},{"type":"function","name":"principal","inputs":[{"name":"positionManager","type":"address","internalType":"contract ISwapXNonfungiblePositionManager"},{"name":"tokenId","type":"uint256","internalType":"uint256"},{"name":"pool","type":"address","internalType":"address"}],"outputs":[{"name":"amount0","type":"uint256","internalType":"uint256"},{"name":"amount1","type":"uint256","internalType":"uint256"}],"stateMutability":"view"},{"type":"error","name":"T","inputs":[]}],"bytecode":{"object":"0x608060405234801561001057600080fd5b50610fac806100206000396000f3fe608060405234801561001057600080fd5b50600436106100365760003560e01c8063040a5dc11461003b578063e71a24831461006b575b600080fd5b610055600480360381019061005091906109e8565b61009c565b6040516100629190610a31565b60405180910390f35b61008560048036038101906100809190610ac0565b61011e565b604051610093929190610b22565b60405180910390f35b6000808273ffffffffffffffffffffffffffffffffffffffff1663e76c01e46040518163ffffffff1660e01b815260040160c060405180830381865afa1580156100ea573d6000803e3d6000fd5b505050506040513d601f19601f8201168201806040525081019061010e9190610c4e565b5050505091505080915050919050565b60008060008373ffffffffffffffffffffffffffffffffffffffff1663e76c01e46040518163ffffffff1660e01b815260040160c060405180830381865afa15801561016e573d6000803e3d6000fd5b505050506040513d601f19601f820116820180604052508101906101929190610c4e565b5050505050905060008060008873ffffffffffffffffffffffffffffffffffffffff166399fbab88896040518263ffffffff1660e01b81526004016101d79190610cdb565b61016060405180830381865afa1580156101f5573d6000803e3d6000fd5b505050506040513d601f19601f820116820180604052508101906102199190610dab565b50505050965096509650505050506102438461023485610253565b61023d85610253565b8461065f565b9550955050505050935093915050565b60008060008360020b1261026a578260020b610272565b8260020b6000035b90507ffffffffffffffffffffffffffffffffffffffffffffffffffffffffffff2761860000360020b8111156102d4576040517f2bc80f3a00000000000000000000000000000000000000000000000000000000815260040160405180910390fd5b60008060018316036102f757700100000000000000000000000000000000610309565b6ffffcb933bd6fad37aa2d162d1a5940015b70ffffffffffffffffffffffffffffffffff169050600060028316146103435760806ffff97272373d413259a46990580e213a8202901c90505b600060048316146103685760806ffff2e50f5f656932ef12357cf3c7fdcc8202901c90505b6000600883161461038d5760806fffe5caca7e10e4e61c3624eaa0941cd08202901c90505b600060108316146103b25760806fffcb9843d60f6159c9db58835c9266448202901c90505b600060208316146103d75760806fff973b41fa98c081472e6896dfb254c08202901c90505b600060408316146103fc5760806fff2ea16466c96a3843ec78b326b528618202901c90505b600060808316146104215760806ffe5dee046a99a2a811c461f1969c30538202901c90505b60006101008316146104475760806ffcbe86c7900a88aedcffc83b479aa3a48202901c90505b600061020083161461046d5760806ff987a7253ac413176f2b074cf7815e548202901c90505b60006104008316146104935760806ff3392b0822b70005940c7a398e4b70f38202901c90505b60006108008316146104b95760806fe7159475a2c29b7443b29c7fa6e889d98202901c90505b60006110008316146104df5760806fd097f3bdfd2022b8845ad8f792aa58258202901c90505b60006120008316146105055760806fa9f746462d870fdf8a65dc1f90e061e58202901c90505b600061400083161461052b5760806f70d869a156d2a1b890bb3df62baf32f78202901c90505b60006180008316146105515760806f31be135f97d08fd981231505542fcfa68202901c90505b6000620100008316146105785760806f09aa508b5b7a84e1c677de54f3e99bc98202901c90505b60006202000083161461059e5760806e5d6af8dedb81196699c329225ee6048202901c90505b6000620400008316146105c35760806d2216e584f5fa1ea926041bedfe988202901c90505b6000620800008316146105e65760806b048a170391f7dc42444e8fa28202901c90505b60008460020b131561062657807fffffffffffffffffffffffffffffffffffffffffffffffffffffffffffffffff8161062257610621610e9f565b5b0490505b6000640100000000828161063d5761063c610e9f565b5b061461064a57600161064d565b60005b60ff16602082901c0192505050919050565b6000808373ffffffffffffffffffffffffffffffffffffffff168573ffffffffffffffffffffffffffffffffffffffff1611156106a157838580955081965050505b8473ffffffffffffffffffffffffffffffffffffffff168673ffffffffffffffffffffffffffffffffffffffff16116106e6576106df858585610751565b9150610748565b8373ffffffffffffffffffffffffffffffffffffffff168673ffffffffffffffffffffffffffffffffffffffff16101561073957610725868585610751565b9150610732858785610817565b9050610747565b610744858585610817565b90505b5b94509492505050565b60008273ffffffffffffffffffffffffffffffffffffffff168473ffffffffffffffffffffffffffffffffffffffff16111561079257828480945081955050505b8373ffffffffffffffffffffffffffffffffffffffff16610804606060ff16846fffffffffffffffffffffffffffffffff16901b86866107d29190610efd565b73ffffffffffffffffffffffffffffffffffffffff168673ffffffffffffffffffffffffffffffffffffffff166108ac565b61080e9190610f45565b90509392505050565b60008273ffffffffffffffffffffffffffffffffffffffff168473ffffffffffffffffffffffffffffffffffffffff16111561085857828480945081955050505b6108a3826fffffffffffffffffffffffffffffffff16858561087a9190610efd565b73ffffffffffffffffffffffffffffffffffffffff166c010000000000000000000000006108ac565b90509392505050565b60008060008019858709858702925082811083820303915050600081036108e657600084116108da57600080fd5b8382049250505061097e565b8084116108f257600080fd5b600084868809905082811182039150808303925060008586600003169050808604955080840493506001818260000304019050808302841793506000600287600302189050808702600203810290508087026002038102905080870260020381029050808702600203810290508087026002038102905080870260020381029050808502955050505050505b9392505050565b600080fd5b600073ffffffffffffffffffffffffffffffffffffffff82169050919050565b60006109b58261098a565b9050919050565b6109c5816109aa565b81146109d057600080fd5b50565b6000813590506109e2816109bc565b92915050565b6000602082840312156109fe576109fd610985565b5b6000610a0c848285016109d3565b91505092915050565b60008160020b9050919050565b610a2b81610a15565b82525050565b6000602082019050610a466000830184610a22565b92915050565b6000610a57826109aa565b9050919050565b610a6781610a4c565b8114610a7257600080fd5b50565b600081359050610a8481610a5e565b92915050565b6000819050919050565b610a9d81610a8a565b8114610aa857600080fd5b50565b600081359050610aba81610a94565b92915050565b600080600060608486031215610ad957610ad8610985565b5b6000610ae786828701610a75565b9350506020610af886828701610aab565b9250506040610b09868287016109d3565b9150509250925092565b610b1c81610a8a565b82525050565b6000604082019050610b376000830185610b13565b610b446020830184610b13565b9392505050565b610b548161098a565b8114610b5f57600080fd5b50565b600081519050610b7181610b4b565b92915050565b610b8081610a15565b8114610b8b57600080fd5b50565b600081519050610b9d81610b77565b92915050565b600061ffff82169050919050565b610bba81610ba3565b8114610bc557600080fd5b50565b600081519050610bd781610bb1565b92915050565b600060ff82169050919050565b610bf381610bdd565b8114610bfe57600080fd5b50565b600081519050610c1081610bea565b92915050565b60008115159050919050565b610c2b81610c16565b8114610c3657600080fd5b50565b600081519050610c4881610c22565b92915050565b60008060008060008060c08789031215610c6b57610c6a610985565b5b6000610c7989828a01610b62565b9650506020610c8a89828a01610b8e565b9550506040610c9b89828a01610bc8565b9450506060610cac89828a01610c01565b9350506080610cbd89828a01610bc8565b92505060a0610cce89828a01610c39565b9150509295509295509295565b6000602082019050610cf06000830184610b13565b92915050565b60006affffffffffffffffffffff82169050919050565b610d1681610cf6565b8114610d2157600080fd5b50565b600081519050610d3381610d0d565b92915050565b600081519050610d48816109bc565b92915050565b60006fffffffffffffffffffffffffffffffff82169050919050565b610d7381610d4e565b8114610d7e57600080fd5b50565b600081519050610d9081610d6a565b92915050565b600081519050610da581610a94565b92915050565b60008060008060008060008060008060006101608c8e031215610dd157610dd0610985565b5b6000610ddf8e828f01610d24565b9b50506020610df08e828f01610d39565b9a50506040610e018e828f01610d39565b9950506060610e128e828f01610d39565b9850506080610e238e828f01610b8e565b97505060a0610e348e828f01610b8e565b96505060c0610e458e828f01610d81565b95505060e0610e568e828f01610d96565b945050610100610e688e828f01610d96565b935050610120610e7a8e828f01610d81565b925050610140610e8c8e828f01610d81565b9150509295989b509295989b9093969950565b7f4e487b7100000000000000000000000000000000000000000000000000000000600052601260045260246000fd5b7f4e487b7100000000000000000000000000000000000000000000000000000000600052601160045260246000fd5b6000610f088261098a565b9150610f138361098a565b9250828203905073ffffffffffffffffffffffffffffffffffffffff811115610f3f57610f3e610ece565b5b92915050565b6000610f5082610a8a565b9150610f5b83610a8a565b925082610f6b57610f6a610e9f565b5b82820490509291505056fea26469706673582212207ee60b2beb35226a39ab9a9ebddca5238b9d8436ba92ab46a51051992439fbd964736f6c63430008120033","linkReferences":{}},"methodIdentifiers":{"getCurrentTick(address)":"040a5dc1","principal(address,uint256,address)":"e71a2483"},"id":50}