{"abi":[{"type":"constructor","inputs":[{"name":"_stakingToken","type":"address","internalType":"address"}],"stateMutability":"nonpayable"},{"type":"function","name":"balanceOf","inputs":[{"name":"","type":"address","internalType":"address"}],"outputs":[{"name":"","type":"uint256","internalType":"uint256"}],"stateMutability":"view"},{"type":"function","name":"claim","inputs":[],"outputs":[],"stateMutability":"nonpayable"},{"type":"function","name":"earned","inputs":[{"name":"user","type":"address","internalType":"address"},{"name":"rewardToken","type":"address","internalType":"address"}],"outputs":[{"name":"","type":"uint256","internalType":"uint256"}],"stateMutability":"view"},{"type":"function","name":"inRewardsTokenList","inputs":[{"name":"","type":"address","internalType":"address"}],"outputs":[{"name":"","type":"bool","internalType":"bool"}],"stateMutability":"view"},{"type":"function","name":"lendingPool","inputs":[],"outputs":[{"name":"","type":"address","internalType":"address"}],"stateMutability":"view"},{"type":"function","name":"owner","inputs":[],"outputs":[{"name":"","type":"address","internalType":"address"}],"stateMutability":"view"},{"type":"function","name":"renounceOwnership","inputs":[],"outputs":[],"stateMutability":"nonpayable"},{"type":"function","name":"rewardData","inputs":[{"name":"","type":"address","internalType":"address"}],"outputs":[{"name":"startTime","type":"uint256","internalType":"uint256"},{"name":"endTime","type":"uint256","internalType":"uint256"},{"name":"rewardRate","type":"uint256","internalType":"uint256"},{"name":"lastUpdateTime","type":"uint256","internalType":"uint256"},{"name":"rewardPerTokenStored","type":"uint256","internalType":"uint256"}],"stateMutability":"view"},{"type":"function","name":"rewardPerToken","inputs":[{"name":"rewardToken","type":"address","internalType":"address"}],"outputs":[{"name":"","type":"uint256","internalType":"uint256"}],"stateMutability":"view"},{"type":"function","name":"rewardTokens","inputs":[{"name":"","type":"uint256","internalType":"uint256"}],"outputs":[{"name":"","type":"address","internalType":"address"}],"stateMutability":"view"},{"type":"function","name":"rewardsTokenListLength","inputs":[],"outputs":[{"name":"","type":"uint256","internalType":"uint256"}],"stateMutability":"view"},{"type":"function","name":"setReward","inputs":[{"name":"rewardToken","type":"address","internalType":"address"},{"name":"startTime","type":"uint256","internalType":"uint256"},{"name":"endTime","type":"uint256","internalType":"uint256"},{"name":"totalRewards","type":"uint256","internalType":"uint256"}],"outputs":[],"stateMutability":"nonpayable"},{"type":"function","name":"stake","inputs":[{"name":"amount","type":"uint256","internalType":"uint256"},{"name":"onBehalfOf","type":"address","internalType":"address"}],"outputs":[],"stateMutability":"nonpayable"},{"type":"function","name":"stakedToken","inputs":[],"outputs":[{"name":"","type":"address","internalType":"contract IERC20"}],"stateMutability":"view"},{"type":"function","name":"totalStaked","inputs":[],"outputs":[{"name":"","type":"uint256","internalType":"uint256"}],"stateMutability":"view"},{"type":"function","name":"transferOwnership","inputs":[{"name":"newOwner","type":"address","internalType":"address"}],"outputs":[],"stateMutability":"nonpayable"},{"type":"function","name":"update","inputs":[],"outputs":[],"stateMutability":"nonpayable"},{"type":"function","name":"userRewardPerTokenPaid","inputs":[{"name":"","type":"address","internalType":"address"},{"name":"","type":"address","internalType":"address"}],"outputs":[{"name":"","type":"uint256","internalType":"uint256"}],"stateMutability":"view"},{"type":"function","name":"userRewardsClaimable","inputs":[{"name":"","type":"address","internalType":"address"},{"name":"","type":"address","internalType":"address"}],"outputs":[{"name":"","type":"uint256","internalType":"uint256"}],"stateMutability":"view"},{"type":"function","name":"withdraw","inputs":[{"name":"amount","type":"uint256","internalType":"uint256"},{"name":"to","type":"address","internalType":"address"}],"outputs":[],"stateMutability":"nonpayable"},{"type":"function","name":"withdrawByLendingPool","inputs":[{"name":"amount","type":"uint256","internalType":"uint256"},{"name":"user","type":"address","internalType":"address"},{"name":"to","type":"address","internalType":"address"}],"outputs":[],"stateMutability":"nonpayable"},{"type":"event","name":"OwnershipTransferred","inputs":[{"name":"previousOwner","type":"address","indexed":true,"internalType":"address"},{"name":"newOwner","type":"address","indexed":true,"internalType":"address"}],"anonymous":false},{"type":"event","name":"RewardPaid","inputs":[{"name":"user","type":"address","indexed":true,"internalType":"address"},{"name":"rewardsToken","type":"address","indexed":true,"internalType":"address"},{"name":"claimed","type":"uint256","indexed":false,"internalType":"uint256"}],"anonymous":false},{"type":"event","name":"RewardsSet","inputs":[{"name":"rewardsToken","type":"address","indexed":false,"internalType":"address"},{"name":"start","type":"uint256","indexed":false,"internalType":"uint256"},{"name":"end","type":"uint256","indexed":false,"internalType":"uint256"},{"name":"total","type":"uint256","indexed":false,"internalType":"uint256"}],"anonymous":false},{"type":"event","name":"Staked","inputs":[{"name":"user","type":"address","indexed":true,"internalType":"address"},{"name":"onBehalfOf","type":"address","indexed":true,"internalType":"address"},{"name":"amount","type":"uint256","indexed":false,"internalType":"uint256"}],"anonymous":false},{"type":"event","name":"Withdraw","inputs":[{"name":"user","type":"address","indexed":true,"internalType":"address"},{"name":"to","type":"address","indexed":true,"internalType":"address"},{"name":"amount","type":"uint256","indexed":false,"internalType":"uint256"}],"anonymous":false}],"bytecode":{"object":"0x60c060405260016008553480156200001657600080fd5b5060405162003ed638038062003ed683398181016040528101906200003c919062000201565b6200005c62000050620000cb60201b60201c565b620000d360201b60201c565b8073ffffffffffffffffffffffffffffffffffffffff1660808173ffffffffffffffffffffffffffffffffffffffff16815250503373ffffffffffffffffffffffffffffffffffffffff1660a08173ffffffffffffffffffffffffffffffffffffffff16815250505062000233565b600033905090565b60008060009054906101000a900473ffffffffffffffffffffffffffffffffffffffff169050816000806101000a81548173ffffffffffffffffffffffffffffffffffffffff021916908373ffffffffffffffffffffffffffffffffffffffff1602179055508173ffffffffffffffffffffffffffffffffffffffff168173ffffffffffffffffffffffffffffffffffffffff167f8be0079c531659141344cd1fd0a4f28419497f9722a3daafe3b4186f6b6457e060405160405180910390a35050565b600080fd5b600073ffffffffffffffffffffffffffffffffffffffff82169050919050565b6000620001c9826200019c565b9050919050565b620001db81620001bc565b8114620001e757600080fd5b50565b600081519050620001fb81620001d0565b92915050565b6000602082840312156200021a576200021962000197565b5b60006200022a84828501620001ea565b91505092915050565b60805160a051613c61620002756000396000818161099a01526126b601526000818161080f01528181610de9015281816121d901526126da0152613c616000f3fe608060405234801561001057600080fd5b50600436106101365760003560e01c80637acb7757116100b85780639f9a43f21161007c5780639f9a43f21461033d578063a2e620451461036d578063a59a997314610377578063cc7a262e14610395578063f1229777146103b3578063f2fde38b146103e357610136565b80637acb7757146102975780637bb7bed1146102b3578063817b1cd2146102e35780638da5cb5b146103015780638de4e9901461031f57610136565b80634e71d92d116100ff5780634e71d92d146102075780635f7938f1146102115780637035ab981461022d57806370a082311461025d578063715018a61461028d57610136565b8062f714ce1461013b5780630e596e3b146101575780631b503fa514610187578063211dc32d146101a357806348e5d9f8146101d3575b600080fd5b6101556004803603810190610150919061306c565b6103ff565b005b610171600480360381019061016c91906130ac565b61095c565b60405161017e91906130fb565b60405180910390f35b6101a1600480360381019061019c9190613116565b610981565b005b6101bd60048036038101906101b891906130ac565b610f37565b6040516101ca91906130fb565b60405180910390f35b6101ed60048036038101906101e89190613169565b610f59565b6040516101fe959493929190613196565b60405180910390f35b61020f610f8f565b005b61022b600480360381019061022691906131e9565b61158e565b005b610247600480360381019061024291906130ac565b611de1565b60405161025491906130fb565b60405180910390f35b61027760048036038101906102729190613169565b611e06565b60405161028491906130fb565b60405180910390f35b610295611e1e565b005b6102b160048036038101906102ac919061306c565b611e32565b005b6102cd60048036038101906102c89190613250565b6122ff565b6040516102da919061328c565b60405180910390f35b6102eb61233e565b6040516102f891906130fb565b60405180910390f35b610309612344565b604051610316919061328c565b60405180910390f35b61032761236d565b60405161033491906130fb565b60405180910390f35b61035760048036038101906103529190613169565b61237a565b60405161036491906132c2565b60405180910390f35b61037561239a565b005b61037f6126b4565b60405161038c919061328c565b60405180910390f35b61039d6126d8565b6040516103aa919061333c565b60405180910390f35b6103cd60048036038101906103c89190613169565b6126fc565b6040516103da91906130fb565b60405180910390f35b6103fd60048036038101906103f89190613169565b612953565b005b600160085414610444576040517f08c379a000000000000000000000000000000000000000000000000000000000815260040161043b906133b4565b60405180910390fd5b60026008819055503360005b60018054905081101561075a57600060018281548110610473576104726133d4565b5b9060005260206000200160009054906101000a900473ffffffffffffffffffffffffffffffffffffffff1690506104a9816126fc565b600460008373ffffffffffffffffffffffffffffffffffffffff1673ffffffffffffffffffffffffffffffffffffffff1681526020019081526020016000206004018190555061053b600460008373ffffffffffffffffffffffffffffffffffffffff1673ffffffffffffffffffffffffffffffffffffffff16815260200190815260200160002060010154426129d6565b600460008373ffffffffffffffffffffffffffffffffffffffff1673ffffffffffffffffffffffffffffffffffffffff16815260200190815260200160002060030181905550600073ffffffffffffffffffffffffffffffffffffffff168373ffffffffffffffffffffffffffffffffffffffff1614610746576106028382600460008573ffffffffffffffffffffffffffffffffffffffff1673ffffffffffffffffffffffffffffffffffffffff168152602001908152602001600020600401546129ef565b600760008573ffffffffffffffffffffffffffffffffffffffff1673ffffffffffffffffffffffffffffffffffffffff16815260200190815260200160002060008373ffffffffffffffffffffffffffffffffffffffff1673ffffffffffffffffffffffffffffffffffffffff16815260200190815260200160002081905550600460008273ffffffffffffffffffffffffffffffffffffffff1673ffffffffffffffffffffffffffffffffffffffff16815260200190815260200160002060040154600660008573ffffffffffffffffffffffffffffffffffffffff1673ffffffffffffffffffffffffffffffffffffffff16815260200190815260200160002060008373ffffffffffffffffffffffffffffffffffffffff1673ffffffffffffffffffffffffffffffffffffffff168152602001908152602001600020819055505b50808061075290613432565b915050610450565b506000831161079e576040517f08c379a0000000000000000000000000000000000000000000000000000000008152600401610795906134c6565b60405180910390fd5b82600560003373ffffffffffffffffffffffffffffffffffffffff1673ffffffffffffffffffffffffffffffffffffffff16815260200190815260200160002060008282546107ed91906134e6565b92505081905550826003600082825461080691906134e6565b925050819055507f000000000000000000000000000000000000000000000000000000000000000073ffffffffffffffffffffffffffffffffffffffff1663a9059cbb83856040518363ffffffff1660e01b815260040161086892919061351a565b6020604051808303816000875af1158015610887573d6000803e3d6000fd5b505050506040513d601f19601f820116820180604052508101906108ab919061356f565b6108ea576040517f08c379a00000000000000000000000000000000000000000000000000000000081526004016108e1906135e8565b60405180910390fd5b8173ffffffffffffffffffffffffffffffffffffffff163373ffffffffffffffffffffffffffffffffffffffff167f9b1bfa7fa9ee420a16e124f794c35ac9f90472acc99140eb2f6447c714cad8eb8560405161094791906130fb565b60405180910390a35060016008819055505050565b6007602052816000526040600020602052806000526040600020600091509150505481565b3373ffffffffffffffffffffffffffffffffffffffff167f000000000000000000000000000000000000000000000000000000000000000073ffffffffffffffffffffffffffffffffffffffff16146109d957600080fd5b600160085414610a1e576040517f08c379a0000000000000000000000000000000000000000000000000000000008152600401610a15906133b4565b60405180910390fd5b60026008819055508160005b600180549050811015610d3457600060018281548110610a4d57610a4c6133d4565b5b9060005260206000200160009054906101000a900473ffffffffffffffffffffffffffffffffffffffff169050610a83816126fc565b600460008373ffffffffffffffffffffffffffffffffffffffff1673ffffffffffffffffffffffffffffffffffffffff16815260200190815260200160002060040181905550610b15600460008373ffffffffffffffffffffffffffffffffffffffff1673ffffffffffffffffffffffffffffffffffffffff16815260200190815260200160002060010154426129d6565b600460008373ffffffffffffffffffffffffffffffffffffffff1673ffffffffffffffffffffffffffffffffffffffff16815260200190815260200160002060030181905550600073ffffffffffffffffffffffffffffffffffffffff168373ffffffffffffffffffffffffffffffffffffffff1614610d2057610bdc8382600460008573ffffffffffffffffffffffffffffffffffffffff1673ffffffffffffffffffffffffffffffffffffffff168152602001908152602001600020600401546129ef565b600760008573ffffffffffffffffffffffffffffffffffffffff1673ffffffffffffffffffffffffffffffffffffffff16815260200190815260200160002060008373ffffffffffffffffffffffffffffffffffffffff1673ffffffffffffffffffffffffffffffffffffffff16815260200190815260200160002081905550600460008273ffffffffffffffffffffffffffffffffffffffff1673ffffffffffffffffffffffffffffffffffffffff16815260200190815260200160002060040154600660008573ffffffffffffffffffffffffffffffffffffffff1673ffffffffffffffffffffffffffffffffffffffff16815260200190815260200160002060008373ffffffffffffffffffffffffffffffffffffffff1673ffffffffffffffffffffffffffffffffffffffff168152602001908152602001600020819055505b508080610d2c90613432565b915050610a2a565b5060008411610d78576040517f08c379a0000000000000000000000000000000000000000000000000000000008152600401610d6f906134c6565b60405180910390fd5b83600560008573ffffffffffffffffffffffffffffffffffffffff1673ffffffffffffffffffffffffffffffffffffffff1681526020019081526020016000206000828254610dc791906134e6565b925050819055508360036000828254610de091906134e6565b925050819055507f000000000000000000000000000000000000000000000000000000000000000073ffffffffffffffffffffffffffffffffffffffff1663a9059cbb83866040518363ffffffff1660e01b8152600401610e4292919061351a565b6020604051808303816000875af1158015610e61573d6000803e3d6000fd5b505050506040513d601f19601f82011682018060405250810190610e85919061356f565b610ec4576040517f08c379a0000000000000000000000000000000000000000000000000000000008152600401610ebb90613654565b60405180910390fd5b8173ffffffffffffffffffffffffffffffffffffffff168373ffffffffffffffffffffffffffffffffffffffff167f9b1bfa7fa9ee420a16e124f794c35ac9f90472acc99140eb2f6447c714cad8eb86604051610f2191906130fb565b60405180910390a3506001600881905550505050565b600080610f43836126fc565b9050610f508484836129ef565b91505092915050565b60046020528060005260406000206000915090508060000154908060010154908060020154908060030154908060040154905085565b600160085414610fd4576040517f08c379a0000000000000000000000000000000000000000000000000000000008152600401610fcb906133b4565b60405180910390fd5b60026008819055503360005b6001805490508110156112ea57600060018281548110611003576110026133d4565b5b9060005260206000200160009054906101000a900473ffffffffffffffffffffffffffffffffffffffff169050611039816126fc565b600460008373ffffffffffffffffffffffffffffffffffffffff1673ffffffffffffffffffffffffffffffffffffffff168152602001908152602001600020600401819055506110cb600460008373ffffffffffffffffffffffffffffffffffffffff1673ffffffffffffffffffffffffffffffffffffffff16815260200190815260200160002060010154426129d6565b600460008373ffffffffffffffffffffffffffffffffffffffff1673ffffffffffffffffffffffffffffffffffffffff16815260200190815260200160002060030181905550600073ffffffffffffffffffffffffffffffffffffffff168373ffffffffffffffffffffffffffffffffffffffff16146112d6576111928382600460008573ffffffffffffffffffffffffffffffffffffffff1673ffffffffffffffffffffffffffffffffffffffff168152602001908152602001600020600401546129ef565b600760008573ffffffffffffffffffffffffffffffffffffffff1673ffffffffffffffffffffffffffffffffffffffff16815260200190815260200160002060008373ffffffffffffffffffffffffffffffffffffffff1673ffffffffffffffffffffffffffffffffffffffff16815260200190815260200160002081905550600460008273ffffffffffffffffffffffffffffffffffffffff1673ffffffffffffffffffffffffffffffffffffffff16815260200190815260200160002060040154600660008573ffffffffffffffffffffffffffffffffffffffff1673ffffffffffffffffffffffffffffffffffffffff16815260200190815260200160002060008373ffffffffffffffffffffffffffffffffffffffff1673ffffffffffffffffffffffffffffffffffffffff168152602001908152602001600020819055505b5080806112e290613432565b915050610fe0565b5060005b60018054905081101561158257600060018281548110611311576113106133d4565b5b9060005260206000200160009054906101000a900473ffffffffffffffffffffffffffffffffffffffff1690506000600760003373ffffffffffffffffffffffffffffffffffffffff1673ffffffffffffffffffffffffffffffffffffffff16815260200190815260200160002060008373ffffffffffffffffffffffffffffffffffffffff1673ffffffffffffffffffffffffffffffffffffffff168152602001908152602001600020549050600081111561156d576000600760003373ffffffffffffffffffffffffffffffffffffffff1673ffffffffffffffffffffffffffffffffffffffff16815260200190815260200160002060008473ffffffffffffffffffffffffffffffffffffffff1673ffffffffffffffffffffffffffffffffffffffff168152602001908152602001600020819055508173ffffffffffffffffffffffffffffffffffffffff1663a9059cbb33836040518363ffffffff1660e01b815260040161148592919061351a565b6020604051808303816000875af11580156114a4573d6000803e3d6000fd5b505050506040513d601f19601f820116820180604052508101906114c8919061356f565b611507576040517f08c379a00000000000000000000000000000000000000000000000000000000081526004016114fe906135e8565b60405180910390fd5b8173ffffffffffffffffffffffffffffffffffffffff163373ffffffffffffffffffffffffffffffffffffffff167f540798df468d7b23d11f156fdb954cb19ad414d150722a7b6d55ba369dea792e8360405161156491906130fb565b60405180910390a35b5050808061157a90613432565b9150506112ee565b50506001600881905550565b611596612b6b565b6001600854146115db576040517f08c379a00000000000000000000000000000000000000000000000000000000081526004016115d2906133b4565b60405180910390fd5b60026008819055506000805b6001805490508110156118f15760006001828154811061160a576116096133d4565b5b9060005260206000200160009054906101000a900473ffffffffffffffffffffffffffffffffffffffff169050611640816126fc565b600460008373ffffffffffffffffffffffffffffffffffffffff1673ffffffffffffffffffffffffffffffffffffffff168152602001908152602001600020600401819055506116d2600460008373ffffffffffffffffffffffffffffffffffffffff1673ffffffffffffffffffffffffffffffffffffffff16815260200190815260200160002060010154426129d6565b600460008373ffffffffffffffffffffffffffffffffffffffff1673ffffffffffffffffffffffffffffffffffffffff16815260200190815260200160002060030181905550600073ffffffffffffffffffffffffffffffffffffffff168373ffffffffffffffffffffffffffffffffffffffff16146118dd576117998382600460008573ffffffffffffffffffffffffffffffffffffffff1673ffffffffffffffffffffffffffffffffffffffff168152602001908152602001600020600401546129ef565b600760008573ffffffffffffffffffffffffffffffffffffffff1673ffffffffffffffffffffffffffffffffffffffff16815260200190815260200160002060008373ffffffffffffffffffffffffffffffffffffffff1673ffffffffffffffffffffffffffffffffffffffff16815260200190815260200160002081905550600460008273ffffffffffffffffffffffffffffffffffffffff1673ffffffffffffffffffffffffffffffffffffffff16815260200190815260200160002060040154600660008573ffffffffffffffffffffffffffffffffffffffff1673ffffffffffffffffffffffffffffffffffffffff16815260200190815260200160002060008373ffffffffffffffffffffffffffffffffffffffff1673ffffffffffffffffffffffffffffffffffffffff168152602001908152602001600020819055505b5080806118e990613432565b9150506115e7565b50828410611934576040517f08c379a000000000000000000000000000000000000000000000000000000000815260040161192b906136c0565b60405180910390fd5b42600460008773ffffffffffffffffffffffffffffffffffffffff1673ffffffffffffffffffffffffffffffffffffffff16815260200190815260200160002060010154106119b8576040517f08c379a00000000000000000000000000000000000000000000000000000000081526004016119af9061372c565b60405180910390fd5b600260008673ffffffffffffffffffffffffffffffffffffffff1673ffffffffffffffffffffffffffffffffffffffff16815260200190815260200160002060009054906101000a900460ff16611ac5576001859080600181540180825580915050600190039060005260206000200160009091909190916101000a81548173ffffffffffffffffffffffffffffffffffffffff021916908373ffffffffffffffffffffffffffffffffffffffff1602179055506001600260008773ffffffffffffffffffffffffffffffffffffffff1673ffffffffffffffffffffffffffffffffffffffff16815260200190815260200160002060006101000a81548160ff0219169083151502179055505b83600460008773ffffffffffffffffffffffffffffffffffffffff1673ffffffffffffffffffffffffffffffffffffffff1681526020019081526020016000206000018190555082600460008773ffffffffffffffffffffffffffffffffffffffff1673ffffffffffffffffffffffffffffffffffffffff1681526020019081526020016000206001018190555042600460008773ffffffffffffffffffffffffffffffffffffffff1673ffffffffffffffffffffffffffffffffffffffff168152602001908152602001600020600301819055508383611ba691906134e6565b82611bb1919061377b565b600460008773ffffffffffffffffffffffffffffffffffffffff1673ffffffffffffffffffffffffffffffffffffffff168152602001908152602001600020600201819055508342118015611c0857506000600354115b15611ce55760008442611c1b91906134e6565b9050600354670de0b6b3a764000082600460008a73ffffffffffffffffffffffffffffffffffffffff1673ffffffffffffffffffffffffffffffffffffffff16815260200190815260200160002060020154611c7791906137ac565b611c8191906137ac565b611c8b919061377b565b600460008873ffffffffffffffffffffffffffffffffffffffff1673ffffffffffffffffffffffffffffffffffffffff1681526020019081526020016000206004016000828254611cdc91906137ee565b92505081905550505b8342118015611cf657506000600354145b15611d685760008442611d0991906134e6565b905080600460008873ffffffffffffffffffffffffffffffffffffffff1673ffffffffffffffffffffffffffffffffffffffff16815260200190815260200160002060020154611d5991906137ac565b83611d6491906134e6565b9250505b611d953330848873ffffffffffffffffffffffffffffffffffffffff16612be9909392919063ffffffff16565b7faecc43db5fdd30351e900b7f70db87835b0fc811d39693c6f1fa82d05d1cf99185858585604051611dca9493929190613822565b60405180910390a150600160088190555050505050565b6006602052816000526040600020602052806000526040600020600091509150505481565b60056020528060005260406000206000915090505481565b611e26612b6b565b611e306000612c72565b565b600160085414611e77576040517f08c379a0000000000000000000000000000000000000000000000000000000008152600401611e6e906133b4565b60405180910390fd5b60026008819055508060005b60018054905081101561218d57600060018281548110611ea657611ea56133d4565b5b9060005260206000200160009054906101000a900473ffffffffffffffffffffffffffffffffffffffff169050611edc816126fc565b600460008373ffffffffffffffffffffffffffffffffffffffff1673ffffffffffffffffffffffffffffffffffffffff16815260200190815260200160002060040181905550611f6e600460008373ffffffffffffffffffffffffffffffffffffffff1673ffffffffffffffffffffffffffffffffffffffff16815260200190815260200160002060010154426129d6565b600460008373ffffffffffffffffffffffffffffffffffffffff1673ffffffffffffffffffffffffffffffffffffffff16815260200190815260200160002060030181905550600073ffffffffffffffffffffffffffffffffffffffff168373ffffffffffffffffffffffffffffffffffffffff1614612179576120358382600460008573ffffffffffffffffffffffffffffffffffffffff1673ffffffffffffffffffffffffffffffffffffffff168152602001908152602001600020600401546129ef565b600760008573ffffffffffffffffffffffffffffffffffffffff1673ffffffffffffffffffffffffffffffffffffffff16815260200190815260200160002060008373ffffffffffffffffffffffffffffffffffffffff1673ffffffffffffffffffffffffffffffffffffffff16815260200190815260200160002081905550600460008273ffffffffffffffffffffffffffffffffffffffff1673ffffffffffffffffffffffffffffffffffffffff16815260200190815260200160002060040154600660008573ffffffffffffffffffffffffffffffffffffffff1673ffffffffffffffffffffffffffffffffffffffff16815260200190815260200160002060008373ffffffffffffffffffffffffffffffffffffffff1673ffffffffffffffffffffffffffffffffffffffff168152602001908152602001600020819055505b50808061218590613432565b915050611e83565b50600083116121d1576040517f08c379a00000000000000000000000000000000000000000000000000000000081526004016121c8906134c6565b60405180910390fd5b61221e3330857f000000000000000000000000000000000000000000000000000000000000000073ffffffffffffffffffffffffffffffffffffffff16612be9909392919063ffffffff16565b82600560008473ffffffffffffffffffffffffffffffffffffffff1673ffffffffffffffffffffffffffffffffffffffff168152602001908152602001600020600082825461226d91906137ee565b92505081905550826003600082825461228691906137ee565b925050819055508173ffffffffffffffffffffffffffffffffffffffff163373ffffffffffffffffffffffffffffffffffffffff167f5dac0c1b1112564a045ba943c9d50270893e8e826c49be8e7073adc713ab7bd7856040516122ea91906130fb565b60405180910390a35060016008819055505050565b6001818154811061230f57600080fd5b906000526020600020016000915054906101000a900473ffffffffffffffffffffffffffffffffffffffff1681565b60035481565b60008060009054906101000a900473ffffffffffffffffffffffffffffffffffffffff16905090565b6000600180549050905090565b60026020528060005260406000206000915054906101000a900460ff1681565b6000805b6001805490508110156126a8576000600182815481106123c1576123c06133d4565b5b9060005260206000200160009054906101000a900473ffffffffffffffffffffffffffffffffffffffff1690506123f7816126fc565b600460008373ffffffffffffffffffffffffffffffffffffffff1673ffffffffffffffffffffffffffffffffffffffff16815260200190815260200160002060040181905550612489600460008373ffffffffffffffffffffffffffffffffffffffff1673ffffffffffffffffffffffffffffffffffffffff16815260200190815260200160002060010154426129d6565b600460008373ffffffffffffffffffffffffffffffffffffffff1673ffffffffffffffffffffffffffffffffffffffff16815260200190815260200160002060030181905550600073ffffffffffffffffffffffffffffffffffffffff168373ffffffffffffffffffffffffffffffffffffffff1614612694576125508382600460008573ffffffffffffffffffffffffffffffffffffffff1673ffffffffffffffffffffffffffffffffffffffff168152602001908152602001600020600401546129ef565b600760008573ffffffffffffffffffffffffffffffffffffffff1673ffffffffffffffffffffffffffffffffffffffff16815260200190815260200160002060008373ffffffffffffffffffffffffffffffffffffffff1673ffffffffffffffffffffffffffffffffffffffff16815260200190815260200160002081905550600460008273ffffffffffffffffffffffffffffffffffffffff1673ffffffffffffffffffffffffffffffffffffffff16815260200190815260200160002060040154600660008573ffffffffffffffffffffffffffffffffffffffff1673ffffffffffffffffffffffffffffffffffffffff16815260200190815260200160002060008373ffffffffffffffffffffffffffffffffffffffff1673ffffffffffffffffffffffffffffffffffffffff168152602001908152602001600020819055505b5080806126a090613432565b91505061239e565b506126b1612b6b565b50565b7f000000000000000000000000000000000000000000000000000000000000000081565b7f000000000000000000000000000000000000000000000000000000000000000081565b6000600460008373ffffffffffffffffffffffffffffffffffffffff1673ffffffffffffffffffffffffffffffffffffffff16815260200190815260200160002060000154421161279157600460008373ffffffffffffffffffffffffffffffffffffffff1673ffffffffffffffffffffffffffffffffffffffff16815260200190815260200160002060040154905061294e565b6000600460008473ffffffffffffffffffffffffffffffffffffffff1673ffffffffffffffffffffffffffffffffffffffff16815260200190815260200160002060030154612822600460008673ffffffffffffffffffffffffffffffffffffffff1673ffffffffffffffffffffffffffffffffffffffff16815260200190815260200160002060010154426129d6565b61282c91906134e6565b9050600081148061283f57506000600354145b1561288f57600460008473ffffffffffffffffffffffffffffffffffffffff1673ffffffffffffffffffffffffffffffffffffffff1681526020019081526020016000206004015491505061294e565b600354670de0b6b3a764000082600460008773ffffffffffffffffffffffffffffffffffffffff1673ffffffffffffffffffffffffffffffffffffffff168152602001908152602001600020600201546128e991906137ac565b6128f391906137ac565b6128fd919061377b565b600460008573ffffffffffffffffffffffffffffffffffffffff1673ffffffffffffffffffffffffffffffffffffffff1681526020019081526020016000206004015461294a91906137ee565b9150505b919050565b61295b612b6b565b600073ffffffffffffffffffffffffffffffffffffffff168173ffffffffffffffffffffffffffffffffffffffff16036129ca576040517f08c379a00000000000000000000000000000000000000000000000000000000081526004016129c1906138d9565b60405180910390fd5b6129d381612c72565b50565b60008183106129e557816129e7565b825b905092915050565b600080600660008673ffffffffffffffffffffffffffffffffffffffff1673ffffffffffffffffffffffffffffffffffffffff16815260200190815260200160002060008573ffffffffffffffffffffffffffffffffffffffff1673ffffffffffffffffffffffffffffffffffffffff1681526020019081526020016000205483612a7a91906134e6565b9050600760008673ffffffffffffffffffffffffffffffffffffffff1673ffffffffffffffffffffffffffffffffffffffff16815260200190815260200160002060008573ffffffffffffffffffffffffffffffffffffffff1673ffffffffffffffffffffffffffffffffffffffff16815260200190815260200160002054670de0b6b3a764000082600560008973ffffffffffffffffffffffffffffffffffffffff1673ffffffffffffffffffffffffffffffffffffffff16815260200190815260200160002054612b4d91906137ac565b612b57919061377b565b612b6191906137ee565b9150509392505050565b612b73612d36565b73ffffffffffffffffffffffffffffffffffffffff16612b91612344565b73ffffffffffffffffffffffffffffffffffffffff1614612be7576040517f08c379a0000000000000000000000000000000000000000000000000000000008152600401612bde90613945565b60405180910390fd5b565b612c6c846323b872dd60e01b858585604051602401612c0a93929190613965565b604051602081830303815290604052907bffffffffffffffffffffffffffffffffffffffffffffffffffffffff19166020820180517bffffffffffffffffffffffffffffffffffffffffffffffffffffffff8381831617835250505050612d3e565b50505050565b60008060009054906101000a900473ffffffffffffffffffffffffffffffffffffffff169050816000806101000a81548173ffffffffffffffffffffffffffffffffffffffff021916908373ffffffffffffffffffffffffffffffffffffffff1602179055508173ffffffffffffffffffffffffffffffffffffffff168173ffffffffffffffffffffffffffffffffffffffff167f8be0079c531659141344cd1fd0a4f28419497f9722a3daafe3b4186f6b6457e060405160405180910390a35050565b600033905090565b6000612da0826040518060400160405280602081526020017f5361666545524332303a206c6f772d6c6576656c2063616c6c206661696c65648152508573ffffffffffffffffffffffffffffffffffffffff16612e069092919063ffffffff16565b9050600081511480612dc2575080806020019051810190612dc1919061356f565b5b612e01576040517f08c379a0000000000000000000000000000000000000000000000000000000008152600401612df890613a0e565b60405180910390fd5b505050565b6060612e158484600085612e1e565b90509392505050565b606082471015612e63576040517f08c379a0000000000000000000000000000000000000000000000000000000008152600401612e5a90613aa0565b60405180910390fd5b6000808673ffffffffffffffffffffffffffffffffffffffff168587604051612e8c9190613b31565b60006040518083038185875af1925050503d8060008114612ec9576040519150601f19603f3d011682016040523d82523d6000602084013e612ece565b606091505b5091509150612edf87838387612eeb565b92505050949350505050565b60608315612f4d576000835103612f4557612f0585612f60565b612f44576040517f08c379a0000000000000000000000000000000000000000000000000000000008152600401612f3b90613b94565b60405180910390fd5b5b829050612f58565b612f578383612f83565b5b949350505050565b6000808273ffffffffffffffffffffffffffffffffffffffff163b119050919050565b600082511115612f965781518083602001fd5b806040517f08c379a0000000000000000000000000000000000000000000000000000000008152600401612fca9190613c09565b60405180910390fd5b600080fd5b6000819050919050565b612feb81612fd8565b8114612ff657600080fd5b50565b60008135905061300881612fe2565b92915050565b600073ffffffffffffffffffffffffffffffffffffffff82169050919050565b60006130398261300e565b9050919050565b6130498161302e565b811461305457600080fd5b50565b60008135905061306681613040565b92915050565b6000806040838503121561308357613082612fd3565b5b600061309185828601612ff9565b92505060206130a285828601613057565b9150509250929050565b600080604083850312156130c3576130c2612fd3565b5b60006130d185828601613057565b92505060206130e285828601613057565b9150509250929050565b6130f581612fd8565b82525050565b600060208201905061311060008301846130ec565b92915050565b60008060006060848603121561312f5761312e612fd3565b5b600061313d86828701612ff9565b935050602061314e86828701613057565b925050604061315f86828701613057565b9150509250925092565b60006020828403121561317f5761317e612fd3565b5b600061318d84828501613057565b91505092915050565b600060a0820190506131ab60008301886130ec565b6131b860208301876130ec565b6131c560408301866130ec565b6131d260608301856130ec565b6131df60808301846130ec565b9695505050505050565b6000806000806080858703121561320357613202612fd3565b5b600061321187828801613057565b945050602061322287828801612ff9565b935050604061323387828801612ff9565b925050606061324487828801612ff9565b91505092959194509250565b60006020828403121561326657613265612fd3565b5b600061327484828501612ff9565b91505092915050565b6132868161302e565b82525050565b60006020820190506132a1600083018461327d565b92915050565b60008115159050919050565b6132bc816132a7565b82525050565b60006020820190506132d760008301846132b3565b92915050565b6000819050919050565b60006133026132fd6132f88461300e565b6132dd565b61300e565b9050919050565b6000613314826132e7565b9050919050565b600061332682613309565b9050919050565b6133368161331b565b82525050565b6000602082019050613351600083018461332d565b92915050565b600082825260208201905092915050565b7f7265656e7472616e742063616c6c000000000000000000000000000000000000600082015250565b600061339e600e83613357565b91506133a982613368565b602082019050919050565b600060208201905081810360008301526133cd81613391565b9050919050565b7f4e487b7100000000000000000000000000000000000000000000000000000000600052603260045260246000fd5b7f4e487b7100000000000000000000000000000000000000000000000000000000600052601160045260246000fd5b600061343d82612fd8565b91507fffffffffffffffffffffffffffffffffffffffffffffffffffffffffffffffff820361346f5761346e613403565b5b600182019050919050565b7f616d6f756e74203d203000000000000000000000000000000000000000000000600082015250565b60006134b0600a83613357565b91506134bb8261347a565b602082019050919050565b600060208201905081810360008301526134df816134a3565b9050919050565b60006134f182612fd8565b91506134fc83612fd8565b925082820390508181111561351457613513613403565b5b92915050565b600060408201905061352f600083018561327d565b61353c60208301846130ec565b9392505050565b61354c816132a7565b811461355757600080fd5b50565b60008151905061356981613543565b92915050565b60006020828403121561358557613584612fd3565b5b60006135938482850161355a565b91505092915050565b7f7472616e73666572206661696c65640000000000000000000000000000000000600082015250565b60006135d2600f83613357565b91506135dd8261359c565b602082019050919050565b60006020820190508181036000830152613601816135c5565b9050919050565b7f7472616e736665722066616c6965640000000000000000000000000000000000600082015250565b600061363e600f83613357565b915061364982613608565b602082019050919050565b6000602082019050818103600083015261366d81613631565b9050919050565b7f7374617274206d757374206c7420656e64000000000000000000000000000000600082015250565b60006136aa601183613357565b91506136b582613674565b602082019050919050565b600060208201905081810360008301526136d98161369d565b9050919050565b7f6e6f7420656e6400000000000000000000000000000000000000000000000000600082015250565b6000613716600783613357565b9150613721826136e0565b602082019050919050565b6000602082019050818103600083015261374581613709565b9050919050565b7f4e487b7100000000000000000000000000000000000000000000000000000000600052601260045260246000fd5b600061378682612fd8565b915061379183612fd8565b9250826137a1576137a061374c565b5b828204905092915050565b60006137b782612fd8565b91506137c283612fd8565b92508282026137d081612fd8565b915082820484148315176137e7576137e6613403565b5b5092915050565b60006137f982612fd8565b915061380483612fd8565b925082820190508082111561381c5761381b613403565b5b92915050565b6000608082019050613837600083018761327d565b61384460208301866130ec565b61385160408301856130ec565b61385e60608301846130ec565b95945050505050565b7f4f776e61626c653a206e6577206f776e657220697320746865207a65726f206160008201527f6464726573730000000000000000000000000000000000000000000000000000602082015250565b60006138c3602683613357565b91506138ce82613867565b604082019050919050565b600060208201905081810360008301526138f2816138b6565b9050919050565b7f4f776e61626c653a2063616c6c6572206973206e6f7420746865206f776e6572600082015250565b600061392f602083613357565b915061393a826138f9565b602082019050919050565b6000602082019050818103600083015261395e81613922565b9050919050565b600060608201905061397a600083018661327d565b613987602083018561327d565b61399460408301846130ec565b949350505050565b7f5361666545524332303a204552433230206f7065726174696f6e20646964206e60008201527f6f74207375636365656400000000000000000000000000000000000000000000602082015250565b60006139f8602a83613357565b9150613a038261399c565b604082019050919050565b60006020820190508181036000830152613a27816139eb565b9050919050565b7f416464726573733a20696e73756666696369656e742062616c616e636520666f60008201527f722063616c6c0000000000000000000000000000000000000000000000000000602082015250565b6000613a8a602683613357565b9150613a9582613a2e565b604082019050919050565b60006020820190508181036000830152613ab981613a7d565b9050919050565b600081519050919050565b600081905092915050565b60005b83811015613af4578082015181840152602081019050613ad9565b60008484015250505050565b6000613b0b82613ac0565b613b158185613acb565b9350613b25818560208601613ad6565b80840191505092915050565b6000613b3d8284613b00565b915081905092915050565b7f416464726573733a2063616c6c20746f206e6f6e2d636f6e7472616374000000600082015250565b6000613b7e601d83613357565b9150613b8982613b48565b602082019050919050565b60006020820190508181036000830152613bad81613b71565b9050919050565b600081519050919050565b6000601f19601f8301169050919050565b6000613bdb82613bb4565b613be58185613357565b9350613bf5818560208601613ad6565b613bfe81613bbf565b840191505092915050565b60006020820190508181036000830152613c238184613bd0565b90509291505056fea26469706673582212206dab9eca458de10d0be3240d15c7c22460c88412bd4354e5632e6638d2e3e32964736f6c63430008120033","linkReferences":{}},"methodIdentifiers":{"balanceOf(address)":"70a08231","claim()":"4e71d92d","earned(address,address)":"211dc32d","inRewardsTokenList(address)":"9f9a43f2","lendingPool()":"a59a9973","owner()":"8da5cb5b","renounceOwnership()":"715018a6","rewardData(address)":"48e5d9f8","rewardPerToken(address)":"f1229777","rewardTokens(uint256)":"7bb7bed1","rewardsTokenListLength()":"8de4e990","setReward(address,uint256,uint256,uint256)":"5f7938f1","stake(uint256,address)":"7acb7757","stakedToken()":"cc7a262e","totalStaked()":"817b1cd2","transferOwnership(address)":"f2fde38b","update()":"a2e62045","userRewardPerTokenPaid(address,address)":"7035ab98","userRewardsClaimable(address,address)":"0e596e3b","withdraw(uint256,address)":"00f714ce","withdrawByLendingPool(uint256,address,address)":"1b503fa5"},"id":29}